:100000000C94690E0C94960E0C94960E0C94960E0D
:100010000C94960E0C94960E0C94960E0C94960ED0
:100020000C94960E0C94960E0C94960E0C94960EC0
:100030000C94960E0C94960E0C94960E0C94960EB0
:100040000C94960E0C94960E0C94960E0C94960EA0
:100050000C94960E0C94960E0C94960E0C94316F94
:100060000C94960E0C94960E0C94960E0C94960E80
:100070000C94960E0C94960E0C94960E0C94960E70
:100080000C94960E0C94960E0C94960E0C94960E60
:100090000C94960E0C94960E0C94960E0C94C03103
:1000A0000C94960E0C94960E0C94960E0C94960E40
:1000B0000C94960E0C94960E0C94960E0C94960E30
:1000C0000C94960E0C94960E0C94960E0C94960E20
:1000D0000C94960E0C94960E0C94960E0C94960E10
:1000E0000C94960E443A6A3A9B3A2F3B2F3B2F3B97
:1000F000B53A843B443A843BDF3A843BF23AF23AE5
:10010000193B193B9B3A2F3B2F3B9B3AF23A843BDE
:100110002F3B4C3B843B843B843B843B843B6D3B8B
:10012000843BEB48874AA44B984CD54DD54DB04FF6
:100130001751265624527E53EB53B857C158725A62
:10014000725AA44B755B755BA44B9459D05C6A4E94
:10015000995D645E6A60915F23616A62CA63DF636E
:1001600005A84CCDB2D44EB93836A9020C50B9917D
:100170008688083CA6AAAA2ABE000000803F005E2E
:10018000BCE2613FDD83C29C7E20A3FD1F419DC375
:10019000217FFCA2401E5F01E3BD3E6082DC237D27
:1001A0009FC1421CFEA0E1BF5D0380DE3C62BEE059
:1001B000025CDF81633D7C22C09E1D43A1FF461887
:1001C000FAA427799BC584DA3866E5BB5907DB8535
:1001D0006739BAE406581947A5FB7826C49A653BE7
:1001E000D987045AB8E6A7F91B45C6987A24F8A619
:1001F000441A99C7257B3A6486D85B05E7B98CD247
:10020000306EEDB3510F4E10F2AC2F7193CD114FF4
:10021000ADF3702ECC92D38D6F31B2EC0E50AFF1A6
:10022000134DCE90722C6D33D18F0C52B0EE326CD8
:100230008ED0530DEFB1F0AE4C1291CF2D73CA9406
:100240007628ABF517490856B4EA6937D58B5709B4
:10025000EBB536688AD495CB2977F4AA4816E9B766
:10026000550B88D6346A2B7597C94A14F6A8742A98
:10027000C896154BA9F7B6E80A54D7896B35080C10
:10028000205F0000000000000000000000000000EF
:1002900020202020202000200000002850500000B6
:1002A00000000000000000002828FC2850FC5050EE
:1002B0000000002078A8A0603028A8F020000000EE
:1002C00048A8B0502834544800000000205050780E
:1002D000A8A8906C000000404080000000000000D2
:1002E0000000000408101010101010080400004056
:1002F0002010101010101020400000000020A870E6
:1003000070A8200000000000202020F820202000FD
:1003100000000000000000000000004040800000DD
:10032000000000F8000000000000000000000000D5
:100330000000004000000008101010202040404045
:10034000800000007088888888888870000000001D
:10035000206020202020207000000000708888107D
:10036000204080F80000000070880830080888707D
:10037000000000001030505090781018000000006D
:10038000F88080F00808887000000000709080F00D
:100390008888887000000000F8901020202020201D
:1003A0000000000070888870888888700000000055
:1003B00070888888780848700000000000002000DD
:1003C00000000020000000000000002000000020CD
:1003D0002000000408102040201008040000000045
:1003E0000000F80000F800000000004020100804A1
:1003F0000810204000000000708888102020002095
:1004000000000000708898A8A8B88078000000005C
:1004100020203050507848CC00000000F048487050
:10042000484848F00000000078888080808088700C
:1004300000000000F0484848484848F0000000002C
:10044000F8485070504048F800000000F8485070DC
:10045000504040E000000000384880809C884830D0
:1004600000000000CC484878484848CC0000000014
:10047000F8202020202020F8000000007C10101020
:1004800010101090E0000000EC485060505048EC14
:1004900000000000E0404040404044FC00000000FC
:1004A000D8D8D8D8A8A8A8A800000000DC48686858
:1004B000585848E80000000070888888888888704C
:1004C00000000000F0484870404040E0000000009C
:1004D0007088888888E8987018000000F048487094
:1004E000504848EC0000000078888060100888F0D0
:1004F00000000000F8A8202020202070000000004C
:10050000CC4848484848483000000000CC48485093
:100510005030202000000000A8A8A8705050505073
:1005200000000000D8505020205050D8000000009B
:10053000D85050202020207000000000F89010209B
:10054000204048F8000000382020202020202020D3
:1005500038000040404020201010100800000070BB
:10056000101010101010101070000020500000002B
:10057000000000000000000000000000000000007B
:1005800000FC00200000000000000000000000004F
:10059000000000304838483C00000000C040407077
:1005A00048484870000000000000003848404038CB
:1005B00000000000180808384848483C00000000C7
:1005C0000000003048784038000000001C202078EF
:1005D00020202078000000000000003C48304078D7
:1005E00044380000C0404070484848EC000000001B
:1005F000200000602020207000000000100000306B
:100600001010101010E00000C040405C507048EC2A
:1006100000000000E0202020202020F80000000042
:10062000000000F0A8A8A8A800000000000000F04A
:10063000484848EC000000000000003048484830BE
:1006400000000000000000F04848487040E0000052
:100650000000003848484838081C0000000000D856
:10066000604040E000000000000000784030087862
:100670000000000000202070202020180000000052
:10068000000000D84848483C00000000000000EC92
:100690004850302000000000000000A8A870505012
:1006A00000000000000000D8502050D800000000DA
:1006B000000000EC4850302020C00000000000780E
:1006C00010202078000000181010102010101010BA
:1006D00018001010101010101010101010100060E2
:1006E0002020201020202020600040A418000000BE
:1006F0000000000000001010205F0000000000005B
:1007000000000000000000000000000000000000E9
:1007100000000000000000000000000000000700D2
:100720000F800F800F800F800F80070007000000F0
:100730000000070007000700000000000E380E3818
:100740000E380E38063000000000000000000000E7
:100750000000000000000000000000000C300C3021
:100760000C307FFE7FFE0C300C300C300C307FFEE6
:100770007FFE0C300C300C300000000002400240C4
:100780000FF81FF81A401A401FF00FF802580258CD
:100790001FF81FF0024002400000000000000000AF
:1007A0000E100E300E7000E001C0038007000E70C6
:1007B0000C700870000000000000000000000F0036
:1007C0001980198019800F000F080F9819F818F078
:1007D00018E019F00F98000000000000000007006A
:1007E000070007000E0000000000000000000000ED
:1007F000000000000000000000000000000000F009
:1008000001C0038007000E000E000E000E0007005E
:10081000038001C000F000000000000000000F0095
:10082000038001C000E0007000700070007000E004
:1008300001C003800F0000000000000000000180E4
:100840001188099007E007E03FFC3FFC07E007E064
:1008500009901188018000000000000000000000E5
:1008600000000180018001800FF00FF00180018005
:1008700001800000000000000000000000000000F7
:100880000000000000000000000000000000000068
:100890000700070007000E00000000000000000035
:1008A00000000000000000001FF81FF8000000001A
:1008B0000000000000000000000000000000000038
:1008C0000000000000000000000000000000000028
:1008D0000700070007000000000000000000000201
:1008E0000006000E001C0038007000E001C003800C
:1008F00007000E001C0000000000000000000FF0C8
:100900001C381C781CF81CF81DB81DB81F381F387F
:100910001E381C380FF000000000000000000180AD
:10092000018003801F801F80038003800380038079
:10093000038003801FF000000000000000000FE0B3
:100940001C701C380038007000E001C003800700F4
:100950000E381C381FF800000000000000000FE0F7
:100960001C701C380038007003C003C000700038D1
:100970001C381C700FE0000000000000000000E0C8
:1009800001E003E006E00CE018E01FF81FF800E0CB
:1009900000E000E003F800000000000000001FF885
:1009A0001C001C001C001C001FE01FF00078003819
:1009B0001C381C700FE0000000000000000003E085
:1009C00007000E001C001C001FF01FF81C381C380C
:1009D0001C381C380FF000000000000000001FFC55
:1009E0001C1C1C1C1C1C001C0038007000E001C0FA
:1009F00003800380038000000000000000000FF06F
:100A00001C381C381C381F3807E007E01CF81C385D
:100A10001C381C380FF000000000000000000FF030
:100A20001C381C381C381C381FF80FF800380038E8
:100A3000007000E007C0000000000000000000009F
:100A40000000038003800380000000000380038017
:100A50000380000000000000000000000000000013
:100A600000000380038003800000000003800380F7
:100A7000038007000000000000000000007000E09C
:100A800001C0038007000E001C001C000E000700C0
:100A9000038001C000E000700000000000000000C2
:100AA000000000003FFC3FFC000000003FFC3FFC5A
:100AB0000000000000000000000000001C000E000C
:100AC0000700038001C000E00070007000E001C07A
:100AD000038007000E001C000000000003C00FF0A0
:100AE0001E7818380038007000E001C001C0000016
:100AF000000001C001C001C0000000000FF81C1C74
:100B00001C1C1C1C1C1C1CFC1CFC1CFC1CFC1C00C1
:100B10001C001C001FF007F800000000000003C0CC
:100B200007E00E701C381C381C381C381FF81C38A5
:100B30001C381C381C3800000000000000001FF0AA
:100B40000E380E380E380E380FF00FF00E380E3803
:100B50000E380E381FF0000000000000000007F003
:100B60000E381C381C001C001C001C001C001C0043
:100B70001C380E3807F000000000000000001FE0E5
:100B80000E700E380E380E380E380E380E380E38FD
:100B90000E380E701FE000000000000000001FF87B
:100BA0000E180E080E000E300FF00FF00E300E0073
:100BB0000E080E181FF800000000000000001FF8CB
:100BC0000E180E080E000E300FF00FF00E300E0053
:100BD0000E000E001F00000000000000000007F0E3
:100BE0000E381C381C381C001C001C001CF81C385B
:100BF0001C380E3807F800000000000000001C70D0
:100C00001C701C701C701C701FF01FF01C701C707E
:100C10001C701C701C7000000000000000000FE041
:100C200003800380038003800380038003800380AC
:100C3000038003800FE0000000000000000001FCC2
:100C400000700070007000700070007038703870B4
:100C5000387038700FE000000000000000001E38FF
:100C60000E380E700EE00FC00F800F800FC00EE028
:100C70000E700E381E3800000000000000001F003B
:100C80000E000E000E000E000E000E000E000E08EC
:100C90000E180E381FF800000000000000001C1C99
:100CA0001E3C1F7C1FFC1FFC1DDC1C9C1C1C1C1CF8
:100CB0001C1C1C1C1C1C00000000000000001C1C54
:100CC0001C1C1E1C1F1C1F9C1DDC1CFC1C7C1C3CBB
:100CD0001C1C1C1C1C1C000000000000000003E089
:100CE00007F00E381C1C1C1C1C1C1C1C1C1C1C1C77
:100CF0000E3807F003E000000000000000001FF0C5
:100D00000E380E380E380E380FF00FF00E000E00B1
:100D10000E000E001F00000000000000000003E0B5
:100D20000F780E381C1C1C1C1C1C1C1C1C7C1CFC66
:100D30000FF80FF8003800FC0000000000001FF062
:100D40000E380E380E380E380FF00FF00E700E38C9
:100D50000E380E381E3800000000000000000FF0B2
:100D60001C381C381C381C000FE007F000381C38F9
:100D70001C381C380FF000000000000000001FFCB1
:100D800019CC11C401C001C001C001C001C001C023
:100D900001C001C007F000000000000000001C704E
:100DA0001C701C701C701C701C701C701C701C70E3
:100DB0001C701C700FE000000000000000001C70A0
:100DC0001C701C701C701C701C701C701C701C70C3
:100DD0000EE007C0038000000000000000001C1CA3
:100DE0001C1C1C1C1C1C1C1C1C9C1C9C1C9C0FF8F4
:100DF0000FF80770077000000000000000001C7072
:100E00001C701C700EE007C00380038007C00EE05A
:100E10001C701C701C7000000000000000001C70A2
:100E20001C701C701C701C700EE007C003800380D7
:100E3000038003800FE000000000000000001FF8A6
:100E40001C381838107000E001C0038007000E083D
:100E50001C181C381FF8000000000000000007F0FC
:100E6000070007000700070007000700070007004A
:100E70000700070007F0000000000000000010005D
:100E800018001C000E000700038001C000E0007085
:100E90000038001C0007000000000000000007F000
:100EA00000700070007000700070007000700070C2
:100EB0000070007007F0000000000000018003C017
:100EC00007E00E701C380000000000000000000069
:100ED0000000000000000000000000000000000012
:100EE0000000000000000000000000000000000002
:100EF0000000000000007FFF7FFF000000001C00DA
:100F00001C000700070000000000000000000000B7
:100F100000000000000000000000000000000000D1
:100F20000000000000000FE0007000700FF01C7067
:100F30001C701C700FD800000000000000001E0094
:100F40000E000E000E000FF00E380E380E380E3860
:100F50000E380E381BF000000000000000000000FA
:100F60000000000000000FE01C701C701C001C0042
:100F70001C701C700FE0000000000000000000F872
:100F80000070007000700FF01C701C701C701C70E2
:100F90001C701C700FD80000000000000000000052
:100FA0000000000000000FE01C701C701FF01C000F
:100FB0001C701C700FE0000000000000000003E047
:100FC00007700770070007001FE01FE00700070019
:100FD000070007001FC00000000000000000000024
:100FE0000000000000000FD81C701C701C701C70EA
:100FF0000FF007F000701C700FE0000000001E00F2
:101000000E000E000E000EF00F380F380E380E389E
:101010000E380E381E38000000000000000001C02D
:1010200001C001C000000FC001C001C001C001C06B
:1010300001C001C00FF800000000000000000070B7
:1010400000700070000003F000700070007000700D
:10105000007000701C700CF007E0000000001E0023
:101060000E000E000E000E380E700EE00FC00EE0E7
:101070000E700E381E3800000000000000000FC087
:1010800001C001C001C001C001C001C001C001C058
:1010900001C001C00FF800000000000000000000C7
:1010A0000000000000001FF81C9C1C9C1C9C1C9C49
:1010B0001C9C1C9C1C9C0000000000000000000008
:1010C0000000000000001FE01C701C701C701C70F1
:1010D0001C701C701C70000000000000000000006C
:1010E0000000000000000FE01C701C701C701C70E1
:1010F0001C701C700FE000000000000000000000E9
:101100000000000000001BF00E380E380E380E38BC
:101110000E380FF00E000E001F000000000000004F
:101120000000000000001FB038E038E038E038E090
:1011300038E01FE000E000E001F0000000000000E7
:101140000000000000001EF00FF80F380E000E0027
:101150000E000E001F000000000000000000000054
:101160000000000000000FE01C301C300F8003E086
:10117000187018700FE00000000000000000000070
:101180000100030007001FF0070007000700070029
:101190000770077003E0000000000000000000007E
:1011A0000000000000001C701C701C701C701C7083
:1011B0001C701C700FD80000000000000000000030
:1011C0000000000000001C701C701C701C701C7063
:1011D0000EE007C0038000000000000000000000D7
:1011E0000000000000001C1C1C1C1C1C1C9C1C9CE7
:1011F0000FF80770077000000000000000000000FA
:101200000000000000001CE01CE00FC00780078009
:101210000FC01CE01CE00000000000000000000007
:101220000000000000000E380E380E380E380E3860
:1012300007F003E000E001C01F8000000000000094
:101240000000000000001FE018E011C0038007004C
:101250000E201C601FE0000000000000000001F8EC
:1012600003800380038007001C001C00070003802C
:101270000380038001F800000000000001C001C0ED
:1012800001C001C001C001C001C001C001C001C056
:1012900001C001C001C001C00000000000001F80AB
:1012A00001C001C001C000E00038003800E001C00A
:1012B00001C001C01F8000000000000000001F1CD2
:1012C0003B9C39DC38F80000000000000000000002
:1012D000000000000000000000002032300A000082
:1012E00000000000000000FFFE0001FFFF0003FF00
:1012F000FF8001FFFF600CFFFEF01E0001F83F00C1
:1013000001F83F0001F83F0001F83F0001F83F00FD
:1013100001F83F0001F83F0001F83F0001F83F00ED
:1013200001F83F0001F83F0001F83F0001F83F00DD
:1013300001F83E0000783800001820000008000086
:10134000000020000000380000183E0000783F0038
:1013500001F83F0001F83F0001F83F0001F83F00AD
:1013600001F83F0001F83F0001F83F0001F83F009D
:1013700001F83F0001F83F0001F83F0001F83F008D
:1013800001F83F0001F81E0000F00CFFFE6001FFB5
:10139000FF0003FFFF8001FFFF0000FFFE000000D1
:1013A000000000000000000000000000000000003D
:1013B00000000000000000000000000000600000CD
:1013C00000F0000001F8000001F8000001F8000042
:1013D00001F8000001F8000001F8000001F8000029
:1013E00001F8000001F8000001F8000001F8000019
:1013F00001F8000001F8000001F80000007800008A
:1014000000180000000800000000000000000000BC
:10141000001800000078000001F8000001F800004A
:1014200001F8000001F8000001F8000001F80000D8
:1014300001F8000001F8000001F8000001F80000C8
:1014400001F8000001F8000001F8000001F80000B8
:1014500000F000000060000000000000000000003C
:10146000000000000000000000000000000000007C
:1014700000000000000000FFFE0001FFFF0003FF6E
:10148000FF8001FFFF6000FFFEF0000001F8000098
:1014900001F8000001F8000001F8000001F8000068
:1014A00001F8000001F8000001F8000001F8000058
:1014B00001F8000001F8000001F8000001F8000048
:1014C00001F80000007801FFFE1803FFFF880FFFFE
:1014D000FFE027FFFFC039FFFF003E0000003F0094
:1014E00000003F0000003F0000003F0000003F0000
:1014F00000003F0000003F0000003F0000003F00F0
:1015000000003F0000003F0000003F0000003F00DF
:1015100000003F0000001E0000000CFFFE0001FF65
:10152000FF0003FFFF8001FFFF0000FFFE0000003F
:10153000000000000000000000000000000000FFAC
:10154000FE0001FFFF0003FFFF8001FFFF6000FFBF
:10155000FEF0000001F8000001F8000001F80000B2
:1015600001F8000001F8000001F8000001F8000097
:1015700001F8000001F8000001F8000001F8000087
:1015800001F8000001F8000001F80000007801FFF8
:10159000FE1803FFFF880FFFFFE007FFFFC001FFFA
:1015A000FF1800000078000001F8000001F80000BA
:1015B00001F8000001F8000001F8000001F8000047
:1015C00001F8000001F8000001F8000001F8000037
:1015D00001F8000001F8000001F8000001F8000027
:1015E00000F000FFFE6001FFFF0003FFFF8001FF2E
:1015F000FF0000FFFE0000000000000000000000EF
:1016000000000000000000000000000000000000DA
:101610000000000000600C0000F01E0001F83F0018
:1016200001F83F0001F83F0001F83F0001F83F00DA
:1016300001F83F0001F83F0001F83F0001F83F00CA
:1016400001F83F0001F83F0001F83F0001F83F00BA
:1016500001F83E00007839FFFE1823FFFF880FFFD6
:10166000FFE007FFFFC001FFFF1800000078000047
:1016700001F8000001F8000001F8000001F8000086
:1016800001F8000001F8000001F8000001F8000076
:1016900001F8000001F8000001F8000001F8000066
:1016A00001F8000001F8000000F0000000600000F8
:1016B000000000000000000000000000000000002A
:1016C000000000000000000000000000000000FF1B
:1016D000FE0001FFFF0003FFFF8001FFFF000CFF82
:1016E000FE001E0000003F0000003F0000003F0021
:1016F00000003F0000003F0000003F0000003F00EE
:1017000000003F0000003F0000003F0000003F00DD
:1017100000003F0000003F0000003E00000039FFD5
:10172000FE0023FFFF800FFFFFE007FFFFC001FF68
:10173000FF1800000078000001F8000001F8000028
:1017400001F8000001F8000001F8000001F80000B5
:1017500001F8000001F8000001F8000001F80000A5
:1017600001F8000001F8000001F8000001F8000095
:1017700000F000FFFE6001FFFF0003FFFF8001FF9C
:10178000FF0000FFFE00000000000000000000005D
:1017900000000000000000FFFE0001FFFF0003FF4B
:1017A000FF8001FFFF000CFFFE001E0000003F0055
:1017B00000003F0000003F0000003F0000003F002D
:1017C00000003F0000003F0000003F0000003F001D
:1017D00000003F0000003F0000003F0000003F000D
:1017E00000003E00000039FFFE0023FFFF800FFFD6
:1017F000FFE027FFFFC039FFFF183E0000783F00E1
:1018000001F83F0001F83F0001F83F0001F83F00F8
:1018100001F83F0001F83F0001F83F0001F83F00E8
:1018200001F83F0001F83F0001F83F0001F83F00D8
:1018300001F83F0001F81E0000F00CFFFE6001FF00
:10184000FF0003FFFF8001FFFF0000FFFE0000001C
:10185000000000000000000000000000000000FF89
:10186000FE0001FFFF0003FFFF8001FFFF6000FF9C
:10187000FEF0000001F8000001F8000001F800008F
:1018800001F8000001F8000001F8000001F8000074
:1018900001F8000001F8000001F8000001F8000064
:1018A00001F8000001F8000001F8000000780000D5
:1018B0000018000000080000000000000000000008
:1018C000001800000078000001F8000001F8000096
:1018D00001F8000001F8000001F8000001F8000024
:1018E00001F8000001F8000001F8000001F8000014
:1018F00001F8000001F8000001F8000001F8000004
:1019000000F0000000600000000000000000000087
:1019100000000000000000000000000000000000C7
:1019200000000000000000FFFE0001FFFF0003FFB9
:10193000FF8001FFFF600CFFFEF01E0001F83F007A
:1019400001F83F0001F83F0001F83F0001F83F00B7
:1019500001F83F0001F83F0001F83F0001F83F00A7
:1019600001F83F0001F83F0001F83F0001F83F0097
:1019700001F83E00007839FFFE1823FFFF880FFFB3
:10198000FFE027FFFFC039FFFF183E0000783F004F
:1019900001F83F0001F83F0001F83F0001F83F0067
:1019A00001F83F0001F83F0001F83F0001F83F0057
:1019B00001F83F0001F83F0001F83F0001F83F0047
:1019C00001F83F0001F81E0000F00CFFFE6001FF6F
:1019D000FF0003FFFF8001FFFF0000FFFE0000008B
:1019E000000000000000000000000000000000FFF8
:1019F000FE0001FFFF0003FFFF8001FFFF600CFFFF
:101A0000FEF01E0001F83F0001F83F0001F83F0022
:101A100001F83F0001F83F0001F83F0001F83F00E6
:101A200001F83F0001F83F0001F83F0001F83F00D6
:101A300001F83F0001F83F0001F83E00007839FF4F
:101A4000FE1823FFFF880FFFFFE007FFFFC001FF25
:101A5000FF1800000078000001F8000001F8000005
:101A600001F8000001F8000001F8000001F8000092
:101A700001F8000001F8000001F8000001F8000082
:101A800001F8000001F8000001F8000001F8000072
:101A900000F000FFFE6001FFFF0003FFFF8001FF79
:101AA000FF0000FFFE00000000000000000000003A
:101AB0002100240027002A002D00300033000101FE
:101AC0000000040107010A0100002200250028008F
:101AD0002B002E0031003400020100000501080136
:101AE0000B01000020002300260029002C002F00FD
:101AF000320000010000030106010901050505058A
:101B0000070508080808020202020A0A0808040475
:101B100004040101010101010101030303030303A3
:101B20000303040707070C0C0C0C0C0C0C0C020232
:101B3000020206060606060606060B0B0B0B0B0B2F
:101B40000B0B0102102020080810204010204080BC
:101B50000201020108040201010204081020408071
:101B600080402010080402018004020180402010FF
:101B70000804020108040201010204081020408048
:101B800001020408102040800000090A02080B0C22
:101B90000D07060304010000000000000000000023
:101BA0000000000000000000000000000000000035
:101BB0000000000011100F000000000000000000F5
:101BC00000000000000000000000000000000040D5
:101BD0007A10F35A00A0724E18090010A5D4E8003C
:101BE00000E87648170000E40B54020000CA9A3B54
:101BF000000000E1F50500008096980000004042DA
:101C00000F000000A0860100000010270000000067
:101C1000E803000000006400000000000A0000006B
:101C200000000100000000002C76D888DC674F0817
:101C300023DFC1DFAE59E1B1B796E5E3E453C63A1D
:101C4000E651997696E8E6C28426EB898C9B62ED94
:101C5000407C6FFCEFBC9C9F40F2BAA56FA5F4904E
:101C6000055A2AF75C936B6CF9676DC11BFCE0E4C5
:101C70000D47FEF520E6B500D0ED902E030094351B
:101C800077050080841E080000204E0A000000C86E
:101C90000C333333330F986E12831141EF8D2114BF
:101CA000893BE65516CFFEE6DB18D1844B381BF78F
:101CB0007C1D901DA4BBE424203284725E2281002E
:101CC000C9F124ECA1E53D274615792D5C30093496
:101CD0003F1511241FBECFEFD1E2DEBFCDBF00E024
:101CE0000CBF15E0A0E0B2E0E4EEF1EF00E00BBFC6
:101CF00002C007900D92AC33B107D9F71BBE17E0B5
:101D0000ACE3B5E001C01D92A536B107E1F71CE1D7
:101D1000C0EDDCE104C02297FE010E94AA78C83C15
:101D2000D107C9F70E9441710C94E5780C9400002A
:101D3000EF92FF920F931F93F22FF02E47FD02C0F8
:101D4000E4E001C0E4E1242F332727FD309537FF7D
:101D500003C0309521953F4F4F2D512F0F2FEE2E61
:101D60000E94350F8F2D912F1F910F91FF90EF90B3
:101D700008951F93FC0199278827BC01E8941191CD
:101D80001032E9F3193010F01E30C8F31B3251F055
:101D90001D3249F4689406C00E94200F610F711D26
:101DA000811D911D119110531A30B0F33EF490959E
:101DB0008095709561957F4F8F4F9F4F1F9108952C
:101DC000FB01DC0102C001900D9241505040D8F758
:101DD0000895FB01DC0101900D920020E1F70895C8
:101DE000FB01DC014150504048F001900D92002071
:101DF000C9F701C01D9241505040E0F70895FB0122
:101E00009F01E8944230C4F04532B4F44A3029F4DA
:101E100097FB1EF4909581959F4F642F77270E9422
:101E20004478805D8A330CF0895D8193CB01009703
:101E3000A1F716F45DE251931082C9010C946F1161
:101E4000592F482F372F262F660F771F881F991F6E
:101E5000660F771F881F991F620F731F841F951FBE
:101E6000660F771F881F991F0895A9E0B0E0EBE384
:101E7000FFE00C94B2786A01122FA02EBE2C2BE347
:101E8000201718F42CE3922E02C0902E9394AE01EA
:101E90004F5F5F4F27E0092D0E949710BC01898199
:101EA000E82EFF24C70189709070019711F4ADE20C
:101EB00009C0B1FE02C0ABE205C0B0FC02C0A0E0A8
:101EC00001C0A0E2E3FE3BC0AA2311F423E001C05D
:101ED00024E0211710F020E002C0121B212FEB2C70
:101EE000B4FE02C0322F0AC0F601322F80E202C0D7
:101EF000819331503323E1F7C20ED11CAA2319F08C
:101F0000F601A1936F01F6013196E2FE05C09EE451
:101F1000D6019C9381E404C09EE6D6019C9381E6A1
:101F200011968C9391833296DF01832F90E202C049
:101F30009D9381508823E1F7E30FF11D40C0E2FE3D
:101F400042C0AA2311F423E001C024E0211710F0BD
:101F500020E002C0121B212FEB2CB4FE02C0922FF6
:101F60000AC0F601922F80E202C08193915099231A
:101F7000E1F7C20ED11CAA2319F0F601A1936F015B
:101F8000F6013196E2FE08C089E4D6018C938EE416
:101F900011968C9386E407C089E6D6018C938EE671
:101FA00011968C9386E681833296DF01892F20E299
:101FB00002C02D9381508823E1F7E90FF11D1082B3
:101FC0002EEF3FEFAFC0161617061CF041E050E0B1
:101FD00003C0AB014F5F5F4FAA2019F480E090E08F
:101FE00003C08A2D90E0019620E030E0AA2311F092
:101FF00021E030E0240F351F280F391F812F90E09A
:102000002817390714F020E002C0121B212F4B2D96
:1020100050E0CA0180719070B4FC0DC0B3FC0BC0DD
:10202000F601322F40E202C0419331503323E1F7F1
:10203000C20ED11C01C0322FAA2319F0F601A193C0
:102040006F01892B11F0132F0AC0F601132F80E3C3
:1020500002C0819311501123E1F7C30ED11C092D49
:10206000060FBA8090E1892E912C8E209F20E4FEED
:1020700004C0F1E3BF1609F40150101614F001E09A
:1020800003C0093008F008E09B0177FF02C020E0A0
:1020900030E0CB010196821B930BFE013196E80FD5
:1020A000F91F8EE2F82E3B01601A71088A2D90E02C
:1020B00044275527481B590B8FEF2F3F380719F43A
:1020C000D601FD926D01621773072CF0621673063C
:1020D00014F4808101C080E32150304031962417F0
:1020E000350724F0D6018D936D01E6CF261737070B
:1020F00049F4B5E3BB1528F0BB1621F48114910413
:1021000009F481E3F6018193D601812F90E202C0A8
:102110009C93815011968823D9F7E10FF11D10820D
:1021200020E030E0C9012996EEE00C94CE7828300A
:1021300008F027E03327DA01990F311D87FD916000
:1021400000966105710539F432602E5F3D9330E3EE
:102150002A95E1F708959F3F30F0803871056105B9
:1021600009F03C5F3C5F3D93913008F08068911D21
:10217000DF93CF931F930F93FF92EF92192F987FC6
:102180009695E92F96959695E90FFF27E85DF34E12
:1021900099273327EE24FF24A701E701059008942F
:1021A000079428F4360FE71EF81E491F511D660FCD
:1021B000771F881F991F0694A1F70590079428F4AC
:1021C000E70EF81E491F561FC11D770F881F991F64
:1021D000661F0694A1F70590079428F4F80E491F8E
:1021E000561FC71FD11D880F991F661F771F0694A2
:1021F000A1F70590079420F4490F561FC71FD81F59
:10220000990F661F771F881F0694A9F78491109570
:10221000177041F0D695C79557954795F794E79471
:102220001A95C1F7EEECFBE1689415901591359184
:102230006591959105907FE27395E118F10A430B42
:10224000560BC90BD009C0F7E10CF11E431F561FF6
:10225000C91FD01D7EF4703311F48A95E6CFE8943F
:10226000015030F0080F0AF40027021708F4202F5D
:102270002395022F7A3328F079E37D932A95E9F7A5
:1022800010C07D932A9589F60694979567953795A2
:1022900017951794E118F10A430B560BC90BD00997
:1022A00098F023957E9173957A3308F070E37C93D0
:1022B0002013B8F77E9170617D9330F0839571E3C0
:1022C0007D9370E32A95E1F71124EF90FF900F9131
:1022D0001F91CF91DF91992787FD90950895DC019B
:1022E000FC01672F71917723E1F7329704C07C914D
:1022F0006D9370836291AE17BF07C8F30895FC0118
:1023000084A595A50895DF93CF93CDB7DEB7279722
:102310000FB6F894DEBF0FBECDBFDE011196FC01F3
:10232000B59687E001900D928150E1F729813A81BD
:102330004B815C816D817E818F8190E027960FB605
:10234000F894DEBF0FBECDBFCF91DF910895DF922D
:10235000EF92FF920F931F938B0186E9E82E86E0A0
:10236000F82EC7010E940F30D82E0F5F1F4FC701F4
:10237000B8010E940F30382F20E02D0D311DC9010A
:102380001F910F91FF90EF90DF900895DF92EF92F1
:10239000FF920F931F938B01D52E96E9E92E96E0BD
:1023A000F92EC7010E9416300F5F1F4FC701B801F9
:1023B0004D2D0E9416301F910F91FF90EF90DF90EE
:1023C0000895CF93DF93EC01EAA9FBA99AA1848138
:1023D0009817A1F44CA95DA95DA74CA768857985DC
:1023E000CE010E94C6118AA189A7EAA9FBA9828110
:1023F000883008F488E08FA38EA58EA3DF91CF915B
:102400000895FC01AB0177AB66AB648575850E94CE
:10241000C61108950F931F938C01FC01848160E025
:102420000E940E71F801868160E00E940E71F80131
:10243000828160E00E940E711F910F9108950F93A9
:102440001F938C01FC01828161E00E940E71F801F2
:10245000848161E00E940E71F801868160E00E9433
:102460000E711F910F910895EF92FF920F931F939A
:10247000CF93DF93EC018E899F890397A1F50E948A
:10248000796F7B018C012EA93FA98CA99DA9AC0174
:10249000249FC001259F900D349F900D112468E06A
:1024A00070E00E9458789B01442737FD4095542FD7
:1024B000888D998DAA8DBB8DE81AF90A0A0B1B0B22
:1024C000E216F3060407150788F48CA59DA5A0E085
:1024D000B0E0281739074A075B0728F4E816F90621
:1024E0000A071B0718F4EE24FF248701B701C8016F
:1024F000DF91CF911F910F91FF90EF900895EF9290
:10250000FF920F931F93CF93DF93EC017A018B011E
:102510000E940A120E94796F688F798F8A8F9B8F31
:1025200082E090E09F8B8E8B2EA93FA9442737FD38
:102530004095542FC801B7010E946B78CA01B901B8
:102540000E94A67620E030E040E05FE30E94A6759E
:102550000E947576AB017D8F6C8F509541955F4FD2
:102560005DA74CA768857985CE010E94C611DE0162
:102570005E962AA93BA9C901FC0187E001900D9252
:102580008150E1F76C897D89CE010E94A7114AA193
:10259000242F30E08217930731F06C897D89CE01BA
:1025A00050E00E94C61168897989CE010E94A71166
:1025B00048A1242F30E08217930731F06889798988
:1025C000CE0150E00E94C6116A897B89CE010E942B
:1025D000A7114F8D242F30E08217930731F06A89BD
:1025E0007B89CE0150E00E94C6118CA59DA5892B48
:1025F000C9F08AA189A788A18FA35F8D852F90E05C
:10260000E8A9F9A9478D2EA53FA5880F991F841B1E
:1026100091098217930720F4822F851B840F01C034
:10262000822F8EA3DF91CF911F910F91FF90EF909A
:1026300008950F931F938C010E94796FF801608FAA
:10264000718F828F938F83E090E0978B868BC80188
:102650000E941F121F910F910895CF93DF93EC01F9
:102660008E899F890197029718F58CA59DA5892BC6
:10267000F9F0EAA9FBA999A584819817C9F49FA14B
:1026800082819817A8F09EA18181981788F0CE01C9
:102690000E94191303C0CE010E947F1220E08E8990
:1026A0009F89039709F421E0822FDF91CF9108954C
:1026B000CE010E943412AB01BC01411551056105E8
:1026C000710561F3E8CFCF93DF93EC0179836883E1
:1026D0006230710559F16330710509F44AC0613007
:1026E000710509F070C08BE290E09B838A838DE2D4
:1026F00090E09D838C838FE290E09F838E8388ECB3
:1027000090E0998788872CED30E03B872A8786EE1A
:1027100090E09D878C878FEF9FEF9F878E8788EE55
:1027200093E0998B888B8AEE93E045C08AE290E033
:102730009B838A838CE290E09D838C838EE290E081
:102740009F838E838AEC90E0998788872EED30E016
:102750003B872A8788EE90E09D878C8782EF90E008
:102760009F878E8782EF93E0998B888B84EF93E02D
:1027700022C08BE290E09B838A8380E390E09D837C
:102780008C8381E390E09F838E838CEC90E099872B
:10279000888720EE30E03B872A878AEE90E09D878D
:1027A0008C8784EF90E09F878E878CEF93E0998BE6
:1027B000888B8EEF93E09B8B8A8B8CE494E09D8BCF
:1027C0008C8B3DAB2CAB5BAB4AAB0E94796F688FB7
:1027D000798F8A8F9B8F1F8A1E8ADF91CF910895F0
:1027E0000F931F938C010E94796FF801608F718F96
:1027F000828F938F85E090E0978B868BC8010E9433
:102800001F1260E27EE480E090E00E94F36FC80156
:102810000E940A120E94796FF801608F718F828F77
:10282000938F82E090E0978B868B1F910F91089594
:102830000F931F938C010E94796FF801608F718F45
:10284000828F938F84E090E0978B868BC8010E94E3
:102850001F1268E873E180E090E00E94F36FC80106
:102860000E940A120E94796FF801608F718F828F27
:10287000938F82E090E0978B868B1F910F91089544
:10288000CF93DF93EC01FB010190F081E02DE2306A
:10289000F10541F0E330F10541F0319749F460E092
:1028A00072E008C064E072E005C067E072E002C058
:1028B0006BE072E00E94AC72CE01DF91CF9108957F
:1028C000CF93DF93EC018A8161E00E945B708C8181
:1028D00061E00E945B708E8161E00E945B70CE01BE
:1028E0000E940A126C857D85CE010E94A711892B5A
:1028F00019F488EE93E005C06C857D85CE010E94B9
:10290000A7119FAB8EAB6A857B85CE010E94A71174
:10291000892B31F06A857B85CE010E94A71102C008
:102920008CA99DA98CAB9DAB68857985CE010E9451
:10293000A7119DA78CA76E857F85161617061CF01C
:1029400080E090E003C0CE010E94A7119FA78EA750
:102950006C897D89CE010E94A7118AA36889798933
:10296000CE010E94A71188A36A897B89CE010E94AB
:10297000A711282F8F8F8AA1EAA9FBA99481891713
:1029800020F4CE010E94E11106C0891721F489A725
:1029900088A18FA32EA30E94796F688F798F8A8F69
:1029A0009B8F81E090E09F8B8E8BDF91CF9108957C
:1029B000FC0171AB60AB0E9460140895CF92DF926E
:1029C000EF92FF920F931F938130910509F047C05A
:1029D0006F5F7F4F09F04CC00E94796F609347058D
:1029E000709348058093490590934A058BE595E0DF
:1029F00061E172E00E94AC7281E695E062E046E23D
:102A000050E027E230E008E210E079E2E72EF12C16
:102A1000CC24DD240E94DC6482E995E066E045E098
:102A200024E003E032E0E32E0E94BE668DEC95E0E8
:102A300061E070E04CE355E00E94631385E096E0AE
:102A400062E070E04CE355E00E9463138DE396E092
:102A500063E070E04CE355E00E94631309C0892BEA
:102A600039F46F5F7F4F21F48BE595E00E9482730C
:102A70001F910F91FF90EF90DF90CF90089580E02D
:102A800090E06FEF7FEF0E94DE14089581E090E008
:102A90006FEF7FEF0E94DE140895CF92DF92EF92E6
:102AA000FF920F931F93DF93CF9300D000D0CDB749
:102AB000DEB7D82EC92E7B01FB0184819581029758
:102AC000A8F48E010F5F1F4FC80162E172E00E94FF
:102AD000C572C801B7010E947572BC018D2D9C2D75
:102AE0000E946E73C8010E94887304C08D2D9C2DB6
:102AF0000E946E738D2D9C2D26960FB6F894DEBF26
:102B00000FBECDBFCF91DF911F910F91FF90EF903E
:102B1000DF90CF9008958F929F92AF92BF92CF9205
:102B2000DF92EF92FF920F931F93DF93CF93CDB776
:102B3000DEB7ED970FB6F894DEBF0FBECDBFB82E4F
:102B4000A92E0FAB18AF29AF3AAF4BAF5CAF6DAF4B
:102B50006091420570E06E54784F8E010F5F1F4FF9
:102B6000C8014AE00E9427738B2D9A2DB8010E945C
:102B70004D15C8010E9482738E01095F1F4FC80165
:102B80006B2D7A2D0E94787384E1882E82E0982E36
:102B9000C801B4010E945972BC018B2D9A2D0E946C
:102BA0005773C8010E948873B9E1CB2ED12CCC0E8B
:102BB000DD1EC6016B2D7A2D0E947873ADE0EA2EE2
:102BC000F12CEC0EFD1E60914105C70170E04AE05A
:102BD0000E9427738E010D5E1F4FC801B7010E942E
:102BE0004D15C601B8010E947572BC018B2D9A2D3E
:102BF0000E945773C8010E948273C7010E948273AA
:102C0000C6010E9488738E01015E1F4FC8016B2DA3
:102C10007A2D0E947873C801B4010E945972BC01D8
:102C20008B2D9A2D0E945773C8010E948873F1E37F
:102C3000CF2ED12CCC0EDD1EC6016B2D7A2D0E941D
:102C40007873E5E2EE2EF12CEC0EFD1E609140054E
:102C5000C70170E04AE00E9427738E01055D1F4F97
:102C6000C801B7010E944D15C601B8010E947572D6
:102C7000BC018B2D9A2D0E945773C8010E9482734C
:102C8000C7010E948273C6010E9488738B2D9A2D02
:102C9000ED960FB6F894DEBF0FBECDBFCF91DF919A
:102CA0001F910F91FF90EF90DF90CF90BF90AF906A
:102CB0009F908F900895EF92FF920F931F937C0146
:102CC00000913C0510913D0520913E0530913F0556
:102CD0004091400550914105609142050E948B153D
:102CE000C7011F910F91FF90EF9008958F929F92CF
:102CF000AF92BF92CF92DF92EF92FF920F931F930A
:102D0000DF93CF93CDB7DEB7ED970FB6F894DEBF64
:102D10000FBECDBFB82EA92E0FAB18AF29AF3AAF5B
:102D20004BAF5CAF6DAF60913E058E010F5F1F4FE3
:102D3000C80170E04AE00E9427738B2D9A2DB801DC
:102D40000E944D15C8010E9482738E01095F1F4FBA
:102D5000C8016B2D7A2D0E94787356E1852E52E0C2
:102D6000952EC801B4010E945972BC018B2D9A2D79
:102D70000E945773C8010E94887349E1C42ED12C68
:102D8000CC0EDD1EC6016B2D7A2D0E9478733DE0BE
:102D9000E32EF12CEC0EFD1E60913D05C70170E0A5
:102DA0004AE00E9427738E010D5E1F4FC801B701D4
:102DB0000E944D15C601B8010E947572BC018B2D91
:102DC0009A2D0E945773C8010E948273C7010E9406
:102DD0008273C6010E9488738E01015E1F4FC80175
:102DE0006B2D7A2D0E947873C801B4010E9459722C
:102DF000BC018B2D9A2D0E945773C8010E948873C5
:102E000021E3C22ED12CCC0EDD1EC6016B2D7A2DF6
:102E10000E94787395E2E92EF12CEC0EFD1E609174
:102E20003C05C70170E04AE00E9427738E01055DF2
:102E30001F4FC801B7010E944D15C601B8010E947D
:102E40007572BC018B2D9A2D0E945773C8010E9488
:102E50008273C7010E948273C6010E9488738B2D02
:102E60009A2DED960FB6F894DEBF0FBECDBFCF9171
:102E7000DF911F910F91FF90EF90DF90CF90BF9067
:102E8000AF909F908F900895EF92FF920F931F93B2
:102E90007C0100913C0510913D0520913E0530914B
:102EA0003F054091400550914105609142050E94C7
:102EB0007616C7011F910F91FF90EF900895CF9262
:102EC000DF92EF92FF920F931F93DF93CF9300D087
:102ED00000D0CDB7DEB76C0101E615E0C8016EE7A2
:102EE00072E00E949E44C80160E040E020E00E9441
:102EF000A23EC8016FEF4FEF2FEF0E948A3E7E0186
:102F00000894E11CF11CC701B6010E946E73C80150
:102F1000B70144E150E027ED30E000E010E00E940E
:102F20003148C7010E94827326960FB6F894DEBF1F
:102F30000FBECDBFCF91DF911F910F91FF90EF900A
:102F4000DF90CF9008950F931F93DF93CF93CDB76A
:102F5000DEB72C970FB6F894DEBF0FBECDBF8CE363
:102F600095E00E9473338823C9F480915707882322
:102F700039F08E010F5F1F4FC8016FE372E006C08A
:102F80008E01095F1F4FC80167E672E00E94AC72B4
:102F9000C8010E945F17C8010E9482732C960FB669
:102FA000F894DEBF0FBECDBFCF91DF911F910F917F
:102FB0000895CF92EF92FF920F931F9301E615E0D1
:102FC000C80166EF76E00E949E44C80160E040E0E0
:102FD00020E00E94A23EC8016FEF4FEF2FEF0E944A
:102FE0008A3E4091890450918A04662757FD609576
:102FF000762FC8012AEA30E004E110E0EE24FF2435
:10300000E0E2CE2E0E944B471F910F91FF90EF9070
:10301000CF900895CF92DF92EF92FF920F931F937C
:103020006B017C0101E615E0C8016EE772E00E94C9
:103030009E44C80160E040E020E00E94A23EC8013A
:103040006FEF4FEF2FEF0E948A3EC801B701A60134
:1030500024E130E001EE10E0EE24FF24F0E2CF2E78
:103060000E944B471F910F91FF90EF90DF90CF9000
:1030700008954F925F926F927F929F92AF92BF920C
:10308000CF92DF92EF92FF920F931F93DF93CF9334
:1030900000D000D0CDB7DEB7FC019B0128019C2CED
:1030A0006A2C8091850490918604892B09F077C061
:1030B000CA018E1B9F0B62E070E00E9458788B0162
:1030C0006B01CE0EDF1E5B01A20EB31E81E695E002
:1030D0006E2D492D262D0E948A3E81E695E0B6018F
:1030E000A50198010E946D3F81E695E06FEF4FEFDB
:1030F0002FEF0E948A3E81E695E0B601A501980176
:103100000E94D83B81E695E06EE772E00E949E4403
:1031100081E695E00E94B744F2016480758081E603
:1031200095E00E94B744082F81E695E00E94BA44DA
:10313000982E81E695E060E040E02FEF0E94A23EED
:103140007E010894E11CF11CC701B2010E946E735C
:1031500010E0069DB001079D700D169D700D1124A5
:103160007695679580E090E00E94A67620E030E0BA
:1031700040E05FE30E94A6750E947576C61AD70AE2
:103180009694A918B10881E695E0B701A6019501CA
:1031900000E010E00E943148C7010E948273269629
:1031A0000FB6F894DEBF0FBECDBFCF91DF911F9158
:1031B0000F91FF90EF90DF90CF90BF90AF909F90D6
:1031C0007F906F905F904F9008952F923F924F9213
:1031D0005F926F927F928F929F92AF92BF92CF92A7
:1031E000DF92EF92FF920F931F93DF93CF93CDB7B0
:1031F000DEB7E9970FB6F894DEBF0FBECDBF2B0147
:103200003A011901A9AABAAACBAADCAAEDAAFEAA78
:103210000FAB99AE88AE8091850490918604892B7E
:1032200009F0A8C081E695E06EE772E00E949E4436
:1032300085E090E0680E791E81E695E00E94BA4430
:10324000982E81E695E00E94BA44882E81E695E0AA
:103250006FEF4FEF2FEF0E948A3E81E695E060E02E
:1032600040E020E00E94A23E4DE0C42ED12CCC0EC6
:10327000DD1EC60167E972E00E94C57237E0E32EE9
:10328000F12CEC0EFD1EC70109A91AA92BA93CA916
:103290004DA95EA96FA90E947616C601B7010E94CA
:1032A0007572BC015E010894A11CB11CC5010E948D
:1032B0006E73C7010E948273C6010E94887323E166
:1032C000E22EF12CEC0EFD1EC701B5010E946E73BB
:1032D0009694490C511C81E695E0B701A301920137
:1032E00000E010E00E943148C7010E94827395E21D
:1032F000E92EF12CEC0EFD1EC70161EA72E00E947E
:10330000C5728E01015E1F4FC80168AD79AD4AE0FC
:103310000E942773C701B8010E947572BC0189E140
:10332000C82ED12CCC0EDD1EC6010E946E73C801C2
:103330000E948273C7010E948873BBE2EB2EF12CBE
:10334000EC0EFD1EC701B6010E946E7328183108ED
:1033500081E695E0B701A301910100E010E00E9431
:103360003148C7010E948273C6010E948273C50161
:103370000E948273E9960FB6F894DEBF0FBECDBFF0
:10338000CF91DF911F910F91FF90EF90DF90CF9041
:10339000BF90AF909F908F907F906F905F904F9075
:1033A0003F902F9008958F929F92AF92BF92CF92AD
:1033B000DF92EF92FF920F93DF93CF93CDB7DEB7FB
:1033C0006C970FB6F894DEBF0FBECDBF8DEC95E0C5
:1033D0000E9483112E8B3F8B488F598F6A8F7B8F72
:1033E0008C8FDE011196FE01769687E001900D929A
:1033F0008150E1F78DEC95E00E947F114C0185E052
:1034000090E063E270E048E250E026E430E0A9801A
:10341000BA80CB80DC80ED80FE800F810E94E518B1
:1034200085E096E00E9483112E8B3F8B488F598F49
:103430006A8F7B8F8C8FDE011896FE01769687E06F
:1034400001900D928150E1F785E096E00E947F1196
:103450004C0185E090E065E570E048E250E028E747
:1034600030E0A884B984CA84DB84EC84FD840E85B2
:103470000E94E5188DE396E00E9483112E8B3F8B0E
:10348000488F598F6A8F7B8F8C8FDE011F96FE01CC
:10349000769687E001900D928150E1F78DE396E0FA
:1034A0000E947F114C0185E090E067E870E048E2FF
:1034B00050E02AEA30E0AF84B888C988DA88EB881F
:1034C000FC880D890E94E5186C960FB6F894DEBF53
:1034D0000FBECDBFCF91DF910F91FF90EF90DF90A6
:1034E000CF90BF90AF909F908F9008952F923F9272
:1034F0004F925F927F928F929F92AF92BF92CF92A4
:10350000DF92EF92FF920F931F93DF93CF9300D040
:1035100000D0CDB7DEB79C016B01CA011801821B38
:10352000930B62E070E00E9458788B014B01820E91
:10353000931EC60ED71E61E6E62E65E0F62EC70185
:1035400066EF76E00E949E44C70160E040E02FEF06
:103550000E948A3EC701B401A60198010E946D3FF6
:10356000C7016FEF4FEF2FEF0E948A3EC701B401F2
:10357000A60198010E94D83BC7016EE772E00E9445
:103580009E44C7010E94B744F10144805580C701A1
:103590000E94B744082FC7010E94BA44782EC70181
:1035A00060E040E02FEF0E94A23E5E010894A11C63
:1035B000B11CC501B1010E946E7310E0049DB00101
:1035C000059D700D149D700D11247695679580E012
:1035D00090E00E94A67620E030E040E05FE30E94A9
:1035E000A6750E947576861A970A7694C718D10830
:1035F000C701B501A401960100E010E00E94314826
:10360000C5010E948273C70160E040E02FEF0E9475
:10361000A23E26960FB6F894DEBF0FBECDBFCF9167
:10362000DF911F910F91FF90EF90DF90CF90BF90AF
:10363000AF909F908F907F905F904F903F902F9092
:1036400008952F923F924F925F926F927F928F9246
:103650009F92AF92BF92CF92DF92EF92FF920F9321
:103660001F93DF93CF93CDB7DEB7E5970FB6F894EE
:10367000DEBF0FBECDBF9DAB8CAB3B012A01190154
:103680008BA69CA6ADA6BEA6CFA6D8AAE9AA81E61F
:10369000A82E85E0B82EC5016EE772E00E949E4418
:1036A0007E010894E11CF11CC701B8010E946E73F1
:1036B0008CA99DA9B301A201910187010E94761AEC
:1036C000C7010E94827385E090E0480E591EC50133
:1036D0000E94BA448BABC5010E94BA448AABC501B3
:1036E0006FEF4FEF2FEF0E948A3EC50160E040E090
:1036F00020E00E94A23E13E1C12ED12CCC0EDD1E93
:10370000C60167E972E00E94C572BDE0EB2EF12CA4
:10371000EC0EFD1EC7010BA51CA52DA53EA54FA5B2
:1037200058A969A90E947616C601B7010E94757250
:10373000BC01A7E08A2E912C8C0E9D1EC4010E9414
:103740006E73C7010E948273C6010E948873F9E1FB
:10375000EF2EF12CEC0EFD1EC701B4010E946E731A
:103760009BA99695690E711CC501B701A201930131
:1037700000E010E00E943148C7010E948273EFE12F
:10378000CE2ED12CCC0EDD1E2D968EAD9FAD2D975D
:103790008F559D4F2D969FAF8EAF2D97C6012D96BD
:1037A0006EAD7FAD2D970E94AC7275E2E72EF12CC5
:1037B000EC0EFD1EC701B6010E946E739AA9291A6C
:1037C0003108C501B701A20191010E943148C7012A
:1037D0000E948273C6010E948273C4010E94827398
:1037E000E5960FB6F894DEBF0FBECDBFCF91DF9147
:1037F0001F910F91FF90EF90DF90CF90BF90AF900F
:103800009F908F907F906F905F904F903F902F9000
:1038100008952F923F924F925F926F927F928F9274
:103820009F92AF92BF92CF92DF92EF92FF920F934F
:103830001F93DF93CF93CDB7DEB76E970FB6F89493
:10384000DEBF0FBECDBF3B014C012A01190141E68D
:10385000C42E45E0D42EC6016EE772E00E949E445D
:10386000C60160E040E020E00E948A3EC60160E0C0
:1038700070E040E050E020E431E00EE110E00E9412
:103880000041C60160E040E020E00E94A23EC60187
:103890006FEF4FEF2FEF0E948A3E5E010894A11C4C
:1038A000B11CC501B401A30122E00E94F7728E0190
:1038B000095F1F4FC801B5010E947873C80162EB10
:1038C00072E00E945972BC01C5010E945773C80181
:1038D0000E9488733DE0E32EF12CEC0EFD1EC70123
:1038E000B5010E946E73C601B70144E150E027E0C4
:1038F00030E000E010E00E943148C7010E9482736E
:1039000023E1E22EF12CEC0EFD1EC701B2010E9454
:103910006E73C601B70148E750E027E030E00E942F
:103920003148C7010E94827399E1E92EF12CEC0E17
:10393000FD1EC701B1010E946E73C601B7014CEDB7
:1039400050E027E030E00E943148C7010E948273B6
:10395000C5010E9482736E960FB6F894DEBF0FBE4B
:10396000CDBFCF91DF911F910F91FF90EF90DF902E
:10397000CF90BF90AF909F908F907F906F905F900F
:103980004F903F902F900895AF92BF92CF92DF92C9
:10399000EF92FF920F931F93CF93DF93EC017B0184
:1039A0006A01590181E695E060E040E02FEF0E9456
:1039B0008A3E81E695E0BE01A701960185010E943D
:1039C000F24104C082E995E00E94856882E995E0B1
:1039D0000E9468688823B1F781E695E06FEF4FEFAA
:1039E0002FEF0E948A3E81E695E0BE01A701960175
:1039F00085010E94F241DF91CF911F910F91FF90BD
:103A0000EF90DF90CF90BF90AF9008956E567040CA
:103A10006333710560F580559040813A910538F522
:103A200080E590E06EE670E040EF50E020EA30E0A4
:103A30000E94C41C80918504909186048F36910564
:103A400019F489E790E005C08037910539F48AE7D9
:103A500090E09093880480938704089581379105BE
:103A600031F48BE790E09093880480938704089565
:103A7000EF92FF920F931F93CF93DF93F82EE92ECF
:103A80008B01CB01C297C39708F096C0CF2DDE2DD6
:103A9000CE010A97C397C8F48AE090E062E370E031
:103AA0004CE350E024E630E00E94C41C8BE595E036
:103AB00061E30E9422728BE595E00E945071709341
:103AC0008A04609389040E94D917CE0186549040DD
:103AD000C397C8F486E490E062E370E048E750E002
:103AE00024E630E00E94C41C8BE595E062E30E946E
:103AF00022728BE595E00E94507170938A04609366
:103B000089040E94D917CE0182589040C397C8F407
:103B100082E890E062E370E044EB50E024E630E0BD
:103B20000E94C41C8BE595E063E30E9422728BE542
:103B300095E00E94507170938A04609389040E94FA
:103B4000D917CE018E5B9040C397C8F48EEB90E0FE
:103B500062E370E040EF50E024E630E00E94C41CD5
:103B60008BE595E064E30E9422728BE595E00E946C
:103B7000507170938A04609389040E94D917CA5FB8
:103B8000D040E397C8F48AEF90E062E370E04CE243
:103B900051E024E630E00E94C41C8BE595E065E32B
:103BA0000E9422728BE595E00E94507170938A0406
:103BB000609389040E94D917C8018E569040C3971C
:103BC00008F096C0CF2DDE2DCE010A97C397C8F41A
:103BD0008AE090E06EE670E04CE350E020EA30E0EE
:103BE0000E94C41C8BE595E066E30E9422728BE57F
:103BF00095E00E94507170938A04609389040E943A
:103C0000D917CE0186549040C397C8F486E490E05B
:103C10006EE670E048E750E020EA30E00E94C41C05
:103C20008BE595E067E30E9422728BE595E00E94A8
:103C3000507170938A04609389040E94D917CE0151
:103C400082589040C397C8F482E890E06EE670E036
:103C500044EB50E020EA30E00E94C41C8BE595E084
:103C600068E30E9422728BE595E00E945071709388
:103C70008A04609389040E94D917CE018E5B90401C
:103C8000C397C8F48EEB90E06EE670E040EF50E032
:103C900020EA30E00E94C41C8BE595E069E30E94B5
:103CA00022728BE595E00E94507170938A046093B4
:103CB00089040E94D917CA5FD040E397C8F48AEFFD
:103CC00090E06EE670E04CE251E020EA30E00E94C5
:103CD000C41C8BE595E060E30E9422728BE595E0C1
:103CE0000E94507170938A04609389040E94D917CE
:103CF0000A5A10400333110508F040C0CF2DDE2DC5
:103D0000CE010A978D389105D0F48AE090E06AEAF6
:103D100070E046E950E02CED30E00E94C41C8BE5D9
:103D200095E065EB72E00E94DE728BE595E00E9403
:103D3000507170938A04609389040E94D917C05A05
:103D4000D040CD38D105D0F480EA90E06AEA70E046
:103D50004CE251E02CED30E00E94C41C8BE595E074
:103D60000E94507170938A04609389048091830447
:103D7000909184049093880480938704DF91CF917D
:103D80001F910F91FF90EF9008950F931F93CF9382
:103D9000DF93EC018B01CB018897C39708F03EC0FD
:103DA000CE010A97C39780F48AE090E068E270E061
:103DB0004CE350E02AE530E00E94C41C8FE690E01E
:103DC0009093880480938704CE0186549040C397D3
:103DD00080F486E490E068E270E048E750E02AE58D
:103DE00030E00E94C41C83E890E0909388048093A4
:103DF0008704CE0182589040C39780F482E890E017
:103E000068E270E044EB50E02AE530E00E94C41C18
:103E10008DE890E09093880480938704C8018456CD
:103E20009040C39708F053C0CE010A97C39780F41F
:103E30008AE090E064E670E04CE350E026E930E090
:103E40000E94C41C80E790E09093880480938704CC
:103E5000CE0186549040C39780F486E490E064E6F7
:103E600070E048E750E026E930E00E94C41C84E896
:103E700090E09093880480938704CE01825890400C
:103E8000C39780F482E890E064E670E044EB50E091
:103E900026E930E00E94C41C8EE890E090938804EC
:103EA00080938704CE018E5B9040C39780F48EEBA5
:103EB00090E064E670E040EF50E026E930E00E94D8
:103EC000C41C88E990E09093880480938704CE0115
:103ED00084509140C39748F5083211059CF0C536CF
:103EE000D10584F484E091E068E270E046E351E0BB
:103EF00024E630E00E94C41C81E090E090938804A6
:103F000080938704CC58D040C734D10570F484E046
:103F100091E06CE870E046E351E022ED30E00E9471
:103F2000C41C1092880410928704DF91CF911F91D6
:103F30000F910895CF93DF93EC0168527040633383
:103F4000710508F03EC00A97C39780F48AE090E0BC
:103F500068E270E04CE350E02AE530E00E94C41CC7
:103F60008AE090E09093880480938704CE01865481
:103F70009040C39780F486E490E068E270E048E700
:103F800050E02AE530E00E94C41C84E190E0909368
:103F9000880480938704CE0182589040C397A0F490
:103FA00082E890E068E270E044EB50E02AE530E01F
:103FB0000E94C41C8EE190E0909388048093870453
:103FC00003C06D33710590F4C450D140E39770F491
:103FD00084E091E068E270E046E351E024E630E0FE
:103FE0000E94C41C1092880410928704DF91CF9124
:103FF00008956C53704063337105A8F4805F90405E
:104000008734910580F480EF90E06CE370E046E344
:1040100051E02EE630E00E94C41C81E090E09093D5
:1040200088048093870408956F927F928F929F9265
:10403000AF92BF92CF92DF92EF92FF920F931F93B6
:104040006C015B014A01390151E6E52E55E0F52E80
:10405000C70160E040E02FEF0E948A3EC701B60131
:10406000A501940183010E94E13FC7016FEF4FEF6B
:104070002FEF0E948A3EC701B601A50194010E945C
:10408000F2411F910F91FF90EF90DF90CF90BF9082
:10409000AF909F908F907F906F9008952F923F9256
:1040A0004F925F926F927F928F929F92AF92BF9248
:1040B000CF92DF92EF92FF920F931F93DF93CF93F4
:1040C00000D000D0CDB7DEB73C014B016A015901E9
:1040D0001801EF2829F481E695E066EF76E004C048
:1040E00081E695E06EE772E00E949E44C301B40150
:1040F000A60195010E94142081E695E06FEF4FEF35
:104100002FEF0E948A3E81E695E060E040E02FEFCD
:104110000E94A23EC601861997092FEF8F3F920792
:104120008CF062E070E00E945878882777FD8095D7
:10413000982F0E94A87620E030E040E05FE30E94E4
:10414000A67510C062E070E00E945878882777FD5D
:104150008095982F0E94A87620E030E040E05FE351
:104160000E94A5750E9475766B0181E695E00E941C
:10417000B744F1014480558081E695E00E94B74440
:10418000082FC50188199909FFEF8F3F9F078CF011
:1041900062E070E00E945878882777FD8095982F1C
:1041A0000E94A87620E030E040E05FE30E94A67520
:1041B00010C062E070E00E945878882777FD8095F3
:1041C000982F0E94A87620E030E040E05FE30E9454
:1041D000A5750E9475764B0181E695E00E94BA4470
:1041E000182F7E010894E11CF11CC701B1010E9447
:1041F0006E73C60CD71C802F90E0849DB001859D06
:10420000700D949D700D11247695679580E090E077
:104210000E94A67620E030E040E05FE30E94A675B1
:104220000E947576C61AD70AA818B9081695A11A59
:10423000B10881E695E0B701A601950100E010E024
:104240000E943148C7010E94827326960FB6F894E7
:10425000DEBF0FBECDBFCF91DF911F910F91FF90B9
:10426000EF90DF90CF90BF90AF909F908F907F9016
:104270006F905F904F903F902F9008958F929F92F4
:10428000AF92BF92CF92DF92EF92FF920F931F9364
:10429000DF93CF93CDB7DEB7E6970FB6F894DEBFC6
:1042A0000FBECDBF7C018B0181E695E00E94383DB9
:1042B0000115110509F052C081E695E06EE772E044
:1042C0000E949E448E010F5F1F4FC80167EB72E092
:1042D0000E94C572C801B7010E947572BC0145E217
:1042E000842E912C8C0E9D1EC4010E946E73C801F9
:1042F0000E94887333E1A32EB12CAC0EBD1EC50104
:104300006DEC72E00E94AC7281E695E04FEF5FEFDA
:104310006FEF7FEF0E94BB3E81E695E06FEF4FEFBE
:104320002FEF0E948A3E27E0E22EF12CEC0EFD1EBC
:10433000C701B4010E946E7381E695E0B70144E1C4
:1043400050E020E530E000E010E00E943148C70175
:104350000E9482739DE0C92ED12C72C001301105DC
:1043600009F08AC08E01075E1F4FC80163ED72E03D
:104370000E94C572C801B7010E947572BC0183E139
:10438000882E912C8C0E9D1EC4010E946E73C80154
:104390000E9488738E01015E1F4FC801B4010E9404
:1043A0007873C80169ED72E00E94597260918904C6
:1043B00070918A040E94487264EE72E00E94597201
:1043C000BC01C4010E945773C8010E948873B5E202
:1043D000AB2EB12CAC0EBD1EC5016BEE72E00E947F
:1043E000AC7281E695E06EE772E00E949E4481E641
:1043F00095E04FEF5FEF6FEF7FEF0E94BB3E81E6EE
:1044000095E06FEF4FEF2FEF0E948A3EABE2EA2E6E
:10441000F12CEC0EFD1EC701B4010E946E7381E603
:1044200095E0B70144E150E020E530E000E010E025
:104430000E943148C7010E948273F1E3CF2ED12C34
:10444000CC0EDD1EC601B5010E946E7380E590E0C2
:104450006EE670E040EF50E020EA30E08601EE24A6
:10446000FF240E944E20C6010E948273C5010E9453
:104470008273C4010E948273E6960FB6F894DEBF81
:104480000FBECDBFCF91DF911F910F91FF90EF90A5
:10449000DF90CF90BF90AF909F908F900895EF9254
:1044A000FF920F931F93DF93CF93CDB7DEB7629741
:1044B0000FB6F894DEBF0FBECDBF0E94381D8091AD
:1044C000850490918604E0908704F09088048E150E
:1044D0009F0509F466C02FE6E216F104D9F4909323
:1044E0008404809383048E010F5F1F4FC8016DEC1D
:1044F00075E00E944014C80161E070E00E943E2116
:10450000C8010E9482736091890470918A048DECC5
:1045100095E03DC020E7E216F104D9F490938404BD
:10452000809383048E01095F1F4FC80165E076E028
:104530000E944014C80161E070E00E943E21C80161
:104540000E9482736091890470918A0485E096E0EC
:104550001EC021E7E216F10401F5909384048093D4
:1045600083048E01035F1F4FC8016DE376E00E9454
:104570004014C80161E070E00E943E21C8010E9421
:1045800082736091890470918A048DE396E00E94A1
:104590000112F0928604E092850410928A0410922F
:1045A000890462960FB6F894DEBF0FBECDBFCF91DF
:1045B000DF911F910F91FF90EF900895AF92BF92FE
:1045C000CF92DF92EF92FF920F931F93DF93CF93DF
:1045D000CDB7DEB7CE54D0400FB6F894DEBF0FBED5
:1045E000CDBF8C0131E6A32E35E0B32EC5010E946C
:1045F000383DC5016EE772E00E949E44C50160E04F
:1046000040E020E00E94A23EC5016FEF4FEF2FEF88
:104610000E948A3E7E010894E11CF11CC701B8018A
:104620000E946E73C501B7014AE050E029E130E015
:1046300000E010E00E943148C7010E94827327E029
:10464000C22ED12CCC0EDD1EC60163EF72E00E949B
:10465000AC728AE090E062E370E04CE350E024E664
:1046600030E08601EE24FF240E944E20C6010E9405
:1046700082739DE0C92ED12CCC0EDD1EC60165EFE4
:1046800072E00E94AC7286E490E062E370E048E77A
:1046900050E024E630E086010E944E20C6010E94D0
:1046A000827383E1C82ED12CCC0EDD1EC60167EFCC
:1046B00072E00E94AC7282E890E062E370E044EB4A
:1046C00050E024E630E086010E944E20C6010E94A0
:1046D000827309E1C02ED12CCC0EDD1EC60169EF1C
:1046E00072E00E94AC728EEB90E062E370E040EF0B
:1046F00050E024E630E086010E944E20C6010E9470
:1047000082731FE1C12ED12CCC0EDD1EC6016BEFD2
:1047100072E00E94AC728AEF90E062E370E04CE2DB
:1047200051E024E630E086010E944E20C6010E943E
:104730008273B5E2CB2ED12CCC0EDD1EC6016DEFFF
:1047400072E00E94AC728AE090E06EE670E04CE3AA
:1047500050E020EA30E086010E944E20C6010E940F
:104760008273ABE2CA2ED12CCC0EDD1EC6016FEFD8
:1047700072E00E94AC7286E490E06EE670E048E77A
:1047800050E020EA30E086010E944E20C6010E94DF
:104790008273F1E3CF2ED12CCC0EDD1EC60161E079
:1047A00073E00E94AC7282E890E06EE670E044EB49
:1047B00050E020EA30E086010E944E20C6010E94AF
:1047C0008273E7E3CE2ED12CCC0EDD1EC60163E052
:1047D00073E00E94AC728EEB90E06EE670E040EF0A
:1047E00050E020EA30E086010E944E20C6010E947F
:1047F00082737DE3C72ED12CCC0EDD1EC60162E193
:1048000072E00E94AC728AEF90E06EE670E04CE2DB
:1048100051E020EA30E086010E944E20C6010E944D
:10482000827363E4C62ED12CCC0EDD1EC60165E07A
:1048300073E00E94AC728AE090E06AEA70E046E9B8
:1048400050E02CED30E086010E944E20C6010E940F
:10485000827359E4C52ED12CCC0EDD1EC6016BE04F
:1048600073E00E94AC7280EA90E06AEA70E04CE289
:1048700051E02CED30E086010E944E20C6010E94DE
:104880008273C50160E040E020E00E94A23E0E94E9
:10489000796F0E940A18C25BDF4F0FB6F894DEBF33
:1048A0000FBECDBFCF91DF911F910F91FF90EF9081
:1048B000DF90CF90BF90AF9008958F929F92AF926C
:1048C000BF92CF92DF92EF92FF920F931F93DF93ED
:1048D000CF93CDB7DEB7CA55D0400FB6F894DEBF40
:1048E0000FBECDBF5B016C018A01490181E695E0F5
:1048F0000E94383D8AE090E090938604809385047E
:104900007E010894E11CF11CC701B8010E946E737E
:104910008E01095F1F4FC801B4010E946E73C6016A
:10492000B501A70198010E94091CC8010E94827369
:10493000C7010E948273FDE0CF2ED12CCC0EDD1E6C
:10494000C6016FE073E00E94AC728AE090E068E21A
:1049500070E04CE350E02AE530E08601E1E0EE2E25
:10496000F12C0E944E20C6010E94827393E1C92E51
:10497000D12CCC0EDD1EC60165E173E00E94AC7245
:1049800086E490E068E270E048E750E02AE530E035
:1049900086010E944E20C6010E94827389E1C82EC2
:1049A000D12CCC0EDD1EC6016CE173E00E94AC720E
:1049B00082E890E068E270E044EB50E02AE530E005
:1049C00086010E944E20C6010E9482730FE1C02E14
:1049D000D12CCC0EDD1EC60163E273E00E94AC72E6
:1049E0008AE090E064E670E04CE350E026E930E0D5
:1049F00086010E944E20C6010E94827315E2C12EDC
:104A0000D12CCC0EDD1EC60169E273E00E94AC72AF
:104A100086E490E064E670E048E750E026E930E0A4
:104A200086010E944E20C6010E948273BBE2CB2EFB
:104A3000D12CCC0EDD1EC60160E373E00E94AC7287
:104A400082E890E064E670E044EB50E026E930E074
:104A500086010E944E20C6010E948273A1E3CA2EE5
:104A6000D12CCC0EDD1EC60167E373E00E94AC7250
:104A70008EEB90E064E670E040EF50E026E930E035
:104A800086010E944E20C6010E948273F7E3CF2E5A
:104A9000D12CCC0EDD1EC6016FE373E00E94AC7218
:104AA0008AE090E060EA70E04CE350E022ED30E014
:104AB00086010E944E20C6010E948273EDE3CE2E35
:104AC000D12CCC0EDD1EC60165E473E00E94AC72F1
:104AD00086E490E060EA70E048E750E022ED30E0E4
:104AE00086010E944E20C6010E94827373E4C72E85
:104AF000D12CCC0EDD1EC6016CE473E00E94AC72BA
:104B000082E890E060EA70E044EB50E022ED30E0B3
:104B100086010E944E20C6010E94827369E4C62E5F
:104B2000D12CCC0EDD1EC60163E573E00E94AC7291
:104B30008EEB90E060EA70E040EF50E022ED30E074
:104B400086010E944E20C6010E9482735FE4C52E3A
:104B5000D12CCC0EDD1EC6016BE573E00E94AC7259
:104B600084E091E068E270E046E351E024E630E062
:104B700086010E944E20C6010E94827345E5C42E24
:104B8000D12CCC0EDD1EC60160E673E00E94AC7233
:104B900084E091E06CE870E046E351E022ED30E023
:104BA00086010E944E20C6010E9482730E94796F86
:104BB0000E940A18C65ADF4F0FB6F894DEBF0FBE28
:104BC000CDBFCF91DF911F910F91FF90EF90DF90BC
:104BD000CF90BF90AF909F908F900895EF92FF92EB
:104BE0000F931F93DF93CF93CDB7DEB76E970FB6BA
:104BF000F894DEBF0FBECDBF0E94061D80918504D4
:104C000090918604E0908704F09088048E159F05AB
:104C100009F475C029E7E216F104A9F4909384041D
:104C2000809383048E010F5F1F4FC8016EE973E00C
:104C30000E94AC72C8010E94DE22C8010E948273E9
:104C40008DEC95E018C02AE7E216F104D9F49093B0
:104C50008404809383048E01095F1F4FC80164EBB5
:104C600073E00E94AC72C8010E94DE22C8010E945B
:104C7000827385E096E00E941814F0928604E09218
:104C800085043DC02BE7E216F104A9F49093840457
:104C9000809383048E01035F1F4FC8016BEC73E0A8
:104CA0000E94AC72C8010E94DE22C8010E94827379
:104CB0008DE396E0E0CF2AE0E216F10401F590934F
:104CC000840480938304B3E1EB2EF12CEC0EFD1EE3
:104CD000C7010E9444178E01075E1F4FC8010E9442
:104CE0005B1660E070E080E090E0A70198010E9410
:104CF0005D24C8010E948273C7010E9482736E9670
:104D00000FB6F894DEBF0FBECDBFCF91DF911F91DC
:104D10000F91FF90EF9008958F929F92AF92BF9264
:104D2000CF92DF92EF92FF920F931F93DF93CF9377
:104D3000CDB7DEB7A4970FB6F894DEBF0FBECDBFD8
:104D40005B016C018A01490181E695E00E94383DD2
:104D500081E090E090938604809385047E0108941E
:104D6000E11CF11CC701B8010E946E738E01095F3E
:104D70001F4FC801B4010E946E73C601B501A7019F
:104D800098010E94091CC8010E948273C7010E94F9
:104D90008273FDE0CF2ED12CCC0EDD1EC60162EE5B
:104DA00073E00E94AC728AE090E068E270E04CE34D
:104DB00050E02AE530E08601E1E0EE2EF12C0E9481
:104DC0004E20C6010E94827383E1C82ED12CCC0EE6
:104DD000DD1EC60168EE73E00E94AC7286E490E0CE
:104DE00068E270E048E750E02AE530E086010E9482
:104DF0004E20C6010E94827309E1C02ED12CCC0E38
:104E0000DD1EC6016DEE73E00E94AC7282E890E098
:104E100068E270E044EB50E02AE530E086010E9451
:104E20004E20C6010E9482731FE1C12ED12CCC0EF0
:104E3000DD1EC60160E673E00E94AC7284E091E082
:104E400068E270E046E351E024E630E086010E942B
:104E50004E20C6010E9482730E94796F0E940A1838
:104E6000A4960FB6F894DEBF0FBECDBFCF91DF91F1
:104E70001F910F91FF90EF90DF90CF90BF90AF9078
:104E80009F908F9008958F929F92AF92BF92CF92F2
:104E9000DF92EF92FF920F931F93DF93CF93CDB7E3
:104EA000DEB72C970FB6F894DEBF0FBECDBF0E94C1
:104EB000F91F8091850490918604809087049090DA
:104EC00088048815990559F121E08216910439F575
:104ED00090938404809383048BE495E00E94AA2D30
:104EE0005B016C017E010894E11CF11CC7010E946A
:104EF00044178E01095F1F4FC8010E945B16C6014F
:104F0000B501A70198010E948C26C8010E948273F6
:104F1000C7010E94827390928604809285042C9629
:104F20000FB6F894DEBF0FBECDBFCF91DF911F91BA
:104F30000F91FF90EF90DF90CF90BF90AF909F9038
:104F40008F9008956F927F928F929F92AF92BF92AF
:104F5000CF92DF92EF92FF920F931F93DF93CF9345
:104F6000CDB7DEB7C054D0400FB6F894DEBF0FBE49
:104F7000CDBF5B016C018A01490181E695E00E9489
:104F8000383D10928604109285047E010894E11C3D
:104F9000F11CC701B8010E946E738E01095F1F4F9B
:104FA000C801B4010E946E73C601B501A701980142
:104FB0000E94091CC8010E948273C7010E9482736B
:104FC000CE010D966DEC75E00E9440148DEC95E0DD
:104FD0000E9483112AAF3BAF4CAF5DAF6EAF7FAF86
:104FE000FE01E05CFF4F8083DE019596FE01FA969C
:104FF00087E001900D928150E1F78DEC95E00E94E1
:105000007F110F920F920DE0602E712C6C0E7D1EA1
:10501000EDB7FEB79283818385E090E063E270E0B4
:1050200048E250E026E430E083018DA09EA0AFA0CE
:10503000B8A4C9A4DAA4EBA40E94211B0F900F907E
:10504000C3010E948273CE01439665E076E00E9420
:10505000401485E096E00E9483112AAF3BAF4CAF2D
:105060005DAF6EAF7FAFFE01E05CFF4F8083DE017E
:105070009C96FE01FA9687E001900D928150E1F72F
:1050800085E096E00E947F110F920F9213E1612E4E
:10509000712C6C0E7D1EEDB7FEB79283818385E087
:1050A00090E065E570E048E250E028E730E08301F9
:1050B0008CA49DA4AEA4BFA4C8A8D9A8EAA80E94A5
:1050C000211B0F900F90C3010E948273CE0149965D
:1050D0006DE376E00E9440148DE396E00E94831118
:1050E0002AAF3BAF4CAF5DAF6EAF7FAFFE01E05C70
:1050F000FF4F8083DE01D396FE01FA9687E0019090
:105100000D928150E1F78DE396E00E947F110F929E
:105110000F92B9E16B2E712C6C0E7D1EEDB7FEB7B0
:105120009283818385E090E067E870E048E250E098
:105130002AEA30E083018BA89CA8ADA8BEA8CFA81E
:10514000D8ACE9AC0E94211B0F900F90C3010E94C4
:105150008273AFE1CA2ED12CCC0EDD1EC60162EFE8
:1051600073E00E94AC7280EF90E06CE370E046E385
:1051700051E02EE630E08601EE24FF240E944E200E
:10518000C6010E9482730E94796F0E940A18C05C57
:10519000DF4F0FB6F894DEBF0FBECDBFCF91DF91CA
:1051A0001F910F91FF90EF90DF90CF90BF90AF9045
:1051B0009F908F907F906F9008958F929F92AF9263
:1051C000BF92CF92DF92EF92FF920F931F93DF93E4
:1051D000CF93CDB7DEB7EC970FB6F894DEBF0FBE16
:1051E000CDBF0E94C51E8091850490918604809059
:1051F0008704909088048815990509F416C12FE654
:105200008216910459F490938404809383048E0150
:105210000F5F1F4FC8016DEC75E00EC020E78216CE
:105220009104C9F490938404809383048E01095FF0
:105230001F4FC80165E076E00E944014C80160E09D
:1052400070E00E943E21C8010E9482739092860401
:1052500080928504EAC021E78216910459F4909364
:105260008404809383048E01035F1F4FC8016DE3A4
:1052700076E0E2CF23E88216910459F490938404F7
:105280008093830490928604809285048DEC95E04F
:105290001DC024E88216910459F4909384048093ED
:1052A0008304909286048092850485E096E00EC087
:1052B00025E882169104D9F49093840480938304A2
:1052C00090928604809285048DE396E00E94F0130C
:1052D0008091850490918604909384048093830444
:1052E0008AE090E090938804809387043BC02DE887
:1052F0008216910459F490938404809383048E0160
:105300000D5E1F4FC80167EF73E00EC02EE88216D6
:10531000910481F490938404809383048E01075E4A
:105320001F4FC80160E174E00E94AC72C8010E9486
:10533000DE2289CF2FE882169104C9F49093840469
:10534000809383048E01015E1F4FC80169E274E0FF
:105350000E94AC72C8010E94DE22C8010E948273C2
:105360008FE890E090938604809385045EC028E9DE
:105370008216910421F029E98216910429F4909370
:1053800084048093830451C021E08216910419F5AE
:1053900090938404809383048BE495E00E94AA2D6B
:1053A0005B016C0195E2E92EF12CEC0EFD1EC701AC
:1053B0000E9444178E01055D1F4FC8010E945B16B5
:1053C000C601B501A70198010E948C26C8010E9460
:1053D0008273C70139CF892841F590938404809363
:1053E00083048BE495E00E94AA2D5B016C0181E3AC
:1053F000E82EF12CEC0EFD1EC7010E9444178E0111
:10540000095C1F4FC8010E945B16C601B501A701C8
:1054100098010E94A227C8010E948273C7010E94BE
:1054200082731092860410928504EC960FB6F8945D
:10543000DEBF0FBECDBFCF91DF911F910F91FF90C7
:10544000EF90DF90CF90BF90AF909F908F90089596
:105450008F929F92AF92BF92CF92DF92EF92FF9284
:105460000F931F93DF93CF93CDB7DEB768970FB637
:10547000F894DEBF0FBECDBF0E949A1F80918504B5
:1054800090918604809087049090880488159905EF
:1054900009F463C02AE08216910441F590938404D4
:1054A000809383048BE495E00E94AA2D5B016C013C
:1054B0007E010894E11CF11CC7010E9444178E0173
:1054C000095F1F4FC8010E945B16C601B501A70105
:1054D00098010E945D24C8010E948273C7010E9446
:1054E0008273909286048092850437C024E18216EC
:1054F000910421F02EE18216910429F49093840402
:10550000809383042AC0892841F590938404809372
:1055100083048BE495E00E94AA2D5B016C012DE0D1
:10552000E22EF12CEC0EFD1EC7010E9444178E01E5
:105530000D5E1F4FC8010E945B16C601B501A70191
:1055400098010E94A227C8010E948273C7010E948D
:105550008273109286041092850468960FB6F894B0
:10556000DEBF0FBECDBFCF91DF911F910F91FF9096
:10557000EF90DF90CF90BF90AF909F908F90089565
:10558000CF92DF92EF92FF920F931F93DF93CF930F
:10559000CDB7DEB7EC970FB6F894DEBF0FBECDBF28
:1055A0005DE0C52ED12CCC0EDD1EC60162E474E098
:1055B0000E94C5728E01095F1F4F60918304709134
:1055C0008404C8014AE00E942773C601B8010E9402
:1055D0007572BC017E010894E11CF11CC7010E9498
:1055E0006E73C8010E948273C6010E9488738E0187
:1055F0000D5E1F4FC801B7010E947873C80165E4B2
:1056000074E00E945972BC01C7010E945773C8011F
:105610000E9488734FE1C42ED12CCC0EDD1EC60132
:10562000B7010E9478738E01075E1F4F6091850459
:1056300070918604C8014AE00E942773C601B80130
:105640000E947572BC01C7010E945773C8010E9475
:105650008273C6010E9488738E010B5D1F4FC801C3
:10566000B7010E947873C8016AE474E00E9459721D
:10567000BC01C7010E945773C8010E94887331E3BF
:10568000C32ED12CCC0EDD1EC601B7010E9478734B
:105690008E01055D1F4F6091870470918804C801D9
:1056A0004AE00E942773C601B8010E947572BC01CE
:1056B000C7010E945773C8010E948273C6010E94ED
:1056C00088738E01095C1F4FC801B7010E946E7379
:1056D000C8010E945F17C8010E94827382E995E0A9
:1056E0000E946868882309F457C082E995E00E9407
:1056F000856882E995E00E94C9669093440580938D
:10570000430582E995E00E948B67BC0190934605B2
:10571000809345052091850430918604211531053B
:1057200039F480914305909144050E94432734C089
:105730002130310539F480914305909144050E9450
:10574000282A2AC02A30310539F4809143059091E6
:1057500044050E94DD2820C02F36310539F48091A0
:105760004305909144050E94EE2516C02431310571
:1057700099F02E31310581F0C90189579040039786
:1057800028F02D5830402330310530F48091430506
:10579000909144050E944F22CE0101960E9482738F
:1057A000EC960FB6F894DEBF0FBECDBFCF91DF9160
:1057B0001F910F91FF90EF90DF90CF900895EF929F
:1057C000FF920F931F9371E6E72E75E0F72EC70146
:1057D00061E00E947948C7010E94383D02E915E066
:1057E000C80161E00E94946AC80162E00E945268A8
:1057F000C70166EF76E00E949E44C70160E040E08A
:1058000020E00E94713E1092840410928304109252
:105810008804109287046DECE62E65E0F62EC70131
:105820000E94601405E016E0C801B7010E94D81478
:10583000C801B8010E94D8141F910F91FF90EF90FA
:1058400008958F929F92AF92BF92CF92DF92EF9284
:10585000FF920F931F93DF93CF93CDB7DEB762977D
:105860000FB6F894DEBF0FBECDBF8DEC95E00E9461
:105870002D138823F1F04E010894811C911CC40162
:105880006DEC75E00E94401485E090E063E270E00A
:1058900048E250E026E430E08401EE24FF24EFEFFC
:1058A000CE2ED12CAA24BB240E943918C4010E94F8
:1058B000827385E096E00E942D138823F9F0B7E00B
:1058C0008B2E912C8C0E9D1EC40165E076E00E940B
:1058D000401485E090E065E570E048E250E028E79C
:1058E00030E08401EE24FF24AFEFCA2ED12CAA248D
:1058F000BB240E943918C4010E9482738DE396E094
:105900000E942D138823F9F0FDE08F2E912C8C0E30
:105910009D1EC4016DE376E00E94401485E090E096
:1059200067E870E048E250E02AEA30E08401EE24C3
:10593000FF24EFEFCE2ED12CAA24BB240E943918CD
:10594000C4010E94827362960FB6F894DEBF0FBE48
:10595000CDBFCF91DF911F910F91FF90EF90DF901E
:10596000CF90BF90AF909F908F900895AF92BF92CD
:10597000CF92DF92EF92FF920F931F93DF93CF931B
:10598000CDB7DEB72C970FB6F894DEBF0FBECDBFF4
:1059900060914705709148058091490590914A05AD
:1059A0000E940A180E94C02A0E94212C0E94796F2E
:1059B00020914705309148054091490550914A058D
:1059C000621B730B840B950B20917F043091800434
:1059D00040918104509182046217730784079507F0
:1059E00068F10E94796F6093470570934805809332
:1059F000490590934A050E94A3178BE495E00E9405
:105A0000AA2D5B016C017E010894E11CF11CC70109
:105A10000E9444178E01095F1F4FC8010E945B1648
:105A2000C601B501A70198010E94091CC8010E9486
:105A30008273C7010E9482730E94D3192C960FB6FD
:105A4000F894DEBF0FBECDBFCF91DF911F910F91B4
:105A5000FF90EF90DF90CF90BF90AF900895AF92FE
:105A6000BF92CF92DF92EF92FF920F931F93DF933B
:105A7000CF93CDB7DEB72C970FB6F894DEBF0FBE2D
:105A8000CDBF0E94DF2B0E94A3170BE415E0C801D5
:105A90000E94C82DC8010E94AA2D5B016C017E01E5
:105AA0000894E11CF11CC7010E9444178E01095F94
:105AB0001F4FC8010E945B16C601B501A7019801DE
:105AC0000E94A227C8010E948273C7010E948273AC
:105AD0002C960FB6F894DEBF0FBECDBFCF91DF91ED
