:100000000C946F0E0C949C0E0C949C0E0C949C0EF5
:100010000C949C0E0C949C0E0C949C0E0C949C0EB8
:100020000C949C0E0C949C0E0C949C0E0C949C0EA8
:100030000C949C0E0C949C0E0C949C0E0C949C0E98
:100040000C949C0E0C949C0E0C949C0E0C949C0E88
:100050000C949C0E0C949C0E0C949C0E0C9480742E
:100060000C949C0E0C949C0E0C949C0E0C949C0E68
:100070000C949C0E0C949C0E0C949C0E0C949C0E58
:100080000C949C0E0C949C0E0C949C0E0C949C0E48
:100090000C949C0E0C949C0E0C949C0E0C94A0360C
:1000A0000C949C0E0C949C0E0C949C0E0C949C0E28
:1000B0000C949C0E0C949C0E0C949C0E0C949C0E18
:1000C0000C949C0E0C949C0E0C949C0E0C949C0E08
:1000D0000C949C0E0C949C0E0C949C0E0C949C0EF8
:1000E0000C949C0E933FB93FEA3F7E407E407E4099
:1000F0000440D340933FD3402E40D3404140414041
:1001000068406840EA3F7E407E40EA3F4140D3403D
:100110007E409B40D340D340D340D340D340BC40EB
:10012000D3403A4ED64FF350E75124532453FF5453
:100130006656755B7357CD583A59075D105EC15FBF
:10014000C15FF350C460C460F350E35E1F62B953F3
:10015000E862B363B965E0647266B96719692E69CC
:1001600005A84CCDB2D44EB93836A9020C50B9917D
:100170008688083CA6AAAA2ABE000000803F005E2E
:10018000BCE2613FDD83C29C7E20A3FD1F419DC375
:10019000217FFCA2401E5F01E3BD3E6082DC237D27
:1001A0009FC1421CFEA0E1BF5D0380DE3C62BEE059
:1001B000025CDF81633D7C22C09E1D43A1FF461887
:1001C000FAA427799BC584DA3866E5BB5907DB8535
:1001D0006739BAE406581947A5FB7826C49A653BE7
:1001E000D987045AB8E6A7F91B45C6987A24F8A619
:1001F000441A99C7257B3A6486D85B05E7B98CD247
:10020000306EEDB3510F4E10F2AC2F7193CD114FF4
:10021000ADF3702ECC92D38D6F31B2EC0E50AFF1A6
:10022000134DCE90722C6D33D18F0C52B0EE326CD8
:100230008ED0530DEFB1F0AE4C1291CF2D73CA9406
:100240007628ABF517490856B4EA6937D58B5709B4
:10025000EBB536688AD495CB2977F4AA4816E9B766
:10026000550B88D6346A2B7597C94A14F6A8742A98
:10027000C896154BA9F7B6E80A54D7896B35080C10
:10028000205F0000000000000000000000000000EF
:1002900020202020202000200000002850500000B6
:1002A00000000000000000002828FC2850FC5050EE
:1002B0000000002078A8A0603028A8F020000000EE
:1002C00048A8B0502834544800000000205050780E
:1002D000A8A8906C000000404080000000000000D2
:1002E0000000000408101010101010080400004056
:1002F0002010101010101020400000000020A870E6
:1003000070A8200000000000202020F820202000FD
:1003100000000000000000000000004040800000DD
:10032000000000F8000000000000000000000000D5
:100330000000004000000008101010202040404045
:10034000800000007088888888888870000000001D
:10035000206020202020207000000000708888107D
:10036000204080F80000000070880830080888707D
:10037000000000001030505090781018000000006D
:10038000F88080F00808887000000000709080F00D
:100390008888887000000000F8901020202020201D
:1003A0000000000070888870888888700000000055
:1003B00070888888780848700000000000002000DD
:1003C00000000020000000000000002000000020CD
:1003D0002000000408102040201008040000000045
:1003E0000000F80000F800000000004020100804A1
:1003F0000810204000000000708888102020002095
:1004000000000000708898A8A8B88078000000005C
:1004100020203050507848CC00000000F048487050
:10042000484848F00000000078888080808088700C
:1004300000000000F0484848484848F0000000002C
:10044000F8485070504048F800000000F8485070DC
:10045000504040E000000000384880809C884830D0
:1004600000000000CC484878484848CC0000000014
:10047000F8202020202020F8000000007C10101020
:1004800010101090E0000000EC485060505048EC14
:1004900000000000E0404040404044FC00000000FC
:1004A000D8D8D8D8A8A8A8A800000000DC48686858
:1004B000585848E80000000070888888888888704C
:1004C00000000000F0484870404040E0000000009C
:1004D0007088888888E8987018000000F048487094
:1004E000504848EC0000000078888060100888F0D0
:1004F00000000000F8A8202020202070000000004C
:10050000CC4848484848483000000000CC48485093
:100510005030202000000000A8A8A8705050505073
:1005200000000000D8505020205050D8000000009B
:10053000D85050202020207000000000F89010209B
:10054000204048F8000000382020202020202020D3
:1005500038000040404020201010100800000070BB
:10056000101010101010101070000020500000002B
:10057000000000000000000000000000000000007B
:1005800000FC00200000000000000000000000004F
:10059000000000304838483C00000000C040407077
:1005A00048484870000000000000003848404038CB
:1005B00000000000180808384848483C00000000C7
:1005C0000000003048784038000000001C202078EF
:1005D00020202078000000000000003C48304078D7
:1005E00044380000C0404070484848EC000000001B
:1005F000200000602020207000000000100000306B
:100600001010101010E00000C040405C507048EC2A
:1006100000000000E0202020202020F80000000042
:10062000000000F0A8A8A8A800000000000000F04A
:10063000484848EC000000000000003048484830BE
:1006400000000000000000F04848487040E0000052
:100650000000003848484838081C0000000000D856
:10066000604040E000000000000000784030087862
:100670000000000000202070202020180000000052
:10068000000000D84848483C00000000000000EC92
:100690004850302000000000000000A8A870505012
:1006A00000000000000000D8502050D800000000DA
:1006B000000000EC4850302020C00000000000780E
:1006C00010202078000000181010102010101010BA
:1006D00018001010101010101010101010100060E2
:1006E0002020201020202020600040A418000000BE
:1006F0000000000000001010205F0000000000005B
:1007000000000000000000000000000000000000E9
:1007100000000000000000000000000000000700D2
:100720000F800F800F800F800F80070007000000F0
:100730000000070007000700000000000E380E3818
:100740000E380E38063000000000000000000000E7
:100750000000000000000000000000000C300C3021
:100760000C307FFE7FFE0C300C300C300C307FFEE6
:100770007FFE0C300C300C300000000002400240C4
:100780000FF81FF81A401A401FF00FF802580258CD
:100790001FF81FF0024002400000000000000000AF
:1007A0000E100E300E7000E001C0038007000E70C6
:1007B0000C700870000000000000000000000F0036
:1007C0001980198019800F000F080F9819F818F078
:1007D00018E019F00F98000000000000000007006A
:1007E000070007000E0000000000000000000000ED
:1007F000000000000000000000000000000000F009
:1008000001C0038007000E000E000E000E0007005E
:10081000038001C000F000000000000000000F0095
:10082000038001C000E0007000700070007000E004
:1008300001C003800F0000000000000000000180E4
:100840001188099007E007E03FFC3FFC07E007E064
:1008500009901188018000000000000000000000E5
:1008600000000180018001800FF00FF00180018005
:1008700001800000000000000000000000000000F7
:100880000000000000000000000000000000000068
:100890000700070007000E00000000000000000035
:1008A00000000000000000001FF81FF8000000001A
:1008B0000000000000000000000000000000000038
:1008C0000000000000000000000000000000000028
:1008D0000700070007000000000000000000000201
:1008E0000006000E001C0038007000E001C003800C
:1008F00007000E001C0000000000000000000FF0C8
:100900001C381C781CF81CF81DB81DB81F381F387F
:100910001E381C380FF000000000000000000180AD
:10092000018003801F801F80038003800380038079
:10093000038003801FF000000000000000000FE0B3
:100940001C701C380038007000E001C003800700F4
:100950000E381C381FF800000000000000000FE0F7
:100960001C701C380038007003C003C000700038D1
:100970001C381C700FE0000000000000000000E0C8
:1009800001E003E006E00CE018E01FF81FF800E0CB
:1009900000E000E003F800000000000000001FF885
:1009A0001C001C001C001C001FE01FF00078003819
:1009B0001C381C700FE0000000000000000003E085
:1009C00007000E001C001C001FF01FF81C381C380C
:1009D0001C381C380FF000000000000000001FFC55
:1009E0001C1C1C1C1C1C001C0038007000E001C0FA
:1009F00003800380038000000000000000000FF06F
:100A00001C381C381C381F3807E007E01CF81C385D
:100A10001C381C380FF000000000000000000FF030
:100A20001C381C381C381C381FF80FF800380038E8
:100A3000007000E007C0000000000000000000009F
:100A40000000038003800380000000000380038017
:100A50000380000000000000000000000000000013
:100A600000000380038003800000000003800380F7
:100A7000038007000000000000000000007000E09C
:100A800001C0038007000E001C001C000E000700C0
:100A9000038001C000E000700000000000000000C2
:100AA000000000003FFC3FFC000000003FFC3FFC5A
:100AB0000000000000000000000000001C000E000C
:100AC0000700038001C000E00070007000E001C07A
:100AD000038007000E001C000000000003C00FF0A0
:100AE0001E7818380038007000E001C001C0000016
:100AF000000001C001C001C0000000000FF81C1C74
:100B00001C1C1C1C1C1C1CFC1CFC1CFC1CFC1C00C1
:100B10001C001C001FF007F800000000000003C0CC
:100B200007E00E701C381C381C381C381FF81C38A5
:100B30001C381C381C3800000000000000001FF0AA
:100B40000E380E380E380E380FF00FF00E380E3803
:100B50000E380E381FF0000000000000000007F003
:100B60000E381C381C001C001C001C001C001C0043
:100B70001C380E3807F000000000000000001FE0E5
:100B80000E700E380E380E380E380E380E380E38FD
:100B90000E380E701FE000000000000000001FF87B
:100BA0000E180E080E000E300FF00FF00E300E0073
:100BB0000E080E181FF800000000000000001FF8CB
:100BC0000E180E080E000E300FF00FF00E300E0053
:100BD0000E000E001F00000000000000000007F0E3
:100BE0000E381C381C381C001C001C001CF81C385B
:100BF0001C380E3807F800000000000000001C70D0
:100C00001C701C701C701C701FF01FF01C701C707E
:100C10001C701C701C7000000000000000000FE041
:100C200003800380038003800380038003800380AC
:100C3000038003800FE0000000000000000001FCC2
:100C400000700070007000700070007038703870B4
:100C5000387038700FE000000000000000001E38FF
:100C60000E380E700EE00FC00F800F800FC00EE028
:100C70000E700E381E3800000000000000001F003B
:100C80000E000E000E000E000E000E000E000E08EC
:100C90000E180E381FF800000000000000001C1C99
:100CA0001E3C1F7C1FFC1FFC1DDC1C9C1C1C1C1CF8
:100CB0001C1C1C1C1C1C00000000000000001C1C54
:100CC0001C1C1E1C1F1C1F9C1DDC1CFC1C7C1C3CBB
:100CD0001C1C1C1C1C1C000000000000000003E089
:100CE00007F00E381C1C1C1C1C1C1C1C1C1C1C1C77
:100CF0000E3807F003E000000000000000001FF0C5
:100D00000E380E380E380E380FF00FF00E000E00B1
:100D10000E000E001F00000000000000000003E0B5
:100D20000F780E381C1C1C1C1C1C1C1C1C7C1CFC66
:100D30000FF80FF8003800FC0000000000001FF062
:100D40000E380E380E380E380FF00FF00E700E38C9
:100D50000E380E381E3800000000000000000FF0B2
:100D60001C381C381C381C000FE007F000381C38F9
:100D70001C381C380FF000000000000000001FFCB1
:100D800019CC11C401C001C001C001C001C001C023
:100D900001C001C007F000000000000000001C704E
:100DA0001C701C701C701C701C701C701C701C70E3
:100DB0001C701C700FE000000000000000001C70A0
:100DC0001C701C701C701C701C701C701C701C70C3
:100DD0000EE007C0038000000000000000001C1CA3
:100DE0001C1C1C1C1C1C1C1C1C9C1C9C1C9C0FF8F4
:100DF0000FF80770077000000000000000001C7072
:100E00001C701C700EE007C00380038007C00EE05A
:100E10001C701C701C7000000000000000001C70A2
:100E20001C701C701C701C700EE007C003800380D7
:100E3000038003800FE000000000000000001FF8A6
:100E40001C381838107000E001C0038007000E083D
:100E50001C181C381FF8000000000000000007F0FC
:100E6000070007000700070007000700070007004A
:100E70000700070007F0000000000000000010005D
:100E800018001C000E000700038001C000E0007085
:100E90000038001C0007000000000000000007F000
:100EA00000700070007000700070007000700070C2
:100EB0000070007007F0000000000000018003C017
:100EC00007E00E701C380000000000000000000069
:100ED0000000000000000000000000000000000012
:100EE0000000000000000000000000000000000002
:100EF0000000000000007FFF7FFF000000001C00DA
:100F00001C000700070000000000000000000000B7
:100F100000000000000000000000000000000000D1
:100F20000000000000000FE0007000700FF01C7067
:100F30001C701C700FD800000000000000001E0094
:100F40000E000E000E000FF00E380E380E380E3860
:100F50000E380E381BF000000000000000000000FA
:100F60000000000000000FE01C701C701C001C0042
:100F70001C701C700FE0000000000000000000F872
:100F80000070007000700FF01C701C701C701C70E2
:100F90001C701C700FD80000000000000000000052
:100FA0000000000000000FE01C701C701FF01C000F
:100FB0001C701C700FE0000000000000000003E047
:100FC00007700770070007001FE01FE00700070019
:100FD000070007001FC00000000000000000000024
:100FE0000000000000000FD81C701C701C701C70EA
:100FF0000FF007F000701C700FE0000000001E00F2
:101000000E000E000E000EF00F380F380E380E389E
:101010000E380E381E38000000000000000001C02D
:1010200001C001C000000FC001C001C001C001C06B
:1010300001C001C00FF800000000000000000070B7
:1010400000700070000003F000700070007000700D
:10105000007000701C700CF007E0000000001E0023
:101060000E000E000E000E380E700EE00FC00EE0E7
:101070000E700E381E3800000000000000000FC087
:1010800001C001C001C001C001C001C001C001C058
:1010900001C001C00FF800000000000000000000C7
:1010A0000000000000001FF81C9C1C9C1C9C1C9C49
:1010B0001C9C1C9C1C9C0000000000000000000008
:1010C0000000000000001FE01C701C701C701C70F1
:1010D0001C701C701C70000000000000000000006C
:1010E0000000000000000FE01C701C701C701C70E1
:1010F0001C701C700FE000000000000000000000E9
:101100000000000000001BF00E380E380E380E38BC
:101110000E380FF00E000E001F000000000000004F
:101120000000000000001FB038E038E038E038E090
:1011300038E01FE000E000E001F0000000000000E7
:101140000000000000001EF00FF80F380E000E0027
:101150000E000E001F000000000000000000000054
:101160000000000000000FE01C301C300F8003E086
:10117000187018700FE00000000000000000000070
:101180000100030007001FF0070007000700070029
:101190000770077003E0000000000000000000007E
:1011A0000000000000001C701C701C701C701C7083
:1011B0001C701C700FD80000000000000000000030
:1011C0000000000000001C701C701C701C701C7063
:1011D0000EE007C0038000000000000000000000D7
:1011E0000000000000001C1C1C1C1C1C1C9C1C9CE7
:1011F0000FF80770077000000000000000000000FA
:101200000000000000001CE01CE00FC00780078009
:101210000FC01CE01CE00000000000000000000007
:101220000000000000000E380E380E380E380E3860
:1012300007F003E000E001C01F8000000000000094
:101240000000000000001FE018E011C0038007004C
:101250000E201C601FE0000000000000000001F8EC
:1012600003800380038007001C001C00070003802C
:101270000380038001F800000000000001C001C0ED
:1012800001C001C001C001C001C001C001C001C056
:1012900001C001C001C001C00000000000001F80AB
:1012A00001C001C001C000E00038003800E001C00A
:1012B00001C001C01F8000000000000000001F1CD2
:1012C0003B9C39DC38F80000000000000000000002
:1012D000000000000000000000002032300A000082
:1012E00000000000000000FFFE0001FFFF0003FF00
:1012F000FF8001FFFF600CFFFEF01E0001F83F00C1
:1013000001F83F0001F83F0001F83F0001F83F00FD
:1013100001F83F0001F83F0001F83F0001F83F00ED
:1013200001F83F0001F83F0001F83F0001F83F00DD
:1013300001F83E0000783800001820000008000086
:10134000000020000000380000183E0000783F0038
:1013500001F83F0001F83F0001F83F0001F83F00AD
:1013600001F83F0001F83F0001F83F0001F83F009D
:1013700001F83F0001F83F0001F83F0001F83F008D
:1013800001F83F0001F81E0000F00CFFFE6001FFB5
:10139000FF0003FFFF8001FFFF0000FFFE000000D1
:1013A000000000000000000000000000000000003D
:1013B00000000000000000000000000000600000CD
:1013C00000F0000001F8000001F8000001F8000042
:1013D00001F8000001F8000001F8000001F8000029
:1013E00001F8000001F8000001F8000001F8000019
:1013F00001F8000001F8000001F80000007800008A
:1014000000180000000800000000000000000000BC
:10141000001800000078000001F8000001F800004A
:1014200001F8000001F8000001F8000001F80000D8
:1014300001F8000001F8000001F8000001F80000C8
:1014400001F8000001F8000001F8000001F80000B8
:1014500000F000000060000000000000000000003C
:10146000000000000000000000000000000000007C
:1014700000000000000000FFFE0001FFFF0003FF6E
:10148000FF8001FFFF6000FFFEF0000001F8000098
:1014900001F8000001F8000001F8000001F8000068
:1014A00001F8000001F8000001F8000001F8000058
:1014B00001F8000001F8000001F8000001F8000048
:1014C00001F80000007801FFFE1803FFFF880FFFFE
:1014D000FFE027FFFFC039FFFF003E0000003F0094
:1014E00000003F0000003F0000003F0000003F0000
:1014F00000003F0000003F0000003F0000003F00F0
:1015000000003F0000003F0000003F0000003F00DF
:1015100000003F0000001E0000000CFFFE0001FF65
:10152000FF0003FFFF8001FFFF0000FFFE0000003F
:10153000000000000000000000000000000000FFAC
:10154000FE0001FFFF0003FFFF8001FFFF6000FFBF
:10155000FEF0000001F8000001F8000001F80000B2
:1015600001F8000001F8000001F8000001F8000097
:1015700001F8000001F8000001F8000001F8000087
:1015800001F8000001F8000001F80000007801FFF8
:10159000FE1803FFFF880FFFFFE007FFFFC001FFFA
:1015A000FF1800000078000001F8000001F80000BA
:1015B00001F8000001F8000001F8000001F8000047
:1015C00001F8000001F8000001F8000001F8000037
:1015D00001F8000001F8000001F8000001F8000027
:1015E00000F000FFFE6001FFFF0003FFFF8001FF2E
:1015F000FF0000FFFE0000000000000000000000EF
:1016000000000000000000000000000000000000DA
:101610000000000000600C0000F01E0001F83F0018
:1016200001F83F0001F83F0001F83F0001F83F00DA
:1016300001F83F0001F83F0001F83F0001F83F00CA
:1016400001F83F0001F83F0001F83F0001F83F00BA
:1016500001F83E00007839FFFE1823FFFF880FFFD6
:10166000FFE007FFFFC001FFFF1800000078000047
:1016700001F8000001F8000001F8000001F8000086
:1016800001F8000001F8000001F8000001F8000076
:1016900001F8000001F8000001F8000001F8000066
:1016A00001F8000001F8000000F0000000600000F8
:1016B000000000000000000000000000000000002A
:1016C000000000000000000000000000000000FF1B
:1016D000FE0001FFFF0003FFFF8001FFFF000CFF82
:1016E000FE001E0000003F0000003F0000003F0021
:1016F00000003F0000003F0000003F0000003F00EE
:1017000000003F0000003F0000003F0000003F00DD
:1017100000003F0000003F0000003E00000039FFD5
:10172000FE0023FFFF800FFFFFE007FFFFC001FF68
:10173000FF1800000078000001F8000001F8000028
:1017400001F8000001F8000001F8000001F80000B5
:1017500001F8000001F8000001F8000001F80000A5
:1017600001F8000001F8000001F8000001F8000095
:1017700000F000FFFE6001FFFF0003FFFF8001FF9C
:10178000FF0000FFFE00000000000000000000005D
:1017900000000000000000FFFE0001FFFF0003FF4B
:1017A000FF8001FFFF000CFFFE001E0000003F0055
:1017B00000003F0000003F0000003F0000003F002D
:1017C00000003F0000003F0000003F0000003F001D
:1017D00000003F0000003F0000003F0000003F000D
:1017E00000003E00000039FFFE0023FFFF800FFFD6
:1017F000FFE027FFFFC039FFFF183E0000783F00E1
:1018000001F83F0001F83F0001F83F0001F83F00F8
:1018100001F83F0001F83F0001F83F0001F83F00E8
:1018200001F83F0001F83F0001F83F0001F83F00D8
:1018300001F83F0001F81E0000F00CFFFE6001FF00
:10184000FF0003FFFF8001FFFF0000FFFE0000001C
:10185000000000000000000000000000000000FF89
:10186000FE0001FFFF0003FFFF8001FFFF6000FF9C
:10187000FEF0000001F8000001F8000001F800008F
:1018800001F8000001F8000001F8000001F8000074
:1018900001F8000001F8000001F8000001F8000064
:1018A00001F8000001F8000001F8000000780000D5
:1018B0000018000000080000000000000000000008
:1018C000001800000078000001F8000001F8000096
:1018D00001F8000001F8000001F8000001F8000024
:1018E00001F8000001F8000001F8000001F8000014
:1018F00001F8000001F8000001F8000001F8000004
:1019000000F0000000600000000000000000000087
:1019100000000000000000000000000000000000C7
:1019200000000000000000FFFE0001FFFF0003FFB9
:10193000FF8001FFFF600CFFFEF01E0001F83F007A
:1019400001F83F0001F83F0001F83F0001F83F00B7
:1019500001F83F0001F83F0001F83F0001F83F00A7
:1019600001F83F0001F83F0001F83F0001F83F0097
:1019700001F83E00007839FFFE1823FFFF880FFFB3
:10198000FFE027FFFFC039FFFF183E0000783F004F
:1019900001F83F0001F83F0001F83F0001F83F0067
:1019A00001F83F0001F83F0001F83F0001F83F0057
:1019B00001F83F0001F83F0001F83F0001F83F0047
:1019C00001F83F0001F81E0000F00CFFFE6001FF6F
:1019D000FF0003FFFF8001FFFF0000FFFE0000008B
:1019E000000000000000000000000000000000FFF8
:1019F000FE0001FFFF0003FFFF8001FFFF600CFFFF
:101A0000FEF01E0001F83F0001F83F0001F83F0022
:101A100001F83F0001F83F0001F83F0001F83F00E6
:101A200001F83F0001F83F0001F83F0001F83F00D6
:101A300001F83F0001F83F0001F83E00007839FF4F
:101A4000FE1823FFFF880FFFFFE007FFFFC001FF25
:101A5000FF1800000078000001F8000001F8000005
:101A600001F8000001F8000001F8000001F8000092
:101A700001F8000001F8000001F8000001F8000082
:101A800001F8000001F8000001F8000001F8000072
:101A900000F000FFFE6001FFFF0003FFFF8001FF79
:101AA000FF0000FFFE00000000000000000000003A
:101AB0002100240027002A002D00300033000101FE
:101AC0000000040107010A0100002200250028008F
:101AD0002B002E0031003400020100000501080136
:101AE0000B01000020002300260029002C002F00FD
:101AF000320000010000030106010901050505058A
:101B0000070508080808020202020A0A0808040475
:101B100004040101010101010101030303030303A3
:101B20000303040707070C0C0C0C0C0C0C0C020232
:101B3000020206060606060606060B0B0B0B0B0B2F
:101B40000B0B0102102020080810204010204080BC
:101B50000201020108040201010204081020408071
:101B600080402010080402018004020180402010FF
:101B70000804020108040201010204081020408048
:101B800001020408102040800000090A02080B0C22
:101B90000D07060304010000000000000000000023
:101BA0000000000000000000000000000000000035
:101BB0000000000011100F000000000000000000F5
:101BC000000000000000000000000000000063644E
:101BD000696E6F70737578585B0000407A10F35A25
:101BE00000A0724E18090010A5D4E80000E876485D
:101BF000170000E40B54020000CA9A3B000000E109
:101C0000F505000080969800000040420F0000009B
:101C1000A08601000000102700000000E80300007B
:101C200000006400000000000A0000000000010045
:101C3000000000002C76D888DC674F0823DFC1DF66
:101C4000AE59E1B1B796E5E3E453C63AE651997669
:101C500096E8E6C28426EB898C9B62ED407C6FFCA3
:101C6000EFBC9C9F40F2BAA56FA5F490055A2AF7E5
:101C70005C936B6CF9676DC11BFCE0E40D47FEF5EE
:101C800020E6B500D0ED902E030094357705008056
:101C9000841E080000204E0A000000C80C333333B5
:101CA000330F986E12831141EF8D2114893BE65555
:101CB00016CFFEE6DB18D1844B381BF77C1D901D38
:101CC000A4BBE424203284725E228100C9F124EC9A
:101CD000A1E53D27471959323C355839401911249F
:101CE0001FBECFEFD1E2DEBFCDBF00E00CBF15E0DD
:101CF000A0E0B2E0E0EBFCEF00E00BBF02C0079019
:101D00000D92AA34B107D9F71BBE17E0AAE4B5E0DB
:101D100001C01D92AD36B107E1F71CE1CCEDDCE16D
:101D200004C02297FE010E94057EC43DD107C9F779
:101D30000E9490760C944B7E0C940000EF92FF92E0
:101D40000F931F93F22FF02E47FD02C0E4E001C075
:101D5000E4E1242F332727FD309537FF03C030956A
:101D600021953F4F4F2D512F0F2FEE2E0E94F31133
:101D70008F2D912F1F910F91FF90EF9008951F933A
:101D8000FC0199278827BC01E89411911032E9F3EE
:101D9000193010F01E30C8F31B3251F01D3249F4D7
:101DA000689406C00E942F0F610F711D811D911D47
:101DB000119110531A30B0F33EF4909580957095C0
:101DC00061957F4F8F4F9F4F1F910895FB01DC015D
:101DD00002C001900D9241505040D8F70895FB0188
:101DE000DC018D91019080190110D9F3990B0895B0
:101DF000FB01DC0101900D920020E1F70895FB0149
:101E0000DC014150504048F001900D920020C9F78C
:101E100001C01D9241505040E0F70895FB019F0121
:101E2000E8944230C4F04532B4F44A3029F497FBC8
:101E30001EF4909581959F4F642F77270E949F7D78
:101E4000805D8A330CF0895D8193CB010097A1F707
:101E500016F45DE251931082C9010C943814592F85
:101E6000482F372F262F660F771F881F991F660F61
:101E7000771F881F991F620F731F841F951F660F9E
:101E8000771F881F991F0895AEE0B0E0EAE4FFE0F5
:101E90000C94247E85E08C838C899D899A83898328
:101EA0009E01285E3F4FCE0101966E897F89A90170
:101EB0000E94E2102E96E2E00C94407EFC0120FD90
:101EC00008C023FD05C022FF02C0738362835183D3
:101ED00040830895EF92FF920F931F9344FF02C037
:101EE00033E011C046FF02C034E00DC0DB01FC014D
:101EF000AA0FBB1FEE1FFF1F1094D1F76A0F7B1FA5
:101F00008E1F9F1F31E0660F771F881F991F31506A
:101F1000D1F77B018C01E20EF11C011D111DA801FE
:101F20009701B701CA011F910F91FF90EF9008959B
:101F30000F931F93CF93DF938C01C8010E94481425
:101F4000EC0197FD08C00E94097E892BB1F7CE01F4
:101F5000B8010E948A14CE01DF91CF911F910F9199
:101F60000895A0E0B0E0E7EBFFE00C941C7EEC01EC
:101F7000C62E5A01122F0E944814AC018B3219F060
:101F80008D3251F41068CA9409F46DC0CE010E94DC
:101F90004814AC0197FD67C06DEFD62ED1228D2D70
:101FA000807301F54033F1F4CA9409F447C0CE01BF
:101FB0000E944814AC0197FD41C082E0D82A4837FE
:101FC00011F0483559F480E4D82ACA94B9F1CE0109
:101FD0000E944814AC0199232CF430C0D6FC02C0F6
:101FE00080E1D82AEE24FF248701242F20532830B3
:101FF00088F0D4FC09C02A3068F0D6FE05C02F7DD9
:10200000822F8151863028F0CA01BE010E948A14B5
:1020100012C02750C801B7014D2D0E946A0F7B01E5
:102020008C0182E0D82ACA9461F0CE010E94481443
:10203000AC0197FFDACFD1FC04C015C0EE24FF2419
:102040008701D7FE08C010950095F094E094E11C3C
:10205000F11C011D111DC501B801A7012D2D0E9404
:102060005E0F81E001C080E0CDB7DEB7EAE00C94FE
:10207000387EA0E2B0E0EFE3F0E10C94187E6C0152
:10208000A62E8A017901FE01319680E2DF011D92C0
:102090008A95E9F770E030E060E040E050E04F0101
:1020A000A1E0B0E0F6018381F70183FD259183FF74
:1020B00021917F01222309F47EC02E3519F44115A8
:1020C000510569F1872F90E08417950744F42D3569
:1020D00051F12D3221F4332329F431E021C033238F
:1020E00009F4622F322F832F869586958695F40109
:1020F000E80FF11D832F87703D0102C0660C771C2D
:102100008A95E2F7208126292083361711F430E0E2
:1021100007C0361710F43F5FE6CF3150E4CF71E0CF
:102120004F5F5F4FBFCF332319F08E8180628E8364
:10213000772359F0FE0131969E012F5D3F4F80813C
:1021400080958193E217F307D1F7BB24B3944E0136
:102150000894811C911CC6010E944814AC0197FD93
:1021600022C0869586958695F401E80FF11D808141
:1021700090E09A012770307002C0959587952A9556
:10218000E2F780FD05C0CA01B6010E948A140BC0A7
:102190000115110519F0D8014D938D01AA94BB24A6
:1021A000AA20C9F602C0BB2031F40115110529F09F
:1021B000F801108202C0EE24FF24C701A096EEE0D1
:1021C0000C94347EA0E0B0E0E8EEF0E10C94187ED0
:1021D0005C016B013A01FC01178216828824EAC077
:1021E000812F90E00E94097E892B21F0C5010E9479
:1021F000980FE0C0153249F4F601F3FC6591F3FE47
:1022000061916F01653269F415E2C5010E944814BD
:1022100097FDDCC0181709F4CDC0B5010E948A14DF
:10222000DAC06A3219F0162F00E006C0F3FC1591EF
:10223000F3FE11916F0101E099240FC00260692D36
:1022400070E080E090E040E20E946A0F962EF60176
:10225000F3FC1591F3FE11916F01212F20532A30C9
:1022600068F301FD03C099249A9403C0992009F4EE
:10227000B2C0183621F01C3699F4F6010BC0F601F5
:10228000F3FC6591F3FE6191683619F06F01162F2A
:1022900007C008600460F3FC1591F3FE11916F0113
:1022A000112309F498C08EEC9BE1612F70E00E942D
:1022B0002D14892B09F48FC0802F00FF03C0EE245A
:1022C000FF2407C0F301E080F18022E030E0620EDD
:1022D000731E1E3651F4F5014681578160E070E0AF
:1022E000C701202F0E945E0F65C0133691F481FD57
:1022F00002C099249394C5010E94481497FD66C0BA
:10230000E114F10419F0F70181937F019A9499F790
:102310004FC01B3559F4C501692DA70196010E94D4
:1023200039106C01009709F043C03DC0C5010E94FF
:10233000980F97FD4BC01F3659F1103728F414360B
:1023400029F1193639F527C0133719F0153711F56A
:102350001DC0C5010E944814EC0197FD11C00E94E8
:10236000097E892B29F0CE01B5010E948A1408C08C
:10237000E114F10419F0F701C1937F019A9449F730
:10238000E114F104A9F0F701108212C0006203C049
:10239000006101C00064C501692DA701202F0E94C2
:1023A000B10F882329F4F5018381807379F413C078
:1023B00000FF8394F501F380F601F3FC1591F3FE21
:1023C00011916F01112309F00BCF05C0882019F47A
:1023D0002FEF3FEF02C0282D30E0C901CDB7DEB7A7
:1023E000EEE00C94347EA9E0B0E0E9EFF1E10C946A
:1023F000187E6A01122FA02EBE2C2BE3201718F492
:102400002CE3922E02C0902E9394AE014F5F5F4F4B
:1024100027E0092D0E945513BC018981E82EFF2475
:10242000C70189709070019711F4ADE209C0B1FE47
:1024300002C0ABE205C0B0FC02C0A0E001C0A0E257
:10244000E3FE3BC0AA2311F423E001C024E02117DE
:1024500010F020E002C0121B212FEB2CB4FE02C0B2
:10246000322F0AC0F601322F80E202C08193315030
:102470003323E1F7C20ED11CAA2319F0F601A19370
:102480006F01F6013196E2FE05C09EE4D6019C93F1
:1024900081E404C09EE6D6019C9381E611968C935C
:1024A00091833296DF01832F90E202C09D93815089
:1024B0008823E1F7E30FF11D40C0E2FE42C0AA23EA
:1024C00011F423E001C024E0211710F020E002C045
:1024D000121B212FEB2CB4FE02C0922F0AC0F60172
:1024E000922F80E202C0819391509923E1F7C20EAE
:1024F000D11CAA2319F0F601A1936F01F6013196C0
:10250000E2FE08C089E4D6018C938EE411968C9388
:1025100086E407C089E6D6018C938EE611968C93EB
:1025200086E681833296DF01892F20E202C02D9357
:1025300081508823E1F7E90FF11D10822EEF3FEF64
:10254000AFC0161617061CF041E050E003C0AB0107
:102550004F5F5F4FAA2019F480E090E003C08A2DFE
:1025600090E0019620E030E0AA2311F021E030E075
:10257000240F351F280F391F812F90E028173907A6
:1025800014F020E002C0121B212F4B2D50E0CA0195
:1025900080719070B4FC0DC0B3FC0BC0F601322FFB
:1025A00040E202C0419331503323E1F7C20ED11C07
:1025B00001C0322FAA2319F0F601A1936F01892BD4
:1025C00011F0132F0AC0F601132F80E302C081938C
:1025D00011501123E1F7C30ED11C092D060FBA804B
:1025E00090E1892E912C8E209F20E4FE04C0F1E31F
:1025F000BF1609F40150101614F001E003C00930B1
:1026000008F008E09B0177FF02C020E030E0CB013A
:102610000196821B930BFE013196E80FF91F8EE2A3
:10262000F82E3B01601A71088A2D90E04427552747
:10263000481B590B8FEF2F3F380719F4D601FD9235
:102640006D01621773072CF06216730614F4808113
:1026500001C080E32150304031962417350724F023
:10266000D6018D936D01E6CF2617370749F4B5E300
:10267000BB1528F0BB1621F48114910409F481E301
:10268000F6018193D601812F90E202C09C93815084
:1026900011968823D9F7E10FF11D108220E030E078
:1026A000C9012996EEE00C94347E283008F027E02A
:1026B0003327DA01990F311D87FD9160009661057E
:1026C000710539F432602E5F3D9330E32A95E1F7CE
:1026D00008959F3F30F080387105610509F03C5F37
:1026E0003C5F3D93913008F08068911DDF93CF935C
:1026F0001F930F93FF92EF92192F987F9695E92FD2
:1027000096959695E90FFF27EC5CF34E99273327B2
:10271000EE24FF24A701E70105900894079428F40C
:10272000360FE71EF81E491F511D660F771F881FC1
:10273000991F0694A1F70590079428F4E70EF81E58
:10274000491F561FC11D770F881F991F661F0694CA
:10275000A1F70590079428F4F80E491F561FC71FCC
:10276000D11D880F991F661F771F0694A1F705904A
:10277000079420F4490F561FC71FD81F990F661FD3
:10278000771F881F0694A9F784911095177041F060
:10279000D695C79557954795F794E7941A95C1F73D
:1027A000EAEDFBE16894159015913591659195914D
:1027B00005907FE27395E118F10A430B560BC90BA4
:1027C000D009C0F7E10CF11E431F561FC91FD01DD1
:1027D0007EF4703311F48A95E6CFE894015030F01E
:1027E000080F0AF40027021708F4202F2395022F60
:1027F0007A3328F079E37D932A95E9F710C07D9329
:102800002A9589F6069497956795379517951794A5
:10281000E118F10A430B560BC90BD00998F0239528
:102820007E9173957A3308F070E37C932013B8F7A8
:102830007E9170617D9330F0839571E37D9370E3B9
:102840002A95E1F71124EF90FF900F911F91CF91FE
:10285000DF91992787FD90950895FC010590061654
:1028600021F00020D9F7C00108953197CF010895D4
:10287000DC01FC01672F71917723E1F7329704C0E7
:102880007C916D9370836291AE17BF07C8F3089572
:10289000CF93DF93EC014B8140FF1AC046FF0AC083
:1028A0004F7B4B838E819F8101969F838E838A818C
:1028B000282F2BC042FF13C0E881F9818081282F87
:1028C000332727FD30952115310529F440624B83CC
:1028D0002FEF3FEF1BC03196F983E88311C0EA85E3
:1028E000FB85CE0119959C0197FF0AC09B812F5F44
:1028F0003F4F11F080E201C080E1892B8B83E8CF4C
:102900008E819F8101969F838E8330E0C901DF9184
:10291000CF9108959C01FB01838180FF11C086FD4A
:102920000FC09FEF2F3F390759F0228380648F7DBE
:1029300083838681978101979783868330E002C0E5
:102940002FEF3FEFC90108950895FC01868997890B
:102950000895FC0186A197A10895DF92EF92FF925E
:102960000F931F938B018EE9E82E86E0F82EC701A6
:102970000E94EF34D82E0F5F1F4FC701B8010E948D
:10298000EF34382F20E02D0D311DC9011F910F911B
:10299000FF90EF90DF900895DF92EF92FF920F93F8
:1029A0001F938B01D52E9EE9E92E96E0F92EC701E3
:1029B0000E94F6340F5F1F4FC701B8014D2D0E94D2
:1029C000F6341F910F91FF90EF90DF900895CF9311
:1029D000DF93EC01ECA5FDA594818DA1891728F565
:1029E00089A1891710F54EA55FA58EA19FA1480F5B
:1029F000591F5FA34EA368857985CE010E94CC1430
:102A0000ECA5FDA584818DA38281883008F488E03F
:102A10008CA3ECA5FDA5828198A5883020F081814A
:102A20008F5F890F01C0892F8BA3DF91CF9108950C
:102A3000FC01AB01CB01AA2797FDA095BA2F80AB73
:102A400091ABA2ABB3AB64857585CF010E94CC146A
:102A50000895CF92DF92EF92FF920F931F93DF932F
:102A6000CF9300D000D0CDB7DEB7D82EC92E7A01D3
:102A7000FA01848195810297A8F48E010F5F1F4FA0
:102A8000C80160E072E00E941478C801B7010E949A
:102A9000C477BC018D2D9C2D0E94BD78C8010E9479
:102AA000D77805C08D2D9C2DBA010E94BD788D2D43
:102AB0009C2D26960FB6F894DEBF0FBECDBFCF91EA
:102AC000DF911F910F91FF90EF90DF90CF900895CD
:102AD0008F929F92AF92BF92CF92DF92EF92FF922E
:102AE0000F931F93DF93CF93CDB7DEB76E970FB6DB
:102AF000F894DEBF0FBECDBF982E892E5B01FB017F
:102B000064A18E010F5F1F4FC80170E04AE00E9470
:102B10007678892D982DB501A8010E942915C80144
:102B20000E94D1788E01095F1F4FC801692D782D51
:102B30000E94C778C80162E072E00E94A877BC01D9
:102B4000892D982D0E94A678C8010E94D77839E176
:102B5000C32ED12CCC0EDD1EC601692D782D0E940E
:102B6000C7782DE0E22EF12CEC0EFD1EF50163A1DD
:102B7000C70170E04AE00E9476788E010D5E1F4F1B
:102B8000C801B501A7010E942915C601B8010E941C
:102B9000C477BC01892D982D0E94A678C8010E9497
:102BA000D178C7010E94D178C6010E94D778892DBB
:102BB000982D6E960FB6F894DEBF0FBECDBFCF91A5
:102BC000DF911F910F91FF90EF90DF90CF90BF901A
:102BD000AF909F908F9008950F931F938C01FC01ED
:102BE000848160E00E945D76F801868160E00E9449
:102BF0005D76F801828160E00E945D761F910F9101
:102C000008950F931F938C01FC01828161E00E9463
:102C10005D76F801848161E00E945D76F80186812D
:102C200060E00E945D761F910F9108956F927F92F0
:102C30008F929F92AF92BF92CF92DF92EF92FF92CC
:102C40000F931F93CF93DF93EC018E899F89039796
:102C5000C1F50E94C8747B018C0168A879A88AA874
:102C60009BA86EA57FA5882777FD8095982FA40146
:102C700093010E94747D5B016C0163E0D694C7945C
:102C8000B794A7946A95D1F7888D998DAA8DBB8D3D
:102C9000E81AF90A0A0B1B0BEA14FB040C051D05C4
:102CA00098F46EA17FA180E090E00E94747DA6164A
:102CB000B706C806D90628F4E616F7060807190766
:102CC00018F4EE24FF248701B701C801DF91CF91EA
:102CD0001F910F91FF90EF90DF90CF90BF90AF903A
:102CE0009F908F907F906F900895EF92FF920F9337
:102CF0001F93CF93DF93EC017A018B010E94EC15B7
:102D00000E94C874688F798F8A8F9B8F82E090E0D1
:102D10009F8B8E8B28A939A94AA95BA9C801B70145
:102D20000E94C67DC9013D8F2C8F4EA15FA1481B1B
:102D3000590B5FA34EA368857985CE010E94CC1400
:102D4000ECA5FDA5848189A3828188A381818F8FD1
:102D50006C897D89CE010E94AD1449A1242F30E0F9
:102D60008217930731F06C897D89CE0150E00E9473
:102D7000CC1468897989CE010E94AD1448A1242F12
:102D800030E08217930731F068897989CE0150E0ED
:102D90000E94CC146A897B89CE010E94AD144F8DAC
:102DA000242F30E08217930731F06A897B89CE01A6
:102DB00050E00E94CC148EA19FA1892BC9F089A15B
:102DC0008DA3EAA5FBA5309759F048A559A58F8D8D
:102DD00090E0278DBA01620F711D8617970710F0DA
:102DE00040E050E088A18F5F8CA38F8D840F8BA370
:102DF000DF91CF911F910F91FF90EF9008950F9366
:102E00001F938C010E94C874F801608F718F828FAC
:102E1000938F83E090E0978B868BC8010E94011608
:102E20001F910F910895CF93DF93EC010E94E71457
:102E30008E899F8901970297F0F48EA19FA1892B1B
:102E4000D1F0ECA5FDA59DA184819817A1F49CA1CA
:102E50008281891780F09BA18181891760F0CE0162
:102E60000E94FF1603C0CE010E9475168E899F89AD
:102E7000DF91CF910895CE010E941616AB01BC01DF
:102E8000411551056105710589F3EDCFCF93DF93AE
:102E9000EC01798368836230710599F163307105C3
:102EA00009F45AC06130710509F082C08BE290E0EC
:102EB0009B838A838DE290E09D838C838FE290E0F8
:102EC0009F838E8388EC90E0998788878CED90E0D3
:102ED0009B878A8786EE90E09D878C878FEF9FEF98
:102EE0009F878E8788EE93E0998B888B8AEE93E09C
:102EF0009B8B8A8B8CE494E09D8B8C8B89E690E095
:102F000055C08AE290E09B838A838CE290E09D83A7
:102F10008C838EE290E09F838E838AEC90E0998789
:102F200088878EED90E09B878A8788EE90E09D876A
:102F30008C8782EF90E09F878E8782EF93E0998B5A
:102F4000888B84EF93E09B8B8A8B8CE494E09D8B41
:102F50008C8B81E190E02AC08BE290E09B838A8396
:102F600080E390E09D838C8381E390E09F838E8358
:102F70008CEC90E09987888780EE90E09B878A8729
:102F80008AEE90E09D878C8784EF90E09F878E8704
:102F90008CEF93E0998B888B8EEF93E09B8B8A8BE1
:102FA0008CE494E09D8B8C8B88E790E09FA78EA7A4
:102FB0005DA74CA70E94C874688F798F8A8F9B8FFA
:102FC0001F8A1E8ADF91CF9108950F931F938C0162
:102FD0000E94C874F801608F718F828F938F85E093
:102FE00090E0978B868BC8010E94011660E27EE418
:102FF00080E090E00E944275C8010E94EC150E949A
:10300000C874F801608F718F828F938F82E090E097
:10301000978B868B1F910F9108950F931F938C01AF
:103020000E94C874F801608F718F828F938F84E043
:1030300090E0978B868BC8010E94011668E873E1C7
:1030400080E090E00E944275C8010E94EC150E9449
:10305000C874F801608F718F828F938F82E090E047
:10306000978B868B1F910F910895CF93DF93EC017F
:10307000FB010190F081E02DE230F10541F0E330F9
:10308000F10541F0319749F464E072E008C068E06E
:1030900072E005C06BE072E002C06EE072E00E9478
:1030A000FB77CE01DF91CF910895CF93DF93EC01B1
:1030B0008A8161E00E94AA758C8161E00E94AA75F4
:1030C0008E8161E00E94AA75CE010E94EC156C858C
:1030D0007D85CE010E94AD14892B29F488EE93E002
:1030E000A0E0B0E007C06C857D85CE010E94AD14E4
:1030F000A0E0B0E088AB99ABAAABBBAB6A857B859F
:10310000CE010E94AD14892B31F06A857B85CE01FA
:103110000E94AD1402C08EA59FA58EA79FA76885AB
:103120007985CE010E94AD149FA38EA36E857F8505
:10313000161617061CF080E090E003C0CE010E9436
:10314000AD1499A788A76C897D89CE010E94AD1422
:1031500089A368897989CE010E94AD1488A36A8900
:103160007B89CE010E94AD148F8F69A1ECA5FDA5CE
:103170009481691720F4CE010E94E7141AC06917E0
:10318000C1F4EAA5FBA5309759F048A559A5282F09
:1031900030E0878DFA01E80FF11D2E173F0710F080
:1031A00040E050E06DA388A18F5F8CA38F8D840FCA
:1031B0008BA30E94C874688F798F8A8F9B8F81E060
:1031C00090E09F8B8E8BDF91CF910895FC0173A7C8
:1031D00062A70E9455180895CF92DF92EF92FF9256
:1031E0000F931F9381309105D9F56F5F7F4F09F0E1
:1031F00040C00E94C8746093550570935605809333
:1032000057059093580589E695E064E172E00E94C5
:10321000FB778FE695E062E046E250E027E230E09F
:1032200008E210E079E2E72EF12CCC24DD240E94A4
:103230002B6A80EA95E066E045E024E003E032E0B6
:10324000E32E0E940D6C8BED95E00E94A4148FE09C
:1032500096E00E94A41483E496E00E94A41409C09E
:10326000892B39F46F5F7F4F21F489E695E00E9446
:10327000D1781F910F91FF90EF90DF90CF9008953C
:1032800080E090E06FEF7FEF0E94EC18089581E0FE
:1032900090E06FEF7FEF0E94EC180895CF92DF92DD
:1032A000EF92FF920F931F93DF93CF9300D000D044
:1032B000CDB7DEB7D82EC92E7B01FB018481958165
:1032C0000297A8F48E010F5F1F4FC80165E172E0FD
:1032D0000E941478C801B7010E94C477BC018D2DEB
:1032E0009C2D0E94BD78C8010E94D77804C08D2D06
:1032F0009C2D0E94BD788D2D9C2D26960FB6F8949E
:10330000DEBF0FBECDBFCF91DF911F910F91FF9018
:10331000EF90DF90CF9008958F929F92AF92BF92DF
:10332000CF92DF92EF92FF920F931F93DF93CF9391
:10333000CDB7DEB7ED970FB6F894DEBF0FBECDBFA9
:10334000B82EA92E0FAB18AF29AF3AAF4BAF5CAF79
:103350006DAF6091500570E06E54784F8E010F5F35
:103360001F4FC8014AE00E9476788B2D9A2DB80134
:103370000E944E19C8010E94D1788E01095F1F4F2B
:10338000C8016B2D7A2D0E94C77887E1882E82E0D4
:10339000982EC801B4010E94A877BC018B2D9A2DEC
:1033A0000E94A678C8010E94D778B9E1CB2ED12C13
:1033B000CC0EDD1EC6016B2D7A2D0E94C778ADE0C4
:1033C000EA2EF12CEC0EFD1E60914F05C70170E056
:1033D0004AE00E9476788E010D5E1F4FC801B7014A
:1033E0000E944E19C601B8010E94C477BC018B2D02
:1033F0009A2D0E94A678C8010E94D178C7010E9428
:10340000D178C6010E94D7788E01015E1F4FC80196
:103410006B2D7A2D0E94C778C801B4010E94A8774D
:10342000BC018B2D9A2D0E94A678C8010E94D778E6
:10343000F1E3CF2ED12CCC0EDD1EC6016B2D7A2DE3
:103440000E94C778E5E2EE2EF12CEC0EFD1E609195
:103450004E05C70170E04AE00E9476788E01055D56
:103460001F4FC801B7010E944E19C601B8010E9442
:10347000C477BC018B2D9A2D0E94A678C8010E94AA
:10348000D178C7010E94D178C6010E94D7788B2DD0
:103490009A2DED960FB6F894DEBF0FBECDBFCF913B
:1034A000DF911F910F91FF90EF90DF90CF90BF9031
:1034B000AF909F908F900895EF92FF920F931F937C
:1034C0007C0100914A0510914B0520914C053091EB
:1034D0004D0540914E0550914F05609150050E9459
:1034E0008C19C7011F910F91FF90EF9008958F9253
:1034F0009F92AF92BF92CF92DF92EF92FF920F9383
:103500001F93DF93CF93CDB7DEB7ED970FB6F89447
:10351000DEBF0FBECDBFB82EA92E0FAB18AF29AF9F
:103520003AAF4BAF5CAF6DAF60914C058E010F5F52
:103530001F4FC80170E04AE00E9476788B2D9A2DCB
:10354000B8010E944E19C8010E94D1788E01095F0E
:103550001F4FC8016B2D7A2D0E94C77859E1852E27
:1035600052E0952EC801B4010E94A877BC018B2DB2
:103570009A2D0E94A678C8010E94D77849E1C42EEE
:10358000D12CCC0EDD1EC6016B2D7A2D0E94C77882
:103590003DE0E32EF12CEC0EFD1E60914B05C701C2
:1035A00070E04AE00E9476788E010D5E1F4FC801E0
:1035B000B7010E944E19C601B8010E94C477BC0130
:1035C0008B2D9A2D0E94A678C8010E94D178C70140
:1035D0000E94D178C6010E94D7788E01015E1F4FEC
:1035E000C8016B2D7A2D0E94C778C801B4010E94D2
:1035F000A877BC018B2D9A2D0E94A678C8010E9445
:10360000D77821E3C22ED12CCC0EDD1EC6016B2D46
:103610007A2D0E94C77895E2E92EF12CEC0EFD1E62
:1036200060914A05C70170E04AE00E9476788E01F9
:10363000055D1F4FC801B7010E944E19C601B801B0
:103640000E94C477BC018B2D9A2D0E94A678C801D8
:103650000E94D178C7010E94D178C6010E94D77814
:103660008B2D9A2DED960FB6F894DEBF0FBECDBF11
:10367000CF91DF911F910F91FF90EF90DF90CF904E
:10368000BF90AF909F908F900895EF92FF920F930D
:103690001F937C0100914A0510914B0520914C0528
:1036A00030914D0540914E0550914F056091500568
:1036B0000E94771AC7011F910F91FF90EF90089514
:1036C000DF93CF9300D000D0CDB7DEB72DB73EB794
:1036D0002A5030400FB6F8943EBF0FBE2DBFEDB755
:1036E000FEB73196ADB7BEB712969C938E931197E5
:1036F0008BE192E093838283CE010196958384834C
:10370000CE01039697838683CE01059691878087A5
:103710000E94440F2DB73EB7265F3F4F0FB6F89477
:103720003EBF0FBE2DBF039711F080E00AC0898114
:1037300080934C058B8180934B058D8180934A0546
:1037400081E026960FB6F894DEBF0FBECDBFCF91B5
:10375000DF910895CF92DF92FF920F931F93DF9333
:10376000CF93CDB7DEB760970FB6F894DEBF0FBE2C
:10377000CDBF2DB73EB72A5030400FB6F8943EBFAC
:103780000FBE2DBFEDB7FEB73196ADB7BEB71296DF
:103790009C938E93119784E292E09383828365E0F9
:1037A000C62ED12CCC0EDD1ED582C482CE01019650
:1037B00097838683CE010396918780870E94440F6A
:1037C000EDB7FEB73A960FB6F894FEBF0FBEEDBF49
:1037D0000397F9F404E714E0FF24D8016D917C917C
:1037E000C6010E94EF0E9C019F2D9F5F232B59F471
:1037F000898180934E0590934F058B81825B8093E6
:10380000500581E007C0F92E0E5F1F4FBCE09B17EB
:1038100021F780E060960FB6F894DEBF0FBECDBFF3
:10382000CF91DF911F910F91FF90DF90CF9008957E
:103830008DE292E00E94AA1B882351F089E392E076
:103840000E94601B882321F08AE495E00E9464387E
:103850000895CF92DF92EF92FF920F931F93DF9321
:10386000CF9300D000D0CDB7DEB76C010FE615E0E6
:10387000C8016EE772E00E94ED49C80160E040E0D7
:1038800020E00E94F143C8016FEF4FEF2FEF0E943D
:10389000D9437E010894E11CF11CC701B6010E94C6
:1038A000BD78C801B70144E150E027ED30E000E009
:1038B00010E00E94804DC7010E94D17826960FB675
:1038C000F894DEBF0FBECDBFCF91DF911F910F9156
:1038D000FF90EF90DF90CF9008950F931F93DF93A9
:1038E000CF93CDB7DEB72C970FB6F894DEBF0FBEDF
:1038F000CDBF8AE495E00E94C238882319F58091F3
:103900005F07882389F08E010F5F1F4FC80162E4B3
:1039100072E00E94FB77C8010E94291CC8010E9426
:10392000D1780E94181C0EC08E01095F1F4FC8017C
:103930006AE672E00E94FB77C8010E94291CC80158
:103940000E94D1782C960FB6F894DEBF0FBECDBF83
:10395000CF91DF911F910F910895CF92EF92FF9237
:103960000F931F930FE615E0C80166EF76E00E9403
:10397000ED49C80160E040E020E00E94F143C80149
:103980006FEF4FEF2FEF0E94D94340919604509173
:103990009704662757FD6095762FC8012AEA30E024
:1039A00004E110E0EE24FF24E0E2CE2E0E949A4CC7
:1039B0001F910F91FF90EF90CF900895CF92DF92DB
:1039C000EF92FF920F931F936B017C010FE615E0BE
:1039D000C8016EE772E00E94ED49C80160E040E076
:1039E00020E00E94F143C8016FEF4FEF2FEF0E94DC
:1039F000D943C801B701A60124E130E001EE10E08F
:103A0000EE24FF24F0E2CF2E0E949A4C1F910F91DA
:103A1000FF90EF90DF90CF9008954F925F926F925A
:103A20007F929F92AF92BF92CF92DF92EF92FF92DE
:103A30000F931F93DF93CF9300D000D0CDB7DEB7A5
:103A4000FC019B0128019C2C6A2C8091920490918E
:103A50009304892B09F077C0CA018E1B9F0B62E08B
:103A600070E00E94B37D8B016B01CE0EDF1E5B0107
:103A7000A20EB31E8FE695E06E2D492D262D0E94D5
:103A8000D9438FE695E0B601A50198010E94BC4498
:103A90008FE695E06FEF4FEF2FEF0E94D9438FE64F
:103AA00095E0B601A50198010E9427418FE695E0B7
:103AB0006EE772E00E94ED498FE695E00E94064AAB
:103AC000F201648075808FE695E00E94064A082F17
:103AD0008FE695E00E94094A982E8FE695E060E017
:103AE00040E02FEF0E94F1437E010894E11CF11C9D
:103AF000C701B2010E94BD7810E0069DB001079D8C
:103B0000700D169D700D11247695679580E090E0FC
:103B10000E94F57B20E030E040E05FE30E94F57A10
:103B20000E94C47BC61AD70A9694A918B1088FE6DA
:103B300095E0B701A601950100E010E00E94804DDC
:103B4000C7010E94D17826960FB6F894DEBF0FBE4B
:103B5000CDBFCF91DF911F910F91FF90EF90DF903C
:103B6000CF90BF90AF909F907F906F905F904F905D
:103B700008952F923F924F925F927F928F929F92E1
:103B8000AF92BF92CF92DF92EF92FF920F931F936B
:103B9000DF93CF93CDB7DEB7AC970FB6F894DEBF07
:103BA0000FBECDBF2B016A0119015801FCA6EBA67F
:103BB0008091920490919304892B09F095C08FE62F
:103BC00095E06EE772E00E94ED4935E0832E912C7E
:103BD0008C0C9D1C8FE695E00E94094AD82E8FE63A
:103BE00095E00E94094A782E8FE695E06FEF4FEF3F
:103BF0002FEF0E94D9438FE695E060E040E020E09F
:103C00000E94F1438E01095F1F4FC8016AE972E00B
:103C10000E941478C801B5010E94C477BC015E01FE
:103C20000894A11CB11CC5010E94BD78C8010E9466
:103C3000D7782DE0E22EF12CEC0EFD1EC701B50168
:103C40000E94BD78D6944D0C511C8FE695E0B701CB
:103C5000A401920100E010E00E94804DC7010E9483
:103C6000D1789FE1E92EF12CEC0EFD1EC70164EA2C
:103C700072E00E9414788E01075E1F4FC8016BA589
:103C80007CA54AE00E947678C701B8010E94C477FB
:103C9000BC0183E1C82ED12CCC0EDD1EC6010E94D2
:103CA000BD78C8010E94D178C7010E94D778B5E2DB
:103CB000EB2EF12CEC0EFD1EC701B6010E94BD7863
:103CC000271831088FE695E0B701A401910100E0C3
:103CD00010E00E94804DC7010E94D178C6010E9469
:103CE000D178C5010E94D178AC960FB6F894DEBFAA
:103CF0000FBECDBFCF91DF911F910F91FF90EF903D
:103D0000DF90CF90BF90AF909F908F907F905F900B
:103D10004F903F902F900895CF92DF92EF92FF92B5
:103D20000F931F93DF93CF93CDB7DEB762970FB694
:103D3000F894DEBF0FBECDBF0BED15E06E01089409
:103D4000C11CD11CC601B8010E946815C8010E949F
:103D5000A9147C0185E090E063E270E048E250E065
:103D600026E430E086010E94B91DC6010E94D17888
:103D700057E0C52ED12CCC0EDD1E0FE016E0C6019B
:103D8000B8010E946815C8010E94A9147C0185E051
:103D900090E065E570E048E250E028E730E0860119
:103DA0000E94B91DC6010E94D1784DE0C42ED12CCD
:103DB000CC0EDD1E03E416E0C601B8010E946815B2
:103DC000C8010E94A9147C0185E090E067E870E0DA
:103DD00048E250E02AEA30E086010E94B91DC6019F
:103DE0000E94D17862960FB6F894DEBF0FBECDBFA9
:103DF000CF91DF911F910F91FF90EF90DF90CF90C7
:103E000008952F923F924F925F927F928F929F924E
:103E1000AF92BF92CF92DF92EF92FF920F931F93D8
:103E2000DF93CF9300D000D0CDB7DEB79C016B01FC
:103E3000CA011801821B930B62E070E00E94B37DFF
:103E40008B014B01820E931EC60ED71EFFE6EF2E8E
:103E5000F5E0FF2EC70166EF76E00E94ED49C7014D
:103E600060E040E02FEF0E94D943C701B401A601F2
:103E700098010E94BC44C7016FEF4FEF2FEF0E94E3
:103E8000D943C701B401A60198010E942741C70187
:103E90006EE772E00E94ED49C7010E94064AF101F7
:103EA00044805580C7010E94064A082FC7010E941E
:103EB000094A782EC70160E040E02FEF0E94F143ED
:103EC0005E010894A11CB11CC501B1010E94BD781E
:103ED00010E0049DB001059D700D149D700D11241E
:103EE0007695679580E090E00E94F57B20E030E0D9
:103EF00040E05FE30E94F57A0E94C47B861A970A2D
:103F00007694C718D108C701B501A401960100E055
:103F100010E00E94804DC5010E94D178C70160E089
:103F200040E02FEF0E94F14326960FB6F894DEBFD3
:103F30000FBECDBFCF91DF911F910F91FF90EF90FA
:103F4000DF90CF90BF90AF909F908F907F905F90C9
:103F50004F903F902F9008952F923F924F925F92F3
:103F60006F927F928F929F92AF92BF92CF92DF9289
:103F7000EF92FF920F931F93DF93CF93CDB7DEB7EE
:103F8000A7970FB6F894DEBF0FBECDBF4C013B0123
:103F90002A011901DFA2CEA29FE6A92E95E0B92E33
:103FA000C5016EE772E00E94ED496E010894C11CE4
:103FB000D11CC601B8010E94BD78C401B301A201A1
:103FC000910186010E94011FC6010E94D17885E0FF
:103FD00090E0480E591EC5010E94094AD82EC5011D
:103FE0000E94094A8DA3C5016FEF4FEF2FEF0E948A
:103FF000D943C50160E040E020E00E94F1438E011A
:10400000035F1F4FC8016AE972E00E941478C8017B
:10401000B7010E94C477BC0187E0882E912C8C0EDA
:104020009D1EC4010E94BD78C8010E94D77813E18B
:10403000E12EF12CEC0EFD1EC701B4010E94BD78EB
:10404000D6946D0C711CC501B701A201930100E06B
:1040500010E00E94804DC7010E94D178B9E1CB2EBB
:10406000D12CCC0EDD1E8EA19FA18C559D4F9FA300
:104070008EA3C6016EA17FA10E94FB77AFE1EA2E5D
:10408000F12CEC0EFD1EC701B6010E94BD789DA16A
:10409000291A3108C501B701A20191010E94804D82
:1040A000C7010E94D178C6010E94D178C4010E9444
:1040B000D178A7960FB6F894DEBF0FBECDBFCF91D3
:1040C000DF911F910F91FF90EF90DF90CF90BF9005
:1040D000AF909F908F907F906F905F904F903F90A8
:1040E0002F9008952F923F924F925F926F927F92FE
:1040F0008F929F92AF92BF92CF92DF92EF92FF92F8
:104100000F931F93DF93CF93CDB7DEB76E970FB6A4
:10411000F894DEBF0FBECDBF3B014C012A0119014F
:104120005FE6C52E55E0D52EC6016EE772E00E940F
:10413000ED49C60160E040E020E00E94D943C6019D
:1041400060E070E040E050E020E431E00EE110E09B
:104150000E944F46C60160E040E020E00E94F1432B
:10416000C6016FEF4FEF2FEF0E94D9435E01089415
:10417000A11CB11CC501B401A30122E00E94467834
:104180008E01095F1F4FC801B5010E94C778C801A1
:1041900065EB72E00E94A877BC01C5010E94A67879
:1041A000C8010E94D7784DE0E42EF12CEC0EFD1EE4
:1041B000C701B5010E94BD78C601B70144E150E0D6
:1041C00027E030E000E010E00E94804DC7010E942F
:1041D000D17833E1E32EF12CEC0EFD1EC701B201C4
:1041E0000E94BD78C601B70148E750E027E030E003
:1041F0000E94804DC7010E94D17829E1E22EF12C66
:10420000EC0EFD1EC701B1010E94BD78C601B701C9
:104210004CED50E027E030E00E94804DC7010E9445
:10422000D178C5010E94D1786E960FB6F894DEBFA2
:104230000FBECDBFCF91DF911F910F91FF90EF90F7
:10424000DF90CF90BF90AF909F908F907F906F90B6
:104250005F904F903F902F900895AF92BF92CF9272
:10426000DF92EF92FF920F931F93CF93DF93EC01B6
:104270007B016A0159018FE695E060E040E02FEF95
:104280000E94D9438FE695E0BE01A7019601850102
:104290000E94414704C080EA95E00E94D46D80EA04
:1042A00095E00E94B76D8823B1F78FE695E06FEF38
:1042B0004FEF2FEF0E94D9438FE695E0BE01A70193
:1042C000960185010E944147DF91CF911F910F9187
:1042D000FF90EF90DF90CF90BF90AF9008956E5613
:1042E00070406333710560F580559040813A9105C7
:1042F00038F580E590E06EE670E040EF50E020EAAF
:1043000030E00E942D2180919204909193048F3689
:10431000910519F489E790E005C08037910539F4DB
:104320008AE790E0909395048093940408958137F0
:10433000910531F48BE790E0909395048093940479
:104340000895EF92FF920F931F93CF93DF93F82E70
:10435000E92E8B01CB01C297C39708F096C0CF2DF1
:10436000DE2DCE010A97C397C8F48AE090E062E39D
:1043700070E04CE350E024E630E00E942D2189E615
:1043800095E061E30E94717789E695E00E949F764F
:1043900070939704609396040E94AD1CCE018654DE
:1043A0009040C397C8F486E490E062E370E048E789
:1043B00050E024E630E00E942D2189E695E062E39A
:1043C0000E94717789E695E00E949F76709397042A
:1043D000609396040E94AD1CCE0182589040C39712
:1043E000C8F482E890E062E370E044EB50E024E639
:1043F00030E00E942D2189E695E063E30E94717709
:1044000089E695E00E949F767093970460939604E6
:104410000E94AD1CCE018E5B9040C397C8F48EEB1A
:1044200090E062E370E040EF50E024E630E00E946C
:104430002D2189E695E064E30E94717789E695E095
:104440000E949F7670939704609396040E94AD1C1F
:10445000CA5FD040E397C8F48AEF90E062E370E06F
:104460004CE251E024E630E00E942D2189E695E0FF
:1044700065E30E94717789E695E00E949F767093CC
:104480009704609396040E94AD1CC8018E5690401C
:10449000C39708F096C0CF2DDE2DCE010A97C397A3
:1044A000C8F48AE090E06EE670E04CE350E020EA69
:1044B00030E00E942D2189E695E066E30E94717745
:1044C00089E695E00E949F76709397046093960426
:1044D0000E94AD1CCE0186549040C397C8F486E478
:1044E00090E06EE670E048E750E020EA30E00E949D
:1044F0002D2189E695E067E30E94717789E695E0D2
:104500000E949F7670939704609396040E94AD1C5E
:10451000CE0182589040C397C8F482E890E06EE6DE
:1045200070E044EB50E020EA30E00E942D2189E663
:1045300095E068E30E94717789E695E00E949F7696
:1045400070939704609396040E94AD1CCE018E5B1D
:104550009040C397C8F48EEB90E06EE670E040EFB9
:1045600050E020EA30E00E942D2189E695E069E3E1
:104570000E94717789E695E00E949F767093970478
:10458000609396040E94AD1CCA5FD040E397C8F4C4
:104590008AEF90E06EE670E04CE251E020EA30E015
:1045A0000E942D2189E695E060E30E94717789E6FB
:1045B00095E00E949F7670939704609396040E9402
:1045C000AD1C0A5A10400333110508F040C0CF2D2E
:1045D000DE2DCE010A978D389105D0F48AE090E067
:1045E0006AEA70E046E950E02CED30E00E942D21AF
:1045F00089E695E068EB72E00E942D7889E695E007
:104600000E949F7670939704609396040E94AD1C5D
:10461000C05AD040CD38D105D0F480EA90E06AEAA3
:1046200070E04CE251E02CED30E00E942D2189E653
:1046300095E00E949F767093970460939604809112
:104640009004909191049093950480939404DF9149
:10465000CF911F910F91FF90EF900895EF92FF92ED
:104660000F931F93CF93DF93EC018B0168EDE62E40
:104670006FEFF62EE00EF11E83E3E816F104B0F5BD
:10468000CE010A97C39768F48AE090E068E270E090
:104690004CE350E02AE530E00E942D218FE690E0C7
:1046A00071C0CE0186549040C39768F486E490E0D0
:1046B00068E270E048E750E02AE530E00E942D21F2
:1046C00083E890E05FC0CE0182589040C39708F025
:1046D0005DC082E890E068E270E044EB50E02AE5DB
:1046E00030E00E942D218DE890E04CC0C801845636
:1046F0009040C39708F04AC0CE010A97C39768F468
:104700008AE090E064E670E04CE350E026E930E0B7
:104710000E942D2180E790E035C0CE018654904064
:10472000C39768F486E490E064E670E048E750E000
:1047300026E930E00E942D2184E890E023C0CE01DC
:1047400082589040C39768F482E890E064E670E095
:1047500044EB50E026E930E00E942D218EE890E005
:1047600011C0CE018E5B9040C39780F48EEB90E039
:1047700064E670E040EF50E026E930E00E942D2131
:1047800088E990E09093950480939404C450D140BC
:10479000E39740F58DE3E816F10488F484E091E0B6
:1047A00068E270E046E351E024E630E00E942D210B
:1047B00081E090E0909395048093940413C00C588A
:1047C00010400734110570F484E091E06CE870E06B
:1047D00046E351E022ED30E00E942D211092950435
:1047E00010929404DF91CF911F910F91FF90EF9061
:1047F0000895CF93DF93EC016852704063337105E5
:1048000008F03EC00A97C39780F48AE090E068E21F
:1048100070E04CE350E02AE530E00E942D218AE070
:1048200090E09093950480939404CE018654904038
:10483000C39780F486E490E068E270E048E750E0D7
:104840002AE530E00E942D2184E190E090939504C8
:1048500080939404CE0182589040C397A0F482E8DC
:1048600090E068E270E044EB50E02AE530E00E941E
:104870002D218EE190E0909395048093940403C0E1
:104880006D33710590F4C450D140E39770F484E027
:1048900091E068E270E046E351E024E630E00E94F7
:1048A0002D211092950410929404DF91CF910895D8
:1048B0006C53704063337105A8F4805F9040873477
:1048C000910580F480EF90E06CE370E046E351E006
:1048D0002EE630E00E942D2181E090E09093950437
:1048E0008093940408956F927F928F929F92AF92DB
:1048F000BF92CF92DF92EF92FF920F931F936C01C2
:104900005B014A0139017FE6E72E75E0F72EC7010A
:1049100060E040E02FEF0E94D943C701B601A50136
:10492000940183010E943045C7016FEF4FEF2FEFD5
:104930000E94D943C701B601A50194010E944147D5
:104940001F910F91FF90EF90DF90CF90BF90AF90AD
:104950009F908F907F906F9008952F923F924F92EB
:104960005F926F927F928F929F92AF92BF92CF92FF
:10497000DF92EF92FF920F931F93DF93CF9300D0BC
:1049800000D0CDB7DEB73C014B016A0159011801D7
:10499000EF2829F48FE695E066EF76E004C08FE615
:1049A00095E06EE772E00E94ED49C301B401A601F3
:1049B00095010E9473248FE695E06FEF4FEF2FEF84
:1049C0000E94D9438FE695E060E040E02FEF0E941F
:1049D000F143C601861997092FEF8F3F92078CF09C
:1049E00062E070E00E94B37D882777FD8095982F64
:1049F0000E94F77B20E030E040E05FE30E94F57A20
:104A000010C062E070E00E94B37D882777FD80953A
:104A1000982F0E94F77B20E030E040E05FE30E94A7
:104A2000F47A0E94C47B6B018FE695E00E94064AEF
:104A3000F101448055808FE695E00E94064A082FD8
:104A4000C50188199909FFEF8F3F9F078CF062E03D
:104A500070E00E94B37D882777FD8095982F0E9493
:104A6000F77B20E030E040E05FE30E94F57A10C081
:104A700062E070E00E94B37D882777FD8095982FD3
:104A80000E94F77B20E030E040E05FE30E94F47A90
:104A90000E94C47B4B018FE695E00E94094A182FC3
:104AA0007E010894E11CF11CC701B1010E94BD7890
:104AB000C60CD71C802F90E0849DB001859D700DA1
:104AC000949D700D11247695679580E090E00E948A
:104AD000F57B20E030E040E05FE30E94F57A0E9441
:104AE000C47BC61AD70AA818B9081695A11AB10826
:104AF0008FE695E0B701A601950100E010E00E9465
:104B0000804DC7010E94D17826960FB6F894DEBF7B
:104B10000FBECDBFCF91DF911F910F91FF90EF900E
:104B2000DF90CF90BF90AF909F908F907F906F90CD
:104B30005F904F903F902F9008958F929F92AF92E9
:104B4000BF92CF92DF92EF92FF920F931F93DF936A
:104B5000CF93CDB7DEB7E6970FB6F894DEBF0FBEA2
:104B6000CDBF7C018B018FE695E00E948742011545
:104B7000110509F052C08FE695E06EE772E00E94E1
:104B8000ED498E010F5F1F4FC8016AEB72E00E9472
:104B90001478C801B7010E94C477BC0145E2842E95
:104BA000912C8C0E9D1EC4010E94BD78C8010E94EC
:104BB000D77833E1A32EB12CAC0EBD1EC50160ED3C
:104BC00072E00E94FB778FE695E04FEF5FEF6FEFAB
:104BD0007FEF0E940A448FE695E06FEF4FEF2FEFD3
:104BE0000E94D94327E0E22EF12CEC0EFD1EC701F6
:104BF000B4010E94BD788FE695E0B70144E150E032
:104C000020E530E000E010E00E94804DC7010E94E6
:104C1000D1789DE0C92ED12C72C00130110509F068
:104C20008AC08E01075E1F4FC80166ED72E00E94C8
:104C30001478C801B7010E94C477BC0183E1882EB3
:104C4000912C8C0E9D1EC4010E94BD78C8010E944B
:104C5000D7788E01015E1F4FC801B4010E94C7784A
:104C6000C8016CED72E00E94A87760919604709183
:104C700097040E94977767EE72E00E94A877BC01C4
:104C8000C4010E94A678C8010E94D778B5E2AB2E75
:104C9000B12CAC0EBD1EC5016EEE72E00E94FB771A
:104CA0008FE695E06EE772E00E94ED498FE695E0B1
:104CB0004FEF5FEF6FEF7FEF0E940A448FE695E0C2
:104CC0006FEF4FEF2FEF0E94D943ABE2EA2EF12CAA
:104CD000EC0EFD1EC701B4010E94BD788FE695E081
:104CE000B70144E150E020E530E000E010E00E9430
:104CF000804DC7010E94D178F1E3CF2ED12CCC0E8C
:104D0000DD1EC601B5010E94BD7880E590E06EE62B
:104D100070E040EF50E020EA30E08601EE24FF240E
:104D20000E94AD24C6010E94D178C5010E94D178AD
:104D3000C4010E94D178E6960FB6F894DEBF0FBE8C
:104D4000CDBFCF91DF911F910F91FF90EF90DF903A
:104D5000CF90BF90AF909F908F900895EF92FF9269
:104D60000F931F93DF93CF93CDB7DEB762970FB644
:104D7000F894DEBF0FBECDBF0E94A12180919204A6
:104D800090919304E0909404F09095048E159F0503
:104D900009F466C02FE6E216F104D9F49093910469
:104DA000809390048E010F5F1F4FC8016BED75E07B
:104DB0000E943518C80161E070E00E949D25C8017D
:104DC0000E94D17860919604709197048BED95E0E4
:104DD0003DC020E7E216F104D9F49093910480934A
:104DE00090048E01095F1F4FC8016FE076E00E94BA
:104DF0003518C80161E070E00E949D25C8010E943D
:104E0000D17860919604709197048FE096E01EC06F
:104E100021E7E216F10401F5909391048093900448
:104E20008E01035F1F4FC80163E476E00E943518CE
:104E3000C80161E070E00E949D25C8010E94D17800
:104E4000609196047091970483E496E00E9418158F
:104E5000F0929304E09292041092970410929604B8
:104E600062960FB6F894DEBF0FBECDBFCF91DF9133
:104E70001F910F91FF90EF900895AF92BF92CF9244
:104E8000DF92EF92FF920F931F93DF93CF93CDB7F3
:104E9000DEB7CE54D0400FB6F894DEBF0FBECDBF04
:104EA0008C013FE6A32E35E0B32EC5010E94874258
:104EB000C5016EE772E00E94ED49C50160E040E087
:104EC00020E00E94F143C5016FEF4FEF2FEF0E94EA
:104ED000D9437E010894E11CF11CC701B8010E946E
:104EE000BD78C501B7014AE050E029E130E000E0BB
:104EF00010E00E94804DC7010E94D17827E0C22EA9
:104F0000D12CCC0EDD1EC60166EF72E00E94FB774D
:104F10008AE090E062E370E04CE350E024E630E0A9
:104F20008601EE24FF240E94AD24C6010E94D178A0
:104F30009DE0C92ED12CCC0EDD1EC60168EF72E0BB
:104F40000E94FB7786E490E062E370E048E750E07F
:104F500024E630E086010E94AD24C6010E94D1788B
:104F600083E1C82ED12CCC0EDD1EC6016AEF72E0A3
:104F70000E94FB7782E890E062E370E044EB50E04F
:104F800024E630E086010E94AD24C6010E94D1785B
:104F900009E1C02ED12CCC0EDD1EC6016CEF72E0F3
:104FA0000E94FB778EEB90E062E370E040EF50E010
:104FB00024E630E086010E94AD24C6010E94D1782B
:104FC0001FE1C12ED12CCC0EDD1EC6016EEF72E0AA
:104FD0000E94FB778AEF90E062E370E04CE251E0E0
:104FE00024E630E086010E94AD24C6010E94D178FB
:104FF000B5E2CB2ED12CCC0EDD1EC60160E073E0F5
:105000000E94FB778AE090E06EE670E04CE350E0AF
:1050100020EA30E086010E94AD24C6010E94D178CA
:10502000ABE2CA2ED12CCC0EDD1EC60162E073E0CD
:105030000E94FB7786E490E06EE670E048E750E07F
:1050400020EA30E086010E94AD24C6010E94D1789A
:10505000F1E3CF2ED12CCC0EDD1EC60164E073E04F
:105060000E94FB7782E890E06EE670E044EB50E04F
:1050700020EA30E086010E94AD24C6010E94D1786A
:10508000E7E3CE2ED12CCC0EDD1EC60166E073E028
:105090000E94FB778EEB90E06EE670E040EF50E010
:1050A00020EA30E086010E94AD24C6010E94D1783A
:1050B0007DE3C72ED12CCC0EDD1EC60165E172E06A
:1050C0000E94FB778AEF90E06EE670E04CE251E0E0
:1050D00020EA30E086010E94AD24C6010E94D1780A
:1050E00063E4C62ED12CCC0EDD1EC60168E073E051
:1050F0000E94FB778AE090E06AEA70E046E950E0BF
:105100002CED30E086010E94AD24C6010E94D178CA
:1051100059E4C52ED12CCC0EDD1EC6016EE073E025
:105120000E94FB7780EA90E06AEA70E04CE251E08E
:105130002CED30E086010E94AD24C6010E94D1789A
:10514000C50160E040E020E00E94F1430E94C87485
:105150000E94DE1CC25BDF4F0FB6F894DEBF0FBEAD
:10516000CDBFCF91DF911F910F91FF90EF90DF9016
:10517000CF90BF90AF9008958F929F92AF92BF92C1
:10518000CF92DF92EF92FF920F931F93DF93CF9313
:10519000CDB7DEB7C254D0400FB6F894DEBF0FBE15
:1051A000CDBF5B016C018A0149018FE695E00E9449
:1051B00087428AE090E090939304809392047E016A
:1051C0000894E11CF11CC701B8010E94BD788E0152
:1051D000095F1F4FC801B4010E94BD78C601B50127
:1051E000A70198010E947220C8010E94D178C701CE
:1051F0000E94D178FDE0CF2ED12CCC0EDD1EC60151
:1052000062E173E00E94FB778AE090E068E270E080
:105210004CE350E02AE530E08601E1E0EE2EF12C8F
:105220000E94AD24C6010E94D178B3E1CB2ED12CCF
:10523000CC0EDD1EC60168E173E00E94FB7786E4B8
:1052400090E068E270E048E750E02AE530E086014F
:105250000E94AD24C6010E94D178A9E1CA2ED12CAA
:10526000CC0EDD1EC6016FE173E00E94FB7782E881
:1052700090E068E270E044EB50E02AE530E086011F
:105280000E94AD24C6010E94D178FFE1CF2ED12C1F
:10529000CC0EDD1EC60166E273E00E94FB778AE059
:1052A00090E064E670E04CE350E026E930E08601EF
:1052B0000E94AD24C6010E94D178E5E2CE2ED12C09
:1052C000CC0EDD1EC6016CE273E00E94FB7786E423
:1052D00090E064E670E048E750E026E930E08601BF
:1052E0000E94AD24C6010E94D1787BE2C72ED12C4A
:1052F000CC0EDD1EC60163E373E00E94FB7782E8FB
:1053000090E064E670E044EB50E026E930E086018E
:105310000E94AD24C6010E94D17861E3C62ED12C33
:10532000CC0EDD1EC6016AE373E00E94FB778EEBB4
:1053300090E064E670E040EF50E026E930E086015E
:105340000E94AD24C6010E94D17857E3C52ED12C0E
:10535000CC0EDD1EC60162E473E00E94FB7784E0A0
:1053600091E068E270E046E351E024E630E0860137
:105370000E94AD24C6010E94D1784DE3C42ED12CE9
:10538000CC0EDD1EC60167E473E00E94FB7784E06B
:1053900091E06CE870E046E351E022ED30E08601F8
:1053A0000E94AD24C6010E94D1780E94C8740E9458
:1053B000DE1CCE5BDF4F0FB6F894DEBF0FBECDBF55
:1053C000CF91DF911F910F91FF90EF90DF90CF90E1
:1053D000BF90AF909F908F900895EF92FF920F93A0
:1053E0001F93DF93CF93CDB7DEB76E970FB6F894C8
:1053F000DEBF0FBECDBF0E946F21809192049091BD
:105400009304E0909404F09095048E159F0509F4A0
:1054100075C029E7E216F104A9F4909391048093F2
:1054200090048E010F5F1F4FC80165E873E00E9472
:10543000FB77C8010E943D27C8010E94D1788BEDFF
:1054400095E018C02AE7E216F104D9F4909391048C
:10545000809390048E01095F1F4FC8016BE973E0D0
:105460000E94FB77C8010E943D27C8010E94D178A5
:105470008FE096E00E940D18F0929304E09292045F
:105480003DC02BE7E216F104A9F4909391048093B8
:1054900090048E01035F1F4FC80162EB73E00E940E
:1054A000FB77C8010E943D27C8010E94D17883E4A0
:1054B00096E0E0CF2AE0E216F10401F59093910422
:1054C00080939004B3E1EB2EF12CEC0EFD1EC7018E
:1054D0000E94451B8E01075E1F4FC8010E945C1A87
:1054E00060E070E080E090E0A70198010E94BC2895
:1054F000C8010E94D178C7010E94D1786E960FB67C
:10550000F894DEBF0FBECDBFCF91DF911F910F91F9
:10551000FF90EF9008958F929F92AF92BF92CF929B
:10552000DF92EF92FF920F931F93DF93CF93CDB74C
:10553000DEB7A4970FB6F894DEBF0FBECDBF5B01F8
:105540006C018A0149018FE695E00E94874281E063
:1055500090E090939304809392047E010894E11C60
:10556000F11CC701B8010E94BD788E01095F1F4F71
:10557000C801B4010E94BD78C601B501A701980118
:105580000E947220C8010E94D178C7010E94D17880
:10559000FDE0CF2ED12CCC0EDD1EC60169EC73E0F0
:1055A0000E94FB778AE090E068E270E04CE350E014
:1055B0002AE530E08601E1E0EE2EF12C0E94AD24D8
:1055C000C6010E94D17883E1C82ED12CCC0EDD1EFD
:1055D000C6016FEC73E00E94FB7786E490E068E21E
:1055E00070E048E750E02AE530E086010E94AD24F3
:1055F000C6010E94D17809E1C02ED12CCC0EDD1E4F
:10560000C60164ED73E00E94FB7782E890E068E2F7
:1056100070E044EB50E02AE530E086010E94AD24C2
:10562000C6010E94D1781FE1C12ED12CCC0EDD1E07
:10563000C60167E473E00E94FB7784E091E068E2D2
:1056400070E046E351E024E630E086010E94AD249C
:10565000C6010E94D1780E94C8740E94DE1CA496E4
:105660000FB6F894DEBF0FBECDBFCF91DF911F9173
:105670000F91FF90EF90DF90CF90BF90AF909F90F1
:105680008F9008958F929F92AF92BF92CF92DF92A8
:10569000EF92FF920F931F93DF93CF93CDB7DEB7B7
:1056A0002C970FB6F894DEBF0FBECDBF0E945824D2
:1056B000809192049091930480909404909095042A
:1056C0008815990559F121E08216910439F59093D6
:1056D00091048093900489E595E00E948A325B01F1
:1056E0006C017E010894E11CF11CC7010E94451B5E
:1056F0008E01095F1F4FC8010E945C1AC601B501E7
:10570000A70198010E948B2AC8010E94D178C70185
:105710000E94D17890929304809292042C960FB6B6
:10572000F894DEBF0FBECDBFCF91DF911F910F91D7
:10573000FF90EF90DF90CF90BF90AF909F908F90B1
:1057400008958F929F92AF92BF92CF92DF92EF9285
:10575000FF920F931F93DF93CF93CDB7DEB7E697FA
:105760000FB6F894DEBF0FBECDBF5B016C018A019E
:1057700049018FE695E00E948742109293041092AF
:1057800092047E010894E11CF11CC701B8010E943B
:10579000BD788E01095F1F4FC801B4010E94BD781A
:1057A000C601B501A70198010E947220C8010E949C
:1057B000D178C7010E94D1783DE0832E912C8C0EC8
:1057C0009D1E0BED15E0C401B8010E94351823E1C0
:1057D000A22EB12CAC0EBD1EC501B8010E946815E9
:1057E000C8010E94A9146C0185E090E063E270E0BA
:1057F00048E250E026E430E0840175010E94AC1FCD
:10580000C5010E94D178C4010E94D17899E1892E06
:10581000912C8C0E9D1E0FE016E0C401B8010E9471
:1058200035188FE1A82EB12CAC0EBD1EC501B801F4
:105830000E946815C8010E94A9146C0185E090E0DF
:1058400065E570E048E250E028E730E0840175014A
:105850000E94AC1FC5010E94D178C4010E94D1787A
:1058600015E2812E912C8C0E9D1E03E416E0C401DE
:10587000B8010E943518BBE2AB2EB12CAC0EBD1E98
:10588000C501B8010E946815C8010E94A9146C01E5
:1058900085E090E067E870E048E250E02AEA30E016
:1058A000840175010E94AC1FC5010E94D178C4011A
:1058B0000E94D178A1E3CA2ED12CCC0EDD1EC601E8
:1058C00069ED73E00E94FB7780EF90E06CE370E09D
:1058D00046E351E02EE630E08601EE24FF240E94EC
:1058E000AD24C6010E94D1780E94C8740E94DE1CBB
:1058F000E6960FB6F894DEBF0FBECDBFCF91DF9115
:105900001F910F91FF90EF90DF90CF90BF90AF90DD
:105910009F908F9008958F929F92AF92BF92CF9257
:10592000DF92EF92FF920F931F93DF93CF93CDB748
:10593000DEB7EC970FB6F894DEBF0FBECDBF0E9466
:105940002E238091920490919304809094049090DF
:1059500095048815990509F416C12FE6821691045D
:1059600059F490939104809390048E010F5F1F4F20
:10597000C8016BED75E00EC020E782169104C9F4F2
:1059800090939104809390048E01095F1F4FC8018A
:105990006FE076E00E943518C80160E070E00E9478
:1059A0009D25C8010E94D178909293048092920420
:1059B000EAC021E78216910459F4909391048093F0
:1059C00090048E01035F1F4FC80163E476E0E2CFCD
:1059D00023E88216910459F49093910480939004E3
:1059E00090929304809292048BED95E01DC024E880
:1059F0008216910459F490939104809390049092AC
:105A00009304809292048FE096E00EC025E88216FF
:105A10009104D9F49093910480939004909293040C
:105A20008092920483E496E00E94E51780919204AC
:105A30009091930490939104809390048AE090E075
:105A400090939504809394043BC02DE882169104B2
:105A500059F490939104809390048E010D5E1F4F32
:105A6000C8016EED73E00EC02EE88216910481F439
:105A700090939104809390048E01075E1F4FC8019C
:105A800067EF73E00E94FB77C8010E943D2789CF32
:105A90002FE882169104C9F49093910480939004A6
:105AA0008E01015E1F4FC80160E174E00E94FB7728
:105AB000C8010E943D27C8010E94D1788FE890E07C
:105AC00090939304809392045EC028E98216910417
:105AD00021F029E98216910429F49093910480938E
