:100000000C946F0E0C949C0E0C949C0E0C949C0EF5
:100010000C949C0E0C949C0E0C949C0E0C949C0EB8
:100020000C949C0E0C949C0E0C949C0E0C949C0EA8
:100030000C949C0E0C949C0E0C949C0E0C949C0E98
:100040000C949C0E0C949C0E0C949C0E0C949C0E88
:100050000C949C0E0C949C0E0C949C0E0C94DC73D3
:100060000C949C0E0C949C0E0C949C0E0C949C0E68
:100070000C949C0E0C949C0E0C949C0E0C949C0E58
:100080000C949C0E0C949C0E0C949C0E0C949C0E48
:100090000C949C0E0C949C0E0C949C0E0C94FC35B1
:1000A0000C949C0E0C949C0E0C949C0E0C949C0E28
:1000B0000C949C0E0C949C0E0C949C0E0C949C0E18
:1000C0000C949C0E0C949C0E0C949C0E0C949C0E08
:1000D0000C949C0E0C949C0E0C949C0E0C949C0EF8
:1000E0000C949C0EEF3E153F463FDA3FDA3FDA3F75
:1000F000603F2F40EF3E2F408A3F2F409D3F9D3F66
:10010000C43FC43F463FDA3FDA3F463F9D3F2F4062
:10011000DA3FF73F2F402F402F402F402F4018400D
:100120002F40964D324F4F504351805280525B5476
:10013000C255D15ACF5629589658635C6C5D1D5FE5
:100140001D5F4F50206020604F503F5E7B61155314
:1001500044620F6315653C64CE65156775688A68EF
:1001600005A84CCDB2D44EB93836A9020C50B9917D
:100170008688083CA6AAAA2ABE000000803F005E2E
:10018000BCE2613FDD83C29C7E20A3FD1F419DC375
:10019000217FFCA2401E5F01E3BD3E6082DC237D27
:1001A0009FC1421CFEA0E1BF5D0380DE3C62BEE059
:1001B000025CDF81633D7C22C09E1D43A1FF461887
:1001C000FAA427799BC584DA3866E5BB5907DB8535
:1001D0006739BAE406581947A5FB7826C49A653BE7
:1001E000D987045AB8E6A7F91B45C6987A24F8A619
:1001F000441A99C7257B3A6486D85B05E7B98CD247
:10020000306EEDB3510F4E10F2AC2F7193CD114FF4
:10021000ADF3702ECC92D38D6F31B2EC0E50AFF1A6
:10022000134DCE90722C6D33D18F0C52B0EE326CD8
:100230008ED0530DEFB1F0AE4C1291CF2D73CA9406
:100240007628ABF517490856B4EA6937D58B5709B4
:10025000EBB536688AD495CB2977F4AA4816E9B766
:10026000550B88D6346A2B7597C94A14F6A8742A98
:10027000C896154BA9F7B6E80A54D7896B35080C10
:10028000205F0000000000000000000000000000EF
:1002900020202020202000200000002850500000B6
:1002A00000000000000000002828FC2850FC5050EE
:1002B0000000002078A8A0603028A8F020000000EE
:1002C00048A8B0502834544800000000205050780E
:1002D000A8A8906C000000404080000000000000D2
:1002E0000000000408101010101010080400004056
:1002F0002010101010101020400000000020A870E6
:1003000070A8200000000000202020F820202000FD
:1003100000000000000000000000004040800000DD
:10032000000000F8000000000000000000000000D5
:100330000000004000000008101010202040404045
:10034000800000007088888888888870000000001D
:10035000206020202020207000000000708888107D
:10036000204080F80000000070880830080888707D
:10037000000000001030505090781018000000006D
:10038000F88080F00808887000000000709080F00D
:100390008888887000000000F8901020202020201D
:1003A0000000000070888870888888700000000055
:1003B00070888888780848700000000000002000DD
:1003C00000000020000000000000002000000020CD
:1003D0002000000408102040201008040000000045
:1003E0000000F80000F800000000004020100804A1
:1003F0000810204000000000708888102020002095
:1004000000000000708898A8A8B88078000000005C
:1004100020203050507848CC00000000F048487050
:10042000484848F00000000078888080808088700C
:1004300000000000F0484848484848F0000000002C
:10044000F8485070504048F800000000F8485070DC
:10045000504040E000000000384880809C884830D0
:1004600000000000CC484878484848CC0000000014
:10047000F8202020202020F8000000007C10101020
:1004800010101090E0000000EC485060505048EC14
:1004900000000000E0404040404044FC00000000FC
:1004A000D8D8D8D8A8A8A8A800000000DC48686858
:1004B000585848E80000000070888888888888704C
:1004C00000000000F0484870404040E0000000009C
:1004D0007088888888E8987018000000F048487094
:1004E000504848EC0000000078888060100888F0D0
:1004F00000000000F8A8202020202070000000004C
:10050000CC4848484848483000000000CC48485093
:100510005030202000000000A8A8A8705050505073
:1005200000000000D8505020205050D8000000009B
:10053000D85050202020207000000000F89010209B
:10054000204048F8000000382020202020202020D3
:1005500038000040404020201010100800000070BB
:10056000101010101010101070000020500000002B
:10057000000000000000000000000000000000007B
:1005800000FC00200000000000000000000000004F
:10059000000000304838483C00000000C040407077
:1005A00048484870000000000000003848404038CB
:1005B00000000000180808384848483C00000000C7
:1005C0000000003048784038000000001C202078EF
:1005D00020202078000000000000003C48304078D7
:1005E00044380000C0404070484848EC000000001B
:1005F000200000602020207000000000100000306B
:100600001010101010E00000C040405C507048EC2A
:1006100000000000E0202020202020F80000000042
:10062000000000F0A8A8A8A800000000000000F04A
:10063000484848EC000000000000003048484830BE
:1006400000000000000000F04848487040E0000052
:100650000000003848484838081C0000000000D856
:10066000604040E000000000000000784030087862
:100670000000000000202070202020180000000052
:10068000000000D84848483C00000000000000EC92
:100690004850302000000000000000A8A870505012
:1006A00000000000000000D8502050D800000000DA
:1006B000000000EC4850302020C00000000000780E
:1006C00010202078000000181010102010101010BA
:1006D00018001010101010101010101010100060E2
:1006E0002020201020202020600040A418000000BE
:1006F0000000000000001010205F0000000000005B
:1007000000000000000000000000000000000000E9
:1007100000000000000000000000000000000700D2
:100720000F800F800F800F800F80070007000000F0
:100730000000070007000700000000000E380E3818
:100740000E380E38063000000000000000000000E7
:100750000000000000000000000000000C300C3021
:100760000C307FFE7FFE0C300C300C300C307FFEE6
:100770007FFE0C300C300C300000000002400240C4
:100780000FF81FF81A401A401FF00FF802580258CD
:100790001FF81FF0024002400000000000000000AF
:1007A0000E100E300E7000E001C0038007000E70C6
:1007B0000C700870000000000000000000000F0036
:1007C0001980198019800F000F080F9819F818F078
:1007D00018E019F00F98000000000000000007006A
:1007E000070007000E0000000000000000000000ED
:1007F000000000000000000000000000000000F009
:1008000001C0038007000E000E000E000E0007005E
:10081000038001C000F000000000000000000F0095
:10082000038001C000E0007000700070007000E004
:1008300001C003800F0000000000000000000180E4
:100840001188099007E007E03FFC3FFC07E007E064
:1008500009901188018000000000000000000000E5
:1008600000000180018001800FF00FF00180018005
:1008700001800000000000000000000000000000F7
:100880000000000000000000000000000000000068
:100890000700070007000E00000000000000000035
:1008A00000000000000000001FF81FF8000000001A
:1008B0000000000000000000000000000000000038
:1008C0000000000000000000000000000000000028
:1008D0000700070007000000000000000000000201
:1008E0000006000E001C0038007000E001C003800C
:1008F00007000E001C0000000000000000000FF0C8
:100900001C381C781CF81CF81DB81DB81F381F387F
:100910001E381C380FF000000000000000000180AD
:10092000018003801F801F80038003800380038079
:10093000038003801FF000000000000000000FE0B3
:100940001C701C380038007000E001C003800700F4
:100950000E381C381FF800000000000000000FE0F7
:100960001C701C380038007003C003C000700038D1
:100970001C381C700FE0000000000000000000E0C8
:1009800001E003E006E00CE018E01FF81FF800E0CB
:1009900000E000E003F800000000000000001FF885
:1009A0001C001C001C001C001FE01FF00078003819
:1009B0001C381C700FE0000000000000000003E085
:1009C00007000E001C001C001FF01FF81C381C380C
:1009D0001C381C380FF000000000000000001FFC55
:1009E0001C1C1C1C1C1C001C0038007000E001C0FA
:1009F00003800380038000000000000000000FF06F
:100A00001C381C381C381F3807E007E01CF81C385D
:100A10001C381C380FF000000000000000000FF030
:100A20001C381C381C381C381FF80FF800380038E8
:100A3000007000E007C0000000000000000000009F
:100A40000000038003800380000000000380038017
:100A50000380000000000000000000000000000013
:100A600000000380038003800000000003800380F7
:100A7000038007000000000000000000007000E09C
:100A800001C0038007000E001C001C000E000700C0
:100A9000038001C000E000700000000000000000C2
:100AA000000000003FFC3FFC000000003FFC3FFC5A
:100AB0000000000000000000000000001C000E000C
:100AC0000700038001C000E00070007000E001C07A
:100AD000038007000E001C000000000003C00FF0A0
:100AE0001E7818380038007000E001C001C0000016
:100AF000000001C001C001C0000000000FF81C1C74
:100B00001C1C1C1C1C1C1CFC1CFC1CFC1CFC1C00C1
:100B10001C001C001FF007F800000000000003C0CC
:100B200007E00E701C381C381C381C381FF81C38A5
:100B30001C381C381C3800000000000000001FF0AA
:100B40000E380E380E380E380FF00FF00E380E3803
:100B50000E380E381FF0000000000000000007F003
:100B60000E381C381C001C001C001C001C001C0043
:100B70001C380E3807F000000000000000001FE0E5
:100B80000E700E380E380E380E380E380E380E38FD
:100B90000E380E701FE000000000000000001FF87B
:100BA0000E180E080E000E300FF00FF00E300E0073
:100BB0000E080E181FF800000000000000001FF8CB
:100BC0000E180E080E000E300FF00FF00E300E0053
:100BD0000E000E001F00000000000000000007F0E3
:100BE0000E381C381C381C001C001C001CF81C385B
:100BF0001C380E3807F800000000000000001C70D0
:100C00001C701C701C701C701FF01FF01C701C707E
:100C10001C701C701C7000000000000000000FE041
:100C200003800380038003800380038003800380AC
:100C3000038003800FE0000000000000000001FCC2
:100C400000700070007000700070007038703870B4
:100C5000387038700FE000000000000000001E38FF
:100C60000E380E700EE00FC00F800F800FC00EE028
:100C70000E700E381E3800000000000000001F003B
:100C80000E000E000E000E000E000E000E000E08EC
:100C90000E180E381FF800000000000000001C1C99
:100CA0001E3C1F7C1FFC1FFC1DDC1C9C1C1C1C1CF8
:100CB0001C1C1C1C1C1C00000000000000001C1C54
:100CC0001C1C1E1C1F1C1F9C1DDC1CFC1C7C1C3CBB
:100CD0001C1C1C1C1C1C000000000000000003E089
:100CE00007F00E381C1C1C1C1C1C1C1C1C1C1C1C77
:100CF0000E3807F003E000000000000000001FF0C5
:100D00000E380E380E380E380FF00FF00E000E00B1
:100D10000E000E001F00000000000000000003E0B5
:100D20000F780E381C1C1C1C1C1C1C1C1C7C1CFC66
:100D30000FF80FF8003800FC0000000000001FF062
:100D40000E380E380E380E380FF00FF00E700E38C9
:100D50000E380E381E3800000000000000000FF0B2
:100D60001C381C381C381C000FE007F000381C38F9
:100D70001C381C380FF000000000000000001FFCB1
:100D800019CC11C401C001C001C001C001C001C023
:100D900001C001C007F000000000000000001C704E
:100DA0001C701C701C701C701C701C701C701C70E3
:100DB0001C701C700FE000000000000000001C70A0
:100DC0001C701C701C701C701C701C701C701C70C3
:100DD0000EE007C0038000000000000000001C1CA3
:100DE0001C1C1C1C1C1C1C1C1C9C1C9C1C9C0FF8F4
:100DF0000FF80770077000000000000000001C7072
:100E00001C701C700EE007C00380038007C00EE05A
:100E10001C701C701C7000000000000000001C70A2
:100E20001C701C701C701C700EE007C003800380D7
:100E3000038003800FE000000000000000001FF8A6
:100E40001C381838107000E001C0038007000E083D
:100E50001C181C381FF8000000000000000007F0FC
:100E6000070007000700070007000700070007004A
:100E70000700070007F0000000000000000010005D
:100E800018001C000E000700038001C000E0007085
:100E90000038001C0007000000000000000007F000
:100EA00000700070007000700070007000700070C2
:100EB0000070007007F0000000000000018003C017
:100EC00007E00E701C380000000000000000000069
:100ED0000000000000000000000000000000000012
:100EE0000000000000000000000000000000000002
:100EF0000000000000007FFF7FFF000000001C00DA
:100F00001C000700070000000000000000000000B7
:100F100000000000000000000000000000000000D1
:100F20000000000000000FE0007000700FF01C7067
:100F30001C701C700FD800000000000000001E0094
:100F40000E000E000E000FF00E380E380E380E3860
:100F50000E380E381BF000000000000000000000FA
:100F60000000000000000FE01C701C701C001C0042
:100F70001C701C700FE0000000000000000000F872
:100F80000070007000700FF01C701C701C701C70E2
:100F90001C701C700FD80000000000000000000052
:100FA0000000000000000FE01C701C701FF01C000F
:100FB0001C701C700FE0000000000000000003E047
:100FC00007700770070007001FE01FE00700070019
:100FD000070007001FC00000000000000000000024
:100FE0000000000000000FD81C701C701C701C70EA
:100FF0000FF007F000701C700FE0000000001E00F2
:101000000E000E000E000EF00F380F380E380E389E
:101010000E380E381E38000000000000000001C02D
:1010200001C001C000000FC001C001C001C001C06B
:1010300001C001C00FF800000000000000000070B7
:1010400000700070000003F000700070007000700D
:10105000007000701C700CF007E0000000001E0023
:101060000E000E000E000E380E700EE00FC00EE0E7
:101070000E700E381E3800000000000000000FC087
:1010800001C001C001C001C001C001C001C001C058
:1010900001C001C00FF800000000000000000000C7
:1010A0000000000000001FF81C9C1C9C1C9C1C9C49
:1010B0001C9C1C9C1C9C0000000000000000000008
:1010C0000000000000001FE01C701C701C701C70F1
:1010D0001C701C701C70000000000000000000006C
:1010E0000000000000000FE01C701C701C701C70E1
:1010F0001C701C700FE000000000000000000000E9
:101100000000000000001BF00E380E380E380E38BC
:101110000E380FF00E000E001F000000000000004F
:101120000000000000001FB038E038E038E038E090
:1011300038E01FE000E000E001F0000000000000E7
:101140000000000000001EF00FF80F380E000E0027
:101150000E000E001F000000000000000000000054
:101160000000000000000FE01C301C300F8003E086
:10117000187018700FE00000000000000000000070
:101180000100030007001FF0070007000700070029
:101190000770077003E0000000000000000000007E
:1011A0000000000000001C701C701C701C701C7083
:1011B0001C701C700FD80000000000000000000030
:1011C0000000000000001C701C701C701C701C7063
:1011D0000EE007C0038000000000000000000000D7
:1011E0000000000000001C1C1C1C1C1C1C9C1C9CE7
:1011F0000FF80770077000000000000000000000FA
:101200000000000000001CE01CE00FC00780078009
:101210000FC01CE01CE00000000000000000000007
:101220000000000000000E380E380E380E380E3860
:1012300007F003E000E001C01F8000000000000094
:101240000000000000001FE018E011C0038007004C
:101250000E201C601FE0000000000000000001F8EC
:1012600003800380038007001C001C00070003802C
:101270000380038001F800000000000001C001C0ED
:1012800001C001C001C001C001C001C001C001C056
:1012900001C001C001C001C00000000000001F80AB
:1012A00001C001C001C000E00038003800E001C00A
:1012B00001C001C01F8000000000000000001F1CD2
:1012C0003B9C39DC38F80000000000000000000002
:1012D000000000000000000000002032300A000082
:1012E00000000000000000FFFE0001FFFF0003FF00
:1012F000FF8001FFFF600CFFFEF01E0001F83F00C1
:1013000001F83F0001F83F0001F83F0001F83F00FD
:1013100001F83F0001F83F0001F83F0001F83F00ED
:1013200001F83F0001F83F0001F83F0001F83F00DD
:1013300001F83E0000783800001820000008000086
:10134000000020000000380000183E0000783F0038
:1013500001F83F0001F83F0001F83F0001F83F00AD
:1013600001F83F0001F83F0001F83F0001F83F009D
:1013700001F83F0001F83F0001F83F0001F83F008D
:1013800001F83F0001F81E0000F00CFFFE6001FFB5
:10139000FF0003FFFF8001FFFF0000FFFE000000D1
:1013A000000000000000000000000000000000003D
:1013B00000000000000000000000000000600000CD
:1013C00000F0000001F8000001F8000001F8000042
:1013D00001F8000001F8000001F8000001F8000029
:1013E00001F8000001F8000001F8000001F8000019
:1013F00001F8000001F8000001F80000007800008A
:1014000000180000000800000000000000000000BC
:10141000001800000078000001F8000001F800004A
:1014200001F8000001F8000001F8000001F80000D8
:1014300001F8000001F8000001F8000001F80000C8
:1014400001F8000001F8000001F8000001F80000B8
:1014500000F000000060000000000000000000003C
:10146000000000000000000000000000000000007C
:1014700000000000000000FFFE0001FFFF0003FF6E
:10148000FF8001FFFF6000FFFEF0000001F8000098
:1014900001F8000001F8000001F8000001F8000068
:1014A00001F8000001F8000001F8000001F8000058
:1014B00001F8000001F8000001F8000001F8000048
:1014C00001F80000007801FFFE1803FFFF880FFFFE
:1014D000FFE027FFFFC039FFFF003E0000003F0094
:1014E00000003F0000003F0000003F0000003F0000
:1014F00000003F0000003F0000003F0000003F00F0
:1015000000003F0000003F0000003F0000003F00DF
:1015100000003F0000001E0000000CFFFE0001FF65
:10152000FF0003FFFF8001FFFF0000FFFE0000003F
:10153000000000000000000000000000000000FFAC
:10154000FE0001FFFF0003FFFF8001FFFF6000FFBF
:10155000FEF0000001F8000001F8000001F80000B2
:1015600001F8000001F8000001F8000001F8000097
:1015700001F8000001F8000001F8000001F8000087
:1015800001F8000001F8000001F80000007801FFF8
:10159000FE1803FFFF880FFFFFE007FFFFC001FFFA
:1015A000FF1800000078000001F8000001F80000BA
:1015B00001F8000001F8000001F8000001F8000047
:1015C00001F8000001F8000001F8000001F8000037
:1015D00001F8000001F8000001F8000001F8000027
:1015E00000F000FFFE6001FFFF0003FFFF8001FF2E
:1015F000FF0000FFFE0000000000000000000000EF
:1016000000000000000000000000000000000000DA
:101610000000000000600C0000F01E0001F83F0018
:1016200001F83F0001F83F0001F83F0001F83F00DA
:1016300001F83F0001F83F0001F83F0001F83F00CA
:1016400001F83F0001F83F0001F83F0001F83F00BA
:1016500001F83E00007839FFFE1823FFFF880FFFD6
:10166000FFE007FFFFC001FFFF1800000078000047
:1016700001F8000001F8000001F8000001F8000086
:1016800001F8000001F8000001F8000001F8000076
:1016900001F8000001F8000001F8000001F8000066
:1016A00001F8000001F8000000F0000000600000F8
:1016B000000000000000000000000000000000002A
:1016C000000000000000000000000000000000FF1B
:1016D000FE0001FFFF0003FFFF8001FFFF000CFF82
:1016E000FE001E0000003F0000003F0000003F0021
:1016F00000003F0000003F0000003F0000003F00EE
:1017000000003F0000003F0000003F0000003F00DD
:1017100000003F0000003F0000003E00000039FFD5
:10172000FE0023FFFF800FFFFFE007FFFFC001FF68
:10173000FF1800000078000001F8000001F8000028
:1017400001F8000001F8000001F8000001F80000B5
:1017500001F8000001F8000001F8000001F80000A5
:1017600001F8000001F8000001F8000001F8000095
:1017700000F000FFFE6001FFFF0003FFFF8001FF9C
:10178000FF0000FFFE00000000000000000000005D
:1017900000000000000000FFFE0001FFFF0003FF4B
:1017A000FF8001FFFF000CFFFE001E0000003F0055
:1017B00000003F0000003F0000003F0000003F002D
:1017C00000003F0000003F0000003F0000003F001D
:1017D00000003F0000003F0000003F0000003F000D
:1017E00000003E00000039FFFE0023FFFF800FFFD6
:1017F000FFE027FFFFC039FFFF183E0000783F00E1
:1018000001F83F0001F83F0001F83F0001F83F00F8
:1018100001F83F0001F83F0001F83F0001F83F00E8
:1018200001F83F0001F83F0001F83F0001F83F00D8
:1018300001F83F0001F81E0000F00CFFFE6001FF00
:10184000FF0003FFFF8001FFFF0000FFFE0000001C
:10185000000000000000000000000000000000FF89
:10186000FE0001FFFF0003FFFF8001FFFF6000FF9C
:10187000FEF0000001F8000001F8000001F800008F
:1018800001F8000001F8000001F8000001F8000074
:1018900001F8000001F8000001F8000001F8000064
:1018A00001F8000001F8000001F8000000780000D5
:1018B0000018000000080000000000000000000008
:1018C000001800000078000001F8000001F8000096
:1018D00001F8000001F8000001F8000001F8000024
:1018E00001F8000001F8000001F8000001F8000014
:1018F00001F8000001F8000001F8000001F8000004
:1019000000F0000000600000000000000000000087
:1019100000000000000000000000000000000000C7
:1019200000000000000000FFFE0001FFFF0003FFB9
:10193000FF8001FFFF600CFFFEF01E0001F83F007A
:1019400001F83F0001F83F0001F83F0001F83F00B7
:1019500001F83F0001F83F0001F83F0001F83F00A7
:1019600001F83F0001F83F0001F83F0001F83F0097
:1019700001F83E00007839FFFE1823FFFF880FFFB3
:10198000FFE027FFFFC039FFFF183E0000783F004F
:1019900001F83F0001F83F0001F83F0001F83F0067
:1019A00001F83F0001F83F0001F83F0001F83F0057
:1019B00001F83F0001F83F0001F83F0001F83F0047
:1019C00001F83F0001F81E0000F00CFFFE6001FF6F
:1019D000FF0003FFFF8001FFFF0000FFFE0000008B
:1019E000000000000000000000000000000000FFF8
:1019F000FE0001FFFF0003FFFF8001FFFF600CFFFF
:101A0000FEF01E0001F83F0001F83F0001F83F0022
:101A100001F83F0001F83F0001F83F0001F83F00E6
:101A200001F83F0001F83F0001F83F0001F83F00D6
:101A300001F83F0001F83F0001F83E00007839FF4F
:101A4000FE1823FFFF880FFFFFE007FFFFC001FF25
:101A5000FF1800000078000001F8000001F8000005
:101A600001F8000001F8000001F8000001F8000092
:101A700001F8000001F8000001F8000001F8000082
:101A800001F8000001F8000001F8000001F8000072
:101A900000F000FFFE6001FFFF0003FFFF8001FF79
:101AA000FF0000FFFE00000000000000000000003A
:101AB0002100240027002A002D00300033000101FE
:101AC0000000040107010A0100002200250028008F
:101AD0002B002E0031003400020100000501080136
:101AE0000B01000020002300260029002C002F00FD
:101AF000320000010000030106010901050505058A
:101B0000070508080808020202020A0A0808040475
:101B100004040101010101010101030303030303A3
:101B20000303040707070C0C0C0C0C0C0C0C020232
:101B3000020206060606060606060B0B0B0B0B0B2F
:101B40000B0B0102102020080810204010204080BC
:101B50000201020108040201010204081020408071
:101B600080402010080402018004020180402010FF
:101B70000804020108040201010204081020408048
:101B800001020408102040800000090A02080B0C22
:101B90000D07060304010000000000000000000023
:101BA0000000000000000000000000000000000035
:101BB0000000000011100F000000000000000000F5
:101BC000000000000000000000000000000063644E
:101BD000696E6F70737578585B0000407A10F35A25
:101BE00000A0724E18090010A5D4E80000E876485D
:101BF000170000E40B54020000CA9A3B000000E109
:101C0000F505000080969800000040420F0000009B
:101C1000A08601000000102700000000E80300007B
:101C200000006400000000000A0000000000010045
:101C3000000000002C76D888DC674F0823DFC1DF66
:101C4000AE59E1B1B796E5E3E453C63AE651997669
:101C500096E8E6C28426EB898C9B62ED407C6FFCA3
:101C6000EFBC9C9F40F2BAA56FA5F490055A2AF7E5
:101C70005C936B6CF9676DC11BFCE0E40D47FEF5EE
:101C800020E6B500D0ED902E030094357705008056
:101C9000841E080000204E0A000000C80C333333B5
:101CA000330F986E12831141EF8D2114893BE65555
:101CB00016CFFEE6DB18D1844B381BF77C1D901D38
:101CC000A4BBE424203284725E228100C9F124EC9A
:101CD000A1E53D270319B5319834B438FC18112417
:101CE0001FBECFEFD1E2DEBFCDBF00E00CBF15E0DD
:101CF000A0E0B2E0E8E6FBEF00E00BBF02C0079017
:101D00000D92A636B107D9F71BBE17E0A6E6B5E0DF
:101D100001C01D92AD37B107E1F71CE1CCEDDCE16C
:101D200004C02297FE010E94617DC43DD107C9F71E
:101D30000E94EC750C94A77D0C940000EF92FF922A
:101D40000F931F93F22FF02E47FD02C0E4E001C075
:101D5000E4E1242F332727FD309537FF03C030956A
:101D600021953F4F4F2D512F0F2FEE2E0E94F31133
:101D70008F2D912F1F910F91FF90EF9008951F933A
:101D8000FC0199278827BC01E89411911032E9F3EE
:101D9000193010F01E30C8F31B3251F01D3249F4D7
:101DA000689406C00E942F0F610F711D811D911D47
:101DB000119110531A30B0F33EF4909580957095C0
:101DC00061957F4F8F4F9F4F1F910895FB01DC015D
:101DD00002C001900D9241505040D8F70895FB0188
:101DE000DC018D91019080190110D9F3990B0895B0
:101DF000FB01DC0101900D920020E1F70895FB0149
:101E0000DC014150504048F001900D920020C9F78C
:101E100001C01D9241505040E0F70895FB019F0121
:101E2000E8944230C4F04532B4F44A3029F497FBC8
:101E30001EF4909581959F4F642F77270E94FB7C1D
:101E4000805D8A330CF0895D8193CB010097A1F707
:101E500016F45DE251931082C9010C943814592F85
:101E6000482F372F262F660F771F881F991F660F61
:101E7000771F881F991F620F731F841F951F660F9E
:101E8000771F881F991F0895AEE0B0E0EAE4FFE0F5
:101E90000C94807D85E08C838C899D899A838983CD
:101EA0009E01285E3F4FCE0101966E897F89A90170
:101EB0000E94E2102E96E2E00C949C7DFC0120FD35
:101EC00008C023FD05C022FF02C0738362835183D3
:101ED00040830895EF92FF920F931F9344FF02C037
:101EE00033E011C046FF02C034E00DC0DB01FC014D
:101EF000AA0FBB1FEE1FFF1F1094D1F76A0F7B1FA5
:101F00008E1F9F1F31E0660F771F881F991F31506A
:101F1000D1F77B018C01E20EF11C011D111DA801FE
:101F20009701B701CA011F910F91FF90EF9008959B
:101F30000F931F93CF93DF938C01C8010E94481425
:101F4000EC0197FD08C00E94657D892BB1F7CE0199
:101F5000B8010E948A14CE01DF91CF911F910F9199
:101F60000895A0E0B0E0E7EBFFE00C94787DEC0191
:101F7000C62E5A01122F0E944814AC018B3219F060
:101F80008D3251F41068CA9409F46DC0CE010E94DC
:101F90004814AC0197FD67C06DEFD62ED1228D2D70
:101FA000807301F54033F1F4CA9409F447C0CE01BF
:101FB0000E944814AC0197FD41C082E0D82A4837FE
:101FC00011F0483559F480E4D82ACA94B9F1CE0109
:101FD0000E944814AC0199232CF430C0D6FC02C0F6
:101FE00080E1D82AEE24FF248701242F20532830B3
:101FF00088F0D4FC09C02A3068F0D6FE05C02F7DD9
:10200000822F8151863028F0CA01BE010E948A14B5
:1020100012C02750C801B7014D2D0E946A0F7B01E5
:102020008C0182E0D82ACA9461F0CE010E94481443
:10203000AC0197FFDACFD1FC04C015C0EE24FF2419
:102040008701D7FE08C010950095F094E094E11C3C
:10205000F11C011D111DC501B801A7012D2D0E9404
:102060005E0F81E001C080E0CDB7DEB7EAE00C94FE
:10207000947DA0E2B0E0EFE3F0E10C94747D6C019C
:10208000A62E8A017901FE01319680E2DF011D92C0
:102090008A95E9F770E030E060E040E050E04F0101
:1020A000A1E0B0E0F6018381F70183FD259183FF74
:1020B00021917F01222309F47EC02E3519F44115A8
:1020C000510569F1872F90E08417950744F42D3569
:1020D00051F12D3221F4332329F431E021C033238F
:1020E00009F4622F322F832F869586958695F40109
:1020F000E80FF11D832F87703D0102C0660C771C2D
:102100008A95E2F7208126292083361711F430E0E2
:1021100007C0361710F43F5FE6CF3150E4CF71E0CF
:102120004F5F5F4FBFCF332319F08E8180628E8364
:10213000772359F0FE0131969E012F5D3F4F80813C
:1021400080958193E217F307D1F7BB24B3944E0136
:102150000894811C911CC6010E944814AC0197FD93
:1021600022C0869586958695F401E80FF11D808141
:1021700090E09A012770307002C0959587952A9556
:10218000E2F780FD05C0CA01B6010E948A140BC0A7
:102190000115110519F0D8014D938D01AA94BB24A6
:1021A000AA20C9F602C0BB2031F40115110529F09F
:1021B000F801108202C0EE24FF24C701A096EEE0D1
:1021C0000C94907DA0E0B0E0E8EEF0E10C94747D1A
:1021D0005C016B013A01FC01178216828824EAC077
:1021E000812F90E00E94657D892B21F0C5010E941E
:1021F000980FE0C0153249F4F601F3FC6591F3FE47
:1022000061916F01653269F415E2C5010E944814BD
:1022100097FDDCC0181709F4CDC0B5010E948A14DF
:10222000DAC06A3219F0162F00E006C0F3FC1591EF
:10223000F3FE11916F0101E099240FC00260692D36
:1022400070E080E090E040E20E946A0F962EF60176
:10225000F3FC1591F3FE11916F01212F20532A30C9
:1022600068F301FD03C099249A9403C0992009F4EE
:10227000B2C0183621F01C3699F4F6010BC0F601F5
:10228000F3FC6591F3FE6191683619F06F01162F2A
:1022900007C008600460F3FC1591F3FE11916F0113
:1022A000112309F498C08EEC9BE1612F70E00E942D
:1022B0002D14892B09F48FC0802F00FF03C0EE245A
:1022C000FF2407C0F301E080F18022E030E0620EDD
:1022D000731E1E3651F4F5014681578160E070E0AF
:1022E000C701202F0E945E0F65C0133691F481FD57
:1022F00002C099249394C5010E94481497FD66C0BA
:10230000E114F10419F0F70181937F019A9499F790
:102310004FC01B3559F4C501692DA70196010E94D4
:1023200039106C01009709F043C03DC0C5010E94FF
:10233000980F97FD4BC01F3659F1103728F414360B
:1023400029F1193639F527C0133719F0153711F56A
:102350001DC0C5010E944814EC0197FD11C00E94E8
:10236000657D892B29F0CE01B5010E948A1408C031
:10237000E114F10419F0F701C1937F019A9449F730
:10238000E114F104A9F0F701108212C0006203C049
:10239000006101C00064C501692DA701202F0E94C2
:1023A000B10F882329F4F5018381807379F413C078
:1023B00000FF8394F501F380F601F3FC1591F3FE21
:1023C00011916F01112309F00BCF05C0882019F47A
:1023D0002FEF3FEF02C0282D30E0C901CDB7DEB7A7
:1023E000EEE00C94907DA9E0B0E0E9EFF1E10C940F
:1023F000747D6A01122FA02EBE2C2BE3201718F437
:102400002CE3922E02C0902E9394AE014F5F5F4F4B
:1024100027E0092D0E945513BC018981E82EFF2475
:10242000C70189709070019711F4ADE209C0B1FE47
:1024300002C0ABE205C0B0FC02C0A0E001C0A0E257
:10244000E3FE3BC0AA2311F423E001C024E02117DE
:1024500010F020E002C0121B212FEB2CB4FE02C0B2
:10246000322F0AC0F601322F80E202C08193315030
:102470003323E1F7C20ED11CAA2319F0F601A19370
:102480006F01F6013196E2FE05C09EE4D6019C93F1
:1024900081E404C09EE6D6019C9381E611968C935C
:1024A00091833296DF01832F90E202C09D93815089
:1024B0008823E1F7E30FF11D40C0E2FE42C0AA23EA
:1024C00011F423E001C024E0211710F020E002C045
:1024D000121B212FEB2CB4FE02C0922F0AC0F60172
:1024E000922F80E202C0819391509923E1F7C20EAE
:1024F000D11CAA2319F0F601A1936F01F6013196C0
:10250000E2FE08C089E4D6018C938EE411968C9388
:1025100086E407C089E6D6018C938EE611968C93EB
:1025200086E681833296DF01892F20E202C02D9357
:1025300081508823E1F7E90FF11D10822EEF3FEF64
:10254000AFC0161617061CF041E050E003C0AB0107
:102550004F5F5F4FAA2019F480E090E003C08A2DFE
:1025600090E0019620E030E0AA2311F021E030E075
:10257000240F351F280F391F812F90E028173907A6
:1025800014F020E002C0121B212F4B2D50E0CA0195
:1025900080719070B4FC0DC0B3FC0BC0F601322FFB
:1025A00040E202C0419331503323E1F7C20ED11C07
:1025B00001C0322FAA2319F0F601A1936F01892BD4
:1025C00011F0132F0AC0F601132F80E302C081938C
:1025D00011501123E1F7C30ED11C092D060FBA804B
:1025E00090E1892E912C8E209F20E4FE04C0F1E31F
:1025F000BF1609F40150101614F001E003C00930B1
:1026000008F008E09B0177FF02C020E030E0CB013A
:102610000196821B930BFE013196E80FF91F8EE2A3
:10262000F82E3B01601A71088A2D90E04427552747
:10263000481B590B8FEF2F3F380719F4D601FD9235
:102640006D01621773072CF06216730614F4808113
:1026500001C080E32150304031962417350724F023
:10266000D6018D936D01E6CF2617370749F4B5E300
:10267000BB1528F0BB1621F48114910409F481E301
:10268000F6018193D601812F90E202C09C93815084
:1026900011968823D9F7E10FF11D108220E030E078
:1026A000C9012996EEE00C94907D283008F027E0CF
:1026B0003327DA01990F311D87FD9160009661057E
:1026C000710539F432602E5F3D9330E32A95E1F7CE
:1026D00008959F3F30F080387105610509F03C5F37
:1026E0003C5F3D93913008F08068911DDF93CF935C
:1026F0001F930F93FF92EF92192F987F9695E92FD2
:1027000096959695E90FFF27EC5CF34E99273327B2
:10271000EE24FF24A701E70105900894079428F40C
:10272000360FE71EF81E491F511D660F771F881FC1
:10273000991F0694A1F70590079428F4E70EF81E58
:10274000491F561FC11D770F881F991F661F0694CA
:10275000A1F70590079428F4F80E491F561FC71FCC
:10276000D11D880F991F661F771F0694A1F705904A
:10277000079420F4490F561FC71FD81F990F661FD3
:10278000771F881F0694A9F784911095177041F060
:10279000D695C79557954795F794E7941A95C1F73D
:1027A000EAEDFBE16894159015913591659195914D
:1027B00005907FE27395E118F10A430B560BC90BA4
:1027C000D009C0F7E10CF11E431F561FC91FD01DD1
:1027D0007EF4703311F48A95E6CFE894015030F01E
:1027E000080F0AF40027021708F4202F2395022F60
:1027F0007A3328F079E37D932A95E9F710C07D9329
:102800002A9589F6069497956795379517951794A5
:10281000E118F10A430B560BC90BD00998F0239528
:102820007E9173957A3308F070E37C932013B8F7A8
:102830007E9170617D9330F0839571E37D9370E3B9
:102840002A95E1F71124EF90FF900F911F91CF91FE
:10285000DF91992787FD90950895FC010590061654
:1028600021F00020D9F7C00108953197CF010895D4
:10287000DC01FC01672F71917723E1F7329704C0E7
:102880007C916D9370836291AE17BF07C8F3089572
:10289000CF93DF93EC014B8140FF1AC046FF0AC083
:1028A0004F7B4B838E819F8101969F838E838A818C
:1028B000282F2BC042FF13C0E881F9818081282F87
:1028C000332727FD30952115310529F440624B83CC
:1028D0002FEF3FEF1BC03196F983E88311C0EA85E3
:1028E000FB85CE0119959C0197FF0AC09B812F5F44
:1028F0003F4F11F080E201C080E1892B8B83E8CF4C
:102900008E819F8101969F838E8330E0C901DF9184
:10291000CF9108959C01FB01838180FF11C086FD4A
:102920000FC09FEF2F3F390759F0228380648F7DBE
:1029300083838681978101979783868330E002C0E5
:102940002FEF3FEFC9010895FC018689978908950B
:10295000FC0186A197A10895DF92EF92FF920F9359
:102960001F938B018EEAE82E86E0F82EC7010E94A5
:102970004B34D82E0F5F1F4FC701B8010E944B3454
:10298000382F20E02D0D311DC9011F910F91FF90AF
:10299000EF90DF900895DF92EF92FF920F931F93D5
:1029A0008B01D52E9EEAE92E96E0F92EC7010E94F2
:1029B00052340F5F1F4FC701B8014D2D0E94523492
:1029C0001F910F91FF90EF90DF900895CF93DF93C9
:1029D000EC01ECA5FDA599A184819817B9F44EA549
:1029E0005FA55FA34EA368857985CE010E94CB14B5
:1029F00089A18DA3ECA5FDA58281883010F489E022
:102A000001C08F5F8CA388A58B5F8BA3DF91CF91D3
:102A10000895FC01AB0171AB60AB648575850E94C4
:102A2000CB140895CF92DF92EF92FF920F931F93F2
:102A3000DF93CF9300D000D0CDB7DEB7D82EC92E0C
:102A40007A01FA01848195810297A8F48E010F5FC3
:102A50001F4FC80160E072E00E947077C801B701A3
:102A60000E942077BC018D2D9C2D0E941978C801F1
:102A70000E94337805C08D2D9C2DBA010E941978D3
:102A80008D2D9C2D26960FB6F894DEBF0FBECDBFC0
:102A9000CF91DF911F910F91FF90EF90DF90CF903A
:102AA00008958F929F92AF92BF92CF92DF92EF9252
:102AB000FF920F931F93DF93CF93CDB7DEB76E973F
:102AC0000FB6F894DEBF0FBECDBF982E892E5B01E6
:102AD000FB0164A18E010F5F1F4FC80170E04AE047
:102AE0000E94D277892D982DB501A8010E94121558
:102AF000C8010E942D788E01095F1F4FC801692D02
:102B0000782D0E942378C80162E072E00E94047769
:102B1000BC01892D982D0E940278C8010E9433784B
:102B200039E1C32ED12CCC0EDD1EC601692D782DC6
:102B30000E9423782DE0E22EF12CEC0EFD1EF50113
:102B400063A1C70170E04AE00E94D2778E010D5E5A
:102B50001F4FC801B501A7010E941215C601B80197
:102B60000E942077BC01892D982D0E940278C8010F
:102B70000E942D78C7010E942D78C6010E943378EB
:102B8000892D982D6E960FB6F894DEBF0FBECDBF7F
:102B9000CF91DF911F910F91FF90EF90DF90CF9039
:102BA000BF90AF909F908F9008950F931F938C01CB
:102BB000FC01848160E00E94B975F801868160E0C3
:102BC0000E94B975F801828160E00E94B9751F9179
:102BD0000F9108950F931F938C01FC01828161E096
:102BE0000E94B975F801848161E00E94B975F8010D
:102BF000868160E00E94B9751F910F910895EF9250
:102C0000FF920F931F93CF93DF93EC018E899F89DF
:102C10000397A1F50E9424747B018C0128A939A98E
:102C20008EA59FA5AC01249FC001259F900D349FC8
:102C3000900D112468E070E00E940F7D9B014427F5
:102C400037FD4095542F888D998DAA8DBB8DE81A3C
:102C5000F90A0A0B1B0BE216F3060407150788F4A2
:102C60008EA19FA1A0E0B0E0281739074A075B07B3
:102C700028F4E816F9060A071B0718F4EE24FF24C7
:102C80008701B701C801DF91CF911F910F91FF908C
:102C9000EF900895EF92FF920F931F93CF93DF93DE
:102CA000EC017A018B010E94D5150E942474688F73
:102CB000798F8A8F9B8F82E090E09F8B8E8B28A9E3
:102CC00039A9442737FD4095542FC801B7010E9408
:102CD000227DCA01B9010E94517B20E030E040E032
:102CE0005FE30E94517A0E94207BAB017D8F6C8F45
:102CF000509541955F4F5FA34EA368857985CE01BE
:102D00000E94CB14ECA5FDA5848189A3828188A3B0
:102D100081818F8F6C897D89CE010E94AC1449A17D
:102D2000242F30E08217930731F06C897D89CE0122
:102D300050E00E94CB1468897989CE010E94AC14BE
:102D400048A1242F30E08217930731F068897989F0
:102D5000CE0150E00E94CB146A897B89CE010E948B
:102D6000AC144F8D242F30E08217930731F06A891D
:102D70007B89CE0150E00E94CB14DF91CF911F914F
:102D80000F91FF90EF9008950F931F938C010E9475
:102D90002474F801608F718F828F938F83E090E0AD
:102DA000978B868BC8010E94EA151F910F91089599
:102DB000CF93DF93EC018E899F890197029718F5D5
:102DC0008EA19FA1892BF9F0ECA5FDA59DA1848181
:102DD0009817C9F49CA182819817A8F09BA18181C2
:102DE000981788F0CE010E94C41603C0CE010E943D
:102DF0004A1620E08E899F89039709F421E0822FEB
:102E0000DF91CF910895CE010E94FF15AB01BC0167
:102E1000411551056105710561F3E8CFCF93DF934B
:102E2000EC01798368836230710599F16330710533
:102E300009F45AC06130710509F082C08BE290E05C
:102E40009B838A838DE290E09D838C838FE290E068
:102E50009F838E8388EC90E0998788878CED90E043
:102E60009B878A8786EE90E09D878C878FEF9FEF08
:102E70009F878E8788EE93E0998B888B8AEE93E00C
:102E80009B8B8A8B8CE494E09D8B8C8B89E690E005
:102E900055C08AE290E09B838A838CE290E09D8318
:102EA0008C838EE290E09F838E838AEC90E09987FA
:102EB00088878EED90E09B878A8788EE90E09D87DB
:102EC0008C8782EF90E09F878E8782EF93E0998BCB
:102ED000888B84EF93E09B8B8A8B8CE494E09D8BB2
:102EE0008C8B81E190E02AC08BE290E09B838A8307
:102EF00080E390E09D838C8381E390E09F838E83C9
:102F00008CEC90E09987888780EE90E09B878A8799
:102F10008AEE90E09D878C8784EF90E09F878E8774
:102F20008CEF93E0998B888B8EEF93E09B8B8A8B51
:102F30008CE494E09D8B8C8B88E790E09FA78EA714
:102F40005DA74CA70E942474688F798F8A8F9B8F0E
:102F50001F8A1E8ADF91CF9108950F931F938C01D2
:102F60000E942474F801608F718F828F938F85E0A7
:102F700090E0978B868BC8010E94EA1560E27EE4A0
:102F800080E090E00E949E74C8010E94D5150E94C6
:102F90002474F801608F718F828F938F82E090E0AC
:102FA000978B868B1F910F9108950F931F938C0120
:102FB0000E942474F801608F718F828F938F84E058
:102FC00090E0978B868BC8010E94EA1568E873E150
:102FD00080E090E00E949E74C8010E94D5150E9476
:102FE0002474F801608F718F828F938F82E090E05C
:102FF000978B868B1F910F910895CF93DF93EC01F0
:10300000FB010190F081E02DE230F10541F0E33069
:10301000F10541F0319749F464E072E008C068E0DE
:1030200072E005C06BE072E002C06FE072E00E94E7
:103030005777CE01DF91CF910895CF93DF93EC01C5
:103040008A8161E00E9406758C8161E00E940675AC
:103050008E8161E00E940675CE010E94D5156C85B7
:103060007D85CE010E94AC14892B19F488EE93E083
:1030700005C06C857D85CE010E94AC1499AB88ABF0
:103080006A857B85CE010E94AC14892B31F06A855C
:103090007B85CE010E94AC1402C08EA59FA58EA791
:1030A0009FA768857985CE010E94AC149FA38EA34B
:1030B0006E857F85161617061CF080E090E003C031
:1030C000CE010E94AC1499A788A76C897D89CE0196
:1030D0000E94AC1489A368897989CE010E94AC143E
:1030E00088A36A897B89CE010E94AC14282F8F8F18
:1030F00089A1ECA5FDA59481891720F4CE010E9439
:10310000E61406C0891721F48DA388A18CA32BA3F4
:103110000E942474688F798F8A8F9B8F81E090E062
:103120009F8B8E8BDF91CF910895FC0173A762A7CF
:103130000E941D180895CF92DF92EF92FF920F9395
:103140001F938130910509F047C06F5F7F4F09F0F1
:103150004CC00E9424746093710570937205809333
:1031600073059093740585E895E065E172E00E942F
:1031700057778BE895E062E046E250E027E230E0E6
:1031800008E210E079E2E72EF12CCC24DD240E9445
:1031900087698CEB95E066E045E024E003E032E0EF
:1031A000E32E0E94696B87EF95E061E070E046E6F0
:1031B00055E00E940E1789E296E062E070E046E674
:1031C00055E00E940E178BE596E063E070E046E65E
:1031D00055E00E940E1709C0892B39F46F5F7F4FAD
:1031E00021F485E895E00E942D781F910F91FF90C2
:1031F000EF90DF90CF90089580E090E06FEF7FEF49
:103200000E949B18089581E090E06FEF7FEF0E948D
:103210009B180895CF92DF92EF92FF920F931F9326
:10322000DF93CF9300D000D0CDB7DEB7D82EC92E14
:103230007B01FB01848195810297A8F48E010F5FC9
:103240001F4FC80166E172E00E947077C801B701A4
:103250000E942077BC018D2D9C2D0E941978C801F9
:103260000E94337804C08D2D9C2D0E9419788D2DDD
:103270009C2D26960FB6F894DEBF0FBECDBFCF9122
:10328000DF911F910F91FF90EF90DF90CF90089505
:103290008F929F92AF92BF92CF92DF92EF92FF9266
:1032A0000F931F93DF93CF93CDB7DEB7ED970FB694
:1032B000F894DEBF0FBECDBFB82EA92E0FAB18AF4E
:1032C00029AF3AAF4BAF5CAF6DAF60916C0570E06A
:1032D0006E54784F8E010F5F1F4FC8014AE00E9465
:1032E000D2778B2D9A2DB8010E940A19C8010E942D
:1032F0002D788E01095F1F4FC8016B2D7A2D0E941A
:10330000237888E1882E82E0982EC801B4010E94BB
:103310000477BC018B2D9A2D0E940278C8010E946F
:103320003378B9E1CB2ED12CCC0EDD1EC6016B2D2E
:103330007A2D0E942378ADE0EA2EF12CEC0EFD1ED2
:1033400060916B05C70170E04AE00E94D2778E0160
:103350000D5E1F4FC801B7010E940A19C601B801CE
:103360000E942077BC018B2D9A2D0E940278C80103
:103370000E942D78C7010E942D78C6010E943378E3
:103380008E01015E1F4FC8016B2D7A2D0E9423789C
:10339000C801B4010E940477BC018B2D9A2D0E94B4
:1033A0000278C8010E943378F1E3CF2ED12CCC0EE5
:1033B000DD1EC6016B2D7A2D0E942378E5E2EE2EEC
:1033C000F12CEC0EFD1E60916A05C70170E04AE029
:1033D0000E94D2778E01055D1F4FC801B7010E9480
:1033E0000A19C601B8010E942077BC018B2D9A2DC5
:1033F0000E940278C8010E942D78C7010E942D7892
:10340000C6010E9433788B2D9A2DED960FB6F89455
:10341000DEBF0FBECDBFCF91DF911F910F91FF9007
:10342000EF90DF90CF90BF90AF909F908F900895D6
:10343000EF92FF920F931F937C010091660510910C
:103440006705209168053091690540916A055091A2
:103450006B0560916C050E944819C7011F910F917F
:10346000FF90EF9008958F929F92AF92BF92CF926C
:10347000DF92EF92FF920F931F93DF93CF93CDB71D
:10348000DEB7ED970FB6F894DEBF0FBECDBFB82EF6
:10349000A92E0FAB18AF29AF3AAF4BAF5CAF6DAFF2
:1034A000609168058E010F5F1F4FC80170E04AE010
:1034B0000E94D2778B2D9A2DB8010E940A19C8015B
:1034C0000E942D788E01095F1F4FC8016B2D7A2D48
:1034D0000E9423785AE1852E52E0952EC801B4014E
:1034E0000E940477BC018B2D9A2D0E940278C8019E
:1034F0000E94337849E1C42ED12CCC0EDD1EC601CA
:103500006B2D7A2D0E9423783DE0E32EF12CEC0EFA
:10351000FD1E60916705C70170E04AE00E94D27706
:103520008E010D5E1F4FC801B7010E940A19C60126
:10353000B8010E942077BC018B2D9A2D0E94027841
:10354000C8010E942D78C7010E942D78C6010E94F3
:1035500033788E01015E1F4FC8016B2D7A2D0E94BA
:103560002378C801B4010E940477BC018B2D9A2DE9
:103570000E940278C8010E94337821E3C22ED12C28
:10358000CC0EDD1EC6016B2D7A2D0E94237895E2AC
:10359000E92EF12CEC0EFD1E60916605C70170E06E
:1035A0004AE00E94D2778E01055D1F4FC801B70126
:1035B0000E940A19C601B8010E942077BC018B2D18
:1035C0009A2D0E940278C8010E942D78C7010E949E
:1035D0002D78C6010E9433788B2D9A2DED960FB66B
:1035E000F894DEBF0FBECDBFCF91DF911F910F9139
:1035F000FF90EF90DF90CF90BF90AF909F908F9013
:103600000895EF92FF920F931F937C01009166053E
:1036100010916705209168053091690540916A0510
:1036200050916B0560916C050E94331AC7011F9180
:103630000F91FF90EF900895DF93CF9300D000D0CB
:10364000CDB7DEB72DB73EB72A5030400FB6F8944D
:103650003EBF0FBE2DBFEDB7FEB73196ADB7BEB7BB
:1036600012969C938E9311978CE192E093838283C0
:10367000CE01019695838483CE010396978386833A
:10368000CE010596918780870E94440F2DB73EB7E3
:10369000265F3F4F0FB6F8943EBF0FBE2DBF039776
:1036A00011F080E00AC08981809368058B81809346
:1036B00067058D818093660581E026960FB6F894A4
:1036C000DEBF0FBECDBFCF91DF910895CF92DF92C5
:1036D000FF920F931F93DF93CF93CDB7DEB7609721
:1036E0000FB6F894DEBF0FBECDBF2DB73EB72A5040
:1036F00030400FB6F8943EBF0FBE2DBFEDB7FEB7FA
:103700003196ADB7BEB712969C938E93119785E212
:1037100092E09383828365E0C62ED12CCC0EDD1E11
:10372000D582C482CE01019697838683CE0103960B
:10373000918780870E94440FEDB7FEB73A960FB687
:10374000F894FEBF0FBEEDBF0397F9F401E914E052
:10375000FF24D8016D917C91C6010E94EF0E9C015F
:103760009F2D9F5F232B59F4898180936A05909345
:103770006B058B81825B80936C0581E007C0F92E1D
:103780000E5F1F4FBCE09B1721F780E060960FB6DD
:10379000F894DEBF0FBECDBFCF91DF911F910F9187
:1037A000FF90DF90CF9008958EE292E00E94661B1A
:1037B000882351F08AE392E00E941C1B882321F0A9
:1037C00086E695E00E94C0370895CF92DF92EF928F
:1037D000FF920F931F93DF93CF9300D000D0CDB70C
:1037E000DEB76C010BE815E0C8016EE772E00E94DD
:1037F0004949C80160E040E020E00E944D43C80113
:103800006FEF4FEF2FEF0E9435437E010894E11CCC
:10381000F11CC701B6010E941978C801B70144E143
:1038200050E027ED30E000E010E00E94DC4CC701E2
:103830000E942D7826960FB6F894DEBF0FBECDBF3E
:10384000CF91DF911F910F91FF90EF90DF90CF907C
:1038500008950F931F93DF93CF93CDB7DEB72C97C7
:103860000FB6F894DEBF0FBECDBF86E695E00E948E
:103870001E388823C9F480916F07882339F08E01A0
:103880000F5F1F4FC80163E472E006C08E01095F3D
:103890001F4FC8016BE672E00E945777C8010E9473
:1038A000E51BC8010E942D782C960FB6F894DEBF58
:1038B0000FBECDBFCF91DF911F910F910895CF9291
:1038C000EF92FF920F931F930BE815E0C80166EF8C
:1038D00076E00E944949C80160E040E020E00E9493
:1038E0004D43C8016FEF4FEF2FEF0E9435434091DA
:1038F000B3045091B404662757FD6095762FC80134
:103900002AEA30E004E110E0EE24FF24E0E2CE2ECB
:103910000E94F64B1F910F91FF90EF90CF9008956A
:10392000CF92DF92EF92FF920F931F936B017C0176
:103930000BE815E0C8016EE772E00E944949C80132
:1039400060E040E020E00E944D43C8016FEF4FEF80
:103950002FEF0E943543C801B701A60124E130E0F2
:1039600001EE10E0EE24FF24F0E2CF2E0E94F64B91
:103970001F910F91FF90EF90DF90CF9008954F929D
:103980005F926F927F929F92AF92BF92CF92DF929F
:10399000EF92FF920F931F93DF93CF9300D000D04D
:1039A000CDB7DEB7FC019B0128019C2C6A2C8091CD
:1039B000AF049091B004892B09F077C0CA018E1B27
:1039C0009F0B62E070E00E940F7D8B016B01CE0EB9
:1039D000DF1E5B01A20EB31E8BE895E06E2D492D14
:1039E000262D0E9435438BE895E0B601A50198018C
:1039F0000E9418448BE895E06FEF4FEF2FEF0E9485
:103A000035438BE895E0B601A50198010E948340FB
:103A10008BE895E06EE772E00E9449498BE895E0FB
:103A20000E946249F201648075808BE895E00E94F3
:103A30006249082F8BE895E00E946549982E8BE833
:103A400095E060E040E02FEF0E944D437E01089436
:103A5000E11CF11CC701B2010E94197810E0069D1B
:103A6000B001079D700D169D700D11247695679518
:103A700080E090E00E94517B20E030E040E05FE396
:103A80000E94517A0E94207BC61AD70A9694A918E0
:103A9000B1088BE895E0B701A601950100E010E0C0
:103AA0000E94DC4CC7010E942D7826960FB6F89430
:103AB000DEBF0FBECDBFCF91DF911F910F91FF9061
:103AC000EF90DF90CF90BF90AF909F907F906F90DE
:103AD0005F904F9008952F923F924F925F927F9206
:103AE0008F929F92AF92BF92CF92DF92EF92FF920E
:103AF0000F931F93DF93CF93CDB7DEB7AC970FB67D
:103B0000F894DEBF0FBECDBF2B016A011901580129
:103B1000FCA6EBA68091AF049091B004892B09F02C
:103B200095C08BE895E06EE772E00E94494935E068
:103B3000832E912C8C0C9D1C8BE895E00E9465498E
:103B4000D82E8BE895E00E946549782E8BE895E0A9
:103B50006FEF4FEF2FEF0E9435438BE895E060E069
:103B600040E020E00E944D438E01095F1F4FC801D5
:103B70006BE972E00E947077C801B5010E9420775E
:103B8000BC015E010894A11CB11CC5010E941978FA
:103B9000C8010E9433782DE0E22EF12CEC0EFD1EC0
:103BA000C701B5010E941978D6944D0C511C8BE8C1
:103BB00095E0B701A401920100E010E00E94DC4C06
:103BC000C7010E942D789FE1E92EF12CEC0EFD1E1D
:103BD000C70165EA72E00E9470778E01075E1F4F91
:103BE000C8016BA57CA54AE00E94D277C701B80145
:103BF0000E942077BC0183E1C82ED12CCC0EDD1EA3
:103C0000C6010E941978C8010E942D78C7010E9440
:103C10003378B5E2EB2EF12CEC0EFD1EC701B60198
:103C20000E941978271831088BE895E0B701A401A4
:103C3000910100E010E00E94DC4CC7010E942D7849
:103C4000C6010E942D78C5010E942D78AC960FB652
:103C5000F894DEBF0FBECDBFCF91DF911F910F91C2
:103C6000FF90EF90DF90CF90BF90AF909F908F909C
:103C70007F905F904F903F902F900895CF92DF926A
:103C8000EF92FF920F931F93DF93CF93CDB7DEB7E1
:103C900062970FB6F894DEBF0FBECDBF07EF15E0F9
:103CA0006E010894C11CD11CC601B8010E945115B7
:103CB000C8010E94A8147C0185E090E063E270E0F6
:103CC00048E250E026E430E086010E946B1DC60108
:103CD0000E942D7857E0C52ED12CCC0EDD1E09E2B6
:103CE00016E0C601B8010E945115C8010E94A8142F
:103CF0007C0185E090E065E570E048E250E028E76F
:103D000030E086010E946B1DC6010E942D784DE0B7
:103D1000C42ED12CCC0EDD1E0BE516E0C601B80179
:103D20000E945115C8010E94A8147C0185E090E012
:103D300067E870E048E250E02AEA30E086010E943D
:103D40006B1DC6010E942D7862960FB6F894DEBFF7
:103D50000FBECDBFCF91DF911F910F91FF90EF90DC
:103D6000DF90CF9008952F923F924F925F927F9273
:103D70008F929F92AF92BF92CF92DF92EF92FF927B
:103D80000F931F93DF93CF9300D000D0CDB7DEB752
:103D90009C016B01CA011801821B930B62E070E069
:103DA0000E940F7D8B014B01820E931EC60ED71E03
:103DB000FBE8EF2EF5E0FF2EC70166EF76E00E94EC
:103DC0004949C70160E040E02FEF0E943543C70139
:103DD000B401A60198010E941844C7016FEF4FEF8C
:103DE0002FEF0E943543C701B401A60198010E943C
:103DF0008340C7016EE772E00E944949C7010E94F3
:103E00006249F10144805580C7010E946249082F30
:103E1000C7010E946549782EC70160E040E02FEF9E
:103E20000E944D435E010894A11CB11CC501B10163
:103E30000E94197810E0049DB001059D700D149D3D
:103E4000700D11247695679580E090E00E94517B7B
:103E500020E030E040E05FE30E94517A0E94207B46
:103E6000861A970A7694C718D108C701B501A4012C
:103E7000960100E010E00E94DC4CC5010E942D7804
:103E8000C70160E040E02FEF0E944D4326960FB639
:103E9000F894DEBF0FBECDBFCF91DF911F910F9180
:103EA000FF90EF90DF90CF90BF90AF909F908F905A
:103EB0007F905F904F903F902F9008952F923F9268
:103EC0004F925F926F927F928F929F92AF92BF922A
:103ED000CF92DF92EF92FF920F931F93DF93CF93D6
:103EE000CDB7DEB7A7970FB6F894DEBF0FBECDBF34
:103EF0004C013B012A011901DFA2CEA29BE8A92EA9
:103F000095E0B92EC5016EE772E00E9449496E0145
:103F10000894C11CD11CC601B8010E941978C401C3
:103F2000B301A201910186010E94B31EC6010E9445
:103F30002D7885E090E0480E591EC5010E94654924
:103F4000D82EC5010E9465498DA3C5016FEF4FEFC3
:103F50002FEF0E943543C50160E040E020E00E9461
:103F60004D438E01035F1F4FC8016BE972E00E9451
:103F70007077C801B7010E942077BC0187E0882EC6
:103F8000912C8C0E9D1EC4010E941978C8010E94BC
:103F9000337813E1E12EF12CEC0EFD1EC701B401C4
:103FA0000E941978D6946D0C711CC501B701A2014D
:103FB000930100E010E00E94DC4CC7010E942D78C4
:103FC000B9E1CB2ED12CCC0EDD1E8EA19FA18B553D
:103FD0009D4F9FA38EA3C6016EA17FA10E9457771C
:103FE000AFE1EA2EF12CEC0EFD1EC701B6010E94D6
:103FF00019789DA1291A3108C501B701A2019101C3
:104000000E94DC4CC7010E942D78C6010E942D78C9
:10401000C4010E942D78A7960FB6F894DEBF0FBE9C
:10402000CDBFCF91DF911F910F91FF90EF90DF9067
:10403000CF90BF90AF909F908F907F906F905F9048
:104040004F903F902F9008952F923F924F925F9202
:104050006F927F928F929F92AF92BF92CF92DF9298
:10406000EF92FF920F931F93DF93CF93CDB7DEB7FD
:104070006E970FB6F894DEBF0FBECDBF3B014C016B
:104080002A0119015BE8C52E55E0D52EC6016EE761
:1040900072E00E944949C60160E040E020E00E94D1
:1040A0003543C60160E070E040E050E020E431E0DC
:1040B0000EE110E00E94AB45C60160E040E020E068
:1040C0000E944D43C6016FEF4FEF2FEF0E94354323
:1040D0005E010894A11CB11CC501B401A30122E03A
:1040E0000E94A2778E01095F1F4FC801B5010E948F
:1040F0002378C80166EB72E00E940477BC01C50119
:104100000E940278C8010E9433784DE0E42EF12C21
:10411000EC0EFD1EC701B5010E941978C601B7015A
:1041200044E150E027E030E000E010E00E94DC4C89
:10413000C7010E942D7833E1E32EF12CEC0EFD1E19
:10414000C701B2010E941978C601B70148E750E0E3
:1041500027E030E00E94DC4CC7010E942D7829E165
:10416000E22EF12CEC0EFD1EC701B1010E94197860
:10417000C601B7014CED50E027E030E00E94DC4C76
:10418000C7010E942D78C5010E942D786E960FB64A
:10419000F894DEBF0FBECDBFCF91DF911F910F917D
:1041A000FF90EF90DF90CF90BF90AF909F908F9057
:1041B0007F906F905F904F903F902F900895AF92B7
:1041C000BF92CF92DF92EF92FF920F931F93CF9304
:1041D000DF93EC017B016A0159018BE895E060E017
:1041E00040E02FEF0E9435438BE895E0BE01A70128
:1041F000960185010E949D4604C08CEB95E00E94CB
:10420000306D8CEB95E00E94136D8823B1F78BE83D
:1042100095E06FEF4FEF2FEF0E9435438BE895E06D
:10422000BE01A701960185010E949D46DF91CF91B5
:104230001F910F91FF90EF90DF90CF90BF90AF90C4
:1042400008956E5670406333710560F58055904057
:10425000813A910538F580E590E06EE670E040EF38
:1042600050E020EA30E00E94DF208091AF0490917E
:10427000B0048F36910519F489E790E005C08037C6
:10428000910539F48AE790E09093B2048093B104E9
:1042900008958137910531F48BE790E09093B20453
:1042A0008093B1040895EF92FF920F931F93CF93E1
:1042B000DF93F82EE92E8B01CB01C297C39708F04C
:1042C00096C0CF2DDE2DCE010A97C397C8F48AE0A1
:1042D00090E062E370E04CE350E024E630E00E94BE
:1042E000DF2085E895E061E30E94CD7685E895E0E2
:1042F0000E94FB757093B4046093B3040E945F1C2A
:10430000CE0186549040C397C8F486E490E062E3FF
:1043100070E048E750E024E630E00E94DF2085E8C6
:1043200095E062E30E94CD7685E895E00E94FB75FA
:104330007093B4046093B3040E945F1CCE01825852
:104340009040C397C8F482E890E062E370E044EBE9
:1043500050E024E630E00E94DF2085E895E063E34A
:104360000E94CD7685E895E00E94FB757093B404B9
:104370006093B3040E945F1CCE018E5B9040C39794
:10438000C8F48EEB90E062E370E040EF50E024E68A
:1043900030E00E94DF2085E895E064E30E94CD765E
:1043A00085E895E00E94FB757093B4046093B304B4
:1043B0000E945F1CCA5FD040E397C8F48AEF90E088
:1043C00062E370E04CE251E024E630E00E94DF203E
:1043D00085E895E065E30E94CD7685E895E00E944A
:1043E000FB757093B4046093B3040E945F1CC80112
:1043F0008E569040C39708F096C0CF2DDE2DCE018B
:104400000A97C397C8F48AE090E06EE670E04CE348
:1044100050E020EA30E00E94DF2085E895E066E386
:104420000E94CD7685E895E00E94FB757093B404F8
:104430006093B3040E945F1CCE0186549040C397E2
:10444000C8F486E490E06EE670E048E750E020EAC9
:1044500030E00E94DF2085E895E067E30E94CD769A
:1044600085E895E00E94FB757093B4046093B304F3
:104470000E945F1CCE0182589040C397C8F482E826
:1044800090E06EE670E044EB50E020EA30E00E94FD
:10449000DF2085E895E068E30E94CD7685E895E029
:1044A0000E94FB757093B4046093B3040E945F1C78
:1044B000CE018E5B9040C397C8F48EEB90E06EE621
:1044C00070E040EF50E020EA30E00E94DF2085E815
:1044D00095E069E30E94CD7685E895E00E94FB7542
:1044E0007093B4046093B3040E945F1CCA5FD04011
:1044F000E397C8F48AEF90E06EE670E04CE251E09A
:1045000020EA30E00E94DF2085E895E060E30E9429
:10451000CD7685E895E00E94FB757093B4046093B6
:10452000B3040E945F1C0A5A10400333110508F0BF
:1045300040C0CF2DDE2DCE010A978D389105D0F4E5
:104540008AE090E06AEA70E046E950E02CED30E065
:104550000E94DF2085E895E069EB72E00E94897790
:1045600085E895E00E94FB757093B4046093B304F2
:104570000E945F1CC05AD040CD38D105D0F480EAEB
:1045800090E06AEA70E04CE251E02CED30E00E94ED
:10459000DF2085E895E00E94FB757093B40460937A
:1045A000B3048091AD049091AE049093B2048093D3
:1045B000B104DF91CF911F910F91FF90EF9008957B
:1045C0000F931F93CF93DF93EC018B01CB0188975F
:1045D000C39708F03EC0CE010A97C39780F48AE0E3
:1045E00090E068E270E04CE350E02AE530E00E94A1
:1045F000DF208FE690E09093B2048093B104CE0167
:1046000086549040C39780F486E490E068E270E0BE
:1046100048E750E02AE530E00E94DF2083E890E0A0
:104620009093B2048093B104CE0182589040C39716
:1046300080F482E890E068E270E044EB50E02AE524
:1046400030E00E94DF208DE890E09093B2048093E8
:10465000B104C80184569040C39708F053C0CE01FE
:104660000A97C39780F48AE090E064E670E04CE338
:1046700050E026E930E00E94DF2080E790E0909350
:10468000B2048093B104CE0186549040C39780F465
:1046900086E490E064E670E048E750E026E930E028
:1046A0000E94DF2084E890E09093B2048093B104EC
:1046B000CE0182589040C39780F482E890E064E68F
:1046C00070E044EB50E026E930E00E94DF208EE805
:1046D00090E09093B2048093B104CE018E5B904041
:1046E000C39780F48EEB90E064E670E040EF50E01A
:1046F00026E930E00E94DF2088E990E09093B20440
:104700008093B104CE0184509140C39748F508329C
:1047100011059CF0C536D10584F484E091E068E28F
:1047200070E046E351E024E630E00E94DF2081E0C3
:1047300090E09093B2048093B104CC58D040C73439
:10474000D10570F484E091E06CE870E046E351E05C
:1047500022ED30E00E94DF201092B2041092B104EA
:10476000DF91CF911F910F910895CF93DF93EC01CB
:10477000685270406333710508F03EC00A97C397D2
:1047800080F48AE090E068E270E04CE350E02AE5D3
:1047900030E00E94DF208AE090E09093B2048093A2
:1047A000B104CE0186549040C39780F486E490E033
:1047B00068E270E048E750E02AE530E00E94DF2040
:1047C00084E190E09093B2048093B104CE018258CA
:1047D0009040C397A0F482E890E068E270E044EB78
:1047E00050E02AE530E00E94DF208EE190E09093D7
:1047F000B2048093B10403C06D33710590F4C450CA
:10480000D140E39770F484E091E068E270E046E321
:1048100051E024E630E00E94DF201092B2041092B2
:10482000B104DF91CF9108956C53704063337105EB
:10483000A8F4805F90408734910580F480EF90E089
:104840006CE370E046E351E02EE630E00E94DF20AA
:1048500081E090E09093B2048093B10408956F9248
:104860007F928F929F92AF92BF92CF92DF92EF9200
:10487000FF920F931F936C015B014A0139016BE8B2
:10488000E62E65E0F62EC70160E040E02FEF0E94C3
:104890003543C701B601A501940183010E948C44F0
:1048A000C7016FEF4FEF2FEF0E943543C701B601ED
:1048B000A50194010E949D461F910F91FF90EF90DA
:1048C000DF90CF90BF90AF909F908F907F906F9030
:1048D00008952F923F924F925F926F927F928F92A4
:1048E0009F92AF92BF92CF92DF92EF92FF920F937F
:1048F0001F93DF93CF9300D000D0CDB7DEB73C013C
:104900004B016A0159011801EF2829F48BE895E061
:1049100066EF76E004C08BE895E06EE772E00E94F7
:104920004949C301B401A60195010E942F248BE8D7
:1049300095E06FEF4FEF2FEF0E9435438BE895E046
:1049400060E040E02FEF0E944D43C60186199709B1
:104950002FEF8F3F92078CF062E070E00E940F7D96
:10496000882777FD8095982F0E94537B20E030E0C8
:1049700040E05FE30E94517A10C062E070E00E9464
:104980000F7D882777FD8095982F0E94537B20E02C
:1049900030E040E05FE30E94507A0E94207B6B0190
:1049A0008BE895E00E946249F101448055808BE8D4
:1049B00095E00E946249082FC50188199909FFEF07
:1049C0008F3F9F078CF062E070E00E940F7D882788
:1049D00077FD8095982F0E94537B20E030E040E0E7
:1049E0005FE30E94517A10C062E070E00E940F7D88
:1049F000882777FD8095982F0E94537B20E030E038
:104A000040E05FE30E94507A0E94207B4B018BE8DC
:104A100095E00E946549182F7E010894E11CF11C65
:104A2000C701B1010E941978C60CD71C802F90E0F5
:104A3000849DB001859D700D949D700D1124769517
:104A4000679580E090E00E94517B20E030E040E0FC
:104A50005FE30E94517A0E94207BC61AD70AA818E9
:104A6000B9081695A11AB1088BE895E0B701A6011F
:104A7000950100E010E00E94DC4CC7010E942D78F7
:104A800026960FB6F894DEBF0FBECDBFCF91DF9153
:104A90001F910F91FF90EF90DF90CF90BF90AF905C
:104AA0009F908F907F906F905F904F903F902F904E
:104AB00008958F929F92AF92BF92CF92DF92EF9222
:104AC000FF920F931F93DF93CF93CDB7DEB7E69797
:104AD0000FB6F894DEBF0FBECDBF7C018B018BE813
:104AE00095E00E94E3410115110509F052C08BE8E1
:104AF00095E06EE772E00E9449498E010F5F1F4FFB
:104B0000C8016BEB72E00E947077C801B7010E9488
:104B10002077BC0145E2842E912C8C0E9D1EC40191
:104B20000E941978C8010E94337833E1A32EB12C7A
:104B3000AC0EBD1EC50161ED72E00E9457778BE897
:104B400095E04FEF5FEF6FEF7FEF0E9466438BE8DA
:104B500095E06FEF4FEF2FEF0E94354327E0E22EF5
:104B6000F12CEC0EFD1EC701B4010E9419788BE8F0
:104B700095E0B70144E150E020E530E000E010E0CE
:104B80000E94DC4CC7010E942D789DE0C92ED12CDB
:104B900072C00130110509F08AC08E01075E1F4FF7
:104BA000C80167ED72E00E947077C801B7010E94EA
:104BB0002077BC0183E1882E912C8C0E9D1EC401B0
:104BC0000E941978C8010E9433788E01015E1F4F40
:104BD000C801B4010E942378C8016DED72E00E9403
:104BE00004776091B3047091B4040E94F37668EE88
:104BF00072E00E940477BC01C4010E940278C801DF
:104C00000E943378B5E2AB2EB12CAC0EBD1EC501AF
:104C10006FEE72E00E9457778BE895E06EE772E0E6
:104C20000E9449498BE895E04FEF5FEF6FEF7FEF10
:104C30000E9466438BE895E06FEF4FEF2FEF0E94E5
:104C40003543ABE2EA2EF12CEC0EFD1EC701B40198
:104C50000E9419788BE895E0B70144E150E020E527
:104C600030E000E010E00E94DC4CC7010E942D788B
:104C7000F1E3CF2ED12CCC0EDD1EC601B5010E9472
:104C8000197880E590E06EE670E040EF50E020EAB1
:104C900030E08601EE24FF240E946924C6010E94B0
:104CA0002D78C5010E942D78C4010E942D78E696CA
:104CB0000FB6F894DEBF0FBECDBFCF91DF911F912D
:104CC0000F91FF90EF90DF90CF90BF90AF909F90AB
:104CD0008F900895EF92FF920F931F93DF93CF93DE
:104CE000CDB7DEB762970FB6F894DEBF0FBECDBF6B
:104CF0000E9453218091AF049091B004E090B104E0
:104D0000F090B2048E159F0509F466C02FE6E216F6
:104D1000F104D9F49093AE048093AD048E010F5F3B
:104D20001F4FC80167EF75E00E94FD17C80161E0E1
:104D300070E00E945925C8010E942D786091B3044B
:104D40007091B40487EF95E03DC020E7E216F104CE
:104D5000D9F49093AE048093AD048E01095F1F4F88
:104D6000C80169E276E00E94FD17C80161E070E0C9
:104D70000E945925C8010E942D786091B30470915A
:104D8000B40489E296E01EC021E7E216F10401F5C1
:104D90009093AE048093AD048E01035F1F4FC80152
:104DA0006BE576E00E94FD17C80161E070E00E94AB
:104DB0005925C8010E942D786091B3047091B40404
:104DC0008BE596E00E940915F092B004E092AF04E2
:104DD0001092B4041092B30462960FB6F894DEBF3A
:104DE0000FBECDBFCF91DF911F910F91FF90EF903C
:104DF0000895AF92BF92CF92DF92EF92FF920F93FE
:104E00001F93DF93CF93CDB7DEB7CE54D0400FB60C
:104E1000F894DEBF0FBECDBF8C013BE8A32E35E07A
:104E2000B32EC5010E94E341C5016EE772E00E9406
:104E30004949C50160E040E020E00E944D43C501C2
:104E40006FEF4FEF2FEF0E9435437E010894E11C76
:104E5000F11CC701B8010E941978C501B7014AE0E9
:104E600050E029E130E000E010E00E94DC4CC70196
:104E70000E942D7827E0C22ED12CCC0EDD1EC6015B
:104E800067EF72E00E9457778AE090E062E370E09B
:104E90004CE350E024E630E08601EE24FF240E943B
:104EA0006924C6010E942D789DE0C92ED12CCC0E1C
:104EB000DD1EC60169EF72E00E94577786E490E03C
:104EC00062E370E048E750E024E630E086010E94AB
:104ED0006924C6010E942D7883E1C82ED12CCC0E06
:104EE000DD1EC6016BEF72E00E94577782E890E00A
:104EF00062E370E044EB50E024E630E086010E947B
:104F00006924C6010E942D7809E1C02ED12CCC0E57
:104F1000DD1EC6016DEF72E00E9457778EEB90E0C8
:104F200062E370E040EF50E024E630E086010E944A
:104F30006924C6010E942D781FE1C12ED12CCC0E10
:104F4000DD1EC6016FEF72E00E9457778AEF90E096
:104F500062E370E04CE251E024E630E086010E941A
:104F60006924C6010E942D78B5E2CB2ED12CCC0E3F
:104F7000DD1EC60161E073E00E9457778AE090E091
:104F80006EE670E04CE350E020EA30E086010E94DB
:104F90006924C6010E942D78ABE2CA2ED12CCC0E1A
:104FA000DD1EC60163E073E00E94577786E490E05F
:104FB0006EE670E048E750E020EA30E086010E94AB
:104FC0006924C6010E942D78F1E3CF2ED12CCC0E9E
:104FD000DD1EC60165E073E00E94577782E890E02D
:104FE0006EE670E044EB50E020EA30E086010E947B
:104FF0006924C6010E942D78E7E3CE2ED12CCC0E79
:10500000DD1EC60167E073E00E9457778EEB90E0EB
:105010006EE670E040EF50E020EA30E086010E944A
:105020006924C6010E942D787DE3C72ED12CCC0EB9
:10503000DD1EC60166E172E00E9457778AEF90E0BC
:105040006EE670E04CE251E020EA30E086010E941A
:105050006924C6010E942D7863E4C62ED12CCC0EA3
:10506000DD1EC60169E073E00E9457778AE090E098
:105070006AEA70E046E950E02CED30E086010E94DB
:105080006924C6010E942D7859E4C52ED12CCC0E7E
:10509000DD1EC6016FE073E00E94577780EA90E062
:1050A0006AEA70E04CE251E02CED30E086010E94AB
:1050B0006924C6010E942D78C50160E040E020E02F
:1050C0000E944D430E9424740E94901CC25BDF4FDB
:1050D0000FB6F894DEBF0FBECDBFCF91DF911F9109
:1050E0000F91FF90EF90DF90CF90BF90AF90089519
:1050F0008F929F92AF92BF92CF92DF92EF92FF92E8
:105100000F931F93DF93CF93CDB7DEB7CA55D0402F
:105110000FB6F894DEBF0FBECDBF5B016C018A01F4
:1051200049018BE895E00E94E3418AE090E090938A
:10513000B0048093AF047E010894E11CF11CC70108
:10514000B8010E9419788E01095F1F4FC801B40190
:105150000E941978C601B501A70198010E94242078
:10516000C8010E942D78C7010E942D78FDE0CF2E46
:10517000D12CCC0EDD1EC60163E173E00E9457778F
:105180008AE090E068E270E04CE350E02AE530E02D
:105190008601E1E0EE2EF12C0E946924C6010E94F6
:1051A0002D7893E1C92ED12CCC0EDD1EC60169E10C
:1051B00073E00E94577786E490E068E270E048E789
:1051C00050E02AE530E086010E946924C6010E9471
:1051D0002D7889E1C82ED12CCC0EDD1EC60160E2EF
:1051E00073E00E94577782E890E068E270E044EB59
:1051F00050E02AE530E086010E946924C6010E9441
:105200002D780FE1C02ED12CCC0EDD1EC60167E239
:1052100073E00E9457778AE090E064E670E04CE328
:1052200050E026E930E086010E946924C6010E9410
:105230002D7815E2C12ED12CCC0EDD1EC6016DE2FB
:1052400073E00E94577786E490E064E670E048E7F8
:1052500050E026E930E086010E946924C6010E94E0
:105260002D78BBE2CB2ED12CCC0EDD1EC60164E323
:1052700073E00E94577782E890E064E670E044EBC8
:1052800050E026E930E086010E946924C6010E94B0
:105290002D78A1E3CA2ED12CCC0EDD1EC6016BE306
:1052A00073E00E9457778EEB90E064E670E040EF89
:1052B00050E026E930E086010E946924C6010E9480
:1052C0002D78F7E3CF2ED12CCC0EDD1EC60163E482
:1052D00073E00E9457778AE090E060EA70E04CE368
:1052E00050E022ED30E086010E946924C6010E9450
:1052F0002D78EDE3CE2ED12CCC0EDD1EC60169E457
:1053000073E00E94577786E490E060EA70E048E737
:1053100050E022ED30E086010E946924C6010E941F
:105320002D7873E4C72ED12CCC0EDD1EC60160E5AE
:1053300073E00E94577782E890E060EA70E044EB07
:1053400050E022ED30E086010E946924C6010E94EF
:105350002D7869E4C62ED12CCC0EDD1EC60167E582
:1053600073E00E9457778EEB90E060EA70E040EFC8
:1053700050E022ED30E086010E946924C6010E94BF
:105380002D785FE4C52ED12CCC0EDD1EC6016FE555
:1053900073E00E94577784E091E068E270E046E3B2
:1053A00051E024E630E086010E946924C6010E9493
:1053B0002D7845E5C42ED12CCC0EDD1EC60164E649
:1053C00073E00E94577784E091E06CE870E046E378
:1053D00051E022ED30E086010E946924C6010E945E
:1053E0002D780E9424740E94901CC65ADF4F0FB67D
:1053F000F894DEBF0FBECDBFCF91DF911F910F910B
:10540000FF90EF90DF90CF90BF90AF909F908F90E4
:105410000895EF92FF920F931F93DF93CF93CDB731
:10542000DEB76E970FB6F894DEBF0FBECDBF0E94F9
:1054300021218091AF049091B004E090B104F090EC
:10544000B2048E159F0509F475C029E7E216F10430
:10545000A9F49093AE048093AD048E010F5F1F4FAB
:10546000C80162EA73E00E945777C8010E94F926DA
:10547000C8010E942D7887EF95E018C02AE7E21650
:10548000F104D9F49093AE048093AD048E01095FCA
:105490001F4FC80168EB73E00E945777C8010E9454
:1054A000F926C8010E942D7889E296E00E94D5175E
:1054B000F092B004E092AF043DC02BE7E216F10495
:1054C000A9F49093AE048093AD048E01035F1F4F47
:1054D000C8016FEC73E00E945777C8010E94F9265B
:1054E000C8010E942D788BE596E0E0CF2AE0E21615
:1054F000F10401F59093AE048093AD04B3E1EB2E7B
:10550000F12CEC0EFD1EC7010E94011B8E01075EEF
:105510001F4FC8010E94181A60E070E080E090E020
:10552000A70198010E947828C8010E942D78C70120
:105530000E942D786E960FB6F894DEBF0FBECDBFD9
:10554000CF91DF911F910F91FF90EF9008958F926F
:105550009F92AF92BF92CF92DF92EF92FF920F9302
:105560001F93DF93CF93CDB7DEB7A4970FB6F89410
:10557000DEBF0FBECDBF5B016C018A0149018BE824
:1055800095E00E94E34181E090E09093B004809325
:10559000AF047E010894E11CF11CC701B8010E9410
:1055A00019788E01095F1F4FC801B4010E94197854
:1055B000C601B501A70198010E942420C8010E94DC
:1055C0002D78C7010E942D78FDE0CF2ED12CCC0E76
:1055D000DD1EC60166EE73E00E9457778AE090E018
:1055E00068E270E04CE350E02AE530E08601E1E05B
:1055F000EE2EF12C0E946924C6010E942D7883E1D1
:10560000C82ED12CCC0EDD1EC6016CEE73E00E94BC
:10561000577786E490E068E270E048E750E02AE5DA
:1056200030E086010E946924C6010E942D7809E1BC
:10563000C02ED12CCC0EDD1EC60161EF73E00E949E
:10564000577782E890E068E270E044EB50E02AE5AA
:1056500030E086010E946924C6010E942D781FE176
:10566000C12ED12CCC0EDD1EC60164E673E00E9473
:10567000577784E091E068E270E046E351E024E689
:1056800030E086010E946924C6010E942D780E94A4
:1056900024740E94901CA4960FB6F894DEBF0FBE2F
:1056A000CDBFCF91DF911F910F91FF90EF90DF90D1
:1056B000CF90BF90AF909F908F9008958F929F92C0
:1056C000AF92BF92CF92DF92EF92FF920F931F9310
:1056D000DF93CF93CDB7DEB72C970FB6F894DEBF2C
:1056E0000FBECDBF0E9414248091AF049091B004EE
:1056F0008090B1049090B2048815990559F121E089
:105700008216910439F59093AE048093AD0485E739
:1057100095E00E94E6315B016C017E010894E11C7A
:10572000F11CC7010E94011B8E01095F1F4FC801B8
:105730000E94181AC601B501A70198010E94A72A64
:10574000C8010E942D78C7010E942D789092B00464
:105750008092AF042C960FB6F894DEBF0FBECDBF7B
:10576000CF91DF911F910F91FF90EF90DF90CF903D
:10577000BF90AF909F908F9008958F929F92AF921D
:10578000BF92CF92DF92EF92FF920F931F93DF931E
:10579000CF93CDB7DEB7E6970FB6F894DEBF0FBE56
:1057A000CDBF5B016C018A0149018BE895E00E9445
:1057B000E3411092B0041092AF047E010894E11C02
:1057C000F11CC701B8010E9419788E01095F1F4FB3
:1057D000C801B4010E941978C601B501A70198015A
:1057E0000E942420C8010E942D78C7010E942D78B4
:1057F0003DE0832E912C8C0E9D1E07EF15E0C40119
:10580000B8010E94FD1723E1A22EB12CAC0EBD1EE3
:10581000C501B8010E945115C8010E94A8146C016D
:1058200085E090E063E270E048E250E026E430E09A
:10583000840175010E945E1FC5010E942D78C4017C
:105840000E942D7899E1892E912C8C0E9D1E09E2E3
:1058500016E0C401B8010E94FD178FE1A82EB12CFB
:10586000AC0EBD1EC501B8010E945115C8010E94B1
:10587000A8146C0185E090E065E570E048E250E036
:1058800028E730E0840175010E945E1FC5010E9477
:105890002D78C4010E942D7815E2812E912C8C0E5A
:1058A0009D1E0BE516E0C401B8010E94FD17BBE286
:1058B000AB2EB12CAC0EBD1EC501B8010E94511516
:1058C000C8010E94A8146C0185E090E067E870E0D0
:1058D00048E250E02AEA30E0840175010E945E1F30
:1058E000C5010E942D78C4010E942D78A1E3CA2E23
:1058F000D12CCC0EDD1EC60166EF73E00E945777F7
:1059000080EF90E06CE370E046E351E02EE630E09B
:105910008601EE24FF240E946924C6010E942D788E
:105920000E9424740E94901CE6960FB6F894DEBF85
:105930000FBECDBFCF91DF911F910F91FF90EF90E0
:10594000DF90CF90BF90AF909F908F9008958F92EF
:105950009F92AF92BF92CF92DF92EF92FF920F93FE
:105960001F93DF93CF93CDB7DEB7EC970FB6F894C4
:10597000DEBF0FBECDBF0E94E0228091AF049091A8
:10598000B0048090B1049090B2048815990509F490
:1059900016C12FE68216910459F49093AE048093B9
:1059A000AD048E010F5F1F4FC80167EF75E00EC099
:1059B00020E782169104C9F49093AE048093AD045D
:1059C0008E01095F1F4FC80169E276E00E94FD1752
:1059D000C80160E070E00E945925C8010E942D783E
:1059E0009092B0048092AF04EAC021E7821691043D
:1059F00059F49093AE048093AD048E01035F1F4F62
:105A0000C8016BE576E0E2CF23E88216910459F4F1
:105A10009093AE048093AD049092B0048092AF0452
:105A200087EF95E01DC024E88216910459F4909305
:105A3000AE048093AD049092B0048092AF0489E2EA
:105A400096E00EC025E882169104D9F49093AE0436
:105A50008093AD049092B0048092AF048BE596E001
:105A60000E94AD178091AF049091B0049093AE0462
:105A70008093AD048AE090E09093B2048093B104E7
:105A80003BC02DE88216910459F49093AE048093A4
:105A9000AD048E010D5E1F4FC8016BEF73E00EC0A9
:105AA0002EE88216910481F49093AE048093AD04A5
:105AB0008E01075E1F4FC80164E174E00E945777B2
:105AC000C8010E94F92689CF2FE882169104C9F4F3
:105AD0009093AE048093AD048E01015E1F4FC80108
