:100000000C94680E0C94950E0C94950E0C94950E11
:100010000C94950E0C94950E0C94950E0C94950ED4
:100020000C94950E0C94950E0C94950E0C94950EC4
:100030000C94950E0C94950E0C94950E0C94950EB4
:100040000C94950E0C94950E0C94950E0C94950EA4
:100050000C94950E0C94950E0C94950E0C94865A57
:100060000C94950E0C94950E0C94950E0C94950E84
:100070000C94950E0C94950E0C94950E0C94950E74
:100080000C94950E0C94950E0C94950E0C94950E64
:100090000C94950E0C94950E0C94950E0C94FD21D9
:1000A0000C94950E0C94950E0C94950E0C94950E44
:1000B0000C94950E0C94950E0C94950E0C94950E34
:1000C0000C94950E0C94950E0C94950E0C94950E24
:1000D0000C94950E0C94950E0C94950E0C94950E14
:1000E0000C94950E812AA72AD82A6C2B6C2B6C2B8A
:1000F000F22AC12B812AC12B1C2BC12B2F2B2F2B7A
:10010000562B562BD82A6C2B6C2BD82A2F2BC12B75
:100110006C2B892BC12BC12BC12BC12BC12BAA2B23
:10012000C12B2E38CA39E73ADB3B183D183DF33E68
:100130005A4069456741C1422E43FB460448B549D0
:10014000B549E73AB84AB84AE73AD748134CAD3D03
:10015000DC4CA74DAD4FD44E6650AD510D532253DC
:1001600005A84CCDB2D44EB93836A9020C50B9917D
:100170008688083CA6AAAA2ABE000000803F005E2E
:10018000BCE2613FDD83C29C7E20A3FD1F419DC375
:10019000217FFCA2401E5F01E3BD3E6082DC237D27
:1001A0009FC1421CFEA0E1BF5D0380DE3C62BEE059
:1001B000025CDF81633D7C22C09E1D43A1FF461887
:1001C000FAA427799BC584DA3866E5BB5907DB8535
:1001D0006739BAE406581947A5FB7826C49A653BE7
:1001E000D987045AB8E6A7F91B45C6987A24F8A619
:1001F000441A99C7257B3A6486D85B05E7B98CD247
:10020000306EEDB3510F4E10F2AC2F7193CD114FF4
:10021000ADF3702ECC92D38D6F31B2EC0E50AFF1A6
:10022000134DCE90722C6D33D18F0C52B0EE326CD8
:100230008ED0530DEFB1F0AE4C1291CF2D73CA9406
:100240007628ABF517490856B4EA6937D58B5709B4
:10025000EBB536688AD495CB2977F4AA4816E9B766
:10026000550B88D6346A2B7597C94A14F6A8742A98
:10027000C896154BA9F7B6E80A54D7896B35080C10
:10028000205F0000000000000000000000000000EF
:1002900020202020202000200000002850500000B6
:1002A00000000000000000002828FC2850FC5050EE
:1002B0000000002078A8A0603028A8F020000000EE
:1002C00048A8B0502834544800000000205050780E
:1002D000A8A8906C000000404080000000000000D2
:1002E0000000000408101010101010080400004056
:1002F0002010101010101020400000000020A870E6
:1003000070A8200000000000202020F820202000FD
:1003100000000000000000000000004040800000DD
:10032000000000F8000000000000000000000000D5
:100330000000004000000008101010202040404045
:10034000800000007088888888888870000000001D
:10035000206020202020207000000000708888107D
:10036000204080F80000000070880830080888707D
:10037000000000001030505090781018000000006D
:10038000F88080F00808887000000000709080F00D
:100390008888887000000000F8901020202020201D
:1003A0000000000070888870888888700000000055
:1003B00070888888780848700000000000002000DD
:1003C00000000020000000000000002000000020CD
:1003D0002000000408102040201008040000000045
:1003E0000000F80000F800000000004020100804A1
:1003F0000810204000000000708888102020002095
:1004000000000000708898A8A8B88078000000005C
:1004100020203050507848CC00000000F048487050
:10042000484848F00000000078888080808088700C
:1004300000000000F0484848484848F0000000002C
:10044000F8485070504048F800000000F8485070DC
:10045000504040E000000000384880809C884830D0
:1004600000000000CC484878484848CC0000000014
:10047000F8202020202020F8000000007C10101020
:1004800010101090E0000000EC485060505048EC14
:1004900000000000E0404040404044FC00000000FC
:1004A000D8D8D8D8A8A8A8A800000000DC48686858
:1004B000585848E80000000070888888888888704C
:1004C00000000000F0484870404040E0000000009C
:1004D0007088888888E8987018000000F048487094
:1004E000504848EC0000000078888060100888F0D0
:1004F00000000000F8A8202020202070000000004C
:10050000CC4848484848483000000000CC48485093
:100510005030202000000000A8A8A8705050505073
:1005200000000000D8505020205050D8000000009B
:10053000D85050202020207000000000F89010209B
:10054000204048F8000000382020202020202020D3
:1005500038000040404020201010100800000070BB
:10056000101010101010101070000020500000002B
:10057000000000000000000000000000000000007B
:1005800000FC00200000000000000000000000004F
:10059000000000304838483C00000000C040407077
:1005A00048484870000000000000003848404038CB
:1005B00000000000180808384848483C00000000C7
:1005C0000000003048784038000000001C202078EF
:1005D00020202078000000000000003C48304078D7
:1005E00044380000C0404070484848EC000000001B
:1005F000200000602020207000000000100000306B
:100600001010101010E00000C040405C507048EC2A
:1006100000000000E0202020202020F80000000042
:10062000000000F0A8A8A8A800000000000000F04A
:10063000484848EC000000000000003048484830BE
:1006400000000000000000F04848487040E0000052
:100650000000003848484838081C0000000000D856
:10066000604040E000000000000000784030087862
:100670000000000000202070202020180000000052
:10068000000000D84848483C00000000000000EC92
:100690004850302000000000000000A8A870505012
:1006A00000000000000000D8502050D800000000DA
:1006B000000000EC4850302020C00000000000780E
:1006C00010202078000000181010102010101010BA
:1006D00018001010101010101010101010100060E2
:1006E0002020201020202020600040A418000000BE
:1006F0000000000000001010205F0000000000005B
:1007000000000000000000000000000000000000E9
:1007100000000000000000000000000000000700D2
:100720000F800F800F800F800F80070007000000F0
:100730000000070007000700000000000E380E3818
:100740000E380E38063000000000000000000000E7
:100750000000000000000000000000000C300C3021
:100760000C307FFE7FFE0C300C300C300C307FFEE6
:100770007FFE0C300C300C300000000002400240C4
:100780000FF81FF81A401A401FF00FF802580258CD
:100790001FF81FF0024002400000000000000000AF
:1007A0000E100E300E7000E001C0038007000E70C6
:1007B0000C700870000000000000000000000F0036
:1007C0001980198019800F000F080F9819F818F078
:1007D00018E019F00F98000000000000000007006A
:1007E000070007000E0000000000000000000000ED
:1007F000000000000000000000000000000000F009
:1008000001C0038007000E000E000E000E0007005E
:10081000038001C000F000000000000000000F0095
:10082000038001C000E0007000700070007000E004
:1008300001C003800F0000000000000000000180E4
:100840001188099007E007E03FFC3FFC07E007E064
:1008500009901188018000000000000000000000E5
:1008600000000180018001800FF00FF00180018005
:1008700001800000000000000000000000000000F7
:100880000000000000000000000000000000000068
:100890000700070007000E00000000000000000035
:1008A00000000000000000001FF81FF8000000001A
:1008B0000000000000000000000000000000000038
:1008C0000000000000000000000000000000000028
:1008D0000700070007000000000000000000000201
:1008E0000006000E001C0038007000E001C003800C
:1008F00007000E001C0000000000000000000FF0C8
:100900001C381C781CF81CF81DB81DB81F381F387F
:100910001E381C380FF000000000000000000180AD
:10092000018003801F801F80038003800380038079
:10093000038003801FF000000000000000000FE0B3
:100940001C701C380038007000E001C003800700F4
:100950000E381C381FF800000000000000000FE0F7
:100960001C701C380038007003C003C000700038D1
:100970001C381C700FE0000000000000000000E0C8
:1009800001E003E006E00CE018E01FF81FF800E0CB
:1009900000E000E003F800000000000000001FF885
:1009A0001C001C001C001C001FE01FF00078003819
:1009B0001C381C700FE0000000000000000003E085
:1009C00007000E001C001C001FF01FF81C381C380C
:1009D0001C381C380FF000000000000000001FFC55
:1009E0001C1C1C1C1C1C001C0038007000E001C0FA
:1009F00003800380038000000000000000000FF06F
:100A00001C381C381C381F3807E007E01CF81C385D
:100A10001C381C380FF000000000000000000FF030
:100A20001C381C381C381C381FF80FF800380038E8
:100A3000007000E007C0000000000000000000009F
:100A40000000038003800380000000000380038017
:100A50000380000000000000000000000000000013
:100A600000000380038003800000000003800380F7
:100A7000038007000000000000000000007000E09C
:100A800001C0038007000E001C001C000E000700C0
:100A9000038001C000E000700000000000000000C2
:100AA000000000003FFC3FFC000000003FFC3FFC5A
:100AB0000000000000000000000000001C000E000C
:100AC0000700038001C000E00070007000E001C07A
:100AD000038007000E001C000000000003C00FF0A0
:100AE0001E7818380038007000E001C001C0000016
:100AF000000001C001C001C0000000000FF81C1C74
:100B00001C1C1C1C1C1C1CFC1CFC1CFC1CFC1C00C1
:100B10001C001C001FF007F800000000000003C0CC
:100B200007E00E701C381C381C381C381FF81C38A5
:100B30001C381C381C3800000000000000001FF0AA
:100B40000E380E380E380E380FF00FF00E380E3803
:100B50000E380E381FF0000000000000000007F003
:100B60000E381C381C001C001C001C001C001C0043
:100B70001C380E3807F000000000000000001FE0E5
:100B80000E700E380E380E380E380E380E380E38FD
:100B90000E380E701FE000000000000000001FF87B
:100BA0000E180E080E000E300FF00FF00E300E0073
:100BB0000E080E181FF800000000000000001FF8CB
:100BC0000E180E080E000E300FF00FF00E300E0053
:100BD0000E000E001F00000000000000000007F0E3
:100BE0000E381C381C381C001C001C001CF81C385B
:100BF0001C380E3807F800000000000000001C70D0
:100C00001C701C701C701C701FF01FF01C701C707E
:100C10001C701C701C7000000000000000000FE041
:100C200003800380038003800380038003800380AC
:100C3000038003800FE0000000000000000001FCC2
:100C400000700070007000700070007038703870B4
:100C5000387038700FE000000000000000001E38FF
:100C60000E380E700EE00FC00F800F800FC00EE028
:100C70000E700E381E3800000000000000001F003B
:100C80000E000E000E000E000E000E000E000E08EC
:100C90000E180E381FF800000000000000001C1C99
:100CA0001E3C1F7C1FFC1FFC1DDC1C9C1C1C1C1CF8
:100CB0001C1C1C1C1C1C00000000000000001C1C54
:100CC0001C1C1E1C1F1C1F9C1DDC1CFC1C7C1C3CBB
:100CD0001C1C1C1C1C1C000000000000000003E089
:100CE00007F00E381C1C1C1C1C1C1C1C1C1C1C1C77
:100CF0000E3807F003E000000000000000001FF0C5
:100D00000E380E380E380E380FF00FF00E000E00B1
:100D10000E000E001F00000000000000000003E0B5
:100D20000F780E381C1C1C1C1C1C1C1C1C7C1CFC66
:100D30000FF80FF8003800FC0000000000001FF062
:100D40000E380E380E380E380FF00FF00E700E38C9
:100D50000E380E381E3800000000000000000FF0B2
:100D60001C381C381C381C000FE007F000381C38F9
:100D70001C381C380FF000000000000000001FFCB1
:100D800019CC11C401C001C001C001C001C001C023
:100D900001C001C007F000000000000000001C704E
:100DA0001C701C701C701C701C701C701C701C70E3
:100DB0001C701C700FE000000000000000001C70A0
:100DC0001C701C701C701C701C701C701C701C70C3
:100DD0000EE007C0038000000000000000001C1CA3
:100DE0001C1C1C1C1C1C1C1C1C9C1C9C1C9C0FF8F4
:100DF0000FF80770077000000000000000001C7072
:100E00001C701C700EE007C00380038007C00EE05A
:100E10001C701C701C7000000000000000001C70A2
:100E20001C701C701C701C700EE007C003800380D7
:100E3000038003800FE000000000000000001FF8A6
:100E40001C381838107000E001C0038007000E083D
:100E50001C181C381FF8000000000000000007F0FC
:100E6000070007000700070007000700070007004A
:100E70000700070007F0000000000000000010005D
:100E800018001C000E000700038001C000E0007085
:100E90000038001C0007000000000000000007F000
:100EA00000700070007000700070007000700070C2
:100EB0000070007007F0000000000000018003C017
:100EC00007E00E701C380000000000000000000069
:100ED0000000000000000000000000000000000012
:100EE0000000000000000000000000000000000002
:100EF0000000000000007FFF7FFF000000001C00DA
:100F00001C000700070000000000000000000000B7
:100F100000000000000000000000000000000000D1
:100F20000000000000000FE0007000700FF01C7067
:100F30001C701C700FD800000000000000001E0094
:100F40000E000E000E000FF00E380E380E380E3860
:100F50000E380E381BF000000000000000000000FA
:100F60000000000000000FE01C701C701C001C0042
:100F70001C701C700FE0000000000000000000F872
:100F80000070007000700FF01C701C701C701C70E2
:100F90001C701C700FD80000000000000000000052
:100FA0000000000000000FE01C701C701FF01C000F
:100FB0001C701C700FE0000000000000000003E047
:100FC00007700770070007001FE01FE00700070019
:100FD000070007001FC00000000000000000000024
:100FE0000000000000000FD81C701C701C701C70EA
:100FF0000FF007F000701C700FE0000000001E00F2
:101000000E000E000E000EF00F380F380E380E389E
:101010000E380E381E38000000000000000001C02D
:1010200001C001C000000FC001C001C001C001C06B
:1010300001C001C00FF800000000000000000070B7
:1010400000700070000003F000700070007000700D
:10105000007000701C700CF007E0000000001E0023
:101060000E000E000E000E380E700EE00FC00EE0E7
:101070000E700E381E3800000000000000000FC087
:1010800001C001C001C001C001C001C001C001C058
:1010900001C001C00FF800000000000000000000C7
:1010A0000000000000001FF81C9C1C9C1C9C1C9C49
:1010B0001C9C1C9C1C9C0000000000000000000008
:1010C0000000000000001FE01C701C701C701C70F1
:1010D0001C701C701C70000000000000000000006C
:1010E0000000000000000FE01C701C701C701C70E1
:1010F0001C701C700FE000000000000000000000E9
:101100000000000000001BF00E380E380E380E38BC
:101110000E380FF00E000E001F000000000000004F
:101120000000000000001FB038E038E038E038E090
:1011300038E01FE000E000E001F0000000000000E7
:101140000000000000001EF00FF80F380E000E0027
:101150000E000E001F000000000000000000000054
:101160000000000000000FE01C301C300F8003E086
:10117000187018700FE00000000000000000000070
:101180000100030007001FF0070007000700070029
:101190000770077003E0000000000000000000007E
:1011A0000000000000001C701C701C701C701C7083
:1011B0001C701C700FD80000000000000000000030
:1011C0000000000000001C701C701C701C701C7063
:1011D0000EE007C0038000000000000000000000D7
:1011E0000000000000001C1C1C1C1C1C1C9C1C9CE7
:1011F0000FF80770077000000000000000000000FA
:101200000000000000001CE01CE00FC00780078009
:101210000FC01CE01CE00000000000000000000007
:101220000000000000000E380E380E380E380E3860
:1012300007F003E000E001C01F8000000000000094
:101240000000000000001FE018E011C0038007004C
:101250000E201C601FE0000000000000000001F8EC
:1012600003800380038007001C001C00070003802C
:101270000380038001F800000000000001C001C0ED
:1012800001C001C001C001C001C001C001C001C056
:1012900001C001C001C001C00000000000001F80AB
:1012A00001C001C001C000E00038003800E001C00A
:1012B00001C001C01F8000000000000000001F1CD2
:1012C0003B9C39DC38F80000000000000000000002
:1012D000000000000000000000002032300A000082
:1012E00000000000000000FFFE0001FFFF0003FF00
:1012F000FF8001FFFF600CFFFEF01E0001F83F00C1
:1013000001F83F0001F83F0001F83F0001F83F00FD
:1013100001F83F0001F83F0001F83F0001F83F00ED
:1013200001F83F0001F83F0001F83F0001F83F00DD
:1013300001F83E0000783800001820000008000086
:10134000000020000000380000183E0000783F0038
:1013500001F83F0001F83F0001F83F0001F83F00AD
:1013600001F83F0001F83F0001F83F0001F83F009D
:1013700001F83F0001F83F0001F83F0001F83F008D
:1013800001F83F0001F81E0000F00CFFFE6001FFB5
:10139000FF0003FFFF8001FFFF0000FFFE000000D1
:1013A000000000000000000000000000000000003D
:1013B00000000000000000000000000000600000CD
:1013C00000F0000001F8000001F8000001F8000042
:1013D00001F8000001F8000001F8000001F8000029
:1013E00001F8000001F8000001F8000001F8000019
:1013F00001F8000001F8000001F80000007800008A
:1014000000180000000800000000000000000000BC
:10141000001800000078000001F8000001F800004A
:1014200001F8000001F8000001F8000001F80000D8
:1014300001F8000001F8000001F8000001F80000C8
:1014400001F8000001F8000001F8000001F80000B8
:1014500000F000000060000000000000000000003C
:10146000000000000000000000000000000000007C
:1014700000000000000000FFFE0001FFFF0003FF6E
:10148000FF8001FFFF6000FFFEF0000001F8000098
:1014900001F8000001F8000001F8000001F8000068
:1014A00001F8000001F8000001F8000001F8000058
:1014B00001F8000001F8000001F8000001F8000048
:1014C00001F80000007801FFFE1803FFFF880FFFFE
:1014D000FFE027FFFFC039FFFF003E0000003F0094
:1014E00000003F0000003F0000003F0000003F0000
:1014F00000003F0000003F0000003F0000003F00F0
:1015000000003F0000003F0000003F0000003F00DF
:1015100000003F0000001E0000000CFFFE0001FF65
:10152000FF0003FFFF8001FFFF0000FFFE0000003F
:10153000000000000000000000000000000000FFAC
:10154000FE0001FFFF0003FFFF8001FFFF6000FFBF
:10155000FEF0000001F8000001F8000001F80000B2
:1015600001F8000001F8000001F8000001F8000097
:1015700001F8000001F8000001F8000001F8000087
:1015800001F8000001F8000001F80000007801FFF8
:10159000FE1803FFFF880FFFFFE007FFFFC001FFFA
:1015A000FF1800000078000001F8000001F80000BA
:1015B00001F8000001F8000001F8000001F8000047
:1015C00001F8000001F8000001F8000001F8000037
:1015D00001F8000001F8000001F8000001F8000027
:1015E00000F000FFFE6001FFFF0003FFFF8001FF2E
:1015F000FF0000FFFE0000000000000000000000EF
:1016000000000000000000000000000000000000DA
:101610000000000000600C0000F01E0001F83F0018
:1016200001F83F0001F83F0001F83F0001F83F00DA
:1016300001F83F0001F83F0001F83F0001F83F00CA
:1016400001F83F0001F83F0001F83F0001F83F00BA
:1016500001F83E00007839FFFE1823FFFF880FFFD6
:10166000FFE007FFFFC001FFFF1800000078000047
:1016700001F8000001F8000001F8000001F8000086
:1016800001F8000001F8000001F8000001F8000076
:1016900001F8000001F8000001F8000001F8000066
:1016A00001F8000001F8000000F0000000600000F8
:1016B000000000000000000000000000000000002A
:1016C000000000000000000000000000000000FF1B
:1016D000FE0001FFFF0003FFFF8001FFFF000CFF82
:1016E000FE001E0000003F0000003F0000003F0021
:1016F00000003F0000003F0000003F0000003F00EE
:1017000000003F0000003F0000003F0000003F00DD
:1017100000003F0000003F0000003E00000039FFD5
:10172000FE0023FFFF800FFFFFE007FFFFC001FF68
:10173000FF1800000078000001F8000001F8000028
:1017400001F8000001F8000001F8000001F80000B5
:1017500001F8000001F8000001F8000001F80000A5
:1017600001F8000001F8000001F8000001F8000095
:1017700000F000FFFE6001FFFF0003FFFF8001FF9C
:10178000FF0000FFFE00000000000000000000005D
:1017900000000000000000FFFE0001FFFF0003FF4B
:1017A000FF8001FFFF000CFFFE001E0000003F0055
:1017B00000003F0000003F0000003F0000003F002D
:1017C00000003F0000003F0000003F0000003F001D
:1017D00000003F0000003F0000003F0000003F000D
:1017E00000003E00000039FFFE0023FFFF800FFFD6
:1017F000FFE027FFFFC039FFFF183E0000783F00E1
:1018000001F83F0001F83F0001F83F0001F83F00F8
:1018100001F83F0001F83F0001F83F0001F83F00E8
:1018200001F83F0001F83F0001F83F0001F83F00D8
:1018300001F83F0001F81E0000F00CFFFE6001FF00
:10184000FF0003FFFF8001FFFF0000FFFE0000001C
:10185000000000000000000000000000000000FF89
:10186000FE0001FFFF0003FFFF8001FFFF6000FF9C
:10187000FEF0000001F8000001F8000001F800008F
:1018800001F8000001F8000001F8000001F8000074
:1018900001F8000001F8000001F8000001F8000064
:1018A00001F8000001F8000001F8000000780000D5
:1018B0000018000000080000000000000000000008
:1018C000001800000078000001F8000001F8000096
:1018D00001F8000001F8000001F8000001F8000024
:1018E00001F8000001F8000001F8000001F8000014
:1018F00001F8000001F8000001F8000001F8000004
:1019000000F0000000600000000000000000000087
:1019100000000000000000000000000000000000C7
:1019200000000000000000FFFE0001FFFF0003FFB9
:10193000FF8001FFFF600CFFFEF01E0001F83F007A
:1019400001F83F0001F83F0001F83F0001F83F00B7
:1019500001F83F0001F83F0001F83F0001F83F00A7
:1019600001F83F0001F83F0001F83F0001F83F0097
:1019700001F83E00007839FFFE1823FFFF880FFFB3
:10198000FFE027FFFFC039FFFF183E0000783F004F
:1019900001F83F0001F83F0001F83F0001F83F0067
:1019A00001F83F0001F83F0001F83F0001F83F0057
:1019B00001F83F0001F83F0001F83F0001F83F0047
:1019C00001F83F0001F81E0000F00CFFFE6001FF6F
:1019D000FF0003FFFF8001FFFF0000FFFE0000008B
:1019E000000000000000000000000000000000FFF8
:1019F000FE0001FFFF0003FFFF8001FFFF600CFFFF
:101A0000FEF01E0001F83F0001F83F0001F83F0022
:101A100001F83F0001F83F0001F83F0001F83F00E6
:101A200001F83F0001F83F0001F83F0001F83F00D6
:101A300001F83F0001F83F0001F83E00007839FF4F
:101A4000FE1823FFFF880FFFFFE007FFFFC001FF25
:101A5000FF1800000078000001F8000001F8000005
:101A600001F8000001F8000001F8000001F8000092
:101A700001F8000001F8000001F8000001F8000082
:101A800001F8000001F8000001F8000001F8000072
:101A900000F000FFFE6001FFFF0003FFFF8001FF79
:101AA000FF0000FFFE00000000000000000000003A
:101AB0002100240027002A002D00300033000101FE
:101AC0000000040107010A0100002200250028008F
:101AD0002B002E0031003400020100000501080136
:101AE0000B01000020002300260029002C002F00FD
:101AF000320000010000030106010901050505058A
:101B0000070508080808020202020A0A0808040475
:101B100004040101010101010101030303030303A3
:101B20000303040707070C0C0C0C0C0C0C0C020232
:101B3000020206060606060606060B0B0B0B0B0B2F
:101B40000B0B0102102020080810204010204080BC
:101B50000201020108040201010204081020408071
:101B600080402010080402018004020180402010FF
:101B70000804020108040201010204081020408048
:101B800001020408102040800000090A02080B0C22
:101B90000D07060304010000000000000000000023
:101BA0000000000000000000000000000000000035
:101BB0000000000011100F000000000000000000F5
:101BC00000000000000000000000000000000040D5
:101BD0007A10F35A00A0724E18090010A5D4E8003C
:101BE00000E87648170000E40B54020000CA9A3B54
:101BF000000000E1F50500008096980000004042DA
:101C00000F000000A0860100000010270000000067
:101C1000E803000000006400000000000A0000006B
:101C200000000100000000002C76D888DC674F0817
:101C300023DFC1DFAE59E1B1B796E5E3E453C63A1D
:101C4000E651997696E8E6C28426EB898C9B62ED94
:101C5000407C6FFCEFBC9C9F40F2BAA56FA5F4904E
:101C6000055A2AF75C936B6CF9676DC11BFCE0E4C5
:101C70000D47FEF520E6B500D0ED902E030094351B
:101C800077050080841E080000204E0A000000C86E
:101C90000C333333330F986E12831141EF8D2114BF
:101CA000893BE65516CFFEE6DB18D1844B381BF78F
:101CB0007C1D901DA4BBE424203284725E2281002E
:101CC000C9F124ECA1E53D272A13B61D992046242D
:101CD00011241FBECFEFD1E2DEBFCDBF00E00CBFAD
:101CE00015E0A0E0B2E0ECE0F8EC00E00BBF02C0D1
:101CF00007900D92A03DB107D9F71BBE17E0A0EDEC
:101D0000B5E001C01D92AF3EB107E1F71CE1C0EDA7
:101D1000DCE104C02297FE010E94C963C83CD107E0
:101D2000C9F70E94965C0C9404640C940000EF9236
:101D3000FF920F931F93F22FF02E47FD02C0E4E0B5
:101D400001C0E4E1242F332727FD309537FF03C07E
:101D5000309521953F4F4F2D512F0F2FEE2E0E9482
:101D60001D0F8F2D912F1F910F91FF90EF900895D0
:101D7000FB01DC0102C001900D9241505040D8F7A8
:101D80000895FB01DC0101900D920020E1F7089518
:101D9000FB01DC014150504048F001900D920020C1
:101DA000C9F701C01D9241505040E0F70895FB0172
:101DB0009F01E8944230C4F04532B4F44A3029F42B
:101DC00097FB1EF4909581959F4F642F77270E9473
:101DD0006363805D8A330CF0895D8193CB0100974A
:101DE000A1F716F45DE251931082C9010C945711CA
:101DF000FA01CF93FF93EF932230CCF02532BCF45D
:101E0000C22F2C2F332744275527FF93EF930E948F
:101E10008A63EF91FF91605D6A330CF0695D6193B5
:101E2000B901CA01605070408040904051F7108263
:101E30008F919F91CF910C945711A9E0B0E0E3E20C
:101E4000FFE00C94D1636A01122FA02EBE2C2BE36D
:101E5000201718F42CE3922E02C0902E9394AE011A
:101E60004F5F5F4F27E0092D0E947F10BC018981E1
:101E7000E82EFF24C70189709070019711F4ADE23C
:101E800009C0B1FE02C0ABE205C0B0FC02C0A0E0D8
:101E900001C0A0E2E3FE3BC0AA2311F423E001C08D
:101EA00024E0211710F020E002C0121B212FEB2CA0
:101EB000B4FE02C0322F0AC0F601322F80E202C007
:101EC000819331503323E1F7C20ED11CAA2319F0BC
:101ED000F601A1936F01F6013196E2FE05C09EE482
:101EE000D6019C9381E404C09EE6D6019C9381E6D2
:101EF00011968C9391833296DF01832F90E202C07A
:101F00009D9381508823E1F7E30FF11D40C0E2FE6D
:101F100042C0AA2311F423E001C024E0211710F0ED
:101F200020E002C0121B212FEB2CB4FE02C0922F26
:101F30000AC0F601922F80E202C08193915099234A
:101F4000E1F7C20ED11CAA2319F0F601A1936F018B
:101F5000F6013196E2FE08C089E4D6018C938EE446
:101F600011968C9386E407C089E6D6018C938EE6A1
:101F700011968C9386E681833296DF01892F20E2C9
:101F800002C02D9381508823E1F7E90FF11D1082E3
:101F90002EEF3FEFAFC0161617061CF041E050E0E1
:101FA00003C0AB014F5F5F4FAA2019F480E090E0BF
:101FB00003C08A2D90E0019620E030E0AA2311F0C2
:101FC00021E030E0240F351F280F391F812F90E0CA
:101FD0002817390714F020E002C0121B212F4B2DC7
:101FE00050E0CA0180719070B4FC0DC0B3FC0BC00E
:101FF000F601322F40E202C0419331503323E1F722
:10200000C20ED11C01C0322FAA2319F0F601A193F0
:102010006F01892B11F0132F0AC0F601132F80E3F3
:1020200002C0819311501123E1F7C30ED11C092D79
:10203000060FBA8090E1892E912C8E209F20E4FE1D
:1020400004C0F1E3BF1609F40150101614F001E0CA
:1020500003C0093008F008E09B0177FF02C020E0D0
:1020600030E0CB010196821B930BFE013196E80F05
:10207000F91F8EE2F82E3B01601A71088A2D90E05C
:1020800044275527481B590B8FEF2F3F380719F46A
:10209000D601FD926D01621773072CF0621673066C
:1020A00014F4808101C080E3215030403196241720
:1020B000350724F0D6018D936D01E6CF261737073B
:1020C00049F4B5E3BB1528F0BB1621F48114910443
:1020D00009F481E3F6018193D601812F90E202C0D9
:1020E0009C93815011968823D9F7E10FF11D10823E
:1020F00020E030E0C9012996EEE00C94ED63283031
:1021000008F027E03327DA01990F311D87FD916030
:1021100000966105710539F432602E5F3D9330E31E
:102120002A95E1F708959F3F30F0803871056105E9
:1021300009F03C5F3C5F3D93913008F08068911D51
:10214000DF93CF931F930F93FF92EF92192F987FF6
:102150009695E92F96959695E90FFF27E85DF34E42
:1021600099273327EE24FF24A701E701059008945F
:10217000079428F4360FE71EF81E491F511D660FFD
:10218000771F881F991F0694A1F70590079428F4DC
:10219000E70EF81E491F561FC11D770F881F991F94
:1021A000661F0694A1F70590079428F4F80E491FBE
:1021B000561FC71FD11D880F991F661F771F0694D2
:1021C000A1F70590079420F4490F561FC71FD81F89
:1021D000990F661F771F881F0694A9F784911095A1
:1021E000177041F0D695C79557954795F794E794A2
:1021F0001A95C1F7EEECFBE16894159015913591B5
:102200006591959105907FE27395E118F10A430B72
:10221000560BC90BD009C0F7E10CF11E431F561F26
:10222000C91FD01D7EF4703311F48A95E6CFE8946F
:10223000015030F0080F0AF40027021708F4202F8D
:102240002395022F7A3328F079E37D932A95E9F7D5
:1022500010C07D932A9589F60694979567953795D2
:1022600017951794E118F10A430B560BC90BD009C7
:1022700098F023957E9173957A3308F070E37C9300
:102280002013B8F77E9170617D9330F0839571E3F0
:102290007D9370E32A95E1F71124EF90FF900F9161
:1022A0001F91CF91DF91992787FD90950895DC01CB
:1022B000FC01672F71917723E1F7329704C07C917D
:1022C0006D9370836291AE17BF07C8F30895FC0148
:1022D00084A595A50895DF93CF93CDB7DEB7279753
:1022E0000FB6F894DEBF0FBECDBFDE011196FC0124
:1022F000B59687E001900D928150E1F729813A81EE
:102300004B815C816D817E818F8190E027960FB635
:10231000F894DEBF0FBECDBFCF91DF910895DF925D
:10232000EF92FF920F931F938B0180E2E82E87E0DC
:10233000F82EC7010E944C20D82E0F5F1F4FC701F7
:10234000B8010E944C20382F20E02D0D311DC9010D
:102350001F910F91FF90EF90DF900895DF92EF9221
:10236000FF920F931F938B01D52E90E2E92E97E0F9
:10237000F92EC7010E9453200F5F1F4FC701B801FC
:102380004D2D0E9453201F910F91FF90EF90DF90F1
:102390000895CF93DF93EC01EAA9FBA99AA1848168
:1023A0009817A1F44CA95DA95DA74CA7688579850C
:1023B000CE010E94AE118AA189A7EAA9FBA9828158
:1023C000883008F488E08FA38EA58EA3DF91CF918B
:1023D00008950F931F938C01FC01848160E00E949B
:1023E000635CF801868160E00E94635CF801828191
:1023F00060E00E94635C1F910F910895CF93DF937B
:10240000EC01798368836230710559F1633071059D
:1024100009F44AC06130710509F070C08BE290E0A8
:102420009B838A838DE290E09D838C838FE290E092
:102430009F838E8388EC90E0998788872CED30E02D
:102440003B872A8786EE90E09D878C878FEF9FEFF2
:102450009F878E8788EE93E0998B888B8AEE93E036
:1024600045C08AE290E09B838A838CE290E09D8362
:102470008C838EE290E09F838E838AEC90E0998734
:1024800088872EED30E03B872A8788EE90E09D8795
:102490008C8782EF90E09F878E8782EF93E0998B05
:1024A000888B84EF93E022C08BE290E09B838A8349
:1024B00080E390E09D838C8381E390E09F838E8313
:1024C0008CEC90E09987888720EE30E03B872A8764
:1024D0008AEE90E09D878C8784EF90E09F878E87BF
:1024E0008CEF93E0998B888B8EEF93E09B8B8A8B9C
:1024F0008CE494E09D8B8C8B3DAB2CAB5BAB4AABFF
:102500000E94CE5A688F798F8A8F9B8F1F8A1E8A6E
:10251000DF91CF910895CF93DF93EC01FB01019000
:10252000F081E02DE230F10541F0E330F10541F0BA
:10253000319749F460E072E008C064E072E005C0E1
:1025400067E072E002C06CE072E00E949A5DCE012A
:10255000DF91CF910895CF93DF93EC018A8161E001
:102560000E94B05B8C8161E00E94B05B8E8161E073
:102570000E94B05BCE010E94E9116C857D85CE0181
:102580000E948F11892B19F488EE93E005C06C85A9
:102590007D85CE010E948F119FAB8EAB6A857B85B6
:1025A000CE010E948F11892B31F06A857B85CE0187
:1025B0000E948F1102C08CA99DA98CAB9DAB688530
:1025C0007985CE010E948F119DA78CA76E857F858E
:1025D000161617061CF080E090E003C0CE010E94A2
:1025E0008F119FA78EA76C897D89CE010E948F11C4
:1025F0008AA368897989CE010E948F1188A36A898C
:102600007B89CE010E948F11282F8F8F8AA1EAA982
:10261000FBA99481891720F4CE010E94C91107C03B
:10262000891729F489A788A1805C8FA32EA30E9413
:10263000CE5A688F798F8A8F9B8F81E090E09F8B35
:102640008E8BDF91CF910895FC0171AB60AB0E943E
:10265000AB120895CF92DF92EF92FF920F931F93E8
:102660000E94CE5A6093D7057093D8058093D90500
:102670009093DA058BEE95E062E046E250E027E2C7
:1026800030E008E210E079E2E72EF12CCC24DD24E2
:102690000E941F548CE196E066E045E024E003E0F0
:1026A00032E0E32E0E94C85500ED15E087E596E084
:1026B00061E070E0A8010E94FE118FE896E062E000
:1026C00070E0A8010E94FE1187EC96E063E070E0E4
:1026D000A8010E94FE111F910F91FF90EF90DF90D3
:1026E000CF900895CF92DF92EF92FF920F931F93B6
:1026F000DF93CF9300D000D0CDB7DEB7D82EC92E50
:102700007B01FB01848195810297A8F48E010F5F04
:102710001F4FC80162E172E00E94B35DC801B701BA
:102720000E94635DBC018D2D9C2D0E948D5EC801B1
:102730000E94A75E04C08D2D9C2D0E948D5E8D2D64
:102740009C2D26960FB6F894DEBF0FBECDBFCF915D
:10275000DF911F910F91FF90EF90DF90CF90089540
:102760008F929F92AF92BF92CF92DF92EF92FF92A1
:102770000F931F93DF93CF93CDB7DEB7ED970FB6CF
:10278000F894DEBF0FBECDBFB82EA92E0FAB18AF89
:1027900029AF3AAF4BAF5CAF6DAF6091D60570E03B
:1027A0006E54784F8E010F5F1F4FC8014AE00E94A0
:1027B000465E8B2D9A2DB8010E947213C8010E94AB
:1027C000A15E8E01095F1F4FC8016B2D7A2D0E94FB
:1027D000975E84E1882E82E0982EC801B4010E94A1
:1027E000475DBC018B2D9A2D0E94765EC8010E9428
:1027F000A75EB9E1CB2ED12CCC0EDD1EC6016B2D10
:102800007A2D0E94975EADE0EA2EF12CEC0EFD1EB3
:102810006091D505C70170E04AE00E94465E8E01D6
:102820000D5E1F4FC801B7010E947213C601B801A7
:102830000E94635DBC018B2D9A2D0E94765EC801BB
:102840000E94A15EC7010E94A15EC6010E94A75E10
:102850008E01015E1F4FC8016B2D7A2D0E94975E7D
:10286000C801B4010E94475DBC018B2D9A2D0E94C6
:10287000765EC8010E94A75EF1E3CF2ED12CCC0E6C
:10288000DD1EC6016B2D7A2D0E94975EE5E2EE2ECD
:10289000F12CEC0EFD1E6091D405C70170E04AE0FA
:1028A0000E94465E8E01055D1F4FC801B7010E9460
:1028B0007213C601B8010E94635DBC018B2D9A2D75
:1028C0000E94765EC8010E94A15EC7010E94A15EBF
:1028D000C6010E94A75E8B2D9A2DED960FB6F89437
:1028E000DEBF0FBECDBFCF91DF911F910F91FF9043
:1028F000EF90DF90CF90BF90AF909F908F90089512
:10290000EF92FF920F931F93DF93CF9300D000D0ED
:10291000CDB7DEB77E010894E11CF11CC701009120
:10292000D0051091D1052091D2053091D305409169
:10293000D4055091D5056091D6050E94B013C7010A
:102940000E94A15E26960FB6F894DEBF0FBECDBFE3
:10295000CF91DF911F910F91FF90EF9008958F928B
:102960009F92AF92BF92CF92DF92EF92FF920F931E
:102970001F93DF93CF93CDB7DEB7ED970FB6F894E3
:10298000DEBF0FBECDBFB82EA92E0FAB18AF29AF3B
:102990003AAF4BAF5CAF6DAF6091D2058E010F5F68
:1029A0001F4FC80170E04AE00E94465E8B2D9A2DB1
:1029B000B8010E947213C8010E94A15E8E01095FD6
:1029C0001F4FC8016B2D7A2D0E94975E56E1852E10
:1029D00052E0952EC801B4010E94475DBC018B2DC9
:1029E0009A2D0E94765EC8010E94A75E49E1C42E1E
:1029F000D12CCC0EDD1EC6016B2D7A2D0E94975E68
:102A00003DE0E32EF12CEC0EFD1E6091D105C701D7
:102A100070E04AE00E94465E8E010D5E1F4FC801C5
:102A2000B7010E947213C601B8010E94635DBC0128
:102A30008B2D9A2D0E94765EC8010E94A15EC7016F
:102A40000E94A15EC6010E94A75E8E01015E1F4F1B
:102A5000C8016B2D7A2D0E94975EC801B4010E94B7
:102A6000475DBC018B2D9A2D0E94765EC8010E94A5
:102A7000A75E21E3C22ED12CCC0EDD1EC6016B2D2C
:102A80007A2D0E94975E95E2E92EF12CEC0EFD1E48
:102A90006091D005C70170E04AE00E94465E8E0159
:102AA000055D1F4FC801B7010E947213C601B8012E
:102AB0000E94635DBC018B2D9A2D0E94765EC80139
:102AC0000E94A15EC7010E94A15EC6010E94A75E8E
:102AD0008B2D9A2DED960FB6F894DEBF0FBECDBFAD
:102AE000CF91DF911F910F91FF90EF90DF90CF90EA
:102AF000BF90AF909F908F900895EF92FF920F93A9
:102B00001F93DF93CF9300D000D0CDB7DEB77E0107
:102B10000894E11CF11CC7010091D0051091D1056A
:102B20002091D2053091D3054091D4055091D5051F
:102B30006091D6050E94AF14C7010E94A15E26963F
:102B40000FB6F894DEBF0FBECDBFCF91DF911F91BE
:102B50000F91FF90EF900895CF92DF92EF92FF9246
:102B60000F931F93DF93CF9300D000D0CDB7DEB784
:102B70006C010BEE15E0C8016EE772E00E94C734ED
:102B8000C80160E040E020E00E94DF2EC8016FEF46
:102B90004FEF2FEF0E94C72E7E010894E11CF11C1D
:102BA000C701B6010E948D5EC801B70144E150E043
:102BB00027ED30E000E010E00E947437C7010E946A
:102BC000A15E26960FB6F894DEBF0FBECDBFCF91A3
:102BD000DF911F910F91FF90EF90DF90CF900895BC
:102BE0000F931F93DF93CF93CDB7DEB72C970FB61C
:102BF000F894DEBF0FBECDBF80ED95E00E94B023FC
:102C00008823C9F48091E107882339F08E010F5F92
:102C10001F4FC8016FE372E006C08E01095F1F4FAE
:102C2000C80167E672E00E949A5DC8010E94AC1577
:102C3000C8010E94A15E2C960FB6F894DEBF0FBEAD
:102C4000CDBFCF91DF911F910F910895AF92BF92A9
:102C5000CF92DF92EF92FF920F931F93DF93CF9368
:102C6000CDB7DEB72C970FB6F894DEBF0FBECDBF41
:102C70007B018C01ABEECA2EA5E0DA2EC6016EE711
:102C800072E00E94C7345E010894A11CB11CC5010A
:102C9000B801A7012AE00E94155EC60160E040E08D
:102CA00020E00E94DF2EC6016FEF4FEF2FEF0E9452
:102CB000C72EF7E0EF2EF12CEC0EFD1EC701B5017B
:102CC0000E948D5EC601B70144E150E021EE30E084
:102CD00000E010E00E947437C7010E94A15EC501A8
:102CE0000E94A15E2C960FB6F894DEBF0FBECDBF3A
:102CF000CF91DF911F910F91FF90EF90DF90CF90D8
:102D0000BF90AF9008952F923F924F925F926F9233
:102D10007F928F929F92AF92BF92CF92DF92EF926B
:102D2000FF920F931F93DF93CF93CDB7DEB7AF978B
:102D30000FB6F894DEBF0FBECDBF2B011A013FA71F
:102D40002EA7ADA2BEA2CFA2D8A6E9A6FAA60BA72F
:102D500034016BEEA62E65E0B62EC5016EE772E07B
:102D60000E94C73485E090E0280E391EC5010E94FC
:102D7000E3348DA7C5010E94E3348CA7C5016FEF32
:102D80004FEF2FEF0E94C72EC50160E040E020E02A
:102D90000E94DF2E5DE0C52ED12CCC0EDD1EC601BB
:102DA00067E972E00E94B35D47E0E42EF12CEC0E7F
:102DB000FD1EC7010DA11EA12FA138A549A55AA529
:102DC0006BA50E94AF14C601B7010E94635DBC01F0
:102DD0004E010894811C911CC4010E948D5EC701A4
:102DE0000E94A15EC6010E94A75E33E1E32EF12C92
:102DF000EC0EFD1EC701B4010E948D5E9DA5969547
:102E0000490E511CC501B701A101920100E010E07B
:102E10000E947437C7010E94A15E29E1C22ED12C05
:102E2000CC0EDD1E85EA92E0680E791EC601B30164
:102E30000E949A5DC60166EB72E00E94CC5D9FE144
:102E4000E92EF12CEC0EFD1EC701B6010E948D5E2D
:102E50008EA59FA52CA5821B91099FA78EA7C501B2
:102E6000B701A1012EA53FA50E947437C7010E949A
:102E7000A15EC6010E94A15EC4010E94A15EAF9640
:102E80000FB6F894DEBF0FBECDBFCF91DF911F917B
:102E90000F91FF90EF90DF90CF90BF90AF909F90F9
:102EA0008F907F906F905F904F903F902F900895FC
:102EB0008F929F92AF92BF92CF92DF92EF92FF924A
:102EC0000F93DF93CF93CDB7DEB76C970FB6F8941F
:102ED000DEBF0FBECDBF87E596E00E946B112E8B43
:102EE0003F8B488F598F6A8F7B8F8C8FDE011196B5
:102EF000FE01769687E001900D928150E1F787E51B
:102F000096E00E9467114C018AE090E068E270E070
:102F100048E250E026E430E0A980BA80CB80DC8033
:102F2000ED80FE800F810E9483168FE896E00E945C
:102F30006B112E8B3F8B488F598F6A8F7B8F8C8FB5
:102F4000DE011896FE01769687E001900D92815081
:102F5000E1F78FE896E00E9467114C018AE090E06B
:102F60006AE570E048E250E028E730E0A884B984E0
:102F7000CA84DB84EC84FD840E850E94831687EC72
:102F800096E00E946B112E8B3F8B488F598F6A8F72
:102F90007B8F8C8FDE011F96FE01769687E0019075
:102FA0000D928150E1F787EC96E00E9467114C0189
:102FB0008AE090E06CE870E048E250E02AEA30E015
:102FC000AF84B888C988DA88EB88FC880D890E94AC
:102FD00083166C960FB6F894DEBF0FBECDBFCF91AF
:102FE000DF910F91FF90EF90DF90CF90BF90AF9067
:102FF0009F908F9008952F923F924F925F927F9271
:103000008F929F92AF92BF92CF92DF92EF92FF92F8
:103010000F931F93DF93CF9300D000D0CDB7DEB7CF
:103020009C016B01CA011801821B930B62E070E0E6
:103030000E9477638B014B01820E931EC60ED71E32
:10304000FBEEEF2EF5E0FF2EC70166EF76E00E9463
:10305000C734C70160E040E02FEF0E94C72EC701D0
:10306000B401A60198010E94962FC7016FEF4FEFA0
:103070002FEF0E94C72EC701B401A60198010E943C
:10308000152CC7016EE772E00E94C734C7010E9489
:10309000E034F10144805580C7010E94E034082FDC
:1030A000C7010E94E334782EC70160E040E02FEFB3
:1030B0000E94DF2E5E010894A11CB11CC501B10164
:1030C0000E948D5E10E0049DB001059D700D149D61
:1030D000700D11247695679580E090E00E94C5619F
:1030E00020E030E040E05FE30E94C5600E94946110
:1030F000861A970A7694C718D108C701B501A401AA
:10310000960100E010E00E947437C5010E94A15EA4
:10311000C70160E040E02FEF0E94DF2E26960FB639
:10312000F894DEBF0FBECDBFCF91DF911F910F91FD
:10313000FF90EF90DF90CF90BF90AF909F908F90D7
:103140007F905F904F903F902F9008952F923F92E5
:103150004F925F926F927F928F929F92AF92BF92A7
:10316000CF92DF92EF92FF920F931F93DF93CF9353
:10317000CDB7DEB7E7970FB6F894DEBF0FBECDBF71
:103180009DAB8CAB3B012A013FAB2EAB8BA69CA623
:10319000ADA6BEA6CFA6D8AAE9AA2F962EAC3FAC64
:1031A0002F972BEEA22E25E0B22EC5016EE772E01E
:1031B0000E94C7347E010894E11CF11CC701B801CC
:1031C0000E948D5E8CA99DA9B301A2012EA93FA9E1
:1031D00087010E94FB17C7010E94A15E85E090E075
:1031E000480E591EC5010E94E3348BABC5010E94F5
:1031F000E3348AABC5016FEF4FEF2FEF0E94C72E6C
:10320000C50160E040E020E00E94DF2E93E1C92E7E
:10321000D12CCC0EDD1EC60167E972E00E94B35DC1
:103220008DE0E82EF12CEC0EFD1EC7010BA51CA5B0
:103230002DA53EA54FA558A969A90E94AF14C601A6
:10324000B7010E94635DBC0107E0802E912C8C0EBB
:103250009D1EC4010E948D5EC7010E94A15EC60131
:103260000E94A75E19E1E12EF12CEC0EFD1EC701B4
:10327000B4010E948D5E9BA99695690E711CC501D3
:10328000B701A201930100E010E00E947437C7016A
:103290000E94A15EBFE1CB2ED12CCC0EDD1E85EAB3
:1032A00092E0280E391EC601B1010E949A5DC60146
:1032B00066EB72E00E94CC5DA5E2EA2EF12CEC0EEA
:1032C000FD1EC701B6010E948D5E8EA99FA92AA985
:1032D000821B91099FAB8EABC501B701A2012EA93C
:1032E0003FA90E947437C7010E94A15EC6010E94D7
:1032F000A15EC4010E94A15EE7960FB6F894DEBFFE
:103300000FBECDBFCF91DF911F910F91FF90EF9036
:10331000DF90CF90BF90AF909F908F907F906F90F5
:103320005F904F903F902F9008952F923F924F9231
:103330005F926F927F928F929F92AF92BF92CF9245
:10334000DF92EF92FF920F931F93DF93CF93CDB74E
:10335000DEB76E970FB6F894DEBF0FBECDBF3B0150
:103360004C012A0119016BEEC62E65E0D62EC6016E
:103370006EE772E00E94C734C60160E040E020E0E2
:103380000E94C72EC60160E070E040E050E020E4FB
:1033900031E00EE110E00E942931C60160E040E01A
:1033A00020E00E94DF2EC6016FEF4FEF2FEF0E944B
:1033B000C72E5E010894A11CB11CC501B401A30174
:1033C00022E00E94E55D8E01095F1F4FC801B50133
:1033D0000E94975EC8016AEB72E00E94475DBC01E3
:1033E000C5010E94765EC8010E94A75E5DE0E52EE1
:1033F000F12CEC0EFD1EC701B5010E948D5EC601C9
:10340000B70144E150E027E030E000E010E00E9426
:103410007437C7010E94A15E43E1E42EF12CEC0E4B
:10342000FD1EC701B2010E948D5EC601B70148E7CB
:1034300050E027E030E00E947437C7010E94A15E8F
:1034400039E1E32EF12CEC0EFD1EC701B1010E9403
:103450008D5EC601B7014CED50E027E030E00E94E0
:103460007437C7010E94A15EC5010E94A15E6E96DD
:103470000FB6F894DEBF0FBECDBFCF91DF911F9185
:103480000F91FF90EF90DF90CF90BF90AF909F9003
:103490008F907F906F905F904F903F902F90089506
:1034A000AF92BF92CF92DF92EF92FF920F931F9352
:1034B000DF93CF93CDB7DEB72C970FB6F894DEBF6E
:1034C0000FBECDBF6091D7057091D8058091D90509
:1034D0009091DA050E9426160E94CE5A2091D705B7
:1034E0003091D8054091D9055091DA05621B730BD4
:1034F000840B950B2091140530911505409116050C
:1035000050911705261737074807590768F10E9499
:10351000CE5A6093D7057093D8058093D9059093C0
:10352000DA050E94F0158BED95E00E94E71D5B0126
:103530006C017E010894E11CF11CC7010E947D15FD
:103540008E01095F1F4FC8010E948014C601B5019A
:10355000A70198010E949519C8010E94A15EC701A8
:103560000E94A15E0E9458172C960FB6F894DEBFF9
:103570000FBECDBFCF91DF911F910F91FF90EF90C4
:10358000DF90CF90BF90AF9008956F927F928F920F
:103590009F92AF92BF92CF92DF92EF92FF920F93E2
:1035A0001F936C015B014A013901FBEEEF2EF5E040
:1035B000FF2EC70160E040E02FEF0E94C72EC70139
:1035C000B601A501940183010E940A30C7016FEF83
:1035D0004FEF2FEF0E94C72EC701B601A50194013E
:1035E0000E941B321F910F91FF90EF90DF90CF90C0
:1035F000BF90AF909F908F907F906F9008952F9283
:103600003F924F925F926F927F928F929F92AF9272
:10361000BF92CF92DF92EF92FF920F931F93DF93AF
:10362000CF9300D000D0CDB7DEB73C014B016A018B
:1036300059011801EF2829F48BEE95E066EF76E04A
:1036400004C08BEE95E06EE772E00E94C734C301C0
:10365000B401A60195010E94C51A8BEE95E06FEFAB
:103660004FEF2FEF0E94C72E8BEE95E060E040E019
:103670002FEF0E94DF2EC601861997092FEF8F3F8B
:1036800092078CF062E070E00E947763882777FDF4
:103690008095982F0E94C76120E030E040E05FE312
:1036A0000E94C56010C062E070E00E9477638827C6
:1036B00077FD8095982F0E94C76120E030E040E0C0
:1036C0005FE30E94C4600E9494616B018BEE95E001
:1036D0000E94E034F101448055808BEE95E00E9419
:1036E000E034082FC50188199909FFEF8F3F9F0724
:1036F0008CF062E070E00E947763882777FD809508
:10370000982F0E94C76120E030E040E05FE30E9414
:10371000C56010C062E070E00E947763882777FD83
:103720008095982F0E94C76120E030E040E05FE381
:103730000E94C4600E9494614B018BEE95E00E9450
:10374000E334182F7E010894E11CF11CC701B1017C
:103750000E948D5EC60CD71C802F90E0849DB00126
:10376000859D700D949D700D11247695679580E070
:1037700090E00E94C56120E030E040E05FE30E94FD
:10378000C5600E949461C61AD70AA818B908169590
:10379000A11AB1088BEE95E0B701A601950100E0F2
:1037A00010E00E947437C7010E94A15E26960FB6F2
:1037B000F894DEBF0FBECDBFCF91DF911F910F9167
:1037C000FF90EF90DF90CF90BF90AF909F908F9041
:1037D0007F906F905F904F903F902F9008956F92E1
:1037E0007F928F929F92AF92BF92CF92DF92EF9291
:1037F000FF920F931F93DF93CF93CDB7DEB7C054E3
:10380000D0400FB6F894DEBF0FBECDBF5B016C0198
:103810008A0149018BEE95E00E94752D10921B05DF
:1038200010921A057E010894E11CF11CC701B80131
:103830000E948D5E8E01095F1F4FC801B4010E9476
:103840008D5EC601B501A70198010E949519C801B6
:103850000E94A15EC7010E94A15ECE010D9667E5A0
:1038600076E00E948B1287E596E00E946B112AAFEA
:103870003BAF4CAF5DAF6EAF7FAFFE01E05CFF4F83
:103880008083DE019596FE01FA9687E001900D9205
:103890008150E1F787E596E00E9467110F920F9241
:1038A0000DE0602E712C6C0E7D1EEDB7FEB792837D
:1038B00081838AE090E068E270E048E250E026E42C
:1038C00030E083018DA09EA0AFA0B8A4C9A4DAA463
:1038D000EBA40E94A6180F900F90C3010E94A15E56
:1038E000CE0143966FE876E00E948B128FE896E057
:1038F0000E946B112AAF3BAF4CAF5DAF6EAF7FAF95
:10390000FE01E05CFF4F8083DE019C96FE01FA968B
:1039100087E001900D928150E1F78FE896E00E94D8
:1039200067110F920F9213E1612E712C6C0E7D1EA8
:10393000EDB7FEB7928381838AE090E06AE570E09C
:1039400048E250E028E730E083018CA49DA4AEA4B7
:10395000BFA4C8A8D9A8EAA80E94A6180F900F90E3
:10396000C3010E94A15ECE01499667EC76E00E94F9
:103970008B1287EC96E00E946B112AAF3BAF4CAFE5
:103980005DAF6EAF7FAFFE01E05CFF4F8083DE0175
:10399000D396FE01FA9687E001900D928150E1F7EF
:1039A00087EC96E00E9467110F920F92B9E16B2E9F
:1039B000712C6C0E7D1EEDB7FEB7928381838AE079
:1039C00090E06CE870E048E250E02AEA30E08301E1
:1039D0008BA89CA8ADA8BEA8CFA8D8ACE9AC0E9483
:1039E000A6180F900F90C3010E94A15EAFE1CA2EEE
:1039F000D12CCC0EDD1EC60164E974E00E949A5DF4
:103A000080EF90E06CE370E046E351E02EE630E0BA
:103A10008601EE24FF240E94FF1AC6010E94A15EC7
:103A20000E94CE5A0E942616C05CDF4F0FB6F89453
:103A3000DEBF0FBECDBFCF91DF911F910F91FF90E1
:103A4000EF90DF90CF90BF90AF909F908F907F903E
:103A50006F900895EF92FF920F931F934BEEE42E19
:103A600045E0F42EC70161E00E94BC37C7010E9407
:103A7000752D0CE116E0C80161E00E94E955C8010E
:103A800062E00E94D355C70166EF76E00E94C7341A
:103A9000C70160E040E020E00E94AE2E10921905C0
:103AA0001092180510921D0510921C0537E5E32EA3
:103AB00036E0F32EC7010E94AB120FE816E0C801F2
:103AC000B7010E942413C801B8010E9424131F915A
:103AD0000F91FF90EF900895AF92BF92CF92DF9237
:103AE000EF92FF920F931F93DF93CF93CDB7DEB783
:103AF0002C970FB6F894DEBF0FBECDBF0E942A1DD3
:103B00000E94F0150BED15E0C8010E94051EC801CA
:103B10000E94E71D5B016C017E010894E11CF11C11
:103B2000C7010E947D158E01095F1F4FC8010E94C9
:103B30008014C601B501A70198010E94EF1BC801BE
:103B40000E94A15EC7010E94A15E2C960FB6F89458
:103B5000DEBF0FBECDBFCF91DF911F910F91FF90C0
:103B6000EF90DF90CF90BF90AF9008950F931F9389
:103B70000FEF16E0C80162E00E9416208DE097E08A
:103B8000B8010E94EC561F910F910895EF92FF9299
:103B90000F931F937C010DE017E0C8010E940059AC
:103BA000B7016C5F7F4FC8010E943159F7016083F4
:103BB0007183828393830E94CE5AF701648775874D
:103BC000868797871F910F91FF90EF900895CF936D
:103BD000DF93EC010E94CE5A2C853D854E855F8592
:103BE000621B730B840B950B61567A4E8F4F9F4F60
:103BF00018F0CE010E94C61D288139814A815B815F
:103C0000B901CA01DF91CF910895CF92DF92EF926F
:103C1000FF920F931F938C019DE0E92E97E0F92E00
:103C2000C7010E941D5A84E0C82ED12CC00ED11E9F
:103C3000C701B60140E00E94EF59C701B60149E053
:103C40000E949B59C8010E94C61D1F910F91FF90B1
:103C5000EF90DF90CF900895FC01138615861486AF
:103C600087E090E012863197009711F00197FACF24
:103C70000895DC0180E00BC0E82FF0E08D9190E02A
:103C8000E827F927E258FE4FE49161508E2F662312
:103C900099F70895DF92EF92FF920F931F93FC0123
:103CA000E08001811281F894F80181818E2981835D
:103CB0008281DE2CD0948D21828383E090E00E946B
:103CC000DC5AF80181818D2181838AE090E00E9495
:103CD000DC5AF8010081789485E390E00E94DC5A78
:103CE00080E010E0FF240E211F21012B09F081E06C
:103CF0001F910F91FF90EF90DF900895EF92FF9248
:103D00000F931F93CF93DF937C0101E010E0C0E09D
:103D1000D0E0C7010E944A1E8111102B000F21968E
:103D2000C830D105B1F7812FDF91CF911F910F914D
:103D3000FF90EF9008951F93CF93DF93FC011081C4
:103D4000C181D281912F909560FF12C0F8948A8131
:103D500089238A838981812B89838AE090E00E946C
:103D6000DC5A8A81812B8A83789487E390E011C0A2
:103D7000F8948A8189238A838981812B898381E4CC
:103D800090E00E94DC5A8A81812B8A83789485E0B6
:103D900090E00E94DC5ADF91CF911F910895CF925D
:103DA000DF92EF92FF920F931F93CF93DF938C01DB
:103DB000E42EFF24F394C0E0D0E0C62EDD2460E0C2
:103DC0008F2D90E08C219D21892B09F061E0C801A5
:103DD0000E949B1EFF0C2196C830D10581F7EE2072
:103DE000A9F4F894D8011196ED91FC911297918164
:103DF0008C918095982391831196ED91FC91129767
:103E000092818C918095982392837894DF91CF91C1
:103E10001F910F91FF90EF90DF90CF9008956CEC81
:103E200040E00E94CF1E0895EF92FF920F931F93E0
:103E3000CF93DF938C017B0165E540E00E94CF1EAC
:103E4000C0E0D0E0F701EC0FFD1FC801608140E049
:103E50000E94CF1E2196C830D105A1F7DF91CF91E6
:103E60001F910F91FF90EF900895DF92EF92FF92D4
:103E70000F931F93CF93DF93FC010081C181D28107
:103E8000F8948981D02ED0948D21898378941DE770
:103E9000E02EFF24115059F182E090E00E94DC5A9C
:103EA000888190E08E219F21892BA1F3F8948A814B
:103EB0008D218A838981802B8983789480EE91E09B
:103EC0000E94DC5AF89489818D21898386E490E0F0
:103ED0000E94DC5A888110E090E0E822F922EF2865
:103EE00009F411E078948AE991E00E94DC5A812F6C
:103EF000DF91CF911F910F91FF90EF90DF90089588
:103F0000AF92BF92DF92EF92FF920F931F93CF93E6
:103F1000DF93EC015B018D85882309F061C0CE0140
:103F20000E94351F882329F41B861D861C8690E07D
:103F30006BC0CE0160EF40E00E94CF1E01E0DD24A7
:103F4000EE24FF24F394CE010E944A1E182FCE01C6
:103F50000E944A1E113019F48130E1F439C018175B
:103F600009F58B85081770F460E0FE01EE0DF11D78
:103F7000838190E02F2D30E08223932318161906B9
:103F80004CF003C060E0081729F0093008F04CC07D
:103F90000C874AC0FE01EE0DF11D83818F298383BA
:103FA00061E009C0612FFE01EE0DF11D9F2D90957E
:103FB000838189238383CE010E949B1E0F5FFF0CA8
:103FC00019F4E394FF24F39487E08E1508F0BBCF37
:103FD000013430F0DB86DD2011F581E08D871FC0D4
:103FE0001B861D861C8690E0DE0120E030E0F50196
:103FF000E20FF31F13968C91139780832F5F3F4F2F
:1040000011962830310599F7892FDF91CF911F91B3
:104010000F91FF90EF90DF90BF90AF9008958B814C
:104020008823F1F291E0E0CFD02EBDCFFF920F9325
:104030001F938C01F62E862F60E00E94B05B8F2DBF
:1040400090E0FC01EE5BF44EE491D801EC938450D7
:10405000954EFC016491E62FF0E0EE0FFF1FEE514C
:10406000F54E8591949112969C938E9311971B9681
:104070001C921B971D961C921D971C961C92F80172
:1040800087E090E012863197009711F00197FACF00
:104090001F910F91FF900895F999FECF72BD61BDF8
:1040A000F89A80B50895F999FECF1FBA72BD61BD27
:1040B00040BD0FB6F894FA9AF99A0FBE089581E0C0
:1040C0008093660760934307109264071092650718
:1040D00008952091420730E080914107281B310963
:1040E000C90108954091410780914207481718F08F
:1040F0002FEF3FEF0AC0E42FF0E0EF5DF84F808133
:10410000282F30E04F5F40934107C9010895E091A7
:10411000410780914207E81718F0EFEFFFEF06C064
:10412000F0E0EF5DF84F8081E82FF0E0CF010895D7
:10413000089510926A071092690788EE93E0A0E054
:10414000B0E080936B0790936C07A0936D07B093DA
:104150006E0788E295E0909368078093670708955B
:10416000CF92DF92EF92FF920F931F93CF93DF9343
:104170007C016B018A01809166078823A1F0C0E071
:10418000D0E00DC0D701ED91FC91D601AC0FBD1F61
:104190000190F081E02DC7016C9119952196C0170F
:1041A000D10780F304C0CB01642F0E94E221C80133
:1041B000DF91CF911F910F91FF90EF90DF90CF9003
:1041C0000895DF93CF930F92CDB7DEB7FC016983DB
:1041D000809166078823C9F080916507803238F0A6
:1041E00081E090E09383828320E030E015C08091ED
:1041F0006407E82FF0E0EC5BF84F998190838F5FC4
:10420000809364078093650705C0CE01019661E045
:104210000E94E22121E030E0C9010F90CF91DF91AF
:1042200008950F93062F8091430764E477E040914F
:10423000650721E00E948D211092640710926507A6
:10424000109266070F91089561E00E941121089570
:10425000413208F040E2862F61E277E00E9444217B
:104260001092410780934207089521E00E9428217F
:10427000089510924107109242071092640710921D
:1042800065070E9492230895382F413210F040E0D4
:1042900042C0809173078823E1F791E09093730700
:1042A000209375078FEF8093E00710929B07415092
:1042B00040939C074F5F9093740780917407330F6E
:1042C000832B8093740780917607813041F410929C
:1042D0007607809174078093BB0085EC01C085EE62
:1042E0008093BC00809173078130E1F380919B073C
:1042F000841710F440919B0720E030E00AC0FB01D6
:10430000E20FF31FD901A558B84F8C9180832F5F1E
:104310003F4F2417A0F3842F08950F931F93582F16
:10432000122F413210F081E04AC080917307882338
:10433000E1F782E080937307009375078FEF809316
:10434000E00710929B0740939C07ABE7B7E0FB01A7
:1043500002C081918D938E2F861B8417D0F310920B
:10436000740780917407550F852B80937407809193
:104370007607813041F4109276078091740780931C
:10438000BB0085EC01C085EE8093BC00112321F0B9
:10439000809173078230E1F38091E0078F3F11F441
:1043A00080E00DC08091E007803211F482E007C008
:1043B0008091E007803311F084E001C083E01F9119
:1043C0000F910895482F613210F081E00895809197
:1043D0007307843011F082E008956093BE07ADE961
:1043E000B7E0842F9C01F90102C081918D938E2F3B
:1043F000841B8617D0F380E008951F920F920FB6AA
:104400000F920BB60F9211242F933F934F935F930C
:104410006F937F938F939F93AF93BF93EF93FF938C
:104420008091B90090E0887F90708036910509F402
:10443000F2C081369105CCF58832910509F47BC034
:1044400089329105B4F48031910509F46FC081314E
:1044500091053CF4009709F447C1089709F04FC152
:1044600065C08831910509F466C0809709F047C19D
:1044700082C08034910509F4A4C08134910544F4CC
:104480008033910509F482C0C89709F038C189C00A
:104490008035910509F489C08835910509F496C0E5
:1044A0008834910509F02BC1AEC08839910509F413
:1044B00013C189399105ECF48837910509F4ABC033
:1044C000893791054CF48836910509F4A4C08037EA
:1044D000910509F014C19FC08838910509F4FCC00A
:1044E0008039910509F49DC08038910509F007C114
:1044F00098C0803B910509F4C6C0813B91054CF4FE
:10450000803A910509F49FC0883A910509F0F7C0F7
:10451000BAC0803C910509F4E3C0883C910509F4D8
:10452000DFC0883B910509F0EAC0C2C080917407E2
:104530008093BB00CFC090919B0780919C079817F8
:1045400068F490919B07E92FF0E0E558F84F8081DF
:104550008093BB009F5F90939B07BCC080917507C1
:10456000882309F44BC085ED8093BC008091BC008A
:1045700084FDFCCFC2C080E28093E00785ED80938C
:10458000BC008091BC0084FDFCCFB7C080E3809369
:10459000E00785ED8093BC008091BC0084FDFCCFDA
:1045A000ACC088E38093E0079BC080919B0790910B
:1045B000BB00E82FF0E0E558F84F90838F5F8093C1
:1045C0009B0790919B0780919C0782C080919B07DD
:1045D0009091BB00E82FF0E0E558F84F90838F5F93
:1045E00080939B0780917507882341F085ED809328
:1045F000BC008091BC0084FDFCCF7FC081E0809333
:10460000760784EA6EC085ED8093BC008091BC0083
:1046100084FDFCCF72C083E0809373071092DF07A4
:1046200059C08091DF07803208F056C08091DF07C3
:104630009091BB00E82FF0E0E154F84F90838F5F3A
:104640008093DF0747C08091DF07803230F4E0912C
:10465000DF07F0E0E154F84F108285ED8093BC0055
:104660008091BC0084FDFCCF109273076091DF073E
:10467000E0917907F0917A078FEB97E070E0199558
:104680001092DF072DC084E0809373071092BD075E
:104690001092BE07E0917707F09178071995809105
:1046A000BE07882329F481E08093BE0710929D07FE
:1046B0009091BD07E92FF0E0E356F84F8081809399
:1046C000BB009F5F9093BD079091BD078091BE078F
:1046D000981710F485EC01C085E88093BC000FC0EA
:1046E00085EC8093BC0009C01092E00785ED8093B3
:1046F000BC008091BC0084FDFCCF10927307FF9139
:10470000EF91BF91AF919F918F917F916F915F9149
:104710004F913F912F910F900BBE0F900FBE0F90B6
:104720001F9018951092730781E08093750710927F
:10473000760784E161E00E94635C85E161E00E94AC
:10474000635CE9EBF0E080818E7F808380818D7FE8
:10475000808388E48093B80085E48093BC0008954A
:104760000F931F93CF93DF93EC0187E697E068E602
:1047700070E00E945F2087E697E060E00E94E12001
:1047800087E697E00E942421882319F01092E10720
:1047900011C081E08093E10787E697E068E670E06A
:1047A00047E050E00E94352187E697E00E946920AB
:1047B000079714F480E065C087E697E00E947220B6
:1047C000082F8F7782958F701AE0819FC001112486
:1047D000202F2F70280F288387E697E00E947220F1
:1047E000282F22952F70219F900111248F70820F06
:1047F000898387E697E00E947220282F2F732295E5
:104800002F70219F900111248F70820F8A8387E679
:1048100097E00E947220282F22952F70219F9001EF
:1048200011248F70820F8B8387E697E00E9472209D
:10483000282F22952F70219F900111248F70820FB5
:104840008C8387E697E00E947220282F22952F7094
:10485000219F900111248F70820F8D8387E697E04E
:104860000E947220282F2F70225E82958F70819F68
:10487000C0011124280F2E83802F8095881F882740
:10488000881FDF91CF911F910F91089587E697E0E0
:104890000E9439210895DC01542F283009F47AC18F
:1048A000293020F4213009F051C207C0203109F429
:1048B00089C1213109F04AC29CC11F968C911F9772
:1048C000843029F55896ED91FC91599792969C91D8
:1048D0009297613021F48081892B808304C080818C
:1048E0009095982390835A96ED91FC915B979081D7
:1048F00093968C9193978095892380835A96ED9116
:10490000FC915B97808193969C9193970AC05096F7
:10491000ED91FC9151975E969C915E97613021F4E8
:104920008081892B808304C0808190959823908317
:104930005896ED91FC91599792969C91929757FFBA
:1049400004C08081892B808304C080819095982346
:1049500090835A96ED91FC915B97908193968C9100
:1049600093978095892380835A96ED91FC915B976C
:10497000808193969C919397892B8083252F332751
:1049800027FD30955896ED91FC91599792969C9100
:10499000929726FF04C08081892B808304C0808188
:1049A0009095982390835A96ED91FC915B97908116
:1049B00093968C9193978095892380835A96ED9155
:1049C000FC915B97808193969C919397892B808330
:1049D0005896ED91FC91599792969C91929725FF4C
:1049E00004C08081892B808304C0808190959823A6
:1049F00090835A96ED91FC915B97908193968C9160
:104A000093978095892380835A96ED91FC915B97CB
:104A1000808193969C919397892B80835896ED91F2
:104A2000FC91599792969C91929724FF04C08081A3
:104A3000892B808304C080819095982390835A9617
:104A4000ED91FC915B97908193968C9193978095D3
:104A5000892380835A96ED91FC915B978081939690
:104A60009C919397892B80835896ED91FC9159974F
:104A700092969C91929723FF04C08081892B80831A
:104A800004C080819095982390835A96ED91FC9173
:104A90005B97908193968C919397809589238083DF
:104AA0005A96ED91FC915B97808193969C91939798
:104AB000892B80835896ED91FC91599792969C9101
:104AC000929722FF04C08081892B808304C080815B
:104AD0009095982390835A96ED91FC915B979081E5
:104AE00093968C9193978095892380835A96ED9124
:104AF000FC915B97808193969C919397892B8083FF
:104B00005896ED91FC91599792969C91929721FF1E
:104B100004C08081892B808304C080819095982374
:104B200090835A96ED91FC915B97908193968C912E
:104B300093978095892380835A96ED91FC915B979A
:104B4000808193969C919397892B80835896ED91C1
:104B5000FC91599792969C91929720FF04C0808176
:104B6000892B808304C080819095982390835A96E6
:104B7000ED91FC915B97908193968C9193978095A2
:104B8000892380835A96ED91FC915B97808193965F
:104B90009C912CC062B95296ED91FC9153979081F3
:104BA0005F968C915F978095892380835296ED91D3
:104BB000FC91539780815F969C915F97892B8083AE
:104BC00042B902C062B948B95296ED91FC9153972F
:104BD00090815F968C915F97809589238083529610
:104BE000ED91FC91539780815F969C91892B8083F6
:104BF0000895A59844B3262F332727FD3095C90182
:104C000080719070880F991F482B44BB80910201DE
:104C1000877E8093020140910201C901807C9070DF
:104C2000F3E095958795FA95E1F7482B40930201BB
:104C30008EB1847C8EB99EB1862F8C70880F880FC0
:104C40006370860F207230703595279535952795BE
:104C5000820F892B8EB95C96ED91FC915D979081C6
:104C600094968C9194978095892380835C96ED919E
:104C7000FC915D97808194969C919497892B808379
:104C80005C96ED91FC915D97908194968C919497B0
:104C90008095892380835496ED91FC91559790815E
:104CA00090968C919097809589238083A59844B3A2
:104CB000252F332727FD3095C90180719070880F0B
:104CC000991F482B44BB80910201877E809302018B
:104CD00040910201C901807C907063E095958795B1
:104CE0006A95E1F7482B409302018EB1847C8EB91E
:104CF0009EB1852F8C70880F880F5370850F20729E
:104D000030703595279535952795820F892B8EB96B
:104D10005296ED91FC91539790815F968C915F979D
:104D20008095892380835296ED91FC9153978081E1
:104D30005F969C915F97892B80835496ED91FC91AF
:104D40005597808190969C91892B80830895AF928E
:104D5000BF92CF92DF92EF92FF920F931F93CF9368
:104D6000DF93EC015801690162B948B9C901B80182
:104D700020E130E040E050E00E94AC6379018A011C
:104D800020E030E040E050E0D4C0EA89FB89908127
:104D90008F8D809589238083EA89FB8980819F8D0F
:104DA000892B8083EA89FB8990818F8D8095892367
:104DB0008083EA89FB8980819F8D892B8083EA89A2
:104DC000FB8990818F8D809589238083EA89FB8977
:104DD00080819F8D892B8083EA89FB8990818F8DCB
:104DE000809589238083EA89FB8980819F8D892B27
:104DF0008083EA89FB8990818F8D809589238083C8
:104E0000EA89FB8980819F8D892B8083EA89FB89D0
:104E100090818F8D809589238083EA89FB898081A9
:104E20009F8D892B8083EA89FB8990818F8D809566
:104E300089238083EA89FB8980819F8D892B8083E8
:104E4000EA89FB8990818F8D809589238083EA8907
:104E5000FB8980819F8D892B8083EA89FB899081E2
:104E60008F8D809589238083EA89FB8980819F8D3E
:104E7000892B8083EA89FB8990818F8D8095892396
:104E80008083EA89FB8980819F8D892B8083EA89D1
:104E9000FB8990818F8D809589238083EA89FB89A6
:104EA00080819F8D892B8083EA89FB8990818F8DFA
:104EB000809589238083EA89FB8980819F8D892B56
:104EC0008083EA89FB8990818F8D809589238083F7
:104ED000EA89FB8980819F8D892B8083EA89FB8900
:104EE00090818F8D809589238083EA89FB898081D9
:104EF0009F8D892B8083EA89FB8990818F8D809596
:104F000089238083EA89FB8980819F8D892B808317
:104F1000EA89FB8990818F8D809589238083EA8936
:104F2000FB8980819F8D892B80832F5F3F4F4F4F5F
:104F30005F4F2E153F05400751070CF426CFD601D1
:104F4000C5018F709070A070B0700097A105B10579
:104F500029F1C601B50120E130E040E050E00E94B7
:104F6000AC639B01AC01EE24FF24870112C0EA89E7
:104F7000FB8990818F8D809589238083EA89FB89C5
:104F800080819F8D892B80830894E11CF11C011D79
:104F9000111D2E153F05400751074CF7DF91CF91AA
:104FA0001F910F91FF90EF90DF90CF90BF90AF9047
:104FB0000895AF92BF92CF92DF92EF92FF920F933C
:104FC0001F93CF93DF93EC0159016A0162B9CA01C3
:104FD000B90120E130E040E050E00E94AC6379018B
:104FE0008A0120E030E040E050E0A4C1EA89FB897A
:104FF00090818F8D809589238083EA89FB898081C8
:105000009F8D892B8083EA89FB8990818F8D809584
:1050100089238083EA89FB8980819F8D892B808306
:10502000EA89FB8990818F8D809589238083EA8925
:10503000FB8980819F8D892B8083EA89FB89908100
:105040008F8D809589238083EA89FB8980819F8D5C
:10505000892B8083EA89FB8990818F8D80958923B4
:105060008083EA89FB8980819F8D892B8083EA89EF
:10507000FB8990818F8D809589238083EA89FB89C4
:1050800080819F8D892B8083EA89FB8990818F8D18
:10509000809589238083EA89FB8980819F8D892B74
:1050A0008083EA89FB8990818F8D80958923808315
:1050B000EA89FB8980819F8D892B8083EA89FB891E
:1050C00090818F8D809589238083EA89FB898081F7
:1050D0009F8D892B8083EA89FB8990818F8D8095B4
:1050E00089238083EA89FB8980819F8D892B808336
:1050F000EA89FB8990818F8D809589238083EA8955
:10510000FB8980819F8D892B8083EA89FB8990812F
:105110008F8D809589238083EA89FB8980819F8D8B
:10512000892B8083EA89FB8990818F8D80958923E3
:105130008083EA89FB8980819F8D892B8083EA891E
:10514000FB8990818F8D809589238083EA89FB89F3
:1051500080819F8D892B8083EA89FB8990818F8D47
:10516000809589238083EA89FB8980819F8D892BA3
:105170008083EA89FB8990818F8D80958923808344
:10518000EA89FB8980819F8D892B8083EA89FB894D
:1051900090818F8D809589238083EA89FB89808126
:1051A0009F8D892B8083EA89FB8990818F8D8095E3
:1051B00089238083EA89FB8980819F8D892B808365
:1051C000EA89FB8990818F8D809589238083EA8984
:1051D000FB8980819F8D892B8083EA89FB8990815F
:1051E0008F8D809589238083EA89FB8980819F8DBB
:1051F000892B8083EA89FB8990818F8D8095892313
:105200008083EA89FB8980819F8D892B8083EA894D
:10521000FB8990818F8D809589238083EA89FB8922
:1052200080819F8D892B8083EA89FB8990818F8D76
:10523000809589238083EA89FB8980819F8D892BD2
:105240008083EA89FB8990818F8D80958923808373
:10525000EA89FB8980819F8D892B8083EA89FB897C
:1052600090818F8D809589238083EA89FB89808155
:105270009F8D892B8083EA89FB8990818F8D809512
:1052800089238083EA89FB8980819F8D892B808394
:10529000EA89FB8990818F8D809589238083EA89B3
:1052A000FB8980819F8D892B8083EA89FB8990818E
:1052B0008F8D809589238083EA89FB8980819F8DEA
:1052C000892B8083EA89FB8990818F8D8095892342
:1052D0008083EA89FB8980819F8D892B8083EA897D
:1052E000FB8990818F8D809589238083EA89FB8952
:1052F00080819F8D892B8083EA89FB8990818F8DA6
:10530000809589238083EA89FB8980819F8D892B01
:105310008083EA89FB8990818F8D809589238083A2
:10532000EA89FB8980819F8D892B80832F5F3F4F86
:105330004F4F5F4F2E153F05400751070CF456CED7
:10534000D601C5018F709070A070B0700097A10554
:10535000B10591F1C601B50120E130E040E050E037
:105360000E94AC639B01AC01EE24FF2487011FC0A7
:10537000EA89FB8990818F8D809589238083EA89D2
:10538000FB8980819F8D892B8083EA89FB899081AD
:105390008F8D809589238083EA89FB8980819F8D09
:1053A000892B80830894E11CF11C011D111D2E1511
:1053B0003F0540075107E4F6DF91CF911F910F9110
:1053C000FF90EF90DF90CF90BF90AF900895DC01F9
:1053D000462F1E968C911E97813081F05096ED914C
:1053E000FC91519790815E968C915E978095892370
:1053F0008083CD0160E01E962C9103C0CD0160E05A
:1054000021E00E944B2408951F93CF93DF93EC017A
:10541000262F142F8E85813041F0E889F98980810B
:105420009E8D892B8083CE0108C0CE0161E0422F82
:1054300021E00E944B24CE0161E0412F2E850E9485
:105440004B24DF91CF911F910895DC01462F1E96CA
:105450008C911E97813079F05096ED91FC91519787
:1054600080815E969C915E97892B8083CD0160E060
:105470001E962C9103C0CD0161E021E00E944B24D7
:105480000895EF92FF920F931F938C017A010E946F
:10549000E7296F2D772767FD7A95C8014E2D0E9469
:1054A000042A1F910F91FF90EF900895AF92BF9241
:1054B000CF92DF92EF92FF920F931F93CF93DF93E0
:1054C000EC017B015A0169018C81813059F42985F5
:1054D0003A85B9016E197F092C193D097A015901E4
:1054E00068018B018D85E82FF0E0EF31F10508F0C0
:1054F00074C1EE58FF4FEE0FFF1F0590F491E02DA1
:105500001994CE0162E04F2D50E00E94412ACE0155
:1055100063E0A7010E94412ACE0164E04D2D50E0D6
:105520000E94412ACE0165E0A6010E94412ACE01D7
:1055300066E04B2D50E00E94412ACE0167E0A501B4
:105540000E94412ACE0168E0412F50E070C0CE0198
:105550006AE20E94E729CE0160E04F2D0E94042AF2
:10556000CE0160E04E2D0E94042ACE0160E04D2D58
:105570000E94042ACE0160E04C2D0E94042ACE0134
:105580006BE20E94E729CE0160E04B2D0E94042AC5
:10559000CE0160E04A2D0E94042ACE0160E0412F36
:1055A0000E94042ACE0160E0402F0E94042A11C10B
:1055B0005C2D44274E0D5F1DCE0164E40E94412AFC
:1055C000CE0165E4A5010E94412ACE0166E4A8014E
:1055D0000E94412ACE016EE4A7010E94412ACE0119
:1055E0006FE4B2C0CE0162E040E050E00E94412A88
:1055F000CE0163E0A7010E94412ACE0164E040E0B1
:1056000050E00E94412ACE0165E0A6010E94412A95
:10561000CE0166E040E050E00E94412ACE0167E002
:10562000A5010E94412ACE0168E040E050E00E94BE
:10563000412ACE0169E06BC0CE016AE20E94E729EF
:10564000CE016E2D0E94252ACE016C2D0E94252AA6
:10565000CE016BE20E94E729CE016A2DB4C0CE01D3
:105660006AE20E94E729CE016B2D0E94252ACE0115
:105670006A2D0E94252ACE01612F0E94252ACE0183
:10568000602F0E94252ACE016BE20E94E729CE01FD
:105690006F2D0E94252ACE016E2D0E94252ACE0153
:1056A0006D2D0E94252ACE016C2D91C05C2D4427C2
:1056B0004E295F29CE0166E40E94412ACE0167E4AB
:1056C000A8010E94412ACE0168E4A5010E94412A56
:1056D000CE0160E2A70134C0CE0160E2A7010E94C2
:1056E000412ACE0161E2A5010E94412ACE0160E576
:1056F000A7010E94412ACE0162E5A5010E94412A2C
:10570000CE0161E5A6010E94412ACE0163E5A80110
:105710001CC0CE0166E3A6010E94412ACE0167E3C8
:10572000A7010E94412ACE0168E3A8010E94412AF4
:10573000CE0169E3A5010E94412ACE0160E2A701E2
:105740000E94412ACE0161E2A5010E94412ACE01B8
:1057500062E241C0CE0162E0A5010E94412ACE0171
:1057600063E0A7010E94412ACE0166E0A8010E94E1
:10577000412ACE0167E0A6010E94412ACE016FE0D6
:105780002AC0CE016AE20E94E729CE016F2D0E9455
:10579000252ACE016E2D0E94252ACE016D2D0E9454
:1057A000252ACE016C2D0E94252ACE016BE20E9493
:1057B000E729CE016B2D0E94252ACE016A2D0E9479
:1057C000252ACE01612F0E94252ACE01602F0E943A
:1057D000252ACE016CE20E94E729DF91CF911F912B
:1057E0000F91FF90EF90DF90CF90BF90AF90089512
:1057F0000F931F93FC018481A581B68101851285D9
:10580000882339F4CF0160E070E040E050E09D0172
:1058100007C0CF0160E070E040E050E098018D01EA
:105820000E94562A1F910F9108952F923F924F92F6
:105830005F926F927F928F929F92AF92BF92CF9220
:10584000DF92EF92FF920F931F93DF93CF93CDB729
:10585000DEB728970FB6F894DEBF0FBECDBF98878E
:105860008F831B012A01790121E030E02E193F09C5
:105870003E832D83C701880F991FAA27BB27A81B2A
:10588000B90BBA83A983AF81B8855496ED91FC9189
:105890005597908190968C9180958923808387017C
:1058A000040F151F8F819885A80191010E94562A27
:1058B0008F819885FC01608141810E94042A8201C8
:1058C0000E191F098F819885B101A80191010E94CD
:1058D000562A8F819885DC016C9111964C910E941B
:1058E000042A9701220D331D8F819885B901A201E9
:1058F00082010E94562A8F819885FC016081418136
:105900000E94042A91012E193F098F819885B901BF
:10591000A2010E94562A8F819885DC016C91119614
:105920004C910E94042A3701E1E0F0E0FC83EB8314
:1059300088249924AEC02D813E8137FD0CC0089487
:105940006108710889819A8102969A838983280F58
:10595000391F3E832D830894811C911CAB81BC812F
:105960001296BC83AB83ED81FE81EA0FFB1FFE83A1
:10597000ED835401A20CB31C7301E40CF51C8F8160
:105980009885B501A701950187010E94562A8F814C
:105990009885DC016C9111964C910E94042A61015A
:1059A000C818D9088F819885B601A70196010E9471
:1059B000562A8F819885FC01608141810E94042ACA
:1059C0007201E618F7088F819885B501A701950146
:1059D00087010E94562A8F819885DC016C9111966F
:1059E0004C910E94042A8F819885B601A7019601E7
:1059F0000E94562A8F819885FC01608141810E9416
:105A0000042A5301A20CB31C7401E40CF51C8F8111
:105A10009885B501A701950187010E94562A8F81BB
:105A20009885DC016C9111964C910E94042A6101C9
:105A3000C618D7088F819885B601A70196010E94E4
:105A4000562A8F819885FC01608141810E94042A39
:105A50007201E818F9088F819885B501A7019501B1
:105A600087010E94562A8F819885DC016C911196DE
:105A70004C910E94042A8F819885B601A701960156
:105A80000E94562A8F819885FC01608141810E9485
:105A9000042A861497040CF44ECFAF81B88554962F
:105AA000ED91FC915597808190969C91892B8083F4
:105AB0008F8198850E94F82B28960FB6F894DEBF48
:105AC0000FBECDBFCF91DF911F910F91FF90EF904F
:105AD000DF90CF90BF90AF909F908F907F906F900E
