:100000000C94680E0C94950E0C94950E0C94950E11
:100010000C94950E0C94950E0C94950E0C94950ED4
:100020000C94950E0C94950E0C94950E0C94950EC4
:100030000C94950E0C94950E0C94950E0C94950EB4
:100040000C94950E0C94950E0C94950E0C94950EA4
:100050000C94950E0C94950E0C94950E0C94B56D15
:100060000C94950E0C94950E0C94950E0C94950E84
:100070000C94950E0C94950E0C94950E0C94950E74
:100080000C94950E0C94950E0C94950E0C94950E64
:100090000C94950E0C94950E0C94950E0C9458306F
:1000A0000C94950E0C94950E0C94950E0C94950E44
:1000B0000C94950E0C94950E0C94950E0C94950E34
:1000C0000C94950E0C94950E0C94950E0C94950E24
:1000D0000C94950E0C94950E0C94950E0C94950E14
:1000E0000C94950EDC3802393339C739C739C73912
:1000F0004D391C3ADC381C3A77391C3A8A398A392E
:10010000B139B1393339C739C73933398A391C3A2A
:10011000C739E4391C3A1C3A1C3A1C3A1C3A053AD5
:100120001C3A6F470B49284A1C4B594C594C344ECA
:100130009B4FAA54A85002526F523C564557F6584E
:10014000F658284AF959F959284A1858545BEE4C80
:100150001D5CE85CEE5E155EA75FEE604E6263625A
:1001600005A84CCDB2D44EB93836A9020C50B9917D
:100170008688083CA6AAAA2ABE000000803F005E2E
:10018000BCE2613FDD83C29C7E20A3FD1F419DC375
:10019000217FFCA2401E5F01E3BD3E6082DC237D27
:1001A0009FC1421CFEA0E1BF5D0380DE3C62BEE059
:1001B000025CDF81633D7C22C09E1D43A1FF461887
:1001C000FAA427799BC584DA3866E5BB5907DB8535
:1001D0006739BAE406581947A5FB7826C49A653BE7
:1001E000D987045AB8E6A7F91B45C6987A24F8A619
:1001F000441A99C7257B3A6486D85B05E7B98CD247
:10020000306EEDB3510F4E10F2AC2F7193CD114FF4
:10021000ADF3702ECC92D38D6F31B2EC0E50AFF1A6
:10022000134DCE90722C6D33D18F0C52B0EE326CD8
:100230008ED0530DEFB1F0AE4C1291CF2D73CA9406
:100240007628ABF517490856B4EA6937D58B5709B4
:10025000EBB536688AD495CB2977F4AA4816E9B766
:10026000550B88D6346A2B7597C94A14F6A8742A98
:10027000C896154BA9F7B6E80A54D7896B35080C10
:10028000205F0000000000000000000000000000EF
:1002900020202020202000200000002850500000B6
:1002A00000000000000000002828FC2850FC5050EE
:1002B0000000002078A8A0603028A8F020000000EE
:1002C00048A8B0502834544800000000205050780E
:1002D000A8A8906C000000404080000000000000D2
:1002E0000000000408101010101010080400004056
:1002F0002010101010101020400000000020A870E6
:1003000070A8200000000000202020F820202000FD
:1003100000000000000000000000004040800000DD
:10032000000000F8000000000000000000000000D5
:100330000000004000000008101010202040404045
:10034000800000007088888888888870000000001D
:10035000206020202020207000000000708888107D
:10036000204080F80000000070880830080888707D
:10037000000000001030505090781018000000006D
:10038000F88080F00808887000000000709080F00D
:100390008888887000000000F8901020202020201D
:1003A0000000000070888870888888700000000055
:1003B00070888888780848700000000000002000DD
:1003C00000000020000000000000002000000020CD
:1003D0002000000408102040201008040000000045
:1003E0000000F80000F800000000004020100804A1
:1003F0000810204000000000708888102020002095
:1004000000000000708898A8A8B88078000000005C
:1004100020203050507848CC00000000F048487050
:10042000484848F00000000078888080808088700C
:1004300000000000F0484848484848F0000000002C
:10044000F8485070504048F800000000F8485070DC
:10045000504040E000000000384880809C884830D0
:1004600000000000CC484878484848CC0000000014
:10047000F8202020202020F8000000007C10101020
:1004800010101090E0000000EC485060505048EC14
:1004900000000000E0404040404044FC00000000FC
:1004A000D8D8D8D8A8A8A8A800000000DC48686858
:1004B000585848E80000000070888888888888704C
:1004C00000000000F0484870404040E0000000009C
:1004D0007088888888E8987018000000F048487094
:1004E000504848EC0000000078888060100888F0D0
:1004F00000000000F8A8202020202070000000004C
:10050000CC4848484848483000000000CC48485093
:100510005030202000000000A8A8A8705050505073
:1005200000000000D8505020205050D8000000009B
:10053000D85050202020207000000000F89010209B
:10054000204048F8000000382020202020202020D3
:1005500038000040404020201010100800000070BB
:10056000101010101010101070000020500000002B
:10057000000000000000000000000000000000007B
:1005800000FC00200000000000000000000000004F
:10059000000000304838483C00000000C040407077
:1005A00048484870000000000000003848404038CB
:1005B00000000000180808384848483C00000000C7
:1005C0000000003048784038000000001C202078EF
:1005D00020202078000000000000003C48304078D7
:1005E00044380000C0404070484848EC000000001B
:1005F000200000602020207000000000100000306B
:100600001010101010E00000C040405C507048EC2A
:1006100000000000E0202020202020F80000000042
:10062000000000F0A8A8A8A800000000000000F04A
:10063000484848EC000000000000003048484830BE
:1006400000000000000000F04848487040E0000052
:100650000000003848484838081C0000000000D856
:10066000604040E000000000000000784030087862
:100670000000000000202070202020180000000052
:10068000000000D84848483C00000000000000EC92
:100690004850302000000000000000A8A870505012
:1006A00000000000000000D8502050D800000000DA
:1006B000000000EC4850302020C00000000000780E
:1006C00010202078000000181010102010101010BA
:1006D00018001010101010101010101010100060E2
:1006E0002020201020202020600040A418000000BE
:1006F0000000000000001010205F0000000000005B
:1007000000000000000000000000000000000000E9
:1007100000000000000000000000000000000700D2
:100720000F800F800F800F800F80070007000000F0
:100730000000070007000700000000000E380E3818
:100740000E380E38063000000000000000000000E7
:100750000000000000000000000000000C300C3021
:100760000C307FFE7FFE0C300C300C300C307FFEE6
:100770007FFE0C300C300C300000000002400240C4
:100780000FF81FF81A401A401FF00FF802580258CD
:100790001FF81FF0024002400000000000000000AF
:1007A0000E100E300E7000E001C0038007000E70C6
:1007B0000C700870000000000000000000000F0036
:1007C0001980198019800F000F080F9819F818F078
:1007D00018E019F00F98000000000000000007006A
:1007E000070007000E0000000000000000000000ED
:1007F000000000000000000000000000000000F009
:1008000001C0038007000E000E000E000E0007005E
:10081000038001C000F000000000000000000F0095
:10082000038001C000E0007000700070007000E004
:1008300001C003800F0000000000000000000180E4
:100840001188099007E007E03FFC3FFC07E007E064
:1008500009901188018000000000000000000000E5
:1008600000000180018001800FF00FF00180018005
:1008700001800000000000000000000000000000F7
:100880000000000000000000000000000000000068
:100890000700070007000E00000000000000000035
:1008A00000000000000000001FF81FF8000000001A
:1008B0000000000000000000000000000000000038
:1008C0000000000000000000000000000000000028
:1008D0000700070007000000000000000000000201
:1008E0000006000E001C0038007000E001C003800C
:1008F00007000E001C0000000000000000000FF0C8
:100900001C381C781CF81CF81DB81DB81F381F387F
:100910001E381C380FF000000000000000000180AD
:10092000018003801F801F80038003800380038079
:10093000038003801FF000000000000000000FE0B3
:100940001C701C380038007000E001C003800700F4
:100950000E381C381FF800000000000000000FE0F7
:100960001C701C380038007003C003C000700038D1
:100970001C381C700FE0000000000000000000E0C8
:1009800001E003E006E00CE018E01FF81FF800E0CB
:1009900000E000E003F800000000000000001FF885
:1009A0001C001C001C001C001FE01FF00078003819
:1009B0001C381C700FE0000000000000000003E085
:1009C00007000E001C001C001FF01FF81C381C380C
:1009D0001C381C380FF000000000000000001FFC55
:1009E0001C1C1C1C1C1C001C0038007000E001C0FA
:1009F00003800380038000000000000000000FF06F
:100A00001C381C381C381F3807E007E01CF81C385D
:100A10001C381C380FF000000000000000000FF030
:100A20001C381C381C381C381FF80FF800380038E8
:100A3000007000E007C0000000000000000000009F
:100A40000000038003800380000000000380038017
:100A50000380000000000000000000000000000013
:100A600000000380038003800000000003800380F7
:100A7000038007000000000000000000007000E09C
:100A800001C0038007000E001C001C000E000700C0
:100A9000038001C000E000700000000000000000C2
:100AA000000000003FFC3FFC000000003FFC3FFC5A
:100AB0000000000000000000000000001C000E000C
:100AC0000700038001C000E00070007000E001C07A
:100AD000038007000E001C000000000003C00FF0A0
:100AE0001E7818380038007000E001C001C0000016
:100AF000000001C001C001C0000000000FF81C1C74
:100B00001C1C1C1C1C1C1CFC1CFC1CFC1CFC1C00C1
:100B10001C001C001FF007F800000000000003C0CC
:100B200007E00E701C381C381C381C381FF81C38A5
:100B30001C381C381C3800000000000000001FF0AA
:100B40000E380E380E380E380FF00FF00E380E3803
:100B50000E380E381FF0000000000000000007F003
:100B60000E381C381C001C001C001C001C001C0043
:100B70001C380E3807F000000000000000001FE0E5
:100B80000E700E380E380E380E380E380E380E38FD
:100B90000E380E701FE000000000000000001FF87B
:100BA0000E180E080E000E300FF00FF00E300E0073
:100BB0000E080E181FF800000000000000001FF8CB
:100BC0000E180E080E000E300FF00FF00E300E0053
:100BD0000E000E001F00000000000000000007F0E3
:100BE0000E381C381C381C001C001C001CF81C385B
:100BF0001C380E3807F800000000000000001C70D0
:100C00001C701C701C701C701FF01FF01C701C707E
:100C10001C701C701C7000000000000000000FE041
:100C200003800380038003800380038003800380AC
:100C3000038003800FE0000000000000000001FCC2
:100C400000700070007000700070007038703870B4
:100C5000387038700FE000000000000000001E38FF
:100C60000E380E700EE00FC00F800F800FC00EE028
:100C70000E700E381E3800000000000000001F003B
:100C80000E000E000E000E000E000E000E000E08EC
:100C90000E180E381FF800000000000000001C1C99
:100CA0001E3C1F7C1FFC1FFC1DDC1C9C1C1C1C1CF8
:100CB0001C1C1C1C1C1C00000000000000001C1C54
:100CC0001C1C1E1C1F1C1F9C1DDC1CFC1C7C1C3CBB
:100CD0001C1C1C1C1C1C000000000000000003E089
:100CE00007F00E381C1C1C1C1C1C1C1C1C1C1C1C77
:100CF0000E3807F003E000000000000000001FF0C5
:100D00000E380E380E380E380FF00FF00E000E00B1
:100D10000E000E001F00000000000000000003E0B5
:100D20000F780E381C1C1C1C1C1C1C1C1C7C1CFC66
:100D30000FF80FF8003800FC0000000000001FF062
:100D40000E380E380E380E380FF00FF00E700E38C9
:100D50000E380E381E3800000000000000000FF0B2
:100D60001C381C381C381C000FE007F000381C38F9
:100D70001C381C380FF000000000000000001FFCB1
:100D800019CC11C401C001C001C001C001C001C023
:100D900001C001C007F000000000000000001C704E
:100DA0001C701C701C701C701C701C701C701C70E3
:100DB0001C701C700FE000000000000000001C70A0
:100DC0001C701C701C701C701C701C701C701C70C3
:100DD0000EE007C0038000000000000000001C1CA3
:100DE0001C1C1C1C1C1C1C1C1C9C1C9C1C9C0FF8F4
:100DF0000FF80770077000000000000000001C7072
:100E00001C701C700EE007C00380038007C00EE05A
:100E10001C701C701C7000000000000000001C70A2
:100E20001C701C701C701C700EE007C003800380D7
:100E3000038003800FE000000000000000001FF8A6
:100E40001C381838107000E001C0038007000E083D
:100E50001C181C381FF8000000000000000007F0FC
:100E6000070007000700070007000700070007004A
:100E70000700070007F0000000000000000010005D
:100E800018001C000E000700038001C000E0007085
:100E90000038001C0007000000000000000007F000
:100EA00000700070007000700070007000700070C2
:100EB0000070007007F0000000000000018003C017
:100EC00007E00E701C380000000000000000000069
:100ED0000000000000000000000000000000000012
:100EE0000000000000000000000000000000000002
:100EF0000000000000007FFF7FFF000000001C00DA
:100F00001C000700070000000000000000000000B7
:100F100000000000000000000000000000000000D1
:100F20000000000000000FE0007000700FF01C7067
:100F30001C701C700FD800000000000000001E0094
:100F40000E000E000E000FF00E380E380E380E3860
:100F50000E380E381BF000000000000000000000FA
:100F60000000000000000FE01C701C701C001C0042
:100F70001C701C700FE0000000000000000000F872
:100F80000070007000700FF01C701C701C701C70E2
:100F90001C701C700FD80000000000000000000052
:100FA0000000000000000FE01C701C701FF01C000F
:100FB0001C701C700FE0000000000000000003E047
:100FC00007700770070007001FE01FE00700070019
:100FD000070007001FC00000000000000000000024
:100FE0000000000000000FD81C701C701C701C70EA
:100FF0000FF007F000701C700FE0000000001E00F2
:101000000E000E000E000EF00F380F380E380E389E
:101010000E380E381E38000000000000000001C02D
:1010200001C001C000000FC001C001C001C001C06B
:1010300001C001C00FF800000000000000000070B7
:1010400000700070000003F000700070007000700D
:10105000007000701C700CF007E0000000001E0023
:101060000E000E000E000E380E700EE00FC00EE0E7
:101070000E700E381E3800000000000000000FC087
:1010800001C001C001C001C001C001C001C001C058
:1010900001C001C00FF800000000000000000000C7
:1010A0000000000000001FF81C9C1C9C1C9C1C9C49
:1010B0001C9C1C9C1C9C0000000000000000000008
:1010C0000000000000001FE01C701C701C701C70F1
:1010D0001C701C701C70000000000000000000006C
:1010E0000000000000000FE01C701C701C701C70E1
:1010F0001C701C700FE000000000000000000000E9
:101100000000000000001BF00E380E380E380E38BC
:101110000E380FF00E000E001F000000000000004F
:101120000000000000001FB038E038E038E038E090
:1011300038E01FE000E000E001F0000000000000E7
:101140000000000000001EF00FF80F380E000E0027
:101150000E000E001F000000000000000000000054
:101160000000000000000FE01C301C300F8003E086
:10117000187018700FE00000000000000000000070
:101180000100030007001FF0070007000700070029
:101190000770077003E0000000000000000000007E
:1011A0000000000000001C701C701C701C701C7083
:1011B0001C701C700FD80000000000000000000030
:1011C0000000000000001C701C701C701C701C7063
:1011D0000EE007C0038000000000000000000000D7
:1011E0000000000000001C1C1C1C1C1C1C9C1C9CE7
:1011F0000FF80770077000000000000000000000FA
:101200000000000000001CE01CE00FC00780078009
:101210000FC01CE01CE00000000000000000000007
:101220000000000000000E380E380E380E380E3860
:1012300007F003E000E001C01F8000000000000094
:101240000000000000001FE018E011C0038007004C
:101250000E201C601FE0000000000000000001F8EC
:1012600003800380038007001C001C00070003802C
:101270000380038001F800000000000001C001C0ED
:1012800001C001C001C001C001C001C001C001C056
:1012900001C001C001C001C00000000000001F80AB
:1012A00001C001C001C000E00038003800E001C00A
:1012B00001C001C01F8000000000000000001F1CD2
:1012C0003B9C39DC38F80000000000000000000002
:1012D000000000000000000000002032300A000082
:1012E00000000000000000FFFE0001FFFF0003FF00
:1012F000FF8001FFFF600CFFFEF01E0001F83F00C1
:1013000001F83F0001F83F0001F83F0001F83F00FD
:1013100001F83F0001F83F0001F83F0001F83F00ED
:1013200001F83F0001F83F0001F83F0001F83F00DD
:1013300001F83E0000783800001820000008000086
:10134000000020000000380000183E0000783F0038
:1013500001F83F0001F83F0001F83F0001F83F00AD
:1013600001F83F0001F83F0001F83F0001F83F009D
:1013700001F83F0001F83F0001F83F0001F83F008D
:1013800001F83F0001F81E0000F00CFFFE6001FFB5
:10139000FF0003FFFF8001FFFF0000FFFE000000D1
:1013A000000000000000000000000000000000003D
:1013B00000000000000000000000000000600000CD
:1013C00000F0000001F8000001F8000001F8000042
:1013D00001F8000001F8000001F8000001F8000029
:1013E00001F8000001F8000001F8000001F8000019
:1013F00001F8000001F8000001F80000007800008A
:1014000000180000000800000000000000000000BC
:10141000001800000078000001F8000001F800004A
:1014200001F8000001F8000001F8000001F80000D8
:1014300001F8000001F8000001F8000001F80000C8
:1014400001F8000001F8000001F8000001F80000B8
:1014500000F000000060000000000000000000003C
:10146000000000000000000000000000000000007C
:1014700000000000000000FFFE0001FFFF0003FF6E
:10148000FF8001FFFF6000FFFEF0000001F8000098
:1014900001F8000001F8000001F8000001F8000068
:1014A00001F8000001F8000001F8000001F8000058
:1014B00001F8000001F8000001F8000001F8000048
:1014C00001F80000007801FFFE1803FFFF880FFFFE
:1014D000FFE027FFFFC039FFFF003E0000003F0094
:1014E00000003F0000003F0000003F0000003F0000
:1014F00000003F0000003F0000003F0000003F00F0
:1015000000003F0000003F0000003F0000003F00DF
:1015100000003F0000001E0000000CFFFE0001FF65
:10152000FF0003FFFF8001FFFF0000FFFE0000003F
:10153000000000000000000000000000000000FFAC
:10154000FE0001FFFF0003FFFF8001FFFF6000FFBF
:10155000FEF0000001F8000001F8000001F80000B2
:1015600001F8000001F8000001F8000001F8000097
:1015700001F8000001F8000001F8000001F8000087
:1015800001F8000001F8000001F80000007801FFF8
:10159000FE1803FFFF880FFFFFE007FFFFC001FFFA
:1015A000FF1800000078000001F8000001F80000BA
:1015B00001F8000001F8000001F8000001F8000047
:1015C00001F8000001F8000001F8000001F8000037
:1015D00001F8000001F8000001F8000001F8000027
:1015E00000F000FFFE6001FFFF0003FFFF8001FF2E
:1015F000FF0000FFFE0000000000000000000000EF
:1016000000000000000000000000000000000000DA
:101610000000000000600C0000F01E0001F83F0018
:1016200001F83F0001F83F0001F83F0001F83F00DA
:1016300001F83F0001F83F0001F83F0001F83F00CA
:1016400001F83F0001F83F0001F83F0001F83F00BA
:1016500001F83E00007839FFFE1823FFFF880FFFD6
:10166000FFE007FFFFC001FFFF1800000078000047
:1016700001F8000001F8000001F8000001F8000086
:1016800001F8000001F8000001F8000001F8000076
:1016900001F8000001F8000001F8000001F8000066
:1016A00001F8000001F8000000F0000000600000F8
:1016B000000000000000000000000000000000002A
:1016C000000000000000000000000000000000FF1B
:1016D000FE0001FFFF0003FFFF8001FFFF000CFF82
:1016E000FE001E0000003F0000003F0000003F0021
:1016F00000003F0000003F0000003F0000003F00EE
:1017000000003F0000003F0000003F0000003F00DD
:1017100000003F0000003F0000003E00000039FFD5
:10172000FE0023FFFF800FFFFFE007FFFFC001FF68
:10173000FF1800000078000001F8000001F8000028
:1017400001F8000001F8000001F8000001F80000B5
:1017500001F8000001F8000001F8000001F80000A5
:1017600001F8000001F8000001F8000001F8000095
:1017700000F000FFFE6001FFFF0003FFFF8001FF9C
:10178000FF0000FFFE00000000000000000000005D
:1017900000000000000000FFFE0001FFFF0003FF4B
:1017A000FF8001FFFF000CFFFE001E0000003F0055
:1017B00000003F0000003F0000003F0000003F002D
:1017C00000003F0000003F0000003F0000003F001D
:1017D00000003F0000003F0000003F0000003F000D
:1017E00000003E00000039FFFE0023FFFF800FFFD6
:1017F000FFE027FFFFC039FFFF183E0000783F00E1
:1018000001F83F0001F83F0001F83F0001F83F00F8
:1018100001F83F0001F83F0001F83F0001F83F00E8
:1018200001F83F0001F83F0001F83F0001F83F00D8
:1018300001F83F0001F81E0000F00CFFFE6001FF00
:10184000FF0003FFFF8001FFFF0000FFFE0000001C
:10185000000000000000000000000000000000FF89
:10186000FE0001FFFF0003FFFF8001FFFF6000FF9C
:10187000FEF0000001F8000001F8000001F800008F
:1018800001F8000001F8000001F8000001F8000074
:1018900001F8000001F8000001F8000001F8000064
:1018A00001F8000001F8000001F8000000780000D5
:1018B0000018000000080000000000000000000008
:1018C000001800000078000001F8000001F8000096
:1018D00001F8000001F8000001F8000001F8000024
:1018E00001F8000001F8000001F8000001F8000014
:1018F00001F8000001F8000001F8000001F8000004
:1019000000F0000000600000000000000000000087
:1019100000000000000000000000000000000000C7
:1019200000000000000000FFFE0001FFFF0003FFB9
:10193000FF8001FFFF600CFFFEF01E0001F83F007A
:1019400001F83F0001F83F0001F83F0001F83F00B7
:1019500001F83F0001F83F0001F83F0001F83F00A7
:1019600001F83F0001F83F0001F83F0001F83F0097
:1019700001F83E00007839FFFE1823FFFF880FFFB3
:10198000FFE027FFFFC039FFFF183E0000783F004F
:1019900001F83F0001F83F0001F83F0001F83F0067
:1019A00001F83F0001F83F0001F83F0001F83F0057
:1019B00001F83F0001F83F0001F83F0001F83F0047
:1019C00001F83F0001F81E0000F00CFFFE6001FF6F
:1019D000FF0003FFFF8001FFFF0000FFFE0000008B
:1019E000000000000000000000000000000000FFF8
:1019F000FE0001FFFF0003FFFF8001FFFF600CFFFF
:101A0000FEF01E0001F83F0001F83F0001F83F0022
:101A100001F83F0001F83F0001F83F0001F83F00E6
:101A200001F83F0001F83F0001F83F0001F83F00D6
:101A300001F83F0001F83F0001F83E00007839FF4F
:101A4000FE1823FFFF880FFFFFE007FFFFC001FF25
:101A5000FF1800000078000001F8000001F8000005
:101A600001F8000001F8000001F8000001F8000092
:101A700001F8000001F8000001F8000001F8000082
:101A800001F8000001F8000001F8000001F8000072
:101A900000F000FFFE6001FFFF0003FFFF8001FF79
:101AA000FF0000FFFE00000000000000000000003A
:101AB0002100240027002A002D00300033000101FE
:101AC0000000040107010A0100002200250028008F
:101AD0002B002E0031003400020100000501080136
:101AE0000B01000020002300260029002C002F00FD
:101AF000320000010000030106010901050505058A
:101B0000070508080808020202020A0A0808040475
:101B100004040101010101010101030303030303A3
:101B20000303040707070C0C0C0C0C0C0C0C020232
:101B3000020206060606060606060B0B0B0B0B0B2F
:101B40000B0B0102102020080810204010204080BC
:101B50000201020108040201010204081020408071
:101B600080402010080402018004020180402010FF
:101B70000804020108040201010204081020408048
:101B800001020408102040800000090A02080B0C22
:101B90000D07060304010000000000000000000023
:101BA0000000000000000000000000000000000035
:101BB0000000000011100F000000000000000000F5
:101BC00000000000000000000000000000000040D5
:101BD0007A10F35A00A0724E18090010A5D4E8003C
:101BE00000E87648170000E40B54020000CA9A3B54
:101BF000000000E1F50500008096980000004042DA
:101C00000F000000A0860100000010270000000067
:101C1000E803000000006400000000000A0000006B
:101C200000000100000000002C76D888DC674F0817
:101C300023DFC1DFAE59E1B1B796E5E3E453C63A1D
:101C4000E651997696E8E6C28426EB898C9B62ED94
:101C5000407C6FFCEFBC9C9F40F2BAA56FA5F4904E
:101C6000055A2AF75C936B6CF9676DC11BFCE0E4C5
:101C70000D47FEF520E6B500D0ED902E030094351B
:101C800077050080841E080000204E0A000000C86E
:101C90000C333333330F986E12831141EF8D2114BF
:101CA000893BE65516CFFEE6DB18D1844B381BF78F
:101CB0007C1D901DA4BBE424203284725E2281002E
:101CC000C9F124ECA1E53D27DD14112CF42EA1323D
:101CD00011241FBECFEFD1E2DEBFCDBF00E00CBFAD
:101CE00015E0A0E0B2E0EAE2FEEE00E00BBF02C0C9
:101CF00007900D92AC30B107D9F71BBE17E0ACE0EE
:101D0000B5E001C01D92AF32B107E1F71CE1C0EDB3
:101D1000DCE104C02297FE010E94D876C83CD107BE
:101D2000C9F70E94C56F0C9413770C940000EF92D2
:101D3000FF920F931F93F22FF02E47FD02C0E4E0B5
:101D400001C0E4E1242F332727FD309537FF03C07E
:101D5000309521953F4F4F2D512F0F2FEE2E0E9482
:101D6000340F8F2D912F1F910F91FF90EF900895B9
:101D70001F93FC0199278827BC01E8941191103228
:101D8000E9F3193010F01E30C8F31B3251F01D3248
:101D900049F4689406C00E941F0F610F711D811DD8
:101DA000911D119110531A30B0F33EF49095809527
:101DB000709561957F4F8F4F9F4F1F910895FB0145
:101DC000DC0102C001900D9241505040D8F70895B7
:101DD000FB01DC0101900D920020E1F70895FB0169
:101DE000DC014150504048F001900D920020C9F7AD
:101DF00001C01D9241505040E0F70895FB019F0142
:101E0000E8944230C4F04532B4F44A3029F497FBE8
:101E10001EF4909581959F4F642F77270E947276CC
:101E2000805D8A330CF0895D8193CB010097A1F727
:101E300016F45DE251931082C9010C946E11592F72
:101E4000482F372F262F660F771F881F991F660F81
:101E5000771F881F991F620F731F841F951F660FBE
:101E6000771F881F991F0895A9E0B0E0EAE3FFE01B
:101E70000C94E0766A01122FA02EBE2C2BE32017C3
:101E800018F42CE3922E02C0902E9394AE014F5F73
:101E90005F4F27E0092D0E949610BC018981E82E32
:101EA000FF24C70189709070019711F4ADE209C059
:101EB000B1FE02C0ABE205C0B0FC02C0A0E001C0B0
:101EC000A0E2E3FE3BC0AA2311F423E001C024E01A
:101ED000211710F020E002C0121B212FEB2CB4FEC2
:101EE00002C0322F0AC0F601322F80E202C0819375
:101EF00031503323E1F7C20ED11CAA2319F0F601A9
:101F0000A1936F01F6013196E2FE05C09EE4D60171
:101F10009C9381E404C09EE6D6019C9381E61196D1
:101F20008C9391833296DF01832F90E202C09D93C0
:101F300081508823E1F7E30FF11D40C0E2FE42C06B
:101F4000AA2311F423E001C024E0211710F020E0BF
:101F500002C0121B212FEB2CB4FE02C0922F0AC02C
:101F6000F601922F80E202C0819391509923E1F70C
:101F7000C20ED11CAA2319F0F601A1936F01F6013C
:101F80003196E2FE08C089E4D6018C938EE4119666
:101F90008C9386E407C089E6D6018C938EE6119671
:101FA0008C9386E681833296DF01892F20E202C07E
:101FB0002D9381508823E1F7E90FF11D10822EEF58
:101FC0003FEFAFC0161617061CF041E050E003C00B
:101FD000AB014F5F5F4FAA2019F480E090E003C08F
:101FE0008A2D90E0019620E030E0AA2311F021E054
:101FF00030E0240F351F280F391F812F90E028175C
:10200000390714F020E002C0121B212F4B2D50E0A5
:10201000CA0180719070B4FC0DC0B3FC0BC0F60116
:10202000322F40E202C0419331503323E1F7C20E18
:10203000D11C01C0322FAA2319F0F601A1936F0120
:10204000892B11F0132F0AC0F601132F80E302C071
:10205000819311501123E1F7C30ED11C092D060FF6
:10206000BA8090E1892E912C8E209F20E4FE04C03E
:10207000F1E3BF1609F40150101614F001E003C09B
:10208000093008F008E09B0177FF02C020E030E053
:10209000CB010196821B930BFE013196E80FF91FCD
:1020A0008EE2F82E3B01601A71088A2D90E04427D9
:1020B0005527481B590B8FEF2F3F380719F4D601CE
:1020C000FD926D01621773072CF06216730614F40B
:1020D000808101C080E321503040319624173507BC
:1020E00024F0D6018D936D01E6CF2617370749F40A
:1020F000B5E3BB1528F0BB1621F48114910409F453
:1021000081E3F6018193D601812F90E202C09C9376
:10211000815011968823D9F7E10FF11D108220E03C
:1021200030E0C9012996EEE00C94FC76283008F0E6
:1021300027E03327DA01990F311D87FD9160009662
:102140006105710539F432602E5F3D9330E32A95C5
:10215000E1F708959F3F30F080387105610509F07F
:102160003C5F3C5F3D93913008F08068911DDF93A8
:10217000CF931F930F93FF92EF92192F987F96950D
:10218000E92F96959695E90FFF27E85DF34E99277D
:102190003327EE24FF24A701E70105900894079454
:1021A00028F4360FE71EF81E491F511D660F771FD2
:1021B000881F991F0694A1F70590079428F4E70E4D
:1021C000F81E491F561FC11D770F881F991F661FD4
:1021D0000694A1F70590079428F4F80E491F561F9E
:1021E000C71FD11D880F991F661F771F0694A1F77F
:1021F0000590079420F4490F561FC71FD81F990F49
:10220000661F771F881F0694A9F784911095177091
:1022100041F0D695C79557954795F794E7941A9549
:10222000C1F7EEECFBE1689415901591359165913D
:10223000959105907FE27395E118F10A430B560BD7
:10224000C90BD009C0F7E10CF11E431F561FC91F6F
:10225000D01D7EF4703311F48A95E6CFE8940150D6
:1022600030F0080F0AF40027021708F4202F2395F6
:10227000022F7A3328F079E37D932A95E9F710C08D
:102280007D932A9589F606949795679537951795C6
:102290001794E118F10A430B560BC90BD00998F0BB
:1022A00023957E9173957A3308F070E37C93201325
:1022B000B8F77E9170617D9330F0839571E37D93E3
:1022C00070E32A95E1F71124EF90FF900F911F9191
:1022D000CF91DF91992787FD90950895DC01FC014E
:1022E000672F71917723E1F7329704C07C916D934A
:1022F00070836291AE17BF07C8F30895FC0184A5EF
:1023000095A50895DF93CF93CDB7DEB727970FB686
:10231000F894DEBF0FBECDBFDE011196FC01B5966D
:1023200087E001900D928150E1F729813A814B813C
:102330005C816D817E818F8190E027960FB6F89445
:10234000DEBF0FBECDBFCF91DF910895DF92EF9238
:10235000FF920F931F938B0180E6E82E86E0F82E04
:10236000C7010E94A72ED82E0F5F1F4FC701B801CB
:102370000E94A72E382F20E02D0D311DC9011F917D
:102380000F91FF90EF90DF900895DF92EF92FF9210
:102390000F931F938B01D52E90E6E92E96E0F92E30
:1023A000C7010E94AE2E0F5F1F4FC701B8014D2D10
:1023B0000E94AE2E1F910F91FF90EF90DF90089535
:1023C000CF93DF93EC01EAA9FBA99AA18481981726
:1023D000A1F44CA95DA95DA74CA768857985CE01BC
:1023E0000E94C5118AA189A7EAA9FBA98281883028
:1023F00008F488E08FA38EA58EA3DF91CF91089576
:10240000FC01AB0177AB66AB648575850E94C51195
:1024100008950F931F938C01FC01848160E00E945A
:10242000926FF801868160E00E94926FF8018281CC
:1024300060E00E94926F1F910F9108950F931F9378
:102440008C01FC01828161E00E94926FF80184811D
:1024500061E00E94926FF801868160E00E94926FB5
:102460001F910F910895EF92FF920F931F93CF93B7
:10247000DF93EC018E899F890397A1F50E94FD6D82
:102480007B018C012EA93FA98CA99DA9AC01249F99
:10249000C001259F900D349F900D112468E070E0DD
:1024A0000E9486769B01442737FD4095542F888DE6
:1024B000998DAA8DBB8DE81AF90A0A0B1B0BE2163F
:1024C000F3060407150788F48CA59DA5A0E0B0E0ED
:1024D000281739074A075B0728F4E816F9060A07A0
:1024E0001B0718F4EE24FF248701B701C801DF9110
:1024F000CF911F910F91FF90EF900895EF92FF926F
:102500000F931F93CF93DF93EC017A018B010E940D
:1025100009120E94FD6D688F798F8A8F9B8F82E0F0
:1025200090E09F8B8E8B2EA93FA9442737FD4095C5
:10253000542FC801B7010E949976CA01B9010E94BF
:10254000D47420E030E040E05FE30E94D4730E9446
:10255000A374AB017D8F6C8F509541955F4F5DA744
:102560004CA768857985CE010E94C511DE015E9673
:102570002AA93BA9C901FC0187E001900D92815075
:10258000E1F76C897D89CE010E94A6114AA1242F12
:1025900030E08217930731F06C897D89CE0150E0DD
:1025A0000E94C51168897989CE010E94A61148A1AF
:1025B000242F30E08217930731F068897989CE01A2
:1025C00050E00E94C5116A897B89CE010E94A61144
:1025D0004F8D242F30E08217930731F06A897B8971
:1025E000CE0150E00E94C5118CA59DA5892BC9F094
:1025F0008AA189A788A18FA35F8D852F90E0E8A984
:10260000F9A9478D2EA53FA5880F991F841B910915
:102610008217930720F4822F851B840F01C0822F1D
:102620008EA3DF91CF911F910F91FF90EF900895AE
:102630000F931F938C010E94FD6DF801608F718FC5
:10264000828F938F83E090E0978B868BC8010E94E6
:102650001E121F910F910895CF93DF93EC018E8985
:102660009F890197029718F58CA59DA5892BF9F0F4
:10267000EAA9FBA999A584819817C9F49FA1828131
:102680009817A8F09EA18181981788F0CE010E942A
:10269000181303C0CE010E947E1220E08E899F890C
:1026A000039709F421E0822FDF91CF910895CE01A5
:1026B0000E943312AB01BC01411551056105710542
:1026C00061F3E8CFCF93DF93EC01798368836230C5
:1026D000710559F16330710509F44AC06130710523
:1026E00009F070C08BE290E09B838A838DE290E0DA
:1026F0009D838C838FE290E09F838E8388EC90E0B3
:10270000998788872CED30E03B872A8786EE90E01A
:102710009D878C878FEF9FEF9F878E8788EE93E052
:10272000998B888B8AEE93E045C08AE290E09B8388
:102730008A838CE290E09D838C838EE290E09F837D
:102740008E838AEC90E0998788872EED30E03B8776
:102750002A8788EE90E09D878C8782EF90E09F87A4
:102760008E8782EF93E0998B888B84EF93E022C071
:102770008BE290E09B838A8380E390E09D838C834F
:1027800081E390E09F838E838CEC90E0998788872B
:1027900020EE30E03B872A878AEE90E09D878C8789
:1027A00084EF90E09F878E878CEF93E0998B888BE6
:1027B0008EEF93E09B8B8A8B8CE494E09D8B8C8BCB
:1027C0003DAB2CAB5BAB4AAB0E94FD6D688F798F44
:1027D0008A8F9B8F1F8A1E8ADF91CF9108950F9356
:1027E0001F938C010E94FD6DF801608F718F828FA5
:1027F000938F85E090E0978B868BC8010E941E1214
:1028000060E27EE480E090E00E94776EC8010E9462
:1028100009120E94FD6DF801608F718F828F938F76
:1028200082E090E0978B868B1F910F9108950F9314
:102830001F938C010E94FD6DF801608F718F828F54
:10284000938F84E090E0978B868BC8010E941E12C4
:1028500068E873E180E090E00E94776EC8010E9412
:1028600009120E94FD6DF801608F718F828F938F26
:1028700082E090E0978B868B1F910F910895CF9304
:10288000DF93EC01FB010190F081E02DE230F105D6
:1028900041F0E330F10541F0319749F460E072E036
:1028A00008C064E072E005C067E072E002C06BE05F
:1028B00072E00E94DA70CE01DF91CF910895CF933C
:1028C000DF93EC018A8161E00E94DF6E8C8161E020
:1028D0000E94DF6E8E8161E00E94DF6ECE010E9459
:1028E00009126C857D85CE010E94A611892B19F4F1
:1028F00088EE93E005C06C857D85CE010E94A6110F
:102900009FAB8EAB6A857B85CE010E94A611892B79
:1029100031F06A857B85CE010E94A61102C08CA988
:102920009DA98CAB9DAB68857985CE010E94A611CF
:102930009DA78CA76E857F85161617061CF080E074
:1029400090E003C0CE010E94A6119FA78EA76C89BC
:102950007D89CE010E94A6118AA368897989CE015A
:102960000E94A61188A36A897B89CE010E94A611C4
:10297000282F8F8F8AA1EAA9FBA99481891720F4B7
:10298000CE010E94E01106C0891721F489A788A111
:102990008FA32EA30E94FD6D688F798F8A8F9B8FE6
:1029A00081E090E09F8B8E8BDF91CF910895FC01A9
:1029B00071AB60AB0E945F140895CF92DF92EF92EB
:1029C000FF920F931F930E94FD6D60931705709304
:1029D00018058093190590931A058BE295E062E043
:1029E00046E250E027E230E008E210E079E2E72E2C
:1029F000F12CCC24DD240E9460638CE595E066E038
:102A000045E024E003E032E0E32E0E9442650CE062
:102A100015E087E995E061E070E0A8010E9462138B
:102A20008FEC95E062E070E0A8010E94621387E0FD
:102A300096E063E070E0A8010E9462131F910F917D
:102A4000FF90EF90DF90CF900895CF92DF92EF92BA
:102A5000FF920F931F93DF93CF9300D000D0CDB799
:102A6000DEB7D82EC92E7B01FB01848195810297A8
:102A7000A8F48E010F5F1F4FC80161E172E00E9450
:102A8000F370C801B7010E94A370BC018D2D9C2D6D
:102A90000E949C71C8010E94B67104C08D2D9C2DAE
:102AA0000E949C718D2D9C2D26960FB6F894DEBF4A
:102AB0000FBECDBFCF91DF911F910F91FF90EF908F
:102AC000DF90CF9008958F929F92AF92BF92CF9256
:102AD000DF92EF92FF920F931F93DF93CF93CDB7C7
:102AE000DEB7ED970FB6F894DEBF0FBECDBFB82EA0
:102AF000A92E0FAB18AF29AF3AAF4BAF5CAF6DAF9C
:102B00006091120570E06E54784F8E010F5F1F4F79
:102B1000C8014AE00E9455718B2D9A2DB8010E9480
:102B20002515C8010E94B0718E01095F1F4FC801B1
:102B30006B2D7A2D0E94A67183E1882E82E0982E5B
:102B4000C801B4010E948770BC018B2D9A2D0E9490
:102B50008571C8010E94B671B9E1CB2ED12CCC0E83
:102B6000DD1EC6016B2D7A2D0E94A671ADE0EA2E06
:102B7000F12CEC0EFD1E60911105C70170E04AE0DA
:102B80000E9455718E010D5E1F4FC801B7010E9452
:102B90002515C601B8010E94A370BC018B2D9A2D8A
:102BA0000E948571C8010E94B071C7010E94B07176
:102BB000C6010E94B6718E01015E1F4FC8016B2DC8
:102BC0007A2D0E94A671C801B4010E948770BC01D1
:102BD0008B2D9A2D0E948571C8010E94B671F1E378
:102BE000CF2ED12CCC0EDD1EC6016B2D7A2D0E946E
:102BF000A671E5E2EE2EF12CEC0EFD1E60911005A3
:102C0000C70170E04AE00E9455718E01055D1F4FBB
:102C1000C801B7010E942515C601B8010E94A37022
:102C2000BC018B2D9A2D0E948571C8010E94B07144
:102C3000C7010E94B071C6010E94B6718B2D9A2DFA
:102C4000ED960FB6F894DEBF0FBECDBFCF91DF91EA
:102C50001F910F91FF90EF90DF90CF90BF90AF90BA
:102C60009F908F900895EF92FF920F931F937C0196
:102C700000910C0510910D0520910E0530910F0566
:102C80004091100550911105609112050E94631545
:102C9000C7011F910F91FF90EF9008958F929F921F
:102CA000AF92BF92CF92DF92EF92FF920F931F935A
:102CB000DF93CF93CDB7DEB7ED970FB6F894DEBFB5
:102CC0000FBECDBFB82EA92E0FAB18AF29AF3AAFAC
:102CD0004BAF5CAF6DAF60910E058E010F5F1F4F64
:102CE000C80170E04AE00E9455718B2D9A2DB80101
:102CF0000E942515C8010E94B0718E01095F1F4F07
:102D0000C8016B2D7A2D0E94A67155E1852E52E0E7
:102D1000952EC801B4010E948770BC018B2D9A2D9D
:102D20000E948571C8010E94B67149E1C42ED12C60
:102D3000CC0EDD1EC6016B2D7A2D0E94A6713DE0E2
:102D4000E32EF12CEC0EFD1E60910D05C70170E025
:102D50004AE00E9455718E010D5E1F4FC801B701F8
:102D60000E942515C601B8010E94A370BC018B2DDD
:102D70009A2D0E948571C8010E94B071C7010E94FE
:102D8000B071C6010E94B6718E01015E1F4FC8016D
:102D90006B2D7A2D0E94A671C801B4010E94877024
:102DA000BC018B2D9A2D0E948571C8010E94B671BD
:102DB00021E3C22ED12CCC0EDD1EC6016B2D7A2D47
:102DC0000E94A67195E2E92EF12CEC0EFD1E609199
:102DD0000C05C70170E04AE00E9455718E01055D47
:102DE0001F4FC801B7010E942515C601B8010E94F6
:102DF000A370BC018B2D9A2D0E948571C8010E9481
:102E0000B071C7010E94B071C6010E94B6718B2DCE
:102E10009A2DED960FB6F894DEBF0FBECDBFCF91C1
:102E2000DF911F910F91FF90EF90DF90CF90BF90B7
:102E3000AF909F908F900895EF92FF920F931F9302
:102E40007C0100910C0510910D0520910E0530912B
:102E50000F054091100550911105609112050E94D7
:102E60004E16C7011F910F91FF90EF900895CF92DA
:102E7000EF92FF920F931F930BE215E0C80166EFEC
:102E800076E00E942243C80160E040E020E00E941A
:102E90003A3DC8016FEF4FEF2FEF0E94223D409166
:102EA000580450915904662757FD6095762FC80144
:102EB0002AEA30E004E110E0EE24FF24E0E2CE2E26
:102EC0000E94CF451F910F91FF90EF90CF900895F2
:102ED000CF92DF92EF92FF920F931F936B017C01D1
:102EE0000BE215E0C8016EE772E00E942243C801C0
:102EF00060E040E020E00E943A3DC8016FEF4FEFF4
:102F00002FEF0E94223DC801B701A60124E130E065
:102F100001EE10E0EE24FF24F0E2CF2E0E94CF4518
:102F20001F910F91FF90EF90DF90CF900895CF9277
:102F3000DF92EF92FF920F931F93DF93CF9300D016
:102F400000D0CDB7DEB76C010BE215E0C8016EE72B
:102F500072E00E942243C80160E040E020E00E944D
:102F60003A3DC8016FEF4FEF2FEF0E94223D7E01E7
:102F70000894E11CF11CC701B6010E949C71C801B4
:102F8000B70144E150E027ED30E000E010E00E949E
:102F9000B546C7010E94B07126960FB6F894DEBF01
:102FA0000FBECDBFCF91DF911F910F91FF90EF909A
:102FB000DF90CF9008950F931F93DF93CF93CDB7FA
:102FC000DEB72C970FB6F894DEBF0FBECDBF8CE0F6
:102FD00095E00E940B328823C9F480912107882351
:102FE00039F08E010F5F1F4FC8016EE372E006C01B
:102FF0008E01095F1F4FC80166E672E00E94DA7019
:10300000C8010E949717C8010E94B0712C960FB694
:10301000F894DEBF0FBECDBFCF91DF911F910F910E
:1030200008954F925F926F927F929F92AF92BF925C
:10303000CF92DF92EF92FF920F931F93DF93CF9384
:1030400000D000D0CDB7DEB7FC019B0128019C2C3D
:103050006A2C8091540490915504892B09F077C013
:10306000CA018E1B9F0B62E070E00E9486768B0186
:103070006B01CE0EDF1E5B01A20EB31E8BE295E04C
:103080006E2D492D262D0E94223D8BE295E0B60142
:10309000A50198010E94F13D8BE295E06FEF4FEFA3
:1030A0002FEF0E94223D8BE295E0B601A501980129
:1030B0000E94703A8BE295E06EE772E00E94224334
:1030C0008BE295E00E943B43F201648075808BE2C5
:1030D00095E00E943B43082F8BE295E00E943E431F
:1030E000982E8BE295E060E040E02FEF0E943A3DA1
:1030F0007E010894E11CF11CC701B2010E949C7181
:1031000010E0069DB001079D700D169D700D1124F5
:103110007695679580E090E00E94D47420E030E0DE
:1031200040E05FE30E94D4730E94A374C61AD70ADA
:103130009694A918B1088BE295E0B701A601950114
:1031400000E010E00E94B546C7010E94B0712696CB
:103150000FB6F894DEBF0FBECDBFCF91DF911F91A8
:103160000F91FF90EF90DF90CF90BF90AF909F9026
:103170007F906F905F904F9008952F923F924F9263
:103180005F926F927F928F929F92AF92BF92CF92F7
:10319000DF92EF92FF920F931F93DF93CF93CDB700
:1031A000DEB7E9970FB6F894DEBF0FBECDBF2B0197
:1031B0003A011901A9AABAAACBAADCAAEDAAFEAAC9
:1031C0000FAB99AE88AE8091540490915504892B31
:1031D00009F0A8C08BE295E06EE772E00E942243FE
:1031E00085E090E0680E791E8BE295E00E943E43F8
:1031F000982E8BE295E00E943E43882E8BE295E06C
:103200006FEF4FEF2FEF0E94223D8BE295E060E0E1
:1032100040E020E00E943A3D4DE0C42ED12CCC0E7F
:10322000DD1EC60166E972E00E94F37037E0E32E0E
:10323000F12CEC0EFD1EC70109A91AA92BA93CA966
:103240004DA95EA96FA90E944E16C601B7010E9442
:10325000A370BC015E010894A11CB11CC5010E94B1
:103260009C71C7010E94B071C6010E94B67123E132
:10327000E22EF12CEC0EFD1EC701B5010E949C71DF
:103280009694490C511C8BE295E0B701A301920181
:1032900000E010E00E94B546C7010E94B07195E2BF
:1032A000E92EF12CEC0EFD1EC70160EA72E00E94CF
:1032B000F3708E01015E1F4FC80168AD79AD4AE021
:1032C0000E945571C701B8010E94A370BC0189E139
:1032D000C82ED12CCC0EDD1EC6010E949C71C801E7
:1032E0000E94B071C7010E94B671BBE2EB2EF12CB7
:1032F000EC0EFD1EC701B6010E949C712818310812
:103300008BE295E0B701A301910100E010E00E947B
:10331000B546C7010E94B071C6010E94B071C501D7
:103320000E94B071E9960FB6F894DEBF0FBECDBF14
:10333000CF91DF911F910F91FF90EF90DF90CF9091
:10334000BF90AF909F908F907F906F905F904F90C5
:103350003F902F9008958F929F92AF92BF92CF92FD
:10336000DF92EF92FF920F93DF93CF93CDB7DEB74B
:103370006C970FB6F894DEBF0FBECDBF87E995E01E
:103380000E9482112E8B3F8B488F598F6A8F7B8FC3
:103390008C8FDE011196FE01769687E001900D92EA
:1033A0008150E1F787E995E00E947E114C0185E0AC
:1033B00090E063E270E048E250E026E430E0A9806B
:1033C000BA80CB80DC80ED80FE800F810E94BD182A
:1033D0008FEC95E00E9482112E8B3F8B488F598F86
:1033E0006A8F7B8F8C8FDE011896FE01769687E0C0
:1033F00001900D928150E1F78FEC95E00E947E11D3
:103400004C0185E090E065E570E048E250E028E797
:1034100030E0A884B984CA84DB84EC84FD840E8502
:103420000E94BD1887E096E00E9482112E8B3F8B90
:10343000488F598F6A8F7B8F8C8FDE011F96FE011C
:10344000769687E001900D928150E1F787E096E053
:103450000E947E114C0185E090E067E870E048E250
:1034600050E02AEA30E0AF84B888C988DA88EB886F
:10347000FC880D890E94BD186C960FB6F894DEBFCB
:103480000FBECDBFCF91DF910F91FF90EF90DF90F6
:10349000CF90BF90AF909F908F9008952F923F92C2
:1034A0004F925F927F928F929F92AF92BF92CF92F4
:1034B000DF92EF92FF920F931F93DF93CF9300D091
:1034C00000D0CDB7DEB79C016B01CA011801821B89
:1034D000930B62E070E00E9486768B014B01820EB6
:1034E000931EC60ED71E6BE2E62E65E0F62EC701D0
:1034F00066EF76E00E942243C70160E040E02FEFD4
:103500000E94223DC701B401A60198010E94F13D2D
:10351000C7016FEF4FEF2FEF0E94223DC701B401AB
:10352000A60198010E94703AC7016EE772E00E94FE
:103530002243C7010E943B43F10144805580C701EB
:103540000E943B43082FC7010E943E43782EC701CB
:1035500060E040E02FEF0E943A3D5E010894A11C1C
:10356000B11CC501B1010E949C7110E0049DB00125
:10357000059D700D149D700D11247695679580E062
:1035800090E00E94D47420E030E040E05FE30E94CD
:10359000D4730E94A374861A970A7694C718D10828
:1035A000C701B501A401960100E010E00E94B546F4
:1035B000C5010E94B071C70160E040E02FEF0E949A
:1035C0003A3D26960FB6F894DEBF0FBECDBFCF9121
:1035D000DF911F910F91FF90EF90DF90CF90BF9000
:1035E000AF909F908F907F905F904F903F902F90E3
:1035F00008952F923F924F925F926F927F928F9297
:103600009F92AF92BF92CF92DF92EF92FF920F9371
:103610001F93DF93CF93CDB7DEB7E5970FB6F8943E
:10362000DEBF0FBECDBF9DAB8CAB3B012A011901A4
:103630008BA69CA6ADA6BEA6CFA6D8AAE9AA8BE269
:10364000A82E85E0B82EC5016EE772E00E942243E5
:103650007E010894E11CF11CC701B8010E949C7115
:103660008CA99DA9B301A201910187010E944E1A64
:10367000C7010E94B07185E090E0480E591EC50157
:103680000E943E438BABC5010E943E438AABC501FD
:103690006FEF4FEF2FEF0E94223DC50160E040E049
:1036A00020E00E943A3D13E1C12ED12CCC0EDD1E4C
:1036B000C60166E972E00E94F370BDE0EB2EF12CCA
:1036C000EC0EFD1EC7010BA51CA52DA53EA54FA503
:1036D00058A969A90E944E16C601B7010E94A3709D
:1036E000BC01A7E08A2E912C8C0E9D1EC4010E9465
:1036F0009C71C7010E94B071C6010E94B671F9E1C8
:10370000EF2EF12CEC0EFD1EC701B4010E949C713E
:103710009BA99695690E711CC501B701A201930181
:1037200000E010E00E94B546C7010E94B071EFE1D1
:10373000CE2ED12CCC0EDD1E2D968EAD9FAD2D97AD
:1037400080569D4F2D969FAF8EAF2D97C6012D961B
:103750006EAD7FAD2D970E94DA7075E2E72EF12CE9
:10376000EC0EFD1EC701B6010E949C719AA9291A90
:103770003108C501B701A20191010E94B546C701F8
:103780000E94B071C6010E94B071C4010E94B07164
:10379000E5960FB6F894DEBF0FBECDBFCF91DF9197
:1037A0001F910F91FF90EF90DF90CF90BF90AF905F
:1037B0009F908F907F906F905F904F903F902F9051
:1037C00008952F923F924F925F926F927F928F92C5
:1037D0009F92AF92BF92CF92DF92EF92FF920F93A0
:1037E0001F93DF93CF93CDB7DEB76E970FB6F894E4
:1037F000DEBF0FBECDBF3B014C012A0119014BE2D8
:10380000C42E45E0D42EC6016EE772E00E9422432A
:10381000C60160E040E020E00E94223DC60160E079
:1038200070E040E050E020E431E00EE110E00E9462
:10383000843FC60160E040E020E00E943A3DC601BE
:103840006FEF4FEF2FEF0E94223D5E010894A11C05
:10385000B11CC501B401A30122E00E9425718E01B3
:10386000095F1F4FC801B5010E94A671C8016BEA2C
:1038700072E00E948770BC01C5010E948571C80179
:103880000E94B6713DE0E32EF12CEC0EFD1EC70147
:10389000B5010E949C71C601B70144E150E027E0E8
:1038A00030E000E010E00E94B546C7010E94B07110
:1038B00023E1E22EF12CEC0EFD1EC701B2010E94A5
:1038C0009C71C601B70148E750E027E030E00E9454
:1038D000B546C7010E94B07199E1E92EF12CEC0EBA
:1038E000FD1EC701B1010E949C71C601B7014CEDDC
:1038F00050E027E030E00E94B546C7010E94B07159
:10390000C5010E94B0716E960FB6F894DEBF0FBE6F
:10391000CDBFCF91DF911F910F91FF90EF90DF907E
:10392000CF90BF90AF909F908F907F906F905F905F
:103930004F903F902F900895AF92BF92CF92DF9219
:10394000EF92FF920F931F93CF93DF93EC017B01D4
:103950006A0159018BE295E060E040E02FEF0E94A0
:10396000223D8BE295E0BE01A701960185010E94F0
:10397000764004C08CE595E00E9409678CE595E0EF
:103980000E94EC668823B1F78BE295E06FEF4FEF72
:103990002FEF0E94223D8BE295E0BE01A701960128
:1039A00085010E947640DF91CF911F910F91FF908A
:1039B000EF90DF90CF90BF90AF9008956E5670401B
:1039C0006333710560F580559040813A910538F573
:1039D00080E590E06EE670E040EF50E020EA30E0F5
:1039E0000E949C1C80915404909155048F3691053F
:1039F00019F489E790E005C08037910539F48AE72A
:103A000090E0909357048093560408958137910570
:103A100031F48BE790E09093570480935604089517
:103A20008F929F92AF92BF92CF92DF92EF92FF92CE
:103A30000F931F93DF93CF9300D000D0CDB7DEB7A5
:103A4000982E892E162F072F6E010894C11CD11CA9
:103A5000C6016EEA72E00E94DA70E12EF02EC70114
:103A6000C297C39708F078C0092D182D66EFA62ECF
:103A70006FEFB62EA00EB11E83E3A816B10488F432
:103A80008AE090E062E370E04CE350E024E630E04E
:103A90000E949C1CC6016FEA72E00E940C710E9499
:103AA0003717C80186549040C39790F486E490E09D
:103AB00062E370E048E750E024E630E00E949C1C9E
:103AC000CE01019661EB72E00E940C710E943717E3
:103AD000C80182589040C39790F482E890E062E376
:103AE00070E044EB50E024E630E00E949C1CCE01E4
:103AF000019663EB72E00E940C710E9437170E5B17
:103B000010400333110590F48EEB90E062E370E017
:103B100040EF50E024E630E00E949C1CCE0101966C
:103B200065EB72E00E940C710E94371793E3A916AF
:103B3000B10490F48AEF90E062E370E04CE251E06F
:103B400024E630E00E949C1CCE01019667EB72E0F7
:103B50000E940C710E943717C7018E569040C39780
:103B600008F079C0092D182D56EFC52E5FEFD52E20
:103B7000C00ED11E83E3C816D10490F48AE090E011
:103B80006EE670E04CE350E020EA30E00E949C1CBE
:103B9000CE01019669EB72E00E940C710E9437170A
:103BA000C80186549040C39790F486E490E06EE696
:103BB00070E048E750E020EA30E00E949C1CCE0113
:103BC00001966BEB72E00E940C710E943717C801DE
:103BD00082589040C39790F482E890E06EE670E0DF
:103BE00044EB50E020EA30E00E949C1CCE0101969C
:103BF0006DEB72E00E940C710E9437170E5B104053
:103C00000333110590F48EEB90E06EE670E040EF28
:103C100050E020EA30E00E949C1CCE0101966FEB40
:103C200072E00E940C710E94371793E3C916D10409
:103C300090F48AEF90E06EE670E04CE251E020EA0A
:103C400030E00E949C1CCE01019661E172E00E946E
:103C50000C710E94371786E59FEFE80EF91E93E37B
:103C6000E916F104C0F5092D182DC8010A978D3801
:103C7000910590F48AE090E06AEA70E046E950E04D
:103C80002CED30E00E949C1CCE0101966EEA72E0A1
:103C90000E940C710E943717005A10400D38110510
:103CA000D0F480EA90E06AEA70E04CE251E02CED5A
:103CB00030E00E949C1CCE0101960E94D46F70934C
:103CC0005904609358048091520490915304909346
:103CD000570480935604CE0101960E94B071269637
:103CE0000FB6F894DEBF0FBECDBFCF91DF911F910D
:103CF0000F91FF90EF90DF90CF90BF90AF909F908B
:103D00008F900895EF92FF920F931F93DF93CF93BD
:103D1000CDB7DEB762970FB6F894DEBF0FBECDBF4A
:103D20000E94101D8091540490915504E090560417
:103D3000F09057048E159F0509F457C02FE6E21640
:103D4000F104B1F490935304809352048E010F5FF9
:103D50001F4FC80167E975E00E943F14C8010E9427
:103D6000B071609158047091590487E995E033C0AF
:103D700020E7E216F104B1F49093530480935204C7
:103D80008E01095F1F4FC8016FEC75E00E943F1460
:103D9000C8010E94B07160915804709159048FEC71
:103DA00095E019C021E7E216F104D9F49093530489
:103DB000809352048E01035F1F4FC80167E076E0D5
:103DC0000E943F14C8010E94B07160915804709124
:103DD000590487E096E00E940012F0925504E092A8
:103DE0005404109259041092580462960FB6F89435
:103DF000DEBF0FBECDBFCF91DF911F910F91FF901E
:103E0000EF9008950F931F93CF93DF93EC018B01F5
:103E1000CB018897C39708F03EC0CE010A97C3979D
:103E200080F48AE090E068E270E04CE350E02AE53C
:103E300030E00E949C1C8FE690E0909357048093A2
:103E40005604CE0186549040C39780F486E490E0F7
:103E500068E270E048E750E02AE530E00E949C1CF0
:103E600083E890E09093570480935604CE018258E3
:103E70009040C39780F482E890E068E270E044EB01
:103E800050E02AE530E00E949C1C8DE890E0909381
:103E9000570480935604C80184569040C39708F095
:103EA00053C0CE010A97C39780F48AE090E064E69D
:103EB00070E04CE350E026E930E00E949C1C80E773
:103EC00090E09093570480935604CE01865490401E
:103ED000C39780F486E490E064E670E048E750E041
:103EE00026E930E00E949C1C84E890E090935704FF
:103EF00080935604CE0182589040C39780F482E8A4
:103F000090E064E670E044EB50E026E930E00E9487
:103F10009C1C8EE890E09093570480935604CE0149
:103F20008E5B9040C39780F48EEB90E064E670E087
:103F300040EF50E026E930E00E949C1C88E990E0C8
:103F40009093570480935604CE0184509140C397B8
:103F500048F5083211059CF0C536D10584F484E09B
:103F600091E068E270E046E351E024E630E00E9430
:103F70009C1C81E090E09093570480935604CC58A9
:103F8000D040C734D10570F484E091E06CE870E073
:103F900046E351E022ED30E00E949C1C1092570451
:103FA00010925604DF91CF911F910F910895CF93F6
:103FB000DF93EC01685270406333710508F03EC036
:103FC0000A97C39780F48AE090E068E270E04CE3DF
:103FD00050E02AE530E00E949C1C8AE090E090933B
:103FE000570480935604CE0186549040C39780F4C2
:103FF00086E490E068E270E048E750E02AE530E0CF
:104000000E949C1C84E190E0909357048093560496
:10401000CE0182589040C397A0F482E890E068E215
:1040200070E044EB50E02AE530E00E949C1C8EE1F9
:1040300090E0909357048093560403C06D3371054C
:1040400090F4C450D140E39770F484E091E068E2CA
:1040500070E046E351E024E630E00E949C1C1092A0
:10406000570410925604DF91CF9108956C5370401D
:1040700063337105A8F4805F90408734910580F424
:1040800080EF90E06CE370E046E351E02EE630E034
:104090000E949C1C81E090E090935704809356040A
:1040A00008956F927F928F929F92AF92BF92CF921C
:1040B000DF92EF92FF920F931F936C015B014A0115
:1040C00039017BE2E72E75E0F72EC70160E040E0A2
:1040D0002FEF0E94223DC701B601A5019401830183
:1040E0000E94653EC7016FEF4FEF2FEF0E94223D08
:1040F000C701B601A50194010E9476401F910F915E
:10410000FF90EF90DF90CF90BF90AF909F908F90F7
:104110007F906F9008952F923F924F925F926F928F
:104120007F928F929F92AF92BF92CF92DF92EF9247
:10413000FF920F931F93DF93CF9300D000D0CDB7A2
:10414000DEB73C014B016A0159011801EF2829F43F
:104150008BE295E066EF76E004C08BE295E06EE7D7
:1041600072E00E942243C301B401A60195010E949E
:1041700051208BE295E06FEF4FEF2FEF0E94223D31
:104180008BE295E060E040E02FEF0E943A3DC601EF
:10419000861997092FEF8F3F92078CF062E070E04D
:1041A0000E948676882777FD8095982F0E94D67486
:1041B00020E030E040E05FE30E94D47310C062E092
:1041C00070E00E948676882777FD8095982F0E9460
:1041D000D67420E030E040E05FE30E94D3730E9499
:1041E000A3746B018BE295E00E943B43F101448094
:1041F00055808BE295E00E943B43082FC50188194A
:104200009909FFEF8F3F9F078CF062E070E00E94FA
:104210008676882777FD8095982F0E94D67420E0B7
:1042200030E040E05FE30E94D47310C062E070E0D1
:104230000E948676882777FD8095982F0E94D674F5
:1042400020E030E040E05FE30E94D3730E94A3745B
:104250004B018BE295E00E943E43182F7E010894AB
:10426000E11CF11CC701B1010E949C71C60CD71C56
:10427000802F90E0849DB001859D700D949D700D00
:1042800011247695679580E090E00E94D47420E038
:1042900030E040E05FE30E94D4730E94A374C61A2A
:1042A000D70AA818B9081695A11AB1088BE295E0AB
:1042B000B701A601950100E010E00E94B546C701D4
:1042C0000E94B07126960FB6F894DEBF0FBECDBF28
:1042D000CF91DF911F910F91FF90EF90DF90CF90E2
:1042E000BF90AF909F908F907F906F905F904F9016
:1042F0003F902F900895AF92BF92CF92DF92EF92AE
:10430000FF920F931F93DF93CF93CDB7DEB7CE54B9
:10431000D0400FB6F894DEBF0FBECDBF8C017BE25C
:10432000A72E75E0B72EC5010E94D03BC5016EE7F0
:1043300072E00E942243C50160E040E020E00E945C
:104340003A3DC5016FEF4FEF2FEF0E94223D7E01F6
:104350000894E11CF11CC701B8010E949C71C501C1
:10436000B7014AE050E029E130E000E010E00E94AF
:10437000B546C7010E94B07167E0C62ED12CCC0EA5
:10438000DD1EC6016FEA72E00E94DA708AE090E0FA
:1043900062E370E04CE350E024E630E08601EE2476
:1043A000FF240E948B20C6010E94B0715DE0C52EE3
:1043B000D12CCC0EDD1EC60161EB72E00E94DA70DA
:1043C00086E490E062E370E048E750E024E630E005
:1043D00086010E948B20C6010E94B07143E1C42E69
:1043E000D12CCC0EDD1EC60163EB72E00E94DA70A8
:1043F00082E890E062E370E044EB50E024E630E0D5
:1044000086010E948B20C6010E94B07139E1C32E43
:10441000D12CCC0EDD1EC60165EB72E00E94DA7075
:104420008EEB90E062E370E040EF50E024E630E095
:1044300086010E948B20C6010E94B0712FE1C22E1E
:10444000D12CCC0EDD1EC60167EB72E00E94DA7043
:104450008AEF90E062E370E04CE251E024E630E065
:1044600086010E948B20C6010E94B07195E2C92E80
:10447000D12CCC0EDD1EC60169EB72E00E94DA7011
:104480008AE090E06EE670E04CE350E020EA30E035
:1044900086010E948B20C6010E94B0718BE2C82E5B
:1044A000D12CCC0EDD1EC6016BEB72E00E94DA70DF
:1044B00086E490E06EE670E048E750E020EA30E005
:1044C00086010E948B20C6010E94B07101E3C02EBC
:1044D000D12CCC0EDD1EC6016DEB72E00E94DA70AD
:1044E00082E890E06EE670E044EB50E020EA30E0D5
:1044F00086010E948B20C6010E94B07117E3C12E75
:10450000D12CCC0EDD1EC6016FEB72E00E94DA707A
:104510008EEB90E06EE670E040EF50E020EA30E095
:1045200086010E948B20C6010E94B071BDE3CB2E94
:10453000D12CCC0EDD1EC60161E172E00E94DA7062
:104540008AEF90E06EE670E04CE251E020EA30E065
:1045500086010E948B20C6010E94B071A3E4CA2E7E
:10456000D12CCC0EDD1EC60161EC72E00E94DA7027
:104570008AE090E06AEA70E046E950E02CED30E035
:1045800086010E948B20C6010E94B071F9E4CF2EF3
:10459000D12CCC0EDD1EC60167EC72E00E94DA70F1
:1045A00080EA90E06AEA70E04CE251E02CED30E005
:1045B00086010E948B20C6010E94B071C50160E097
:1045C00040E020E00E943A3D0E94FD6D0E94681785
:1045D000C25BDF4F0FB6F894DEBF0FBECDBFCF91E9
:1045E000DF911F910F91FF90EF90DF90CF90BF90E0
:1045F000AF9008958F929F92AF92BF92CF92DF9229
:10460000EF92FF920F931F93DF93CF93CDB7DEB757
:10461000CA55D0400FB6F894DEBF0FBECDBF5B01C8
:104620006C018A0149018BE295E00E94D03B8AE04F
:1046300090E090935504809354047E010894E11C0B
:10464000F11CC701B8010E949C718E01095F1F4FC8
:10465000C801B4010E949C71C601B501A70198016F
:104660000E94E11BC8010E94B071C7010E94B07195
:10467000FDE0CF2ED12CCC0EDD1EC6016BEC72E01E
:104680000E94DA708AE090E068E270E04CE350E06B
:104690002AE530E08601E1E0EE2EF12C0E948B202D
:1046A000C6010E94B07153E1C52ED12CCC0EDD1E87
:1046B000C60161ED72E00E94DA7086E490E068E283
:1046C00070E048E750E02AE530E086010E948B2048
:1046D000C6010E94B07149E1C42ED12CCC0EDD1E62
:1046E000C60168ED72E00E94DA7082E890E068E24C
:1046F00070E044EB50E02AE530E086010E948B2018
:10470000C6010E94B0713FE1C32ED12CCC0EDD1E3C
:10471000C6016FED72E00E94DA708AE090E064E614
:1047200070E04CE350E026E930E086010E948B20E7
:10473000C6010E94B07125E2C22ED12CCC0EDD1E26
:10474000C60165EE72E00E94DA7086E490E064E6ED
:1047500070E048E750E026E930E086010E948B20B7
:10476000C6010E94B0719BE2C92ED12CCC0EDD1E79
:10477000C6016CEE72E00E94DA7082E890E064E6B6
:1047800070E044EB50E026E930E086010E948B2087
:10479000C6010E94B07181E3C82ED12CCC0EDD1E63
:1047A000C60163EF72E00E94DA708EEB90E064E67F
:1047B00070E040EF50E026E930E086010E948B2057
:1047C000C6010E94B07107E3C02ED12CCC0EDD1EB5
:1047D000C6016BEF72E00E94DA708AE090E060EA56
:1047E00070E04CE350E022ED30E086010E948B2027
:1047F000C6010E94B0711DE3C12ED12CCC0EDD1E6E
:10480000C60161E073E00E94DA7086E490E060EA3D
:1048100070E048E750E022ED30E086010E948B20F6
:10482000C6010E94B071B3E4CB2ED12CCC0EDD1E9C
:10483000C60168E073E00E94DA7082E890E060EA06
:1048400070E044EB50E022ED30E086010E948B20C6
:10485000C6010E94B071A9E4CA2ED12CCC0EDD1E77
:10486000C6016FE073E00E94DA708EEB90E060EAC0
:1048700070E040EF50E022ED30E086010E948B2096
:10488000C6010E94B071FFE4CF2ED12CCC0EDD1EEC
:10489000C60167E173E00E94DA7084E091E068E2AB
:1048A00070E046E351E024E630E086010E948B2070
:1048B000C6010E94B071E5E5CE2ED12CCC0EDD1ED6
:1048C000C6016CE173E00E94DA7084E091E06CE86C
:1048D00070E046E351E022ED30E086010E948B203B
:1048E000C6010E94B0710E94FD6D0E946817C65AF1
:1048F000DF4F0FB6F894DEBF0FBECDBFCF91DF9173
:104900001F910F91FF90EF90DF90CF90BF90AF90ED
:104910009F908F900895EF92FF920F931F93DF93D4
:10492000CF93CDB7DEB76E970FB6F894DEBF0FBE4C
:10493000CDBF0E94DE1C8091540490915504E090FC
:104940005604F09057048E159F0509F475C029E7A9
:10495000E216F104A9F490935304809352048E015B
:104960000F5F1F4FC8016AE573E00E94DA70C8014B
:104970000E947B21C8010E94B07187E995E018C0B0
:104980002AE7E216F104D9F4909353048093520479
:104990008E01095F1F4FC80167E773E00E94DA705C
:1049A000C8010E947B21C8010E94B0718FEC95E084
:1049B0000E941714F0925504E09254043DC02BE776
:1049C000E216F104A9F490935304809352048E01EB
:1049D000035F1F4FC80164E973E00E94DA70C801E9
:1049E0000E947B21C8010E94B07187E096E0E0CF71
:1049F0002AE0E216F10401F59093530480935204E7
:104A0000B3E1EB2EF12CEC0EFD1EC7010E941C172A
:104A10008E01075E1F4FC8010E94331660E070E0F0
:104A200080E090E0A70198010E94FA22C8010E944C
:104A3000B071C7010E94B0716E960FB6F894DEBFD8
:104A40000FBECDBFCF91DF911F910F91FF90EF90DF
:104A500008958F929F92AF92BF92CF92DF92EF9282
:104A6000FF920F931F93DF93CF93CDB7DEB7A49739
:104A70000FB6F894DEBF0FBECDBF5B016C018A019B
:104A800049018BE295E00E94D03B81E090E0909359
:104A90005504809354047E010894E11CF11CC70165
:104AA000B8010E949C718E01095F1F4FC801B401BB
:104AB0000E949C71C601B501A70198010E94E11BEB
:104AC000C8010E94B071C7010E94B071FDE0CF2EF5
:104AD000D12CCC0EDD1EC60161EB73E00E94DA70B2
:104AE0008AE090E068E270E04CE350E02AE530E0D4
:104AF0008601E1E0EE2EF12C0E948B20C6010E947F
:104B0000B07183E1C82ED12CCC0EDD1EC60167EB3F
:104B100073E00E94DA7086E490E068E270E048E7B3
:104B200050E02AE530E086010E948B20C6010E94F9
:104B3000B07109E1C02ED12CCC0EDD1EC6016CEB8C
:104B400073E00E94DA7082E890E068E270E044EB83
:104B500050E02AE530E086010E948B20C6010E94C9
:104B6000B0711FE1C12ED12CCC0EDD1EC6016CE14F
:104B700073E00E94DA7084E091E068E270E046E35E
:104B800051E024E630E086010E948B20C6010E949D
:104B9000B0710E94FD6D0E946817A4960FB6F8943C
:104BA000DEBF0FBECDBFCF91DF911F910F91FF9060
:104BB000EF90DF90CF90BF90AF909F908F9008952F
:104BC0008F929F92AF92BF92CF92DF92EF92FF921D
:104BD0000F931F93DF93CF93CDB7DEB72C970FB60C
:104BE000F894DEBF0FBECDBF0E94362080915404E2
:104BF000909155048090560490905704881599051B
:104C000059F121E08216910439F590935304809371
:104C100052048BE195E00E94422C5B016C017E0105
:104C20000894E11CF11CC7010E941C178E01095F4A
:104C30001F4FC8010E943316C601B501A701980194
:104C40000E942925C8010E94B071C7010E94B0715D
:104C500090925504809254042C960FB6F894DEBFBF
:104C60000FBECDBFCF91DF911F910F91FF90EF90BD
:104C7000DF90CF90BF90AF909F908F9008956F92EC
:104C80007F928F929F92AF92BF92CF92DF92EF92DC
:104C9000FF920F931F93DF93CF93CDB7DEB7C0542E
:104CA000D0400FB6F894DEBF0FBECDBF5B016C01E4
:104CB0008A0149018BE295E00E94D03B1092550495
:104CC000109254047E010894E11CF11CC701B80144
:104CD0000E949C718E01095F1F4FC801B4010E94A0
:104CE0009C71C601B501A70198010E94E11BC80192
:104CF0000E94B071C7010E94B071CE010D9667E9A4
:104D000075E00E943F1487E995E00E9482112AAF66
:104D10003BAF4CAF5DAF6EAF7FAFFE01E05CFF4FCE
:104D20008083DE019596FE01FA9687E001900D9250
:104D30008150E1F787E995E00E947E110F920F9272
:104D40000DE0602E712C6C0E7D1EEDB7FEB79283C8
:104D5000818385E090E063E270E048E250E026E481
:104D600030E083018DA09EA0AFA0B8A4C9A4DAA4AE
:104D7000EBA40E94F91A0F900F90C3010E94B0712A
:104D8000CE0143966FEC75E00E943F148FEC95E0E6
:104D90000E9482112AAF3BAF4CAF5DAF6EAF7FAFC9
:104DA000FE01E05CFF4F8083DE019C96FE01FA96D7
:104DB00087E001900D928150E1F78FEC95E00E9421
:104DC0007E110F920F9213E1612E712C6C0E7D1EDD
:104DD000EDB7FEB79283818385E090E065E570E0F2
:104DE00048E250E028E730E083018CA49DA4AEA403
:104DF000BFA4C8A8D9A8EAA80E94F91A0F900F90DA
:104E0000C3010E94B071CE01499667E076E00E942E
:104E10003F1487E096E00E9482112AAF3BAF4CAF6F
:104E20005DAF6EAF7FAFFE01E05CFF4F8083DE01C0
:104E3000D396FE01FA9687E001900D928150E1F73A
:104E400087E096E00E947E110F920F92B9E16B2EDF
:104E5000712C6C0E7D1EEDB7FEB79283818385E0C9
:104E600090E067E870E048E250E02AEA30E0830131
:104E70008BA89CA8ADA8BEA8CFA8D8ACE9AC0E94CE
:104E8000F91A0F900F90C3010E94B071AFE1CA2EC2
:104E9000D12CCC0EDD1EC60161EC73E00E94DA70ED
:104EA00080EF90E06CE370E046E351E02EE630E006
:104EB0008601EE24FF240E948B20C6010E94B0715F
:104EC0000E94FD6D0E946817C05CDF4F0FB6F8941A
:104ED000DEBF0FBECDBFCF91DF911F910F91FF902D
:104EE000EF90DF90CF90BF90AF909F908F907F908A
:104EF0006F9008958F929F92AF92BF92CF92DF9260
:104F0000EF92FF920F931F93DF93CF93CDB7DEB74E
:104F1000EC970FB6F894DEBF0FBECDBF0E94021F04
:104F200080915404909155048090560490905704B9
:104F30008815990509F411C12FE68216910459F4D8
:104F400090935304809352048E010F5F1F4FC8014A
:104F500067E975E00EC020E782169104A1F49093F2
:104F60005304809352048E01095F1F4FC8016FECF8
:104F700075E00E943F14C8010E94B07190925504E0
:104F800080925404EAC021E78216910459F4909368
:104F90005304809352048E01035F1F4FC80167E0E2
:104FA00076E0E7CF23E88216910459F490935304F6
:104FB00080935204909255048092540487E995E0BE
:104FC0001DC024E88216910459F4909353048093F1
:104FD000520490925504809254048FEC95E00EC0D8
:104FE00025E882169104D9F49093530480935204D7
:104FF000909255048092540487E096E00E94EF134B
:1050000080915404909155049093530480935204DA
:105010008AE090E090935704809356043BC02DE8BB
:105020008216910459F490935304809352048E0194
:105030000D5E1F4FC80166EC73E00EC02EE88216AD
:10504000910481F490935304809352048E01075E7F
:105050001F4FC8016FED73E00E94DA70C8010E9413
:105060007B2189CF2FE882169104C9F490935304D1
:10507000809352048E01015E1F4FC80168EF73E0F8
:105080000E94DA70C8010E947B21C8010E94B071A1
:105090008FE890E090935504809354045EC028E913
:1050A0008216910421F029E98216910429F4909343
:1050B00053048093520451C021E08216910419F5E3
:1050C00090935304809352048BE195E00E94422C0C
:1050D0005B016C0195E2E92EF12CEC0EFD1EC7017F
:1050E0000E941C178E01055D1F4FC8010E943316D8
:1050F000C601B501A70198010E942925C8010E9497
:10510000B071C70139CF892841F59093530480933A
:1051100052048BE195E00E94422C5B016C0181E31B
:10512000E82EF12CEC0EFD1EC7010E941C178E010B
:10513000095C1F4FC8010E943316C601B501A701C3
:1051400098010E943F26C8010E94B071C7010E94C9
:10515000B0711092550410925404EC960FB6F89466
:10516000DEBF0FBECDBFCF91DF911F910F91FF909A
:10517000EF90DF90CF90BF90AF909F908F90089569
:105180008F929F92AF92BF92CF92DF92EF92FF9257
:105190000F931F93DF93CF93CDB7DEB768970FB60A
:1051A000F894DEBF0FBECDBF0E94D71F809154047C
:1051B0009091550480905604909057048815990555
:1051C00009F463C02AE08216910441F590935304D8
:1051D000809352048BE195E00E94422C5B016C01AC
:1051E0007E010894E11CF11CC7010E941C178E016E
:1051F000095F1F4FC8010E943316C601B501A70100
:1052000098010E94FA22C8010E94B071C7010E9451
:10521000B071909255048092540437C024E18216F4
:10522000910421F02EE18216910429F49093530405
:10523000809352042AC0892841F5909353048093A7
:1052400052048BE195E00E94422C5B016C012DE041
:10525000E22EF12CEC0EFD1EC7010E941C178E01E0
:105260000D5E1F4FC8010E943316C601B501A7018C
:1052700098010E943F26C8010E94B071C7010E9498
:10528000B071109255041092540468960FB6F894B9
:10529000DEBF0FBECDBFCF91DF911F910F91FF9069
:1052A000EF90DF90CF90BF90AF909F908F90089538
:1052B000CF92DF92EF92FF920F931F93DF93CF93E2
:1052C000CDB7DEB7EC970FB6F894DEBF0FBECDBFFB
:1052D0005DE0C52ED12CCC0EDD1EC60161E174E06F
:1052E0000E94F3708E01095F1F4F6091520470910C
:1052F0005304C8014AE00E945571C601B8010E94DA
:10530000A370BC017E010894E11CF11CC7010E943E
:105310009C71C8010E94B071C6010E94B6718E01D5
:105320000D5E1F4FC801B7010E94A671C80164E15C
:1053300074E00E948770BC01C7010E948571C8019A
:105340000E94B6714FE1C42ED12CCC0EDD1EC601D9
:10535000B7010E94A6718E01075E1F4F6091540431
:1053600070915504C8014AE00E945571C601B80108
:105370000E94A370BC01C7010E948571C8010E94F0
:10538000B071C6010E94B6718E010B5D1F4FC8013E
:10539000B7010E94A671C80169E174E00E9487709C
:1053A000BC01C7010E948571C8010E94B67131E33A
:1053B000C32ED12CCC0EDD1EC601B7010E94A671F2
:1053C0008E01055D1F4F6091560470915704C8010E
:1053D0004AE00E945571C601B8010E94A370BC0149
:1053E000C7010E948571C8010E94B071C6010E9468
:1053F000B6718E01095C1F4FC801B7010E949C71F4
:10540000C8010E949717C8010E94B0718CE595E011
:105410000E94EC66882309F457C08CE595E00E9451
:1054200009678CE595E00E944D6590931405809383
:1054300013058CE595E00E940F66BC01909316055C
:1054400080931505209154043091550421153105A0
:1054500039F480911305909114050E94E02534C021
:105460002130310539F480911305909114050E9483
:10547000C0282AC02A30310539F480911305909153
:1054800014050E947A2720C02F36310539F4809107
:105490001305909114050E948B2416C02431310508
:1054A00099F02E31310581F0C90189579040039759
:1054B00028F02D5830402330310530F48091130509
:1054C000909114050E94821ECE0101960E94B07137
:1054D000EC960FB6F894DEBF0FBECDBFCF91DF9133
:1054E0001F910F91FF90EF90DF90CF900895EF9272
:1054F000FF920F931F937BE2E72E75E0F72EC70113
:1055000061E00E94FD46C7010E94D03B0CE515E01A
:10551000C80161E00E941869C80162E00E94D66675
:10552000C70166EF76E00E942243C70160E040E0D9
:1055300020E00E94093D10925304109252041092F0
:1055400057041092560467E9E62E65E0F62EC7016F
:105550000E945F140FEC15E0C801B7010E94D71438
:10556000C801B8010E94D7141F910F91FF90EF90CE
:1055700008958F929F92AF92BF92CF92DF92EF9257
:10558000FF920F931F93DF93CF93CDB7DEB7629750
:105590000FB6F894DEBF0FBECDBF87E995E00E943D
:1055A0002C138823F1F04E010894811C911CC40136
:1055B00067E975E00E943F1485E090E063E270E0E7
:1055C00048E250E026E430E08401EE24FF24EFEFCF
:1055D000CE2ED12CAA24BB240E941118C4010E94F3
:1055E000B0718FEC95E00E942C138823F9F0B7E09E
:1055F0008B2E912C8C0E9D1EC4016FEC75E00E94C9
:105600003F1485E090E065E570E048E250E028E76F
:1056100030E08401EE24FF24AFEFCA2ED12CAA245F
:10562000BB240E941118C4010E94B07187E096E06B
:105630000E942C138823F9F0FDE08F2E912C8C0E04
:105640009D1EC40167E076E00E943F1485E090E073
:1056500067E870E048E250E02AEA30E08401EE2496
:10566000FF24EFEFCE2ED12CAA24BB240E941118C8
:10567000C4010E94B07162960FB6F894DEBF0FBEEF
:10568000CDBFCF91DF911F910F91FF90EF90DF90F1
:10569000CF90BF90AF909F908F900895AF92BF92A0
:1056A000CF92DF92EF92FF920F931F93DF93CF93EE
:1056B000CDB7DEB72C970FB6F894DEBF0FBECDBFC7
:1056C00060911705709118058091190590911A0540
:1056D0000E9468170E9458290E94B92A0E94FD6DF5
:1056E00020911705309118054091190550911A0520
:1056F000621B730B840B950B20914E0430914F0469
:105700004091500450915104621773078407950724
:1057100068F10E94FD6D60931705709318058093E2
:10572000190590931A050E94DB178BE195E00E9402
:10573000422C5B016C017E010894E11CF11CC70145
:105740000E941C178E01095F1F4FC8010E9433166B
:10575000C601B501A70198010E94E11BC8010E9482
:10576000B071C7010E94B0710E94AB192C960FB6A0
:10577000F894DEBF0FBECDBFCF91DF911F910F9187
:10578000FF90EF90DF90CF90BF90AF900895AF92D1
:10579000BF92CF92DF92EF92FF920F931F93DF930E
:1057A000CF93CDB7DEB72C970FB6F894DEBF0FBE00
:1057B000CDBF0E94772A0E94DB170BE115E0C801DC
:1057C0000E94602CC8010E94422C5B016C017E018A
:1057D0000894E11CF11CC7010E941C178E01095F8F
:1057E0001F4FC8010E943316C601B501A7019801D9
:1057F0000E943F26C8010E94B071C7010E94B0718B
:105800002C960FB6F894DEBF0FBECDBFCF91DF91BF
:105810001F910F91FF90EF90DF90CF90BF90AF90CE
:1058200008950F931F930FE316E0C80163E10E94F0
:10583000712E8DE496E0B8010E941B6A1F910F91B2
:105840000895EF92FF920F931F937C010DE416E0F1
:10585000C8010E942F6CB7016C5F7F4FC8010E9486
:10586000606CF70160837183828393830E94FD6D76
:10587000F70164877587868797871F910F91FF903F
:10588000EF900895CF93DF93EC010E94FD6D2C857E
:105890003D854E855F85621B730B840B950B6156AE
:1058A0007A4E8040904018F0CE010E94212C288131
:1058B00039814A815B81B901CA01DF91CF91089595
:1058C000CF92DF92EF92FF920F931F938C019DE492
:1058D000E92E96E0F92EC7010E944C6D84E0C82E97
:1058E000D12CC00ED11EC701B60140E00E941E6D32
:1058F000C701B60149E00E94CA6CC8010E94212C70
:105900001F910F91FF90EF90DF90CF900895FC01D1
:1059100013861586148687E090E0128631970097EB
:1059200011F00197FACF0895DC0180E00BC0E82F59
:10593000F0E08D9190E0E827F927E258FE4FE491DE
:1059400061508E2F662399F70895DF92EF92FF92B0
:105950000F931F93FC01E08001811281F894F801FC
:1059600081818E2981838281DE2CD0948D21828356
:1059700083E090E00E940B6EF80181818D2181838C
:105980008AE090E00E940B6EF8010081789485E334
:1059900090E00E940B6E80E010E0FF240E211F219A
:1059A000012B09F081E01F910F91FF90EF90DF90A4
:1059B0000895EF92FF920F931F93CF93DF937C0193
:1059C00001E010E0C0E0D0E0C7010E94A52C8111E9
:1059D000102B000F2196C830D105B1F7812FDF9130
:1059E000CF911F910F91FF90EF9008951F93CF9348
:1059F000DF93FC011081C181D281912F909560FFCE
:105A000012C0F8948A8189238A838981812B8983B2
:105A10008AE090E00E940B6E8A81812B8A837894C1
:105A200087E390E011C0F8948A8189238A83898171
:105A3000812B898381E490E00E940B6E8A81812B07
:105A40008A83789485E090E00E940B6EDF91CF917D
:105A50001F910895CF92DF92EF92FF920F931F93C1
:105A6000CF93DF938C01E42EFF24F394C0E0D0E0C9
:105A7000C62EDD2460E08F2D90E08C219D21892BA6
:105A800009F061E0C8010E94F62CFF0C2196C83095
:105A9000D10581F7EE20A9F4F894D8011196ED9183
:105AA000FC91129791818C91809598239183119606
:105AB000ED91FC91129792818C918095982392831D
:105AC0007894DF91CF911F910F91FF90EF90DF902D
:105AD000CF9008956CEC40E00E942A2D0895EF923B
